{
    "_format": "hh-sol-artifact-1",
    "contractName": "GotchiLendingFacet",
    "sourceName": "contracts/Aavegotchi/facets/GotchiLendingFacet.sol",
    "abi": [
        {
            "anonymous": false,
            "inputs": [
                {
                    "indexed": true,
                    "internalType": "uint32",
                    "name": "listingId",
                    "type": "uint32"
                }
            ],
            "name": "GotchiLendingAdd",
            "type": "event"
        },
        {
            "anonymous": false,
            "inputs": [
                {
                    "indexed": true,
                    "internalType": "uint32",
                    "name": "listingId",
                    "type": "uint32"
                }
            ],
            "name": "GotchiLendingEnd",
            "type": "event"
        },
        {
            "anonymous": false,
            "inputs": [
                {
                    "indexed": true,
                    "internalType": "uint32",
                    "name": "listingId",
                    "type": "uint32"
                }
            ],
            "name": "GotchiLendingExecute",
            "type": "event"
        },
        {
            "inputs": [
                {
                    "internalType": "uint32",
                    "name": "_erc721TokenId",
                    "type": "uint32"
                },
                {
                    "internalType": "uint96",
                    "name": "_initialCost",
                    "type": "uint96"
                },
                {
                    "internalType": "uint32",
                    "name": "_period",
                    "type": "uint32"
                },
                {
                    "internalType": "uint8[3]",
                    "name": "_revenueSplit",
                    "type": "uint8[3]"
                },
                {
                    "internalType": "address",
                    "name": "_originalOwner",
                    "type": "address"
                },
                {
                    "internalType": "address",
                    "name": "_thirdParty",
                    "type": "address"
                },
                {
                    "internalType": "uint32",
                    "name": "_whitelistId",
                    "type": "uint32"
                },
                {
                    "internalType": "address[]",
                    "name": "_revenueTokens",
                    "type": "address[]"
                }
            ],
            "name": "addGotchiLending",
            "outputs": [],
            "stateMutability": "nonpayable",
            "type": "function"
        },
        {
            "inputs": [
                {
                    "internalType": "uint32",
                    "name": "_listingId",
                    "type": "uint32"
                },
                {
                    "internalType": "uint32",
                    "name": "_erc721TokenId",
                    "type": "uint32"
                },
                {
                    "internalType": "uint96",
                    "name": "_initialCost",
                    "type": "uint96"
                },
                {
                    "internalType": "uint32",
                    "name": "_period",
                    "type": "uint32"
                },
                {
                    "internalType": "uint8[3]",
                    "name": "_revenueSplit",
                    "type": "uint8[3]"
                }
            ],
            "name": "agreeGotchiLending",
            "outputs": [],
            "stateMutability": "nonpayable",
            "type": "function"
        },
        {
            "inputs": [
                {
                    "internalType": "uint32",
                    "name": "_listingId",
                    "type": "uint32"
                }
            ],
            "name": "cancelGotchiLending",
            "outputs": [],
            "stateMutability": "nonpayable",
            "type": "function"
        },
        {
            "inputs": [
                {
                    "internalType": "uint32",
                    "name": "_erc721TokenId",
                    "type": "uint32"
                }
            ],
            "name": "cancelGotchiLendingByToken",
            "outputs": [],
            "stateMutability": "nonpayable",
            "type": "function"
        },
        {
            "inputs": [
                {
                    "internalType": "uint32",
                    "name": "_tokenId",
                    "type": "uint32"
                }
            ],
            "name": "claimAndEndGotchiLending",
            "outputs": [],
            "stateMutability": "nonpayable",
            "type": "function"
        },
        {
            "inputs": [
                {
                    "internalType": "uint32",
                    "name": "_tokenId",
                    "type": "uint32"
                }
            ],
            "name": "claimGotchiLending",
            "outputs": [],
            "stateMutability": "nonpayable",
            "type": "function"
        },
        {
            "inputs": [
                {
                    "internalType": "uint32",
                    "name": "_erc721TokenId",
                    "type": "uint32"
                }
            ],
            "name": "getGotchiLendingFromToken",
            "outputs": [
                {
                    "components": [
                        {
                            "internalType": "address",
                            "name": "lender",
                            "type": "address"
                        },
                        {
                            "internalType": "uint96",
                            "name": "initialCost",
                            "type": "uint96"
                        },
                        {
                            "internalType": "address",
                            "name": "borrower",
                            "type": "address"
                        },
                        {
                            "internalType": "uint32",
                            "name": "listingId",
                            "type": "uint32"
                        },
                        {
                            "internalType": "uint32",
                            "name": "erc721TokenId",
                            "type": "uint32"
                        },
                        {
                            "internalType": "uint32",
                            "name": "whitelistId",
                            "type": "uint32"
                        },
                        {
                            "internalType": "address",
                            "name": "originalOwner",
                            "type": "address"
                        },
                        {
                            "internalType": "uint40",
                            "name": "timeCreated",
                            "type": "uint40"
                        },
                        {
                            "internalType": "uint40",
                            "name": "timeAgreed",
                            "type": "uint40"
                        },
                        {
                            "internalType": "bool",
                            "name": "canceled",
                            "type": "bool"
                        },
                        {
                            "internalType": "bool",
                            "name": "completed",
                            "type": "bool"
                        },
                        {
                            "internalType": "address",
                            "name": "thirdParty",
                            "type": "address"
                        },
                        {
                            "internalType": "uint8[3]",
                            "name": "revenueSplit",
                            "type": "uint8[3]"
                        },
                        {
                            "internalType": "uint40",
                            "name": "lastClaimed",
                            "type": "uint40"
                        },
                        {
                            "internalType": "uint32",
                            "name": "period",
                            "type": "uint32"
                        },
                        {
                            "internalType": "address[]",
                            "name": "revenueTokens",
                            "type": "address[]"
                        }
                    ],
                    "internalType": "struct GotchiLending",
                    "name": "listing_",
                    "type": "tuple"
                }
            ],
            "stateMutability": "view",
            "type": "function"
        },
        {
            "inputs": [
                {
                    "internalType": "uint32",
                    "name": "_erc721TokenId",
                    "type": "uint32"
                }
            ],
            "name": "getGotchiLendingIdByToken",
            "outputs": [
                {
                    "internalType": "uint32",
                    "name": "",
                    "type": "uint32"
                }
            ],
            "stateMutability": "view",
            "type": "function"
        },
        {
            "inputs": [
                {
                    "internalType": "uint32",
                    "name": "_listingId",
                    "type": "uint32"
                }
            ],
            "name": "getGotchiLendingListingInfo",
            "outputs": [
                {
                    "components": [
                        {
                            "internalType": "address",
                            "name": "lender",
                            "type": "address"
                        },
                        {
                            "internalType": "uint96",
                            "name": "initialCost",
                            "type": "uint96"
                        },
                        {
                            "internalType": "address",
                            "name": "borrower",
                            "type": "address"
                        },
                        {
                            "internalType": "uint32",
                            "name": "listingId",
                            "type": "uint32"
                        },
                        {
                            "internalType": "uint32",
                            "name": "erc721TokenId",
                            "type": "uint32"
                        },
                        {
                            "internalType": "uint32",
                            "name": "whitelistId",
                            "type": "uint32"
                        },
                        {
                            "internalType": "address",
                            "name": "originalOwner",
                            "type": "address"
                        },
                        {
                            "internalType": "uint40",
                            "name": "timeCreated",
                            "type": "uint40"
                        },
                        {
                            "internalType": "uint40",
                            "name": "timeAgreed",
                            "type": "uint40"
                        },
                        {
                            "internalType": "bool",
                            "name": "canceled",
                            "type": "bool"
                        },
                        {
                            "internalType": "bool",
                            "name": "completed",
                            "type": "bool"
                        },
                        {
                            "internalType": "address",
                            "name": "thirdParty",
                            "type": "address"
                        },
                        {
                            "internalType": "uint8[3]",
                            "name": "revenueSplit",
                            "type": "uint8[3]"
                        },
                        {
                            "internalType": "uint40",
                            "name": "lastClaimed",
                            "type": "uint40"
                        },
                        {
                            "internalType": "uint32",
                            "name": "period",
                            "type": "uint32"
                        },
                        {
                            "internalType": "address[]",
                            "name": "revenueTokens",
                            "type": "address[]"
                        }
                    ],
                    "internalType": "struct GotchiLending",
                    "name": "listing_",
                    "type": "tuple"
                },
                {
                    "components": [
                        {
                            "internalType": "uint256",
                            "name": "tokenId",
                            "type": "uint256"
                        },
                        {
                            "internalType": "string",
                            "name": "name",
                            "type": "string"
                        },
                        {
                            "internalType": "address",
                            "name": "owner",
                            "type": "address"
                        },
                        {
                            "internalType": "uint256",
                            "name": "randomNumber",
                            "type": "uint256"
                        },
                        {
                            "internalType": "uint256",
                            "name": "status",
                            "type": "uint256"
                        },
                        {
                            "internalType": "int16[6]",
                            "name": "numericTraits",
                            "type": "int16[6]"
                        },
                        {
                            "internalType": "int16[6]",
                            "name": "modifiedNumericTraits",
                            "type": "int16[6]"
                        },
                        {
                            "internalType": "uint16[16]",
                            "name": "equippedWearables",
                            "type": "uint16[16]"
                        },
                        {
                            "internalType": "address",
                            "name": "collateral",
                            "type": "address"
                        },
                        {
                            "internalType": "address",
                            "name": "escrow",
                            "type": "address"
                        },
                        {
                            "internalType": "uint256",
                            "name": "stakedAmount",
                            "type": "uint256"
                        },
                        {
                            "internalType": "uint256",
                            "name": "minimumStake",
                            "type": "uint256"
                        },
                        {
                            "internalType": "uint256",
                            "name": "kinship",
                            "type": "uint256"
                        },
                        {
                            "internalType": "uint256",
                            "name": "lastInteracted",
                            "type": "uint256"
                        },
                        {
                            "internalType": "uint256",
                            "name": "experience",
                            "type": "uint256"
                        },
                        {
                            "internalType": "uint256",
                            "name": "toNextLevel",
                            "type": "uint256"
                        },
                        {
                            "internalType": "uint256",
                            "name": "usedSkillPoints",
                            "type": "uint256"
                        },
                        {
                            "internalType": "uint256",
                            "name": "level",
                            "type": "uint256"
                        },
                        {
                            "internalType": "uint256",
                            "name": "hauntId",
                            "type": "uint256"
                        },
                        {
                            "internalType": "uint256",
                            "name": "baseRarityScore",
                            "type": "uint256"
                        },
                        {
                            "internalType": "uint256",
                            "name": "modifiedRarityScore",
                            "type": "uint256"
                        },
                        {
                            "internalType": "bool",
                            "name": "locked",
                            "type": "bool"
                        },
                        {
                            "components": [
                                {
                                    "internalType": "uint256",
                                    "name": "balance",
                                    "type": "uint256"
                                },
                                {
                                    "internalType": "uint256",
                                    "name": "itemId",
                                    "type": "uint256"
                                },
                                {
                                    "components": [
                                        {
                                            "internalType": "string",
                                            "name": "name",
                                            "type": "string"
                                        },
                                        {
                                            "internalType": "string",
                                            "name": "description",
                                            "type": "string"
                                        },
                                        {
                                            "internalType": "string",
                                            "name": "author",
                                            "type": "string"
                                        },
                                        {
                                            "internalType": "int8[6]",
                                            "name": "traitModifiers",
                                            "type": "int8[6]"
                                        },
                                        {
                                            "internalType": "bool[16]",
                                            "name": "slotPositions",
                                            "type": "bool[16]"
                                        },
                                        {
                                            "internalType": "uint8[]",
                                            "name": "allowedCollaterals",
                                            "type": "uint8[]"
                                        },
                                        {
                                            "components": [
                                                {
                                                    "internalType": "uint8",
                                                    "name": "x",
                                                    "type": "uint8"
                                                },
                                                {
                                                    "internalType": "uint8",
                                                    "name": "y",
                                                    "type": "uint8"
                                                },
                                                {
                                                    "internalType": "uint8",
                                                    "name": "width",
                                                    "type": "uint8"
                                                },
                                                {
                                                    "internalType": "uint8",
                                                    "name": "height",
                                                    "type": "uint8"
                                                }
                                            ],
                                            "internalType": "struct Dimensions",
                                            "name": "dimensions",
                                            "type": "tuple"
                                        },
                                        {
                                            "internalType": "uint256",
                                            "name": "ghstPrice",
                                            "type": "uint256"
                                        },
                                        {
                                            "internalType": "uint256",
                                            "name": "maxQuantity",
                                            "type": "uint256"
                                        },
                                        {
                                            "internalType": "uint256",
                                            "name": "totalQuantity",
                                            "type": "uint256"
                                        },
                                        {
                                            "internalType": "uint32",
                                            "name": "svgId",
                                            "type": "uint32"
                                        },
                                        {
                                            "internalType": "uint8",
                                            "name": "rarityScoreModifier",
                                            "type": "uint8"
                                        },
                                        {
                                            "internalType": "bool",
                                            "name": "canPurchaseWithGhst",
                                            "type": "bool"
                                        },
                                        {
                                            "internalType": "uint16",
                                            "name": "minLevel",
                                            "type": "uint16"
                                        },
                                        {
                                            "internalType": "bool",
                                            "name": "canBeTransferred",
                                            "type": "bool"
                                        },
                                        {
                                            "internalType": "uint8",
                                            "name": "category",
                                            "type": "uint8"
                                        },
                                        {
                                            "internalType": "int16",
                                            "name": "kinshipBonus",
                                            "type": "int16"
                                        },
                                        {
                                            "internalType": "uint32",
                                            "name": "experienceBonus",
                                            "type": "uint32"
                                        }
                                    ],
                                    "internalType": "struct ItemType",
                                    "name": "itemType",
                                    "type": "tuple"
                                }
                            ],
                            "internalType": "struct ItemTypeIO[]",
                            "name": "items",
                            "type": "tuple[]"
                        }
                    ],
                    "internalType": "struct AavegotchiInfo",
                    "name": "aavegotchiInfo_",
                    "type": "tuple"
                }
            ],
            "stateMutability": "view",
            "type": "function"
        },
        {
            "inputs": [
                {
                    "internalType": "bytes32",
                    "name": "_status",
                    "type": "bytes32"
                },
                {
                    "internalType": "uint256",
                    "name": "_length",
                    "type": "uint256"
                }
            ],
            "name": "getGotchiLendings",
            "outputs": [
                {
                    "components": [
                        {
                            "internalType": "address",
                            "name": "lender",
                            "type": "address"
                        },
                        {
                            "internalType": "uint96",
                            "name": "initialCost",
                            "type": "uint96"
                        },
                        {
                            "internalType": "address",
                            "name": "borrower",
                            "type": "address"
                        },
                        {
                            "internalType": "uint32",
                            "name": "listingId",
                            "type": "uint32"
                        },
                        {
                            "internalType": "uint32",
                            "name": "erc721TokenId",
                            "type": "uint32"
                        },
                        {
                            "internalType": "uint32",
                            "name": "whitelistId",
                            "type": "uint32"
                        },
                        {
                            "internalType": "address",
                            "name": "originalOwner",
                            "type": "address"
                        },
                        {
                            "internalType": "uint40",
                            "name": "timeCreated",
                            "type": "uint40"
                        },
                        {
                            "internalType": "uint40",
                            "name": "timeAgreed",
                            "type": "uint40"
                        },
                        {
                            "internalType": "bool",
                            "name": "canceled",
                            "type": "bool"
                        },
                        {
                            "internalType": "bool",
                            "name": "completed",
                            "type": "bool"
                        },
                        {
                            "internalType": "address",
                            "name": "thirdParty",
                            "type": "address"
                        },
                        {
                            "internalType": "uint8[3]",
                            "name": "revenueSplit",
                            "type": "uint8[3]"
                        },
                        {
                            "internalType": "uint40",
                            "name": "lastClaimed",
                            "type": "uint40"
                        },
                        {
                            "internalType": "uint32",
                            "name": "period",
                            "type": "uint32"
                        },
                        {
                            "internalType": "address[]",
                            "name": "revenueTokens",
                            "type": "address[]"
                        }
                    ],
                    "internalType": "struct GotchiLending[]",
                    "name": "listings_",
                    "type": "tuple[]"
                }
            ],
            "stateMutability": "view",
            "type": "function"
        },
        {
            "inputs": [
                {
                    "internalType": "uint32",
                    "name": "_listingId",
                    "type": "uint32"
                }
            ],
            "name": "getLendingListingInfo",
            "outputs": [
                {
                    "components": [
                        {
                            "internalType": "address",
                            "name": "lender",
                            "type": "address"
                        },
                        {
                            "internalType": "uint96",
                            "name": "initialCost",
                            "type": "uint96"
                        },
                        {
                            "internalType": "address",
                            "name": "borrower",
                            "type": "address"
                        },
                        {
                            "internalType": "uint32",
                            "name": "listingId",
                            "type": "uint32"
                        },
                        {
                            "internalType": "uint32",
                            "name": "erc721TokenId",
                            "type": "uint32"
                        },
                        {
                            "internalType": "uint32",
                            "name": "whitelistId",
                            "type": "uint32"
                        },
                        {
                            "internalType": "address",
                            "name": "originalOwner",
                            "type": "address"
                        },
                        {
                            "internalType": "uint40",
                            "name": "timeCreated",
                            "type": "uint40"
                        },
                        {
                            "internalType": "uint40",
                            "name": "timeAgreed",
                            "type": "uint40"
                        },
                        {
                            "internalType": "bool",
                            "name": "canceled",
                            "type": "bool"
                        },
                        {
                            "internalType": "bool",
                            "name": "completed",
                            "type": "bool"
                        },
                        {
                            "internalType": "address",
                            "name": "thirdParty",
                            "type": "address"
                        },
                        {
                            "internalType": "uint8[3]",
                            "name": "revenueSplit",
                            "type": "uint8[3]"
                        },
                        {
                            "internalType": "uint40",
                            "name": "lastClaimed",
                            "type": "uint40"
                        },
                        {
                            "internalType": "uint32",
                            "name": "period",
                            "type": "uint32"
                        },
                        {
                            "internalType": "address[]",
                            "name": "revenueTokens",
                            "type": "address[]"
                        }
                    ],
                    "internalType": "struct GotchiLending",
                    "name": "listing_",
                    "type": "tuple"
                }
            ],
            "stateMutability": "view",
            "type": "function"
        },
        {
            "inputs": [
                {
                    "internalType": "address",
                    "name": "_lender",
                    "type": "address"
                },
                {
                    "internalType": "bytes32",
                    "name": "_status",
                    "type": "bytes32"
                },
                {
                    "internalType": "uint256",
                    "name": "_length",
                    "type": "uint256"
                }
            ],
            "name": "getOwnerGotchiLendings",
            "outputs": [
                {
                    "components": [
                        {
                            "internalType": "address",
                            "name": "lender",
                            "type": "address"
                        },
                        {
                            "internalType": "uint96",
                            "name": "initialCost",
                            "type": "uint96"
                        },
                        {
                            "internalType": "address",
                            "name": "borrower",
                            "type": "address"
                        },
                        {
                            "internalType": "uint32",
                            "name": "listingId",
                            "type": "uint32"
                        },
                        {
                            "internalType": "uint32",
                            "name": "erc721TokenId",
                            "type": "uint32"
                        },
                        {
                            "internalType": "uint32",
                            "name": "whitelistId",
                            "type": "uint32"
                        },
                        {
                            "internalType": "address",
                            "name": "originalOwner",
                            "type": "address"
                        },
                        {
                            "internalType": "uint40",
                            "name": "timeCreated",
                            "type": "uint40"
                        },
                        {
                            "internalType": "uint40",
                            "name": "timeAgreed",
                            "type": "uint40"
                        },
                        {
                            "internalType": "bool",
                            "name": "canceled",
                            "type": "bool"
                        },
                        {
                            "internalType": "bool",
                            "name": "completed",
                            "type": "bool"
                        },
                        {
                            "internalType": "address",
                            "name": "thirdParty",
                            "type": "address"
                        },
                        {
                            "internalType": "uint8[3]",
                            "name": "revenueSplit",
                            "type": "uint8[3]"
                        },
                        {
                            "internalType": "uint40",
                            "name": "lastClaimed",
                            "type": "uint40"
                        },
                        {
                            "internalType": "uint32",
                            "name": "period",
                            "type": "uint32"
                        },
                        {
                            "internalType": "address[]",
                            "name": "revenueTokens",
                            "type": "address[]"
                        }
                    ],
                    "internalType": "struct GotchiLending[]",
                    "name": "listings_",
                    "type": "tuple[]"
                }
            ],
            "stateMutability": "view",
            "type": "function"
        },
        {
            "inputs": [
                {
                    "internalType": "uint32",
                    "name": "_erc721TokenId",
                    "type": "uint32"
                }
            ],
            "name": "isAavegotchiLent",
            "outputs": [
                {
                    "internalType": "bool",
                    "name": "",
                    "type": "bool"
                }
            ],
            "stateMutability": "view",
            "type": "function"
        }
    ],
    "bytecode": "0x608060405234801561001057600080fd5b5061585a80620000216000396000f3fe608060405234801561001057600080fd5b50600436106100cf5760003560e01c8063d6795a271161008c578063f0b09e3b11610066578063f0b09e3b146101bf578063f7b4edda146101d2578063fc02e4ee146101e5578063ffa7802d14610205576100cf565b8063d6795a2714610179578063d731d44e1461018c578063df4a0912146101ac576100cf565b806310e02d92146100d4578063113df564146100fd57806311ff17991461011d5780636368cb211461013057806385c3c3cf14610151578063ae0c8bd814610166575b600080fd5b6100e76100e236600461413e565b610218565b6040516100f49190614976565b60405180910390f35b61011061010b3660046141c9565b6104f7565b6040516100f491906152a2565b6100e761012b366004614190565b610709565b61014361013e3660046141c9565b6109d2565b6040516100f49291906152b5565b61016461015f3660046141e3565b610bee565b005b6101646101743660046141c9565b6110d0565b610164610187366004614248565b611296565b61019f61019a3660046141c9565b61191c565b6040516100f491906149d6565b6101106101ba3660046141c9565b61192f565b6101646101cd3660046141c9565b611b29565b6101646101e03660046141c9565b611b3d565b6101f86101f33660046141c9565b611b4e565b6040516100f49190615443565b6101646102133660046141c9565b611b69565b6001600160a01b038316600090815260496020908152604080832085845290915290205460609063ffffffff168267ffffffffffffffff81111561026c57634e487b7160e01b600052604160045260246000fd5b6040519080825280602002602001820160405280156102a557816020015b610292613d3b565b81526020019060019003908161028a5790505b50915060005b63ffffffff8216158015906102bf57508381105b156104ed5763ffffffff828116600090815260426020908152604080832081516102008101835281546001600160a01b038082168352600160a01b918290046001600160601b0316958301959095526001830154808616838601528181048816606080850191909152600160c01b820489166080850152600160e01b90910490971660a0830152600283015480861660c084015290810464ffffffffff90811660e0840152600160c81b820416610100830152600160f01b810460ff9081161515610120840152600160f81b90910416151561014082015260038083015490941661016082015282519586019283905294909361018086019391926004860192918390855b825461010083900a900460ff168152602060019283018181049485019490930390920291018084116103c457505050928452505050600582015464ffffffffff8116602080840191909152600160281b90910463ffffffff16604080840191909152600684018054825181850281018501909352808352606090940193919290919083018282801561047f57602002820191906000526020600020905b81546001600160a01b03168152600190910190602001808311610461575b5050505050815250508382815181106104a857634e487b7160e01b600052603260045260246000fd5b602090810291909101810191909152600086815260488252604080822063ffffffff9586168352909252206002015490911690806104e5816157cf565b9150506102ab565b8252509392505050565b6104ff613d3b565b63ffffffff808316600090815260436020526040902054168061053d5760405162461bcd60e51b81526004016105349061525e565b60405180910390fd5b63ffffffff818116600090815260426020908152604080832081516102008101835281546001600160a01b038082168352600160a01b918290046001600160601b0316958301959095526001830154808616838601528181048816606080850191909152600160c01b820489166080850152600160e01b90910490971660a0830152600283015480861660c084015290810464ffffffffff90811660e0840152600160c81b820416610100830152600160f01b810460ff9081161515610120840152600160f81b90910416151561014082015260038083015490941661016082015282519586019283905294909361018086019391926004860192918390855b825461010083900a900460ff1681526020600192830181810494850194909303909202910180841161063d57505050928452505050600582015464ffffffffff8116602080840191909152600160281b90910463ffffffff1660408084019190915260068401805482518185028101850190935280835260609094019391929091908301828280156106f857602002820191906000526020600020905b81546001600160a01b031681526001909101906020018083116106da575b505050505081525050915050919050565b60008281526047602052604090205460609063ffffffff168267ffffffffffffffff81111561074857634e487b7160e01b600052604160045260246000fd5b60405190808252806020026020018201604052801561078157816020015b61076e613d3b565b8152602001906001900390816107665790505b50915060005b63ffffffff82161580159061079b57508381105b156109c95763ffffffff828116600090815260426020908152604080832081516102008101835281546001600160a01b038082168352600160a01b918290046001600160601b0316958301959095526001830154808616838601528181048816606080850191909152600160c01b820489166080850152600160e01b90910490971660a0830152600283015480861660c084015290810464ffffffffff90811660e0840152600160c81b820416610100830152600160f01b810460ff9081161515610120840152600160f81b90910416151561014082015260038083015490941661016082015282519586019283905294909361018086019391926004860192918390855b825461010083900a900460ff168152602060019283018181049485019490930390920291018084116108a057505050928452505050600582015464ffffffffff8116602080840191909152600160281b90910463ffffffff16604080840191909152600684018054825181850281018501909352808352606090940193919290919083018282801561095b57602002820191906000526020600020905b81546001600160a01b0316815260019091019060200180831161093d575b50505050508152505083828151811061098457634e487b7160e01b600052603260045260246000fd5b602090810291909101810191909152600086815260468252604080822063ffffffff9586168352909252206002015490911690806109c1816157cf565b915050610787565b82525092915050565b6109da613d3b565b6109e2613dc2565b63ffffffff838116600090815260426020908152604080832081516102008101835281546001600160a01b038082168352600160a01b918290046001600160601b0316958301959095526001830154808616838601528181048816606080850191909152600160c01b820489166080850152600160e01b90910490971660a0830152600283015480861660c084015290810464ffffffffff90811660e0840152600160c81b820416610100830152600160f01b810460ff9081161515610120840152600160f81b90910416151561014082015260038083015490941661016082015282519586019283905294909361018086019391926004860192918390855b825461010083900a900460ff16815260206001928301818104948501949093039092029101808411610ae257505050928452505050600582015464ffffffffff8116602080840191909152600160281b90910463ffffffff166040808401919091526006840180548251818502810185019093528083526060909401939192909190830182828015610b9d57602002820191906000526020600020905b81546001600160a01b03168152600190910190602001808311610b7f575b50505050508152505091508160e0015164ffffffffff1660001415610bd45760405162461bcd60e51b81526004016105349061512e565b610be7826080015163ffffffff16611c14565b9050915091565b63ffffffff851660009081526042602052604090206002810154600160a01b900464ffffffffff16610c325760405162461bcd60e51b815260040161053490614b5c565b6002810154600160c81b900464ffffffffff1615610c625760405162461bcd60e51b815260040161053490614b91565b6002810154600160f01b900460ff1615610c8e5760405162461bcd60e51b815260040161053490614da0565b600181015463ffffffff868116600160c01b9092041614610cc15760405162461bcd60e51b815260040161053490614fe4565b80546001600160601b03858116600160a01b9092041614610cf45760405162461bcd60e51b815260040161053490614a48565b600581015463ffffffff848116600160281b9092041614610d275760405162461bcd60e51b815260040161053490614f52565b60005b6003811015610dd157828160038110610d5357634e487b7160e01b600052603260045260246000fd5b602002016020810190610d66919061432f565b60ff16826004018260038110610d8c57634e487b7160e01b600052603260045260246000fd5b602081049091015460ff601f9092166101000a90041614610dbf5760405162461bcd60e51b815260040161053490614e55565b80610dc9816157cf565b915050610d2a565b506000610ddc611fd8565b82549091506001600160a01b03908116908216811415610e0e5760405162461bcd60e51b815260040161053490614cf1565b6001830154600160e01b900463ffffffff1615610e79576001830154600160e01b900463ffffffff166000908152604b602090815260408083206001600160a01b038616845290915290205460ff16610e795760405162461bcd60e51b815260040161053490615094565b8254600160a01b90046001600160601b031615610f6e578254601a546040516370a0823160e01b8152600160a01b9092046001600160601b0316916001600160a01b03909116906370a0823190610ed4908690600401614895565b60206040518083038186803b158015610eec57600080fd5b505afa158015610f00573d6000803e3d6000fd5b505050506040513d601f19601f82011682018060405250810190610f2491906141b1565b1015610f425760405162461bcd60e51b815260040161053490614ad4565b601a548354610f6e916001600160a01b03169084908490600160a01b90046001600160601b0316612035565b6001830180546001600160a01b0319166001600160a01b03841617905560028301805464ffffffffff60c81b1916600160c81b4264ffffffffff1602179055610fc18189651b1a5cdd195960d21b612116565b610fd58189651859dc99595960d21b6123a7565b6001838101546001600160a01b0383166000908152604460208181526040808420805460458452828620600160c01b90970463ffffffff908116808852978552928620805463ffffffff1916918416919091179055928252825495860183559183529091206008840401805460079094166004026101000a9182021990931690820217909155611066828483612527565b6001600160a01b038084166000908152603f602090815260408083209386168352929052818120805460ff19166001179055905163ffffffff8b16917f28d7b849b5b1af16b5f1e07a41673a69940182a65953874032dc5e5698170f9691a2505050505050505050565b63ffffffff80821660009081526043602052604090205416806111055760405162461bcd60e51b815260040161053490614b5c565b63ffffffff8116600090815260426020526040812090611123611fd8565b825460018401549192506001600160a01b0390811691811690831682148061115c5750826001600160a01b0316816001600160a01b0316145b6111785760405162461bcd60e51b815260040161053490614d38565b6005840154600285015442916111aa91600160281b90910463ffffffff1690600160c81b900464ffffffffff166154f1565b64ffffffffff1611156111cf5760405162461bcd60e51b815260040161053490614c21565b6111d885612831565b63ffffffff86166000818152600d60205260409020600a01805460ff60d01b191690556112089082908490612527565b6002840180546001600160f81b0316600160f81b17905563ffffffff86166000908152604360205260409020805463ffffffff191690556112498683612cda565b61125d8286651859dc99595960d21b612116565b60405163ffffffff8616907fd5052ec7f019796e5e27e648ce0dcc5514bdb14fb483caf83830b61f09f9a5bc90600090a2505050505050565b63ffffffff89166000818152600d60205260409020600a01546001600160a01b03166112c0611fd8565b6001600160a01b0316146112e65760405162461bcd60e51b815260040161053490615173565b60006112f0611fd8565b90506001600160a01b0387166113185760405162461bcd60e51b8152600401610534906149f4565b60008963ffffffff161161133e5760405162461bcd60e51b815260040161053490614f97565b6301e133808963ffffffff1611156113685760405162461bcd60e51b815260040161053490614dd7565b6113786060890160408a0161432f565b61138860408a0160208b0161432f565b61139560208b018b61432f565b61139f919061551a565b6113a9919061551a565b60ff166064146113cb5760405162461bcd60e51b815260040161053490614e99565b6001600160a01b038616611409576113e96060890160408a0161432f565b60ff16156114095760405162461bcd60e51b815260040161053490614eea565b604a5463ffffffff8616111580611424575063ffffffff8516155b6114405760405162461bcd60e51b815260040161053490615052565b63ffffffff8b166000908152600d60205260409020600a0154600160a01b900460ff166003146114825760405162461bcd60e51b815260040161053490614e0e565b600a8311156114a35760405162461bcd60e51b815260040161053490615218565b63ffffffff808c166000908152604360205260409020541680156114d0576114cb8183612f08565b611510565b63ffffffff8c166000908152600d60205260409020600a0154600160d01b900460ff16156115105760405162461bcd60e51b8152600401610534906150da565b6041805463ffffffff16906000611526836157ea565b91906101000a81548163ffffffff021916908363ffffffff1602179055505060008060410160009054906101000a900463ffffffff16905080600060430160008f63ffffffff1663ffffffff16815260200190815260200160002060006101000a81548163ffffffff021916908363ffffffff160217905550604051806102000160405280846001600160a01b031681526020018d6001600160601b0316815260200160006001600160a01b031681526020018263ffffffff1681526020018e63ffffffff1681526020018863ffffffff1681526020018a6001600160a01b031681526020014264ffffffffff168152602001600064ffffffffff168152602001600015158152602001600015158152602001896001600160a01b031681526020018b60038060200260405190810160405280929190826003602002808284376000920182905250928452505060208083019190915263ffffffff8e1660408084019190915280518983028181018401909252898152606090930192918a918a91829190850190849080828437600092018290525093909452505063ffffffff84811682526042602090815260409283902085518154928701516001600160a01b03199384166001600160a01b03928316178216600160a01b6001600160601b0390921682021783559487015160018301805460608a015160808b015160a08c01519288169486169490941763ffffffff60a01b191690881689021763ffffffff60c01b1916600160c01b93881693909302929092176001600160e01b0316600160e01b92909616919091029490941790935560c086015160028201805460e08901516101008a01516101208b01516101408c01519388169589169590951764ffffffffff60a01b191664ffffffffff9283169099029890981764ffffffffff60c81b1916600160c81b91909816029690961760ff60f01b1916600160f01b92151592909202919091176001600160f81b0316600160f81b9515159590950294909417909355610160850151600380850180549093169190931617905561018084015191925061183a916004840191613e9f565b506101a08201516005820180546101c085015163ffffffff16600160281b0268ffffffff00000000001964ffffffffff90941664ffffffffff1990921691909117929092169190911790556101e082015180516118a1916006840191602090910190613f32565b509050506118b98382651b1a5cdd195960d21b6123a7565b63ffffffff808e166000908152600d6020526040808220600a01805460ff60d01b1916600160d01b17905551918316917fd2235b2f5daa2ac7ea851058a8b86b1e44cfa6c4904167f59114707b2574a87d9190a250505050505050505050505050565b600061192782613095565b90505b919050565b611937613d3b565b63ffffffff828116600090815260426020908152604080832081516102008101835281546001600160a01b038082168352600160a01b918290046001600160601b0316958301959095526001830154808616838601528181048816606080850191909152600160c01b820489166080850152600160e01b90910490971660a0830152600283015480861660c084015290810464ffffffffff90811660e0840152600160c81b820416610100830152600160f01b810460ff9081161515610120840152600160f81b90910416151561014082015260038083015490941661016082015282519586019283905294909361018086019391926004860192918390855b825461010083900a900460ff16815260206001928301818104948501949093039092029101808411611a3757505050928452505050600582015464ffffffffff8116602080840191909152600160281b90910463ffffffff166040808401919091526006840180548251818502810185019093528083526060909401939192909190830182828015611af257602002820191906000526020600020905b81546001600160a01b03168152600190910190602001808311611ad4575b50505050508152505090508060e0015164ffffffffff166000141561192a5760405162461bcd60e51b81526004016105349061512e565b611b3a81611b35611fd8565b612f08565b50565b611b3a81611b49611fd8565b61313b565b63ffffffff9081166000908152604360205260409020541690565b63ffffffff8082166000908152604360205260409020541680611b9e5760405162461bcd60e51b815260040161053490614b5c565b63ffffffff8116600090815260426020526040812090611bbc611fd8565b82549091506001600160a01b0380831691161480611be9575060018201546001600160a01b038281169116145b611c055760405162461bcd60e51b815260040161053490614c6c565b611c0e83612831565b50505050565b611c1c613dc2565b6000611c2661316c565b8383526000848152600d820160208181526040808420600a8101546001600160a01b0381169289019290925260048101546060890152600160a01b90910460ff16608088019081529388905291905260090154600160f01b900461ffff166102408501525190915060031415611fd2576000838152600d8201602052604090206003018054611cb49061579a565b80601f0160208091040260200160405190810160405280929190818152602001828054611ce09061579a565b8015611d2d5780601f10611d0257610100808354040283529160200191611d2d565b820191906000526020600020905b815481529060010190602001808311611d1057829003601f168201915b50505050506020838101919091526000848152600d8301909152604080822081516102008101928390529290916010918390855b82829054906101000a900461ffff1661ffff1681526020019060020190602082600101049283019260010382029150808411611d6157505050505060e0840191909152506000838152600d82016020818152604080842060098101546001600160a01b0390811661010089019081529589905293909252600b9091015482166101208601819052925190516370a0823160e01b81529116916370a0823191611e0c9190600401614895565b60206040518083038186803b158015611e2457600080fd5b505afa158015611e38573d6000803e3d6000fd5b505050506040513d601f19601f82011682018060405250810190611e5c91906141b1565b6101408301526000838152600d82016020526040902060060154610160830152611e8583613171565b6101808301526000838152600d8201602081815260408320600a810154600160a81b900464ffffffffff166101a0870152600501546101c086018190529286905252611ed0906131e8565b6101e08301526000838152600d82016020526040902060050154611ef39061321e565b6102208301526000838152600d820160208181526040808420600781015461020088015287855292909152805160c081019182905292600290920191600691908390855b82829054906101000a900460010b60010b81526020019060020190602082600101049283019260010382029150808411611f3757505050505060a0840182905250611f819061325f565b610260830152611f90836132e7565b61028084015260c08301526000838152600d820160205260409020600a0154600160d01b900460ff1615156102a0830152611fcb30846134cb565b6102c08301525b50919050565b60003330141561202f57600080368080601f0160208091040260200160405190810160405280939291908181526020018383808284376000920191909152505050503601516001600160a01b031691506120329050565b50335b90565b833b806120545760405162461bcd60e51b815260040161053490614a8b565b600080866001600160a01b03166323b872dd60e01b87878760405160240161207e939291906148c3565b60408051601f198184030181529181526020820180516001600160e01b03166001600160e01b03199094169390931790925290516120bc9190614879565b6000604051808303816000865af19150503d80600081146120f9576040519150601f19603f3d011682016040523d82523d6000602084013e6120fe565b606091505b509150915061210d8282613ac2565b50505050505050565b600061212061316c565b6000838152604682016020908152604080832063ffffffff8816845290915290206001810154919250906121555750506123a2565b805463ffffffff16801561219e576000848152604684016020908152604080832063ffffffff808616855292529091206002808501549101805463ffffffff1916919092161790555b600282015463ffffffff1680156121e5576000858152604685016020908152604080832063ffffffff808616855292529091208454815463ffffffff191692169190911790555b600085815260478501602052604090205463ffffffff8781169116141561223357600283015460008681526047860160205260409020805463ffffffff191663ffffffff9092169190911790555b600060018401819055835463ffffffff19908116855560029094018054909416909355848352604884016020908152604080852063ffffffff898116875292529093208054909316915081156122be576000858152604885016020908152604080832063ffffffff808716855292529091206002808601549101805463ffffffff1916919092161790555b50600282015463ffffffff168015612306576000858152604885016020908152604080832063ffffffff808616855292529091208454815463ffffffff191692169190911790555b6001600160a01b0387166000908152604985016020908152604080832088845290915290205463ffffffff8781169116141561237e5760028301546001600160a01b038816600090815260498601602090815260408083208984529091529020805463ffffffff191663ffffffff9092169190911790555b505060006001820155805463ffffffff199081168255600290910180549091169055505b505050565b60006123b161316c565b6001600160a01b0385166000908152604982016020908152604080832086845290915290205490915063ffffffff16801561241b576000838152604883016020908152604080832063ffffffff85811685529252909120805463ffffffff19169186169190911790555b6000838152604883016020908152604080832063ffffffff80891680865291845282852060028101805497831663ffffffff199889161790556001600160a01b038b16865260498801855283862089875285528386208054909716831790965560018601919091556047860190925290912054169081156124cb576000848152604684016020908152604080832063ffffffff86811685529252909120805463ffffffff19169187169190911790555b506000838152604683016020908152604080832063ffffffff9788168085529083528184206002810180549690991663ffffffff1996871617909855958352604790940190529190912080549091168217905560019091015550565b600061253161316c565b6001600160a01b0385166000818152600f830160209081526040808320878452825280832054938352600e8501909152812054929350909161257590600190615757565b9050808214612681576001600160a01b0386166000908152600e8401602052604081208054839081106125b857634e487b7160e01b600052603260045260246000fd5b90600052602060002090600891828204019190066004029054906101000a900463ffffffff1690508084600e016000896001600160a01b03166001600160a01b03168152602001908152602001600020848154811061262757634e487b7160e01b600052603260045260246000fd5b600091825260208083206008830401805460079093166004026101000a63ffffffff8181021990941695841602949094179093556001600160a01b038a168252600f87018352604080832094909116825292909152208290555b6001600160a01b0386166000908152600e8401602052604090208054806126b857634e487b7160e01b600052603160045260246000fd5b60008281526020808220600860001990940193840401805463ffffffff600460078716026101000a0219169055919092556001600160a01b038089168352600f860182526040808420888552835280842084905560138701909252912054161561277057600084815260138401602052604080822080546001600160a01b0319169055518591906001600160a01b038916907f8c5be1e5ebec7d5bd14f71427d1e84f3dd0314c0f7b2291e5b200ac8c7c3b925908390a45b6000848152600d840160209081526040808320600a0180546001600160a01b0319166001600160a01b038a8116918217909255808552600e88018085528386208054600f8b0187528588208c8952875285882081905591865260018201815586529385206008850401805460079095166004026101000a63ffffffff81810219909616958b16029490941790935590518793918a16917fddf252ad1be2c89b69c2b068fc378daa952ba7f163c4a11628f55a4df523b3ef91a4505050505050565b600061283b61316c565b63ffffffff83166000908152604282016020526040812060068101549293509167ffffffffffffffff81111561288157634e487b7160e01b600052604160045260246000fd5b6040519080825280602002602001820160405280156128aa578160200160208202803683370190505b506001830154600160c01b900463ffffffff166000908152600d850160205260409020600b01549091506001600160a01b0316806128fa5760405162461bcd60e51b8152600401610534906151d0565b6001830154600160c01b900463ffffffff166000908152600d850160205260408120600901546001600160a01b0316905b6006850154811015612c7357600085600601828154811061295c57634e487b7160e01b600052603260045260246000fd5b60009182526020822001546040516370a0823160e01b81526001600160a01b03909116925082906370a0823190612997908890600401614895565b60206040518083038186803b1580156129af57600080fd5b505afa1580156129c3573d6000803e3d6000fd5b505050506040513d601f19601f820116820180604052508101906129e791906141b1565b9050816001600160a01b0316846001600160a01b03161480612a07575080155b15612a3f576000868481518110612a2e57634e487b7160e01b600052603260045260246000fd5b602002602001018181525050612c5e565b80868481518110612a6057634e487b7160e01b600052603260045260246000fd5b6020908102919091010152604051636eb1769f60e11b815281906001600160a01b0384169063dd62ed3e90612a9b90899030906004016148a9565b60206040518083038186803b158015612ab357600080fd5b505afa158015612ac7573d6000803e3d6000fd5b505050506040513d601f19601f82011682018060405250810190612aeb91906141b1565b1015612b5057604051632ce7500560e01b81526001600160a01b03861690632ce7500590612b1d908590600401614895565b600060405180830381600087803b158015612b3757600080fd5b505af1158015612b4b573d6000803e3d6000fd5b505050505b6004870154600090606490612b689060ff16846156f9565b612b72919061553f565b6004890154909150600090606490612b9290610100900460ff16856156f9565b612b9c919061553f565b60028a01549091506000906001600160a01b031615612bc85760028a01546001600160a01b0316612bd4565b89546001600160a01b03165b9050612be285898386612035565b60018a0154612bfe9086908a906001600160a01b031685612035565b60038a01546001600160a01b031615612c5a5760048a0154600090606490612c2f9062010000900460ff16876156f9565b612c39919061553f565b60038c0154909150612c589087908b906001600160a01b031684612035565b505b5050505b50508080612c6b906157cf565b91505061292b565b5060058401805464ffffffffff19164264ffffffffff1617905560405163ffffffff8716907f1be58214962a8cbd7ef85ef7b78dea02db2550cb988db85331a45d63032e177290612cca90600688019087906148e7565b60405180910390a2505050505050565b6000612ce461316c565b6001600160a01b0383166000818152604583016020908152604080832063ffffffff808a16855290835281842054948452604486019092528220549394509190911691612d3390600190615757565b90508063ffffffff168263ffffffff1614612e68576001600160a01b03841660009081526044840160205260408120805463ffffffff8416908110612d8857634e487b7160e01b600052603260045260246000fd5b90600052602060002090600891828204019190066004029054906101000a900463ffffffff16905080846044016000876001600160a01b03166001600160a01b031681526020019081526020016000208463ffffffff1681548110612dfd57634e487b7160e01b600052603260045260246000fd5b600091825260208083206008830401805460079093166004026101000a63ffffffff8181021990941695841602949094179093556001600160a01b0388168252604587018352604080832094821683529390925291909120805463ffffffff19169184169190911790555b6001600160a01b03841660009081526044840160205260409020805480612e9f57634e487b7160e01b600052603160045260246000fd5b60008281526020808220600860001990940193840401805463ffffffff600460078716026101000a810219909116909155929093556001600160a01b03909616865260459094018152604080862096909416855294909452509020805463ffffffff1916905550565b6000612f1261316c565b63ffffffff841660009081526042820160205260409020600281015491925090600160a01b900464ffffffffff16612f5c5760405162461bcd60e51b815260040161053490614b5c565b6002810154600160f01b900460ff1615612f77575050613091565b6002810154600160c81b900464ffffffffff1615612fa75760405162461bcd60e51b815260040161053490614b91565b80546001600160a01b03848116911614612fd35760405162461bcd60e51b81526004016105349061501b565b60028101805460ff60f01b1916600160f01b179055612ffc8385651b1a5cdd195960d21b612116565b60018101805463ffffffff600160c01b9182900481166000908152600d860160209081526040808320600a01805460ff60d01b19169055945493909304821681526043860190925290829020805463ffffffff191690559051908516907f58bf86d7321ca96f6873fbd24682c06a141b27bb3c7daa42393eb177d6da8d419061308690439061543a565b60405180910390a250505b5050565b6000806130a061316c565b63ffffffff808516600090815260438301602052604090205491925016806130cd5760009250505061192a565b63ffffffff8116600090815260428301602052604090206002810154600160a01b900464ffffffffff16158061311357506002810154600160c81b900464ffffffffff16155b15613124576000935050505061192a565b60020154600160f81b900460ff1615949350505050565b600061314561316c565b63ffffffff80851660009081526043830160205260409020549192506123a2911683612f08565b600090565b60008061317c61316c565b6000848152600d820160205260408120600a81015460088201549394509092600160a81b90910464ffffffffff16916131b58342615757565b905060006131c6620151808361553f565b9050808311156131dd576131da8184615757565b96505b505050505050919050565b6000806131f48361321e565b9050826132026002836155a5565b61320d9060326156f9565b6132179190615757565b9392505050565b600062077a428211156132335750606361192a565b600a6132486132438460026156f9565b613b3d565b613252919061553f565b90506119278160016154d9565b6000805b6006811015611fd257600083826006811061328e57634e487b7160e01b600052603260045260246000fd5b602002015160010b9050603281126132bc576132ab8160016154d9565b6132b590846154d9565b92506132d4565b6132c7816064615718565b6132d190846154d9565b92505b50806132df816157cf565b915050613263565b6132ef613f87565b6000806132fa61316c565b6000858152600d820160205260409020600a0154909150600160a01b900460ff1660031461333a5760405162461bcd60e51b815260040161053490614cbc565b6000848152600d82016020526040902061335385613b90565b93506000805b60108110156134a857600083826010811061338457634e487b7160e01b600052603260045260246000fd5b601081049190910154600f9091166002026101000a900461ffff169050806133ac5750613496565b60008560060182815481106133d157634e487b7160e01b600052603260045260246000fd5b90600052602060002090600b0201905060005b60068110156134765781600301816006811061341057634e487b7160e01b600052603260045260246000fd5b602091828204019190069054906101000a900460000b60000b89826006811061344957634e487b7160e01b600052603260045260246000fd5b6020020181815161345a9190615454565b600190810b900b9052508061346e816157cf565b9150506133e4565b50600a81015461349190640100000000900460ff16856154d9565b935050505b806134a0816157cf565b915050613359565b5060006134b48661325f565b90506134c082826154d9565b945050505050915091565b606060006134d761316c565b6001600160a01b038516600090815260048201602090815260408083208784529091529020549091508067ffffffffffffffff81111561352757634e487b7160e01b600052604160045260246000fd5b60405190808252806020026020018201604052801561356057816020015b61354d613fa5565b8152602001906001900390816135455790505b50925060005b81811015613ab9576001600160a01b0386166000908152600484016020908152604080832088845290915281208054839081106135b357634e487b7160e01b600052603260045260246000fd5b60009182526020808320909101546001600160a01b038a16835260038701825260408084208a85528352808420828552909252912054865191925090829087908590811061361157634e487b7160e01b600052603260045260246000fd5b602002602001015160200181815250508086848151811061364257634e487b7160e01b600052603260045260246000fd5b6020908102919091010151526006850180548390811061367257634e487b7160e01b600052603260045260246000fd5b90600052602060002090600b02016040518061024001604052908160008201805461369c9061579a565b80601f01602080910402602001604051908101604052809291908181526020018280546136c89061579a565b80156137155780601f106136ea57610100808354040283529160200191613715565b820191906000526020600020905b8154815290600101906020018083116136f857829003601f168201915b5050505050815260200160018201805461372e9061579a565b80601f016020809104026020016040519081016040528092919081815260200182805461375a9061579a565b80156137a75780601f1061377c576101008083540402835291602001916137a7565b820191906000526020600020905b81548152906001019060200180831161378a57829003601f168201915b505050505081526020016002820180546137c09061579a565b80601f01602080910402602001604051908101604052809291908181526020018280546137ec9061579a565b80156138395780601f1061380e57610100808354040283529160200191613839565b820191906000526020600020905b81548152906001019060200180831161381c57829003601f168201915b50505091835250506040805160c0810191829052602090920191906003840190600690826000855b82829054906101000a900460000b60000b815260200190600101906020826000010492830192600103820291508084116138615750505092845250506040805161020081019182905260209093019291506004840190601090826000855b825461010083900a900460ff1615158152602060019283018181049485019490930390920291018084116138bf579050505050505081526020016005820180548060200260200160405190810160405280929190818152602001828054801561396557602002820191906000526020600020906000905b825461010083900a900460ff168152602060019283018181049485019490930390920291018084116139365790505b50505091835250506040805160808082018352600685015460ff808216845261010080830482166020868101919091526201000084048316868801526301000000909304821660608087019190915292870194909452600787015494860194909452600886015490850152600985015490840152600a9093015463ffffffff80821660a08501526401000000008204831660c0850152600160281b82048316151560e085015261ffff6601000000000000830416948401949094526801000000000000000081048216151561012084015269010000000000000000008104909116610140830152600160501b8104600190810b810b900b610160830152600160601b9004909116610180909101528651879085908110613a9557634e487b7160e01b600052603260045260246000fd5b60200260200101516040018190525050508080613ab1906157cf565b915050613566565b50505092915050565b8115613b0457805115613aff5780806020019051810190613ae39190614170565b613aff5760405162461bcd60e51b815260040161053490614b0b565b613091565b805115613b25578060405162461bcd60e51b815260040161053491906149e1565b60405162461bcd60e51b815260040161053490614bd6565b6000806002613b4d8460016154d9565b613b57919061553f565b90508291505b81811015611fd257905080600281613b75818661553f565b613b7f91906154d9565b613b89919061553f565b9050613b5d565b613b98613f87565b6000613ba261316c565b6000848152600d82016020526040812060090154919250906201518090613bd790600160c81b900464ffffffffff1642615757565b613be1919061553f565b905060005b6006811015613d33576000858152600d8401602052604081206002018260068110613c2157634e487b7160e01b600052603260045260246000fd5b601091828204019190066002029054906101000a900460010b60010b9050600084600d0160008881526020019081526020016000206001018360068110613c7857634e487b7160e01b600052603260045260246000fd5b602091828204019190069054906101000a900460000b60000b9050600081138015613ca257508381135b15613cc257613cb18482615718565b613cbb9083615498565b9150613cec565b83613ccf82600019615676565b1315613cec57613cdf8482615498565b613ce99083615498565b91505b81868460068110613d0d57634e487b7160e01b600052603260045260246000fd5b602002019060010b908160010b8152505050508080613d2b906157cf565b915050613be6565b505050919050565b6040805161020081018252600080825260208201819052918101829052606081018290526080810182905260a0810182905260c0810182905260e081018290526101008101829052610120810182905261014081018290526101608101919091526101808101613da9613fcb565b8152600060208201819052604082015260609081015290565b604051806102e00160405280600081526020016060815260200160006001600160a01b031681526020016000815260200160008152602001613e02613f87565b8152602001613e0f613f87565b8152602001613e1c613fe9565b815260200160006001600160a01b0316815260200160006001600160a01b031681526020016000815260200160008152602001600081526020016000815260200160008152602001600081526020016000815260200160008152602001600081526020016000815260200160008152602001600015158152602001606081525090565b600183019183908215613f225791602002820160005b83821115613ef357835183826101000a81548160ff021916908360ff1602179055509260200192600101602081600001049283019260010302613eb5565b8015613f205782816101000a81549060ff0219169055600101602081600001049283019260010302613ef3565b505b50613f2e929150614008565b5090565b828054828255906000526020600020908101928215613f22579160200282015b82811115613f2257825182546001600160a01b0319166001600160a01b03909116178255602090920191600190910190613f52565b6040518060c001604052806006906020820280368337509192915050565b60405180606001604052806000815260200160008152602001613fc661401d565b905290565b60405180606001604052806003906020820280368337509192915050565b6040518061020001604052806010906020820280368337509192915050565b5b80821115613f2e5760008155600101614009565b604051806102400160405280606081526020016060815260200160608152602001614046613f87565b8152602001614053613fe9565b8152602001606081526020016140676140be565b815260006020820181905260408201819052606082018190526080820181905260a0820181905260c0820181905260e082018190526101008201819052610120820181905261014082018190526101609091015290565b60408051608081018252600080825260208201819052918101829052606081019190915290565b80356001600160a01b038116811461192a57600080fd5b806060810183101561410d57600080fd5b92915050565b803563ffffffff8116811461192a57600080fd5b80356001600160601b038116811461192a57600080fd5b600080600060608486031215614152578283fd5b61415b846140e5565b95602085013595506040909401359392505050565b600060208284031215614181578081fd5b81518015158114613217578182fd5b600080604083850312156141a2578182fd5b50508035926020909101359150565b6000602082840312156141c2578081fd5b5051919050565b6000602082840312156141da578081fd5b61321782614113565b600080600080600060e086880312156141fa578081fd5b61420386614113565b945061421160208701614113565b935061421f60408701614127565b925061422d60608701614113565b915061423c87608088016140fc565b90509295509295909350565b60008060008060008060008060006101408a8c031215614266578384fd5b61426f8a614113565b985061427d60208b01614127565b975061428b60408b01614113565b965061429a8b60608c016140fc565b95506142a860c08b016140e5565b94506142b660e08b016140e5565b93506142c56101008b01614113565b92506101208a013567ffffffffffffffff808211156142e2578384fd5b818c0191508c601f8301126142f5578384fd5b813581811115614303578485fd5b8d60208083028501011115614316578485fd5b6020830194508093505050509295985092959850929598565b600060208284031215614340578081fd5b813560ff81168114613217578182fd5b6001600160a01b0316815260200190565b6001600160a01b03169052565b6000815180845260208085019450808401835b838110156143a65781516001600160a01b031687529582019590820190600101614381565b509495945050505050565b8060005b6010811015611c0e57815115158452602093840193909101906001016143b5565b8060005b6006811015611c0e578151600190810b855260209485019490920191016143da565b806000805b6006811015614422578251820b855260209485019490920191600101614401565b5050505050565b6000815180845260208085018081965082840281019150828601855b858110156146065782840389528151606081518652868201518787015260408083015192508181880152825161052080848a01526144876105808a018361469f565b915089850151605f196080818c860301818d01526144a5858461469f565b945085880151955060a09250818c860301838d01526144c4858761469f565b9688015196955060c094506144db8c8601886143fc565b87015195506101806144ef8c8201886143b1565b828801519650818c8703016103808d015261450a8688614660565b96508488015195506145206103a08d01876146cb565b60e08801516104208d01526101008801516104408d01526101208801516104608d015261014088015195506145596104808d0187614850565b610160880151955061456f6104a08d0187614865565b87015194506145859150506104c08a0184614692565b6101a0850151925061459b6104e08a0184614848565b6101c085015192506145b16105008a0184614692565b6101e085015192506145c5818a0184614865565b5050506102008201516145dc610540880182614698565b5061022082015191506145f3610560870183614850565b9986019994505090840190600101614445565b5091979650505050505050565b8060005b6010811015611c0e57815161ffff16845260209384019390910190600101614617565b8060005b6003811015611c0e57815160ff1684526020938401939091019060010161463e565b6000815180845260208085019450808401835b838110156143a657815160ff1687529582019590820190600101614673565b15159052565b60010b9052565b600081518084526146b781602086016020860161576e565b601f01601f19169290920160200192915050565b60ff815116825260ff602082015116602083015260ff604082015116604083015260ff60608201511660608301525050565b600061024061470d848451614361565b602083015161471f602086018261486c565b5060408301516147326040860182614361565b5060608301516147456060860182614850565b5060808301516147586080860182614850565b5060a083015161476b60a0860182614850565b5060c083015161477e60c0860182614361565b5060e083015161479160e086018261485a565b50610100808401516147a58287018261485a565b5050610120808401516147ba82870182614692565b5050610140808401516147cf82870182614692565b5050610160808401516147e482870182614361565b5050610180808401516147f98287018261463a565b50506101a08301516101e06148108187018361485a565b6101c08501519150614826610200870183614850565b8401516102208601839052905061483f8583018261436e565b95945050505050565b61ffff169052565b63ffffffff169052565b64ffffffffff169052565b60ff169052565b6001600160601b03169052565b6000825161488b81846020870161576e565b9190910192915050565b6001600160a01b0391909116815260200190565b6001600160a01b0392831681529116602082015260400190565b6001600160a01b039384168152919092166020820152604081019190915260600190565b6000604082016040835280855480835260608501915086845260209250828420845b828110156149355781546149279085906001600160a01b0316614350565b935060019182019101614909565b50505083810382850152845180825285830191830190845b818110156149695783518352928401929184019160010161494d565b5090979650505050505050565b6000602080830181845280855180835260408601915060408482028701019250838701855b828110156149c957603f198886030184526149b78583516146fd565b9450928501929085019060010161499b565b5092979650505050505050565b901515815260200190565b600060208252613217602083018461469f565b60208082526034908201527f476f746368694c656e64696e673a204f726967696e616c206f776e65722063616040820152736e6e6f74206265207a65726f206164647265737360601b606082015260800190565b60208082526023908201527f476f746368694c656e64696e673a20496e76616c696420696e697469616c20636040820152621bdcdd60ea1b606082015260800190565b60208082526029908201527f4c696245524332303a20455243323020746f6b656e206164647265737320686160408201526873206e6f20636f646560b81b606082015260800190565b6020808252601e908201527f476f746368694c656e64696e673a204e6f7420656e6f75676820474853540000604082015260600190565b60208082526031908201527f4c696245524332303a207472616e73666572206f72207472616e7366657246726040820152706f6d2072657475726e65642066616c736560781b606082015260800190565b6020808252818101527f476f746368694c656e64696e673a204c697374696e67206e6f7420666f756e64604082015260600190565b60208082526025908201527f476f746368694c656e64696e673a204c697374696e6720616c7265616479206160408201526419dc99595960da1b606082015260800190565b6020808252602b908201527f4c696245524332303a207472616e73666572206f72207472616e73666572467260408201526a1bdb481c995d995c9d195960aa1b606082015260800190565b6020808252602b908201527f476f746368694c656e64696e673a204e6f7420616c6c6f77656420647572696e60408201526a19c81859dc99595b595b9d60aa1b606082015260800190565b60208082526030908201527f476f746368694c656e64696e673a204f6e6c79206c656e646572206f7220626f60408201526f72726f7765722063616e20636c61696d60801b606082015260800190565b6020808252818101527f41617665676f7463686946616365743a204d75737420626520636c61696d6564604082015260600190565b60208082526027908201527f476f746368694c656e64696e673a20426f72726f7765722063616e2774206265604082015266103632b73232b960c91b606082015260800190565b60208082526042908201527f476f746368694c656e64696e673a204f6e6c79206c656e646572206f7220626f60408201527f72726f7765722063616e20636c61696d20616e6420656e642061677265656d656060820152611b9d60f21b608082015260a00190565b6020808252601f908201527f476f746368694c656e64696e673a204c697374696e672063616e63656c656400604082015260600190565b6020808252601e908201527f476f746368694c656e64696e673a20506572696f6420746f6f206c6f6e670000604082015260600190565b60208082526027908201527f476f746368694c656e64696e673a2043616e206f6e6c79206c656e642041617660408201526665676f7463686960c81b606082015260800190565b60208082526024908201527f476f746368694c656e64696e673a20496e76616c696420726576656e756520736040820152631c1b1a5d60e21b606082015260800190565b60208082526031908201527f476f746368694c656e64696e673a2053756d206f6620726576656e756520737060408201527006c69742073686f756c642062652031303607c1b606082015260800190565b60208082526042908201527f476f746368694c656e64696e673a20526576656e75652073706c697420666f7260408201527f20696e76616c696420746869726450617274792073686f756c64206265207a65606082015261726f60f01b608082015260a00190565b60208082526025908201527f476f746368694c656e64696e673a20496e76616c6964206c656e64696e672070604082015264195c9a5bd960da1b606082015260800190565b6020808252602d908201527f476f746368694c656e64696e673a20506572696f642073686f756c642062652060408201526c06c6172676572207468616e203609c1b606082015260800190565b6020808252601f908201527f476f746368694c656e64696e673a20496e76616c696420746f6b656e20696400604082015260600190565b60208082526019908201527f476f746368694c656e64696e673a204e6f74206c656e64657200000000000000604082015260600190565b60208082526022908201527f476f746368694c656e64696e673a2057686974656c697374206e6f7420666f756040820152611b9960f21b606082015260800190565b60208082526026908201527f476f746368694c656e64696e673a204e6f742077686974656c6973746564206160408201526564647265737360d01b606082015260800190565b60208082526034908201527f476f746368694c656e64696e673a204f6e6c792063616c6c61626c65206f6e20604082015273756e6c6f636b65642041617665676f746368697360601b606082015260800190565b60208082526025908201527f476f746368694c656e64696e673a204c697374696e6720646f6573206e6f7420604082015264195e1a5cdd60da1b606082015260800190565b6020808252603b908201527f4c696241707053746f726167653a204f6e6c792061617665676f74636869206f60408201527f776e65722063616e2063616c6c20746869732066756e6374696f6e0000000000606082015260800190565b60208082526028908201527f4c6962476f746368694c656e64696e673a20457363726f77206973207a65726f604082015267206164647265737360c01b606082015260800190565b60208082526026908201527f476f746368694c656e64696e673a20546f6f206d616e7920726576656e756520604082015265746f6b656e7360d01b606082015260800190565b60208082526024908201527f476f746368694c656e64696e673a204c697374696e6720646f65736e277420656040820152631e1a5cdd60e21b606082015260800190565b60006020825261321760208301846146fd565b6000604082526152c860408301856146fd565b82810360208401526106008451825260208501518160208401526152ee8284018261469f565b91505060408501516153036040840182614361565b50606085015160608301526080850151608083015260a085015161532a60a08401826143d6565b5060c085015161016061533f818501836143d6565b60e0870151915061022061535581860184614613565b610100880151925061536b610420860184614361565b6101208801519250615381610440860184614361565b610140880151610460860152908701516104808501526101808701516104a08501526101a08701516104c08501526101c08701516104e08501526101e0870151610500850152610200870151610520850152860151610540840152506102408501516105608301526102608501516105808301526102808501516105a08301526102a08501516154156105c0840182614692565b506102c08501518282036105e084015261542f8282614429565b979650505050505050565b90815260200190565b63ffffffff91909116815260200190565b60008160010b8360010b82821282617fff038213811516156154785761547861580e565b82617fff1903821281161561548f5761548f61580e565b50019392505050565b600080821280156001600160ff1b03849003851316156154ba576154ba61580e565b600160ff1b83900384128116156154d3576154d361580e565b50500190565b600082198211156154ec576154ec61580e565b500190565b600064ffffffffff8083168185168083038211156155115761551161580e565b01949350505050565b600060ff821660ff84168060ff038211156155375761553761580e565b019392505050565b60008261555a57634e487b7160e01b81526012600452602481fd5b500490565b80825b6001808611615571575061559c565b8187048211156155835761558361580e565b8086161561559057918102915b9490941c938002615562565b94509492505050565b600061321760001960ff8516846000826155c157506001613217565b816155ce57506000613217565b81600181146155e457600281146155ee5761561b565b6001915050613217565b60ff8411156155ff576155ff61580e565b6001841b9150848211156156155761561561580e565b50613217565b5060208310610133831016604e8410600b841016171561564e575081810a838111156156495761564961580e565b613217565b61565b848484600161555f565b80860482111561566d5761566d61580e565b02949350505050565b60006001600160ff1b038184138284138082168684048611161561569c5761569c61580e565b600160ff1b848712828116878305891216156156ba576156ba61580e565b8587129250878205871284841616156156d5576156d561580e565b878505871281841616156156eb576156eb61580e565b505050929093029392505050565b60008160001904831182151516156157135761571361580e565b500290565b60008083128015600160ff1b8501841216156157365761573661580e565b6001600160ff1b03840183138116156157515761575161580e565b50500390565b6000828210156157695761576961580e565b500390565b60005b83811015615789578181015183820152602001615771565b83811115611c0e5750506000910152565b6002810460018216806157ae57607f821691505b60208210811415611fd257634e487b7160e01b600052602260045260246000fd5b60006000198214156157e3576157e361580e565b5060010190565b600063ffffffff808316818114156158045761580461580e565b6001019392505050565b634e487b7160e01b600052601160045260246000fdfea2646970667358221220af2d8d52ef205936973df3d0f90ab8cfe1e3c799475cfcd38bb4527eb63e386664736f6c63430008010033",
    "linkReferences": {},
    "deployedLinkReferences": {}
}