{
  "_format": "hh-sol-artifact-1",
  "contractName": "AavegotchiGameFacet",
  "sourceName": "contracts/Aavegotchi/facets/AavegotchiGameFacet.sol",
  "abi": [
    {
      "anonymous": false,
      "inputs": [
        {
          "indexed": true,
          "internalType": "uint256",
          "name": "_tokenId",
          "type": "uint256"
        }
      ],
      "name": "ClaimAavegotchi",
      "type": "event"
    },
    {
      "anonymous": false,
      "inputs": [
        {
          "indexed": true,
          "internalType": "uint256",
          "name": "_tokenId",
          "type": "uint256"
        },
        {
          "indexed": false,
          "internalType": "uint256",
          "name": "_time",
          "type": "uint256"
        }
      ],
      "name": "LockAavegotchi",
      "type": "event"
    },
    {
      "anonymous": false,
      "inputs": [
        {
          "indexed": true,
          "internalType": "uint256",
          "name": "_tokenId",
          "type": "uint256"
        },
        {
          "indexed": false,
          "internalType": "string",
          "name": "_oldName",
          "type": "string"
        },
        {
          "indexed": false,
          "internalType": "string",
          "name": "_newName",
          "type": "string"
        }
      ],
      "name": "SetAavegotchiName",
      "type": "event"
    },
    {
      "anonymous": false,
      "inputs": [
        {
          "indexed": true,
          "internalType": "uint256",
          "name": "_batchId",
          "type": "uint256"
        },
        {
          "indexed": false,
          "internalType": "uint256[]",
          "name": "tokenIds",
          "type": "uint256[]"
        }
      ],
      "name": "SetBatchId",
      "type": "event"
    },
    {
      "anonymous": false,
      "inputs": [
        {
          "indexed": true,
          "internalType": "uint256",
          "name": "_tokenId",
          "type": "uint256"
        },
        {
          "indexed": false,
          "internalType": "int16[4]",
          "name": "_values",
          "type": "int16[4]"
        }
      ],
      "name": "SpendSkillpoints",
      "type": "event"
    },
    {
      "anonymous": false,
      "inputs": [
        {
          "indexed": true,
          "internalType": "uint256",
          "name": "_tokenId",
          "type": "uint256"
        },
        {
          "indexed": false,
          "internalType": "uint256",
          "name": "_time",
          "type": "uint256"
        }
      ],
      "name": "UnLockAavegotchi",
      "type": "event"
    },
    {
      "inputs": [
        {
          "internalType": "uint32",
          "name": "_experience",
          "type": "uint32"
        }
      ],
      "name": "aavegotchiLevel",
      "outputs": [
        {
          "internalType": "uint256",
          "name": "level_",
          "type": "uint256"
        }
      ],
      "stateMutability": "pure",
      "type": "function"
    },
    {
      "inputs": [
        {
          "internalType": "string",
          "name": "_name",
          "type": "string"
        }
      ],
      "name": "aavegotchiNameAvailable",
      "outputs": [
        {
          "internalType": "bool",
          "name": "available_",
          "type": "bool"
        }
      ],
      "stateMutability": "view",
      "type": "function"
    },
    {
      "inputs": [
        {
          "internalType": "uint256",
          "name": "_tokenId",
          "type": "uint256"
        }
      ],
      "name": "availableSkillPoints",
      "outputs": [
        {
          "internalType": "uint256",
          "name": "",
          "type": "uint256"
        }
      ],
      "stateMutability": "view",
      "type": "function"
    },
    {
      "inputs": [
        {
          "internalType": "int16[6]",
          "name": "_numericTraits",
          "type": "int16[6]"
        }
      ],
      "name": "baseRarityScore",
      "outputs": [
        {
          "internalType": "uint256",
          "name": "rarityScore_",
          "type": "uint256"
        }
      ],
      "stateMutability": "pure",
      "type": "function"
    },
    {
      "inputs": [
        {
          "internalType": "uint256",
          "name": "_tokenId",
          "type": "uint256"
        },
        {
          "internalType": "uint256",
          "name": "_option",
          "type": "uint256"
        },
        {
          "internalType": "uint256",
          "name": "_stakeAmount",
          "type": "uint256"
        }
      ],
      "name": "claimAavegotchi",
      "outputs": [],
      "stateMutability": "nonpayable",
      "type": "function"
    },
    {
      "inputs": [],
      "name": "currentHaunt",
      "outputs": [
        {
          "internalType": "uint16",
          "name": "hauntId_",
          "type": "uint16"
        },
        {
          "components": [
            {
              "internalType": "uint256",
              "name": "hauntMaxSize",
              "type": "uint256"
            },
            {
              "internalType": "uint256",
              "name": "portalPrice",
              "type": "uint256"
            },
            {
              "internalType": "bytes3",
              "name": "bodyColor",
              "type": "bytes3"
            },
            {
              "internalType": "uint24",
              "name": "totalCount",
              "type": "uint24"
            }
          ],
          "internalType": "struct Haunt",
          "name": "haunt_",
          "type": "tuple"
        }
      ],
      "stateMutability": "view",
      "type": "function"
    },
    {
      "inputs": [
        {
          "internalType": "uint256",
          "name": "_tokenId",
          "type": "uint256"
        }
      ],
      "name": "getNumericTraits",
      "outputs": [
        {
          "internalType": "int16[6]",
          "name": "numericTraits_",
          "type": "int16[6]"
        }
      ],
      "stateMutability": "view",
      "type": "function"
    },
    {
      "inputs": [],
      "name": "ghstAddress",
      "outputs": [
        {
          "internalType": "address",
          "name": "contract_",
          "type": "address"
        }
      ],
      "stateMutability": "view",
      "type": "function"
    },
    {
      "inputs": [
        {
          "internalType": "uint256[]",
          "name": "_tokenIds",
          "type": "uint256[]"
        }
      ],
      "name": "interact",
      "outputs": [],
      "stateMutability": "nonpayable",
      "type": "function"
    },
    {
      "inputs": [
        {
          "internalType": "uint256",
          "name": "_tokenId",
          "type": "uint256"
        }
      ],
      "name": "kinship",
      "outputs": [
        {
          "internalType": "uint256",
          "name": "score_",
          "type": "uint256"
        }
      ],
      "stateMutability": "view",
      "type": "function"
    },
    {
      "inputs": [
        {
          "internalType": "uint256",
          "name": "_tokenId",
          "type": "uint256"
        }
      ],
      "name": "modifiedTraitsAndRarityScore",
      "outputs": [
        {
          "internalType": "int16[6]",
          "name": "numericTraits_",
          "type": "int16[6]"
        },
        {
          "internalType": "uint256",
          "name": "rarityScore_",
          "type": "uint256"
        }
      ],
      "stateMutability": "view",
      "type": "function"
    },
    {
      "inputs": [
        {
          "internalType": "uint256",
          "name": "_tokenId",
          "type": "uint256"
        }
      ],
      "name": "portalAavegotchiTraits",
      "outputs": [
        {
          "components": [
            {
              "internalType": "uint256",
              "name": "randomNumber",
              "type": "uint256"
            },
            {
              "internalType": "int16[6]",
              "name": "numericTraits",
              "type": "int16[6]"
            },
            {
              "internalType": "address",
              "name": "collateralType",
              "type": "address"
            },
            {
              "internalType": "uint256",
              "name": "minimumStake",
              "type": "uint256"
            }
          ],
          "internalType": "struct PortalAavegotchiTraitsIO[10]",
          "name": "portalAavegotchiTraits_",
          "type": "tuple[10]"
        }
      ],
      "stateMutability": "view",
      "type": "function"
    },
    {
      "inputs": [
        {
          "internalType": "int16[6]",
          "name": "_numericTraits",
          "type": "int16[6]"
        }
      ],
      "name": "rarityMultiplier",
      "outputs": [
        {
          "internalType": "uint256",
          "name": "multiplier_",
          "type": "uint256"
        }
      ],
      "stateMutability": "pure",
      "type": "function"
    },
    {
      "inputs": [],
      "name": "revenueShares",
      "outputs": [
        {
          "components": [
            {
              "internalType": "address",
              "name": "burnAddress",
              "type": "address"
            },
            {
              "internalType": "address",
              "name": "daoAddress",
              "type": "address"
            },
            {
              "internalType": "address",
              "name": "rarityFarming",
              "type": "address"
            },
            {
              "internalType": "address",
              "name": "pixelCraft",
              "type": "address"
            }
          ],
          "internalType": "struct AavegotchiGameFacet.RevenueSharesIO",
          "name": "",
          "type": "tuple"
        }
      ],
      "stateMutability": "view",
      "type": "function"
    },
    {
      "inputs": [
        {
          "internalType": "uint256",
          "name": "_tokenId",
          "type": "uint256"
        },
        {
          "internalType": "string",
          "name": "_name",
          "type": "string"
        }
      ],
      "name": "setAavegotchiName",
      "outputs": [],
      "stateMutability": "nonpayable",
      "type": "function"
    },
    {
      "inputs": [
        {
          "internalType": "uint256",
          "name": "_tokenId",
          "type": "uint256"
        },
        {
          "internalType": "int16[4]",
          "name": "_values",
          "type": "int16[4]"
        }
      ],
      "name": "spendSkillPoints",
      "outputs": [],
      "stateMutability": "nonpayable",
      "type": "function"
    },
    {
      "inputs": [
        {
          "internalType": "uint32",
          "name": "_experience",
          "type": "uint32"
        }
      ],
      "name": "xpUntilNextLevel",
      "outputs": [
        {
          "internalType": "uint256",
          "name": "requiredXp_",
          "type": "uint256"
        }
      ],
      "stateMutability": "pure",
      "type": "function"
    }
  ],
  "bytecode": "0x608060405234801561001057600080fd5b50613b3d806100206000396000f3fe60806040523480156200001157600080fd5b5060043610620001245760003560e01c8063a4c366fe11620000b1578063f1567e24116200007b578063f1567e24146200026b578063f5b918521462000291578063f6f518c614620002a8578063fa5f529514620002c1578063fffebb4114620002e75762000124565b8063a4c366fe146200020d578063a70135c21462000224578063c889dfc4146200023d578063ea7dac7f14620002545762000124565b80634984b01c11620000f35780634984b01c14620001b15780638a7c9cfa14620001c85780639abf6c5114620001df5780639eab76e014620001f65762000124565b806309cbaf0614620001295780631c2500ff146200015857806322c67519146200017257806328e8c193146200018b575b600080fd5b620001406200013a3660046200259f565b6200030e565b6040516200014f919062003168565b60405180910390f35b6200016262000321565b6040516200014f92919062003120565b620001896200018336600462002633565b62000398565b005b620001a26200019c3660046200272a565b620004ad565b6040516200014f919062002972565b62000189620001c2366004620027c4565b620004c2565b62000140620001d9366004620027f0565b6200077a565b62000140620001f03660046200259f565b6200078d565b6200014062000207366004620027f0565b6200079a565b620001406200021e3660046200272a565b620007ad565b6200022e6200082c565b6040516200014f9190620028cd565b620001896200024e36600462002743565b6200083b565b620001896200026536600462002776565b62000a87565b620002826200027c366004620026e6565b62000d5f565b6040516200014f9190620029fb565b62000140620002a23660046200272a565b62000dcf565b620002b262000ddc565b6040516200014f9190620030e5565b620002d8620002d23660046200272a565b62000e23565b6040516200014f919062002945565b620002fe620002f83660046200272a565b62000e38565b6040516200014f92919062002955565b60006200031b8262000e59565b92915050565b60006200032d6200235e565b5050601654640100000000900461ffff166000818152600860209081526040918290208251608081018452815481526001820154928101929092526002015460e881901b6001600160e81b03191692820192909252630100000090910462ffffff1660608201529091565b6000620003a462000f0c565b905060005b82811015620004a7576000848483818110620003d557634e487b7160e01b600052603260045260246000fd5b602090810292909201356000818152600d9093526040909220600a0154919250506001600160a01b039081169084168114806200043757506001600160a01b0380821660009081526012602090815260408083209388168352929052205460ff165b806200045c57506000828152601360205260409020546001600160a01b038581169116145b620004845760405162461bcd60e51b81526004016200047b9062002d66565b60405180910390fd5b6200048f8262000f6a565b505080806200049e90620034e2565b915050620003a9565b50505050565b620004b762002385565b6200031b82620010b4565b6000838152600d60205260409020600a01548390600160d01b900460ff1615620005005760405162461bcd60e51b81526004016200047b9062002eda565b6000848152600d60205260409020600a015484906001600160a01b03166200052762000f0c565b6001600160a01b031614620005505760405162461bcd60e51b81526004016200047b9062002f8b565b6000858152600d60205260409020600a810154600160a01b900460ff166002146200058f5760405162461bcd60e51b81526004016200047b9062002c48565b600a8510620005b25760405162461bcd60e51b81526004016200047b9062002db9565b6000868152600c602052604081205490620005ce828862001224565b805160048501556020810151909150620005ef9060028501906006620023b6565b5060408101516009840180546001600160a01b0319166001600160a01b03909216919091179055606081015160068401556200062e61a8c04262003462565b600a8401805464ffffffffff60a81b1916600160a81b64ffffffffff938416021790556032600885015560098401805464ffffffffff60a01b1916600160a01b42909316929092029190911790556060810151861015620006a35760405162461bcd60e51b81526004016200047b9062002f2e565b600a8301805460ff60a01b1916600360a01b17905560405188907fadbf78ef322c0f286c9f0d0812f53f6db59fcefc4e41150758f43da97e2a80e390600090a260008160400151604051620006f89062002452565b620007049190620028cd565b604051809103906000f08015801562000721573d6000803e3d6000fd5b50600b850180546001600160a01b0319166001600160a01b038316179055905060006200074d62000f0c565b905062000761836040015182848b6200150c565b6200076e308b83620015f8565b50505050505050505050565b60006200031b8263ffffffff1662001659565b60006200031b8262001697565b60006200031b8263ffffffff166200172e565b6000818152600d60205260408120600501548190620007cc906200172e565b90506000620007dd6003836200321d565b6000858152600d602052604090206007015490915080821015620008155760405162461bcd60e51b81526004016200047b9062002b04565b62000821818362003462565b93505050505b919050565b601a546001600160a01b031690565b6000828152600d60205260409020600a01548290600160d01b900460ff1615620008795760405162461bcd60e51b81526004016200047b9062002eda565b6000838152600d60205260409020600a015483906001600160a01b0316620008a062000f0c565b6001600160a01b031614620008c95760405162461bcd60e51b81526004016200047b9062002f8b565b6000805b6004811015620009ea576200091a858260048110620008fc57634e487b7160e01b600052603260045260246000fd5b602002016020810190620009119190620026c9565b60010b62001779565b62000926908362003202565b91508481600481106200094957634e487b7160e01b600052603260045260246000fd5b6020020160208101906200095e9190620026c9565b6000878152600d6020526040902060020182600681106200098f57634e487b7160e01b600052603260045260246000fd5b601091828204019190066002028282829054906101000a900460010b620009b7919062003171565b92506101000a81548161ffff021916908360010b61ffff1602179055508080620009e190620034e2565b915050620008cd565b5080620009f786620007ad565b101562000a185760405162461bcd60e51b81526004016200047b9062003099565b6000858152600d60205260408120600701805461ffff8416929062000a3f90849062003202565b92505081905550847f4b92ed0db0758e7ed73674d6915bd532a55322aa1b13abeaad14acf3954b1a8c8560405162000a78919062002905565b60405180910390a25050505050565b6000838152600d60205260409020600a01548390600160d01b900460ff161562000ac55760405162461bcd60e51b81526004016200047b9062002eda565b6000848152600d60205260409020600a015484906001600160a01b031662000aec62000f0c565b6001600160a01b03161462000b155760405162461bcd60e51b81526004016200047b9062002f8b565b6000858152600d60205260409020600a0154600160a01b900460ff1660031462000b535760405162461bcd60e51b81526004016200047b9062002ba2565b600062000b9685858080601f0160208091040260200160405190810160405280939291908181526020018383808284376000920191909152506200179992505050565b6000878152600d602052604081206003018054929350909162000bb990620034ab565b80601f016020809104026020016040519081016040528092919081815260200182805462000be790620034ab565b801562000c385780601f1062000c0c5761010080835404028352916020019162000c38565b820191906000526020600020905b81548152906001019060200180831162000c1a57829003601f168201915b5050505050905060008151111562000c7e57601462000c578262001799565b60405162000c6691906200288f565b908152604051908190036020019020805460ff191690555b60405160149062000c919084906200288f565b9081526040519081900360200190205460ff161562000cc45760405162461bcd60e51b81526004016200047b9062002a62565b600160006014018360405162000cdb91906200288f565b9081526040805160209281900383019020805460ff1916931515939093179092556000898152600d9091522062000d1790600301878762002460565b50867f9e94ae5a5d8c4dc3600d749ea1770ee468d1da35e7a5971eb3a889b0d024250482888860405162000d4e9392919062002a1b565b60405180910390a250505050505050565b60008060140162000da684848080601f0160208091040260200160405190810160405280939291908181526020018383808284376000920191909152506200179992505050565b60405162000db591906200288f565b9081526040519081900360200190205460ff169392505050565b60006200031b826200199b565b62000de66200235e565b50604080516080810182526001600160a01b03808252601e54811660208084019190915254811692820192909252601f5490911660608201525b90565b62000e2d620024dd565b6200031b8262001a1b565b62000e42620024dd565b600062000e4f8362001bdb565b9094909350915050565b60008062000e678362001697565b905061012c81101562000e7f57600a91505062000827565b61012c811015801562000e9357506101c281105b1562000ea457600a91505062000827565b6101c2811015801562000eb9575061020d8111155b1562000eca57601991505062000827565b61020e811015801562000edf57506102448111155b1562000ef057606491505062000827565b610245811062000f06576103e891505062000827565b50919050565b60003330141562000f6557600080368080601f0160208091040260200160405190810160405280939291908181526020018383808284376000920191909152505050503601516001600160a01b0316915062000e209050565b503390565b600062000f7662001dde565b6000838152600d820160205260409020600a0154909150600160a81b900464ffffffffff1662000fa98161a8c062003202565b42101562000fb9575050620010b1565b6000838152600d830160205260408120600801549062000fda834262003462565b9050600062000fed62015180836200321d565b9050600081841115620010095762001006828562003462565b90505b6000602882101562001019575060025b6200102681600162003202565b62001032908362003202565b6000898152600d890160205260409081902060088101839055600a01805464ffffffffff60a81b1916600160a81b4264ffffffffff16021790555190925088907ff1d9052616249588931b528467a23298d0d5a51136a364bb273a883a5c49cda590620010a190859062003168565b60405180910390a2505050505050505b50565b620010be62002385565b6000620010ca62001dde565b6000848152600d820160205260409020600a0154909150600160a01b900460ff166002146200110d5760405162461bcd60e51b81526004016200047b9062002b6d565b6000838152600c82016020526040812054905b600a8110156200121c57600062001138838362001224565b80519091508583600a81106200115e57634e487b7160e01b600052603260045260246000fd5b60200201515260408101518583600a81106200118a57634e487b7160e01b600052603260045260246000fd5b60200201516001600160a01b0390911660409091015260608101518583600a8110620011c657634e487b7160e01b600052603260045260246000fd5b6020020151606001818152505080602001518583600a8110620011f957634e487b7160e01b600052603260045260246000fd5b6020020151602001819052505080806200121390620034e2565b91505062001120565b505050919050565b6200122e620024fb565b60006200123a62001dde565b90506000848460405160200162001253929190620028bf565b60408051601f19818403018152919052805160209091012080845260198301805491925060009162001286908462003500565b81548110620012a557634e487b7160e01b600052603260045260246000fd5b6000918252602080832091909101546001600160a01b0316808352908590526040808320815160c081019283905292945062001327938693926006918390855b82829054906101000a900460010b60010b81526020019060020190602082600101049283019260010382029150808411620012e5579050505050505062001de3565b6020858101919091526001600160a01b038216604080870182905260009182529185905281812082516101c08101938490529192829061010082019083906006908288855b82829054906101000a900460010b60010b815260200190600201906020826001010492830192600103820291508084116200136c575050509284525050506001919091015460e881811b6001600160e81b031990811660208086019190915263010000008404831b821660408601526601000000000000840490921b1660608401526901000000000000000000820460ff9081166080850152600160501b8304811660a0850152600160581b830461ffff1660c080860191909152600160681b90930416151560e0909301929092528201519087015191925090600090620014549062000e59565b905060008261ffff16856001600160a01b031663313ce5676040518163ffffffff1660e01b815260040160206040518083038186803b1580156200149757600080fd5b505afa158015620014ac573d6000803e3d6000fd5b505050506040513d601f19601f82011682018060405250810190620014d2919062002816565b620014df90600a62003281565b620014eb91906200321d565b9050620014f98282620033fb565b6060890152509598975050505050505050565b833b806200152e5760405162461bcd60e51b81526004016200047b9062002bff565b600080866001600160a01b03166323b872dd60e01b8787876040516024016200155a93929190620028e1565b60408051601f198184030181529181526020820180516001600160e01b03166001600160e01b03199094169390931790925290516200159a91906200288f565b6000604051808303816000865af19150503d8060008114620015d9576040519150601f19603f3d011682016040523d82523d6000602084013e620015de565b606091505b5091509150620015ef828262001ef2565b50505050505050565b60006200160462001dde565b6001600160a01b0380861660009081526039830160209081526040808320888452825280832093871683529290522054909150806200164557505062001654565b62001651818462001f7e565b50505b505050565b60008062001667836200172e565b9050826200167760028362003281565b62001684906032620033fb565b62001690919062003462565b9392505050565b6000805b600681101562000f06576000838260068110620016c857634e487b7160e01b600052603260045260246000fd5b602002015160010b905060328112620016fc57620016e881600162003202565b620016f4908462003202565b925062001718565b620017098160646200341d565b62001715908462003202565b92505b50806200172581620034e2565b9150506200169b565b600062077a42821115620017455750606362000827565b600a6200175e62001758846002620033fb565b6200209e565b6200176a91906200321d565b90506200031b81600162003202565b60008082121562001795576200178f8262003517565b6200031b565b5090565b6060600082604051602001620017b091906200288f565b60408051601f19818403018152919052805190915080620017e55760405162461bcd60e51b81526004016200047b9062002e96565b601a8110620018085760405162461bcd60e51b81526004016200047b906200303c565b6000826000815181106200182c57634e487b7160e01b600052603260045260246000fd5b0160209081015160f81c91508114156200185a5760405162461bcd60e51b81526004016200047b9062002cdd565b826200186860018462003462565b815181106200188757634e487b7160e01b600052603260045260246000fd5b0160209081015160f81c9150811415620018b55760405162461bcd60e51b81526004016200047b9062002ab3565b60005b828110156200199157838181518110620018e257634e487b7160e01b600052603260045260246000fd5b016020015160f81c9150601f82118015620018fd5750607f82105b6200191c5760405162461bcd60e51b81526004016200047b9062002fe8565b605b821080156200192d5750604082115b156200197c576200194082602062003202565b60f81b8482815181106200196457634e487b7160e01b600052603260045260246000fd5b60200101906001600160f81b031916908160001a9053505b806200198881620034e2565b915050620018b8565b5091949350505050565b600080620019a862001dde565b6000848152600d820160205260408120600a81015460088201549394509092600160a81b90910464ffffffffff1691620019e3834262003462565b90506000620019f662015180836200321d565b90508083111562001a105762001a0d818462003462565b96505b505050505050919050565b62001a25620024dd565b600062001a3162001dde565b6000848152600d8201602052604081206009015491925090620151809062001a6890600160c81b900464ffffffffff164262003462565b62001a7491906200321d565b905060005b60068110156200121c576000858152600d840160205260408120600201826006811062001ab657634e487b7160e01b600052603260045260246000fd5b601091828204019190066002029054906101000a900460010b60010b9050600084600d016000888152602001908152602001600020600101836006811062001b0e57634e487b7160e01b600052603260045260246000fd5b602091828204019190069054906101000a900460000b60000b905060008113801562001b3957508381135b1562001b5f5762001b4b84826200341d565b62001b579083620031bb565b915062001b90565b8362001b6e826000196200336c565b131562001b905762001b818482620031bb565b62001b8d9083620031bb565b91505b8186846006811062001bb257634e487b7160e01b600052603260045260246000fd5b602002019060010b908160010b815250505050808062001bd290620034e2565b91505062001a79565b62001be5620024dd565b60008062001bf262001dde565b6000858152600d820160205260409020600a0154909150600160a01b900460ff1660031462001c355760405162461bcd60e51b81526004016200047b9062002e61565b6000848152600d82016020526040902062001c508562001a1b565b93506000805b601081101562001db757600083826010811062001c8357634e487b7160e01b600052603260045260246000fd5b601081049190910154600f9091166002026101000a900461ffff1690508062001cad575062001da2565b600085600601828154811062001cd357634e487b7160e01b600052603260045260246000fd5b90600052602060002090600b0201905060005b600681101562001d805781600301816006811062001d1457634e487b7160e01b600052603260045260246000fd5b602091828204019190069054906101000a900460000b60000b89826006811062001d4e57634e487b7160e01b600052603260045260246000fd5b6020020181815162001d61919062003171565b600190810b900b9052508062001d7781620034e2565b91505062001ce6565b50600a81015462001d9d90640100000000900460ff168562003202565b935050505b8062001dae81620034e2565b91505062001c56565b50600062001dc58662001697565b905062001dd3828262003202565b945050505050915091565b600090565b62001ded620024dd565b60005b600681101562001eeb57600062001e09826008620033fb565b85901c60ff169050606381111562001e735762001e286002826200321d565b9050606381111562001e73576064858360405160200162001e4b929190620028bf565b6040516020818303038152906040528051906020012060001c62001e70919062003500565b90505b83826006811062001e9457634e487b7160e01b600052603260045260246000fd5b602002015162001ea5908262003171565b83836006811062001ec657634e487b7160e01b600052603260045260246000fd5b600192830b90920b60209092020152508062001ee281620034e2565b91505062001df0565b5092915050565b811562001f3c5780511562001f36578080602001905181019062001f179190620026a7565b62001f365760405162461bcd60e51b81526004016200047b9062002c8c565b62001f7a565b80511562001f60578060405162461bcd60e51b81526004016200047b919062002a06565b60405162461bcd60e51b81526004016200047b9062002e16565b5050565b600062001f8a62001dde565b6000848152603482016020526040902060018101549192509062001fb057505062001f7a565b60008481526033830160205260409020600881015460ff1615156001148062001fdc5750600781015415155b1562001feb5750505062001f7a565b60018101546001600160a01b038581169116146200201d5760405162461bcd60e51b81526004016200047b9062002d2f565b60088101805460ff1916600117905560038101546000908152600d8401602052604090819020600a01805460ff60d01b191690556004820154905186917f10e53bca620314e794d61e37932062e81c48e88233765d09da42aeb00ae4dba0916200208a91904390620028bf565b60405180910390a2620016518585620020fd565b6000806002620020b084600162003202565b620020bc91906200321d565b90508291505b8181101562000f0657905080600281620020dd81866200321d565b620020e9919062003202565b620020f591906200321d565b9050620020c2565b60006200210962001dde565b600084815260348201602052604090206001810154919250906200212f57505062001f7a565b805480156200215257600081815260348401602052604090206002808401549101555b60028201548015620021735760008181526034850160205260409020835490555b60008681526033850160209081526040808320600481015484526035880190925291829020915190918891620021a990620028ad565b9081526020016040518091039020541415620021f957600284015460048201546000908152603587016020526040908190209051620021e890620028ad565b908152604051908190036020019020555b60006001850181905580855560029094018490558684526036850160205260409093208054909390925082156200224457600083815260368601602052604090206002808601549101555b600284015491508115620022675760008281526036860160205260409020845490555b50600086815260338501602090815260408083206001600160a01b03891684526037880183528184206004820154855290925291829020915190918891620022af90620028ad565b9081526020016040518091039020541415620023135760028401546001600160a01b03871660009081526037870160209081526040808320600486015484529091529081902090516200230290620028ad565b908152604051908190036020019020555b6000600185018190558085556002850155600481015460405188917fd309bba073dd463d9d78e92766d06da7cde7d0e6e83149168a7bc913c9ecc4429162000d4e91904290620028bf565b60408051608081018252600080825260208201819052918101829052606081019190915290565b604051806101400160405280600a905b6200239f620024fb565b815260200190600190039081620023955790505090565b600183019183908215620024445791602002820160005b838211156200241257835183826101000a81548161ffff021916908360010b61ffff1602179055509260200192600201602081600101049283019260010302620023cd565b8015620024425782816101000a81549061ffff021916905560020160208160010104928301926001030262002412565b505b50620017959291506200252b565b610591806200357783390190565b8280546200246e90620034ab565b90600052602060002090601f01602090048101928262002492576000855562002444565b82601f10620024ad5782800160ff1982351617855562002444565b8280016001018555821562002444579182015b8281111562002444578235825591602001919060010190620024c0565b6040518060c001604052806006906020820280368337509192915050565b60405180608001604052806000815260200162002517620024dd565b815260006020820181905260409091015290565b5b808211156200179557600081556001016200252c565b8035600181900b81146200082757600080fd5b60008083601f84011262002567578182fd5b50813567ffffffffffffffff8111156200257f578182fd5b6020830191508360208285010111156200259857600080fd5b9250929050565b600060c08284031215620025b1578081fd5b82601f830112620025c0578081fd5b60405160c0810181811067ffffffffffffffff82111715620025e657620025e662003560565b604052808360c08101861015620025fb578384fd5b835b60068110156200262857620026128262002542565b83526020928301929190910190600101620025fd565b509195945050505050565b6000806020838503121562002646578081fd5b823567ffffffffffffffff808211156200265e578283fd5b818501915085601f83011262002672578283fd5b81358181111562002681578384fd5b866020808302850101111562002695578384fd5b60209290920196919550909350505050565b600060208284031215620026b9578081fd5b8151801515811462001690578182fd5b600060208284031215620026db578081fd5b620016908262002542565b60008060208385031215620026f9578182fd5b823567ffffffffffffffff81111562002710578283fd5b6200271e8582860162002555565b90969095509350505050565b6000602082840312156200273c578081fd5b5035919050565b60008060a0838503121562002756578182fd5b823591508360a0840111156200276a578081fd5b50926020919091019150565b6000806000604084860312156200278b578081fd5b83359250602084013567ffffffffffffffff811115620027a9578182fd5b620027b78682870162002555565b9497909650939450505050565b600080600060608486031215620027d9578283fd5b505081359360208301359350604090920135919050565b60006020828403121562002802578081fd5b813563ffffffff8116811462001690578182fd5b60006020828403121562002828578081fd5b815160ff8116811462001690578182fd5b8060005b6006811015620004a7578151600190810b855260209485019490920191016200283d565b600081518084526200287b8160208601602086016200347c565b601f01601f19169290920160200192915050565b60008251620028a38184602087016200347c565b9190910192915050565b651b1a5cdd195960d21b815260060190565b918252602082015260400190565b6001600160a01b0391909116815260200190565b6001600160a01b039384168152919092166020820152604081019190915260600190565b60808101818360005b60048110156200293c57620029238262002542565b600190810b84526020938401939290920191016200290e565b50505092915050565b60c081016200031b828462002839565b60e0810162002965828562002839565b8260c08301529392505050565b610b40810181836000805b600a811015620029f157825180518552602080820151818701855b6006811015620029ba578251600190810b835292840192918401910162002998565b50505060408201516001600160a01b031660e08701526060909101516101008601526101209094019392909201916001016200297d565b5050505092915050565b901515815260200190565b60006020825262001690602083018462002861565b60006040825262002a30604083018662002861565b82810360208401528381528385602083013781602085830101526020601f19601f860116820101915050949350505050565b60208082526031908201527f41617665676f7463686947616d6546616365743a2041617665676f74636869206040820152706e616d65207573656420616c726561647960781b606082015260800190565b60208082526031908201527f4c696241617665676f746368693a206c6173742063686172206f66206e616d656040820152702063616e2774206265206120737061636560781b606082015260800190565b60208082526043908201527f41617665676f7463686947616d6546616365743a205573656420736b696c6c2060408201527f706f696e74732069732067726561746572207468616e20736b696c6c20706f696060820152626e747360e81b608082015260a00190565b6020808252818101527f41617665676f7463686946616365743a20506f7274616c206e6f74206f70656e604082015260600190565b6020808252603e908201527f41617665676f7463686947616d6546616365743a204d75737420636c61696d2060408201527f41617665676f74636869206265666f72652073657474696e67206e616d650000606082015260800190565b60208082526029908201527f4c696245524332303a20455243323020746f6b656e206164647265737320686160408201526873206e6f20636f646560b81b606082015260800190565b60208082526024908201527f41617665676f7463686947616d6546616365743a20506f7274616c206e6f742060408201526337b832b760e11b606082015260800190565b60208082526031908201527f4c696245524332303a207472616e73666572206f72207472616e7366657246726040820152706f6d2072657475726e65642066616c736560781b606082015260800190565b60208082526032908201527f4c696241617665676f746368693a2066697273742063686172206f66206e616d604082015271652063616e2774206265206120737061636560701b606082015260800190565b6020808252601d908201527f4d61726b6574706c6163653a206f776e6572206e6f742073656c6c6572000000604082015260600190565b60208082526033908201527f41617665676f7463686947616d6546616365743a204e6f74206f776e6572206f60408201527219881d1bdad95b881bdc88185c1c1c9bdd9959606a1b606082015260800190565b60208082526039908201527f41617665676f7463686947616d6546616365743a204f6e6c792031302061617660408201527f65676f74636869206f7074696f6e7320617661696c61626c6500000000000000606082015260800190565b6020808252602b908201527f4c696245524332303a207472616e73666572206f72207472616e73666572467260408201526a1bdb481c995d995c9d195960aa1b606082015260800190565b6020808252818101527f41617665676f7463686946616365743a204d75737420626520636c61696d6564604082015260600190565b60208082526024908201527f4c696241617665676f746368693a206e616d652063616e2774206265203020636040820152636861727360e01b606082015260800190565b60208082526034908201527f4c696241707053746f726167653a204f6e6c792063616c6c61626c65206f6e20604082015273756e6c6f636b65642041617665676f746368697360601b606082015260800190565b60208082526039908201527f41617665676f7463686947616d6546616365743a205f7374616b65416d6f756e60408201527f74206c657373207468616e206d696e696d756d207374616b6500000000000000606082015260800190565b6020808252603b908201527f4c696241707053746f726167653a204f6e6c792061617665676f74636869206f60408201527f776e65722063616e2063616c6c20746869732066756e6374696f6e0000000000606082015260800190565b60208082526034908201527f4c696241617665676f746368693a20696e76616c6964206368617261637465726040820152731034b71020b0bb32b3b7ba31b434903730b6b29760611b606082015260800190565b60208082526037908201527f4c696241617665676f746368693a206e616d652063616e27742062652067726560408201527f61746572207468616e2032352063686172616374657273000000000000000000606082015260800190565b6020808252602c908201527f41617665676f7463686947616d6546616365743a204e6f7420656e6f7567682060408201526b736b696c6c20706f696e747360a01b606082015260800190565b81516001600160a01b039081168252602080840151821690830152604080840151821690830152606092830151169181019190915260800190565b600060a08201905061ffff84168252825160208301526020830151604083015262ffffff60e81b604084015116606083015262ffffff60608401511660808301529392505050565b90815260200190565b60008160010b8360010b82821282617fff0382138115161562003198576200319862003534565b82617fff19038212811615620031b257620031b262003534565b50019392505050565b600080821280156001600160ff1b0384900385131615620031e057620031e062003534565b600160ff1b8390038412811615620031fc57620031fc62003534565b50500190565b6000821982111562003218576200321862003534565b500190565b6000826200322f576200322f6200354a565b500490565b80825b600180861162003248575062003278565b8187048211156200325d576200325d62003534565b808616156200326b57918102915b9490941c93800262003237565b94509492505050565b60006200169060001960ff851684600082620032a05750600162001690565b81620032af5750600062001690565b8160018114620032c85760028114620032d35762003307565b600191505062001690565b60ff841115620032e757620032e762003534565b6001841b91508482111562003300576200330062003534565b5062001690565b5060208310610133831016604e8410600b84101617156200333f575081810a8381111562003339576200333962003534565b62001690565b6200334e848484600162003234565b80860482111562003363576200336362003534565b02949350505050565b60006001600160ff1b038184138284138082168684048611161562003395576200339562003534565b600160ff1b84871282811687830589121615620033b657620033b662003534565b858712925087820587128484161615620033d457620033d462003534565b87850587128184161615620033ed57620033ed62003534565b505050929093029392505050565b600081600019048311821515161562003418576200341862003534565b500290565b60008083128015600160ff1b8501841216156200343e576200343e62003534565b6001600160ff1b03840183138116156200345c576200345c62003534565b50500390565b60008282101562003477576200347762003534565b500390565b60005b83811015620034995781810151838201526020016200347f565b83811115620004a75750506000910152565b600281046001821680620034c057607f821691505b6020821081141562000f0657634e487b7160e01b600052602260045260246000fd5b6000600019821415620034f957620034f962003534565b5060010190565b6000826200351257620035126200354a565b500690565b6000600160ff1b82141562003530576200353062003534565b0390565b634e487b7160e01b600052601160045260246000fd5b634e487b7160e01b600052601260045260246000fd5b634e487b7160e01b600052604160045260246000fdfe608060405234801561001057600080fd5b5060405161059138038061059183398101604081905261002f916101c2565b61004161007060201b61012f1760201c565b600080546001600160a01b0319166001600160a01b039290921691909117905561006a816100cd565b506102c1565b6000333014156100c757600080368080601f0160208091040260200160405190810160405280939291908181526020018383808284376000920191909152505050503601516001600160a01b031691506100ca9050565b50335b90565b6000546001600160a01b03166100ec610070602090811b61012f17901c565b6001600160a01b03161461011b5760405162461bcd60e51b81526004016101129061027a565b60405180910390fd5b60005460405163095ea7b360e01b81526001600160a01b038381169263095ea7b392610151929091169060001990600401610210565b602060405180830381600087803b15801561016b57600080fd5b505af115801561017f573d6000803e3d6000fd5b505050506040513d601f19601f820116820180604052508101906101a391906101f0565b6101bf5760405162461bcd60e51b815260040161011290610229565b50565b6000602082840312156101d3578081fd5b81516001600160a01b03811681146101e9578182fd5b9392505050565b600060208284031215610201578081fd5b815180151581146101e9578182fd5b6001600160a01b03929092168252602082015260400190565b60208082526031908201527f436f6c6c61746572616c457363726f773a20746f6b656e206e6f74206170707260408201527037bb32b2103337b9103a3930b739b332b960791b606082015260800190565b60208082526027908201527f436f6c6c61746572616c457363726f773a204e6f74206f776e6572206f6620636040820152661bdb9d1c9858dd60ca1b606082015260800190565b6102c1806102d06000396000f3fe608060405234801561001057600080fd5b506004361061002b5760003560e01c80632ce7500514610030575b600080fd5b61004361003e36600461018c565b610045565b005b6000546001600160a01b031661005961012f565b6001600160a01b0316146100885760405162461bcd60e51b815260040161007f90610244565b60405180910390fd5b60005460405163095ea7b360e01b81526001600160a01b038381169263095ea7b3926100be9290911690600019906004016101da565b602060405180830381600087803b1580156100d857600080fd5b505af11580156100ec573d6000803e3d6000fd5b505050506040513d601f19601f8201168201806040525081019061011091906101ba565b61012c5760405162461bcd60e51b815260040161007f906101f3565b50565b60003330141561018657600080368080601f0160208091040260200160405190810160405280939291908181526020018383808284376000920191909152505050503601516001600160a01b031691506101899050565b50335b90565b60006020828403121561019d578081fd5b81356001600160a01b03811681146101b3578182fd5b9392505050565b6000602082840312156101cb578081fd5b815180151581146101b3578182fd5b6001600160a01b03929092168252602082015260400190565b60208082526031908201527f436f6c6c61746572616c457363726f773a20746f6b656e206e6f74206170707260408201527037bb32b2103337b9103a3930b739b332b960791b606082015260800190565b60208082526027908201527f436f6c6c61746572616c457363726f773a204e6f74206f776e6572206f6620636040820152661bdb9d1c9858dd60ca1b60608201526080019056fea2646970667358221220be1f5eee9cac84b621508b4ea7dfb521e7249b60bcb9473a00f7f4344bcd7ccf64736f6c63430008010033a264697066735822122006b4cc258742276fd2819c5b0a0bb855b0e8f7800e7f8790f52a44c119b4baac64736f6c63430008010033",
  "linkReferences": {},
  "deployedLinkReferences": {}
}