{
  "_format": "hh-sol-artifact-1",
  "contractName": "AavegotchiFacet",
  "sourceName": "contracts/Aavegotchi/facets/AavegotchiFacet.sol",
  "abi": [
    {
      "inputs": [
        {
          "internalType": "address",
          "name": "_owner",
          "type": "address"
        }
      ],
      "name": "allAavegotchisOfOwner",
      "outputs": [
        {
          "components": [
            {
              "internalType": "uint256",
              "name": "tokenId",
              "type": "uint256"
            },
            {
              "internalType": "string",
              "name": "name",
              "type": "string"
            },
            {
              "internalType": "address",
              "name": "owner",
              "type": "address"
            },
            {
              "internalType": "uint256",
              "name": "randomNumber",
              "type": "uint256"
            },
            {
              "internalType": "uint256",
              "name": "status",
              "type": "uint256"
            },
            {
              "internalType": "int16[6]",
              "name": "numericTraits",
              "type": "int16[6]"
            },
            {
              "internalType": "int16[6]",
              "name": "modifiedNumericTraits",
              "type": "int16[6]"
            },
            {
              "internalType": "uint16[16]",
              "name": "equippedWearables",
              "type": "uint16[16]"
            },
            {
              "internalType": "address",
              "name": "collateral",
              "type": "address"
            },
            {
              "internalType": "address",
              "name": "escrow",
              "type": "address"
            },
            {
              "internalType": "uint256",
              "name": "stakedAmount",
              "type": "uint256"
            },
            {
              "internalType": "uint256",
              "name": "minimumStake",
              "type": "uint256"
            },
            {
              "internalType": "uint256",
              "name": "kinship",
              "type": "uint256"
            },
            {
              "internalType": "uint256",
              "name": "lastInteracted",
              "type": "uint256"
            },
            {
              "internalType": "uint256",
              "name": "experience",
              "type": "uint256"
            },
            {
              "internalType": "uint256",
              "name": "toNextLevel",
              "type": "uint256"
            },
            {
              "internalType": "uint256",
              "name": "usedSkillPoints",
              "type": "uint256"
            },
            {
              "internalType": "uint256",
              "name": "level",
              "type": "uint256"
            },
            {
              "internalType": "uint256",
              "name": "hauntId",
              "type": "uint256"
            },
            {
              "internalType": "uint256",
              "name": "baseRarityScore",
              "type": "uint256"
            },
            {
              "internalType": "uint256",
              "name": "modifiedRarityScore",
              "type": "uint256"
            },
            {
              "internalType": "bool",
              "name": "locked",
              "type": "bool"
            },
            {
              "components": [
                {
                  "internalType": "uint256",
                  "name": "balance",
                  "type": "uint256"
                },
                {
                  "internalType": "uint256",
                  "name": "itemId",
                  "type": "uint256"
                },
                {
                  "components": [
                    {
                      "internalType": "string",
                      "name": "name",
                      "type": "string"
                    },
                    {
                      "internalType": "string",
                      "name": "description",
                      "type": "string"
                    },
                    {
                      "internalType": "string",
                      "name": "author",
                      "type": "string"
                    },
                    {
                      "internalType": "int8[6]",
                      "name": "traitModifiers",
                      "type": "int8[6]"
                    },
                    {
                      "internalType": "bool[16]",
                      "name": "slotPositions",
                      "type": "bool[16]"
                    },
                    {
                      "internalType": "uint8[]",
                      "name": "allowedCollaterals",
                      "type": "uint8[]"
                    },
                    {
                      "components": [
                        {
                          "internalType": "uint8",
                          "name": "x",
                          "type": "uint8"
                        },
                        {
                          "internalType": "uint8",
                          "name": "y",
                          "type": "uint8"
                        },
                        {
                          "internalType": "uint8",
                          "name": "width",
                          "type": "uint8"
                        },
                        {
                          "internalType": "uint8",
                          "name": "height",
                          "type": "uint8"
                        }
                      ],
                      "internalType": "struct Dimensions",
                      "name": "dimensions",
                      "type": "tuple"
                    },
                    {
                      "internalType": "uint256",
                      "name": "ghstPrice",
                      "type": "uint256"
                    },
                    {
                      "internalType": "uint256",
                      "name": "maxQuantity",
                      "type": "uint256"
                    },
                    {
                      "internalType": "uint32",
                      "name": "svgId",
                      "type": "uint32"
                    },
                    {
                      "internalType": "uint8",
                      "name": "rarityScoreModifier",
                      "type": "uint8"
                    },
                    {
                      "internalType": "bool",
                      "name": "canPurchaseWithGhst",
                      "type": "bool"
                    },
                    {
                      "internalType": "uint32",
                      "name": "totalQuantity",
                      "type": "uint32"
                    },
                    {
                      "internalType": "uint16",
                      "name": "minLevel",
                      "type": "uint16"
                    },
                    {
                      "internalType": "bool",
                      "name": "canBeTransferred",
                      "type": "bool"
                    },
                    {
                      "internalType": "uint8",
                      "name": "category",
                      "type": "uint8"
                    },
                    {
                      "internalType": "int8",
                      "name": "kinshipBonus",
                      "type": "int8"
                    },
                    {
                      "internalType": "uint32",
                      "name": "experienceBonus",
                      "type": "uint32"
                    }
                  ],
                  "internalType": "struct ItemType",
                  "name": "itemType",
                  "type": "tuple"
                }
              ],
              "internalType": "struct ItemTypeIO[]",
              "name": "items",
              "type": "tuple[]"
            }
          ],
          "internalType": "struct AavegotchiInfo[]",
          "name": "aavegotchiInfos_",
          "type": "tuple[]"
        }
      ],
      "stateMutability": "view",
      "type": "function"
    },
    {
      "inputs": [
        {
          "internalType": "address",
          "name": "_approved",
          "type": "address"
        },
        {
          "internalType": "uint256",
          "name": "_tokenId",
          "type": "uint256"
        }
      ],
      "name": "approve",
      "outputs": [],
      "stateMutability": "nonpayable",
      "type": "function"
    },
    {
      "inputs": [
        {
          "internalType": "address",
          "name": "_owner",
          "type": "address"
        }
      ],
      "name": "balanceOf",
      "outputs": [
        {
          "internalType": "uint256",
          "name": "balance_",
          "type": "uint256"
        }
      ],
      "stateMutability": "view",
      "type": "function"
    },
    {
      "inputs": [
        {
          "internalType": "uint256",
          "name": "_tokenId",
          "type": "uint256"
        }
      ],
      "name": "getAavegotchi",
      "outputs": [
        {
          "components": [
            {
              "internalType": "uint256",
              "name": "tokenId",
              "type": "uint256"
            },
            {
              "internalType": "string",
              "name": "name",
              "type": "string"
            },
            {
              "internalType": "address",
              "name": "owner",
              "type": "address"
            },
            {
              "internalType": "uint256",
              "name": "randomNumber",
              "type": "uint256"
            },
            {
              "internalType": "uint256",
              "name": "status",
              "type": "uint256"
            },
            {
              "internalType": "int16[6]",
              "name": "numericTraits",
              "type": "int16[6]"
            },
            {
              "internalType": "int16[6]",
              "name": "modifiedNumericTraits",
              "type": "int16[6]"
            },
            {
              "internalType": "uint16[16]",
              "name": "equippedWearables",
              "type": "uint16[16]"
            },
            {
              "internalType": "address",
              "name": "collateral",
              "type": "address"
            },
            {
              "internalType": "address",
              "name": "escrow",
              "type": "address"
            },
            {
              "internalType": "uint256",
              "name": "stakedAmount",
              "type": "uint256"
            },
            {
              "internalType": "uint256",
              "name": "minimumStake",
              "type": "uint256"
            },
            {
              "internalType": "uint256",
              "name": "kinship",
              "type": "uint256"
            },
            {
              "internalType": "uint256",
              "name": "lastInteracted",
              "type": "uint256"
            },
            {
              "internalType": "uint256",
              "name": "experience",
              "type": "uint256"
            },
            {
              "internalType": "uint256",
              "name": "toNextLevel",
              "type": "uint256"
            },
            {
              "internalType": "uint256",
              "name": "usedSkillPoints",
              "type": "uint256"
            },
            {
              "internalType": "uint256",
              "name": "level",
              "type": "uint256"
            },
            {
              "internalType": "uint256",
              "name": "hauntId",
              "type": "uint256"
            },
            {
              "internalType": "uint256",
              "name": "baseRarityScore",
              "type": "uint256"
            },
            {
              "internalType": "uint256",
              "name": "modifiedRarityScore",
              "type": "uint256"
            },
            {
              "internalType": "bool",
              "name": "locked",
              "type": "bool"
            },
            {
              "components": [
                {
                  "internalType": "uint256",
                  "name": "balance",
                  "type": "uint256"
                },
                {
                  "internalType": "uint256",
                  "name": "itemId",
                  "type": "uint256"
                },
                {
                  "components": [
                    {
                      "internalType": "string",
                      "name": "name",
                      "type": "string"
                    },
                    {
                      "internalType": "string",
                      "name": "description",
                      "type": "string"
                    },
                    {
                      "internalType": "string",
                      "name": "author",
                      "type": "string"
                    },
                    {
                      "internalType": "int8[6]",
                      "name": "traitModifiers",
                      "type": "int8[6]"
                    },
                    {
                      "internalType": "bool[16]",
                      "name": "slotPositions",
                      "type": "bool[16]"
                    },
                    {
                      "internalType": "uint8[]",
                      "name": "allowedCollaterals",
                      "type": "uint8[]"
                    },
                    {
                      "components": [
                        {
                          "internalType": "uint8",
                          "name": "x",
                          "type": "uint8"
                        },
                        {
                          "internalType": "uint8",
                          "name": "y",
                          "type": "uint8"
                        },
                        {
                          "internalType": "uint8",
                          "name": "width",
                          "type": "uint8"
                        },
                        {
                          "internalType": "uint8",
                          "name": "height",
                          "type": "uint8"
                        }
                      ],
                      "internalType": "struct Dimensions",
                      "name": "dimensions",
                      "type": "tuple"
                    },
                    {
                      "internalType": "uint256",
                      "name": "ghstPrice",
                      "type": "uint256"
                    },
                    {
                      "internalType": "uint256",
                      "name": "maxQuantity",
                      "type": "uint256"
                    },
                    {
                      "internalType": "uint32",
                      "name": "svgId",
                      "type": "uint32"
                    },
                    {
                      "internalType": "uint8",
                      "name": "rarityScoreModifier",
                      "type": "uint8"
                    },
                    {
                      "internalType": "bool",
                      "name": "canPurchaseWithGhst",
                      "type": "bool"
                    },
                    {
                      "internalType": "uint32",
                      "name": "totalQuantity",
                      "type": "uint32"
                    },
                    {
                      "internalType": "uint16",
                      "name": "minLevel",
                      "type": "uint16"
                    },
                    {
                      "internalType": "bool",
                      "name": "canBeTransferred",
                      "type": "bool"
                    },
                    {
                      "internalType": "uint8",
                      "name": "category",
                      "type": "uint8"
                    },
                    {
                      "internalType": "int8",
                      "name": "kinshipBonus",
                      "type": "int8"
                    },
                    {
                      "internalType": "uint32",
                      "name": "experienceBonus",
                      "type": "uint32"
                    }
                  ],
                  "internalType": "struct ItemType",
                  "name": "itemType",
                  "type": "tuple"
                }
              ],
              "internalType": "struct ItemTypeIO[]",
              "name": "items",
              "type": "tuple[]"
            }
          ],
          "internalType": "struct AavegotchiInfo",
          "name": "aavegotchiInfo_",
          "type": "tuple"
        }
      ],
      "stateMutability": "view",
      "type": "function"
    },
    {
      "inputs": [
        {
          "internalType": "uint256",
          "name": "_tokenId",
          "type": "uint256"
        }
      ],
      "name": "getApproved",
      "outputs": [
        {
          "internalType": "address",
          "name": "approved_",
          "type": "address"
        }
      ],
      "stateMutability": "view",
      "type": "function"
    },
    {
      "inputs": [
        {
          "internalType": "address",
          "name": "_owner",
          "type": "address"
        },
        {
          "internalType": "address",
          "name": "_operator",
          "type": "address"
        }
      ],
      "name": "isApprovedForAll",
      "outputs": [
        {
          "internalType": "bool",
          "name": "approved_",
          "type": "bool"
        }
      ],
      "stateMutability": "view",
      "type": "function"
    },
    {
      "inputs": [],
      "name": "name",
      "outputs": [
        {
          "internalType": "string",
          "name": "",
          "type": "string"
        }
      ],
      "stateMutability": "pure",
      "type": "function"
    },
    {
      "inputs": [
        {
          "internalType": "uint256",
          "name": "_tokenId",
          "type": "uint256"
        }
      ],
      "name": "ownerOf",
      "outputs": [
        {
          "internalType": "address",
          "name": "owner_",
          "type": "address"
        }
      ],
      "stateMutability": "view",
      "type": "function"
    },
    {
      "inputs": [
        {
          "internalType": "address",
          "name": "_from",
          "type": "address"
        },
        {
          "internalType": "address",
          "name": "_to",
          "type": "address"
        },
        {
          "internalType": "uint256",
          "name": "_tokenId",
          "type": "uint256"
        }
      ],
      "name": "safeTransferFrom",
      "outputs": [],
      "stateMutability": "nonpayable",
      "type": "function"
    },
    {
      "inputs": [
        {
          "internalType": "address",
          "name": "_from",
          "type": "address"
        },
        {
          "internalType": "address",
          "name": "_to",
          "type": "address"
        },
        {
          "internalType": "uint256",
          "name": "_tokenId",
          "type": "uint256"
        },
        {
          "internalType": "bytes",
          "name": "_data",
          "type": "bytes"
        }
      ],
      "name": "safeTransferFrom",
      "outputs": [],
      "stateMutability": "nonpayable",
      "type": "function"
    },
    {
      "inputs": [
        {
          "internalType": "address",
          "name": "_operator",
          "type": "address"
        },
        {
          "internalType": "bool",
          "name": "_approved",
          "type": "bool"
        }
      ],
      "name": "setApprovalForAll",
      "outputs": [],
      "stateMutability": "nonpayable",
      "type": "function"
    },
    {
      "inputs": [],
      "name": "symbol",
      "outputs": [
        {
          "internalType": "string",
          "name": "",
          "type": "string"
        }
      ],
      "stateMutability": "pure",
      "type": "function"
    },
    {
      "inputs": [
        {
          "internalType": "uint256",
          "name": "_index",
          "type": "uint256"
        }
      ],
      "name": "tokenByIndex",
      "outputs": [
        {
          "internalType": "uint256",
          "name": "tokenId_",
          "type": "uint256"
        }
      ],
      "stateMutability": "view",
      "type": "function"
    },
    {
      "inputs": [
        {
          "internalType": "address",
          "name": "_owner",
          "type": "address"
        }
      ],
      "name": "tokenIdsOfOwner",
      "outputs": [
        {
          "internalType": "uint32[]",
          "name": "tokenIds_",
          "type": "uint32[]"
        }
      ],
      "stateMutability": "view",
      "type": "function"
    },
    {
      "inputs": [
        {
          "internalType": "address",
          "name": "_owner",
          "type": "address"
        },
        {
          "internalType": "uint256",
          "name": "_index",
          "type": "uint256"
        }
      ],
      "name": "tokenOfOwnerByIndex",
      "outputs": [
        {
          "internalType": "uint256",
          "name": "tokenId_",
          "type": "uint256"
        }
      ],
      "stateMutability": "view",
      "type": "function"
    },
    {
      "inputs": [
        {
          "internalType": "uint256",
          "name": "_tokenId",
          "type": "uint256"
        }
      ],
      "name": "tokenURI",
      "outputs": [
        {
          "internalType": "string",
          "name": "",
          "type": "string"
        }
      ],
      "stateMutability": "pure",
      "type": "function"
    },
    {
      "inputs": [],
      "name": "totalSupply",
      "outputs": [
        {
          "internalType": "uint256",
          "name": "totalSupply_",
          "type": "uint256"
        }
      ],
      "stateMutability": "view",
      "type": "function"
    },
    {
      "inputs": [
        {
          "internalType": "address",
          "name": "_from",
          "type": "address"
        },
        {
          "internalType": "address",
          "name": "_to",
          "type": "address"
        },
        {
          "internalType": "uint256",
          "name": "_tokenId",
          "type": "uint256"
        }
      ],
      "name": "transferFrom",
      "outputs": [],
      "stateMutability": "nonpayable",
      "type": "function"
    }
  ],
  "bytecode": "0x608060405234801561001057600080fd5b50613564806100206000396000f3fe608060405234801561001057600080fd5b50600436106101165760003560e01c80634f6ccce7116100a25780639e59e598116100715780639e59e5981461023d578063a22cb4651461025d578063b88d4fde14610270578063c87b56dd14610283578063e985e9c51461029657610116565b80634f6ccce7146101fc5780636352211e1461020f57806370a082311461022257806395d89b411461023557610116565b806323b872dd116100e957806323b872dd146101835780632f745c591461019657806333dc83b1146101a957806337c1d569146101c957806342842e0e146101e957610116565b806306fdde031461011b578063081812fc14610139578063095ea7b31461015957806318160ddd1461016e575b600080fd5b6101236102b6565b6040516101309190612dc0565b60405180910390f35b61014c610147366004612760565b6102db565b6040516101309190612cba565b61016c61016736600461270d565b610324565b005b610176610418565b6040516101309190613175565b61016c610191366004612602565b61041e565b6101766101a436600461270d565b610436565b6101bc6101b7366004612592565b6104d0565b6040516101309190612d0b565b6101dc6101d7366004612760565b610605565b6040516101309190613162565b61016c6101f7366004612602565b61061c565b61017661020a366004612760565b610656565b61014c61021d366004612760565b6106c6565b610176610230366004612592565b610703565b610123610747565b61025061024b366004612592565b610767565b6040516101309190612d6b565b61016c61026b3660046126dc565b6107ff565b61016c61027e366004612642565b610894565b610123610291366004612760565b6108f7565b6102a96102a43660046125ca565b61091b565b6040516101309190612db5565b60408051808201909152600a81526941617665676f7463686960b01b60208201525b90565b60105460009082106103085760405162461bcd60e51b81526004016102ff90612eb6565b60405180910390fd5b506000908152601360205260409020546001600160a01b031690565b6000818152600d60205260409020600a01546001600160a01b0316610347610949565b6001600160a01b0316816001600160a01b031614806103a057506001600160a01b038116600090815260126020526040812090610382610949565b6001600160a01b0316815260208101919091526040016000205460ff165b6103bc5760405162461bcd60e51b81526004016102ff90612ff9565b60008281526013602052604080822080546001600160a01b0319166001600160a01b0387811691821790925591518593918516917f8c5be1e5ebec7d5bd14f71427d1e84f3dd0314c0f7b2291e5b200ac8c7c3b92591a4505050565b60105490565b610431610429610949565b8484846109a5565b505050565b6001600160a01b0382166000908152600e6020526040812054821061046d5760405162461bcd60e51b81526004016102ff906130ce565b6001600160a01b0383166000908152600e602052604090208054839081106104a557634e487b7160e01b600052603260045260246000fd5b6000918252602090912060088204015460079091166004026101000a900463ffffffff169392505050565b6001600160a01b0381166000908152600e60205260409020546060908067ffffffffffffffff81111561051357634e487b7160e01b600052604160045260246000fd5b60405190808252806020026020018201604052801561054c57816020015b61053961238a565b8152602001906001900390816105315790505b50915060005b818110156105fe576001600160a01b0384166000908152600e6020526040902080546105c091908390811061059757634e487b7160e01b600052603260045260246000fd5b6000918252602090912060088204015460079091166004026101000a900463ffffffff16610ac8565b8382815181106105e057634e487b7160e01b600052603260045260246000fd5b602002602001018190525080806105f6906134b9565b915050610552565b5050919050565b61060d61238a565b61061682610ac8565b92915050565b6000610626610949565b9050610634818585856109a5565b6106508185858560405180602001604052806000815250610e8c565b50505050565b601054600090821061067a5760405162461bcd60e51b81526004016102ff90613040565b601080548390811061069c57634e487b7160e01b600052603260045260246000fd5b6000918252602090912060088204015460079091166004026101000a900463ffffffff1692915050565b6000818152600d60205260409020600a01546001600160a01b0316806106fe5760405162461bcd60e51b81526004016102ff90612dd3565b919050565b60006001600160a01b03821661072b5760405162461bcd60e51b81526004016102ff90613084565b506001600160a01b03166000908152600e602052604090205490565b604080518082019091526006815265474f5443484960d01b602082015290565b6001600160a01b0381166000908152600e60209081526040918290208054835181840281018401909452808452606093928301828280156107f357602002820191906000526020600020906000905b82829054906101000a900463ffffffff1663ffffffff16815260200190600401906020826003010492830192600103820291508084116107b65790505b50505050509050919050565b806012600061080c610949565b6001600160a01b03908116825260208083019390935260409182016000908120918716808252919093529120805460ff191692151592909217909155610850610949565b6001600160a01b03167f17307eab39ab6107e8899845ad3d59bd9653f200f220920489ca2b5937696c31836040516108889190612db5565b60405180910390a35050565b600061089e610949565b90506108ac818787876109a5565b6108ef8187878787878080601f016020809104026020016040519081016040528093929190818152602001838380828437600092019190915250610e8c92505050565b505050505050565b60606106166040518060600160405280602c8152602001613503602c913983610f47565b6001600160a01b03918216600090815260126020908152604080832093909416825291909152205460ff1690565b6000333014156109a057600080368080601f0160208091040260200160405190810160405280939291908181526020018383808284376000920191909152505050503601516001600160a01b031691506102d89050565b503390565b6001600160a01b0382166109cb5760405162461bcd60e51b81526004016102ff90612f41565b6001600160a01b0383166109f15760405162461bcd60e51b81526004016102ff90613119565b6000818152600d60205260409020600a01546001600160a01b03848116911614610a2d5760405162461bcd60e51b81526004016102ff90612eed565b826001600160a01b0316846001600160a01b03161480610a7257506001600160a01b0380841660009081526012602090815260408083209388168352929052205460ff165b80610a9657506000818152601360205260409020546001600160a01b038581169116145b610ab25760405162461bcd60e51b81526004016102ff90612e14565b610abd838383611073565b61065030828561137d565b610ad061238a565b6000610ada6114c0565b8383526000848152600d820160208181526040808420600a8101546001600160a01b0381169289019290925260048101546060890152600160a01b90910460ff16608088019081529388905291905260090154600160f01b900461ffff166102408501525190915060031415610e86576000838152600d8201602052604090206003018054610b6890613484565b80601f0160208091040260200160405190810160405280929190818152602001828054610b9490613484565b8015610be15780601f10610bb657610100808354040283529160200191610be1565b820191906000526020600020905b815481529060010190602001808311610bc457829003601f168201915b50505050506020838101919091526000848152600d8301909152604080822081516102008101928390529290916010918390855b82829054906101000a900461ffff1661ffff1681526020019060020190602082600101049283019260010382029150808411610c1557505050505060e0840191909152506000838152600d82016020818152604080842060098101546001600160a01b0390811661010089019081529589905293909252600b9091015482166101208601819052925190516370a0823160e01b81529116916370a0823191610cc09190600401612cba565b60206040518083038186803b158015610cd857600080fd5b505afa158015610cec573d6000803e3d6000fd5b505050506040513d601f19601f82011682018060405250810190610d109190612778565b6101408301526000838152600d82016020526040902060060154610160830152610d39836114c5565b6101808301526000838152600d8201602081815260408320600a810154600160a81b900464ffffffffff166101a0870152600501546101c086018190529286905252610d849061153c565b6101e08301526000838152600d82016020526040902060050154610da790611572565b6102208301526000838152600d820160208181526040808420600781015461020088015287855292909152805160c081019182905292600290920191600691908390855b82829054906101000a900460010b60010b81526020019060020190602082600101049283019260010382029150808411610deb57505050505060a0840182905250610e35906115b3565b610260830152610e448361163b565b61028084015260c08301526000838152600d820160205260409020600a0154600160d01b900460ff1615156102a0830152610e7f308461181f565b6102c08301525b50919050565b823b80156108ef57604051630a85bd0160e11b81526001600160a01b0385169063150b7a0290610ec6908990899088908890600401612cce565b602060405180830381600087803b158015610ee057600080fd5b505af1158015610ef4573d6000803e3d6000fd5b505050506040513d601f19601f82011682018060405250810190610f189190612738565b6001600160e01b031916630a85bd0160e11b146108ef5760405162461bcd60e51b81526004016102ff90612e66565b60608082610f775783604051602001610f609190612c83565b604051602081830303815290604052915050610616565b8260005b8115610f8f57600101600a82049150610f7b565b8067ffffffffffffffff811115610fb657634e487b7160e01b600052604160045260246000fd5b6040519080825280601f01601f191660200182016040528015610fe0576020820181803683370190505b50925084915060001981015b821561104557600a830660300160f81b8482806001900393508151811061102357634e487b7160e01b600052603260045260246000fd5b60200101906001600160f81b031916908160001a905350600a83049250610fec565b505050838160405160200161105b929190612c54565b60405160208183030381529060405291505092915050565b600061107d6114c0565b6001600160a01b0385166000818152600f830160209081526040808320878452825280832054938352600e850190915281205492935090916110c190600190613441565b90508082146111cd576001600160a01b0386166000908152600e84016020526040812080548390811061110457634e487b7160e01b600052603260045260246000fd5b90600052602060002090600891828204019190066004029054906101000a900463ffffffff1690508084600e016000896001600160a01b03166001600160a01b03168152602001908152602001600020848154811061117357634e487b7160e01b600052603260045260246000fd5b600091825260208083206008830401805460079093166004026101000a63ffffffff8181021990941695841602949094179093556001600160a01b038a168252600f87018352604080832094909116825292909152208290555b6001600160a01b0386166000908152600e84016020526040902080548061120457634e487b7160e01b600052603160045260246000fd5b60008281526020808220600860001990940193840401805463ffffffff600460078716026101000a0219169055919092556001600160a01b038089168352600f86018252604080842088855283528084208490556013870190925291205416156112bc57600084815260138401602052604080822080546001600160a01b0319169055518591906001600160a01b038916907f8c5be1e5ebec7d5bd14f71427d1e84f3dd0314c0f7b2291e5b200ac8c7c3b925908390a45b6000848152600d840160209081526040808320600a0180546001600160a01b0319166001600160a01b038a8116918217909255808552600e88018085528386208054600f8b0187528588208c8952875285882081905591865260018201815586529385206008850401805460079095166004026101000a63ffffffff81810219909616958b16029490941790935590518793918a16917fddf252ad1be2c89b69c2b068fc378daa952ba7f163c4a11628f55a4df523b3ef91a4505050505050565b60006113876114c0565b6001600160a01b0380861660009081526037830160209081526040808320888452825280832093871683529290522054909150806113c6575050610431565b60008181526031830160205260409020600781015415806113f05750600881015460ff1615156001145b156113fd57505050610431565b600281015460038201546040516331a9108f60e11b81526000926001600160a01b031691636352211e916114349190600401613175565b60206040518083038186803b15801561144c57600080fd5b505afa158015611460573d6000803e3d6000fd5b505050506040513d601f19601f8201168201806040525081019061148491906125ae565b60018301549091506001600160a01b038083169116146114b75760018201546114b79084906001600160a01b0316611e14565b50505050505050565b600090565b6000806114d06114c0565b6000848152600d820160205260408120600a81015460088201549394509092600160a81b90910464ffffffffff16916115098342613441565b9050600061151a6201518083613229565b9050808311156115315761152e8184613441565b96505b505050505050919050565b60008061154883611572565b90508261155660028361328f565b6115619060326133e3565b61156b9190613441565b9392505050565b600062077a42821115611587575060636106fe565b600a61159c6115978460026133e3565b611f2e565b6115a69190613229565b9050610616816001613211565b6000805b6006811015610e865760008382600681106115e257634e487b7160e01b600052603260045260246000fd5b602002015160010b905060328112611610576115ff816001613211565b6116099084613211565b9250611628565b61161b816064613402565b6116259084613211565b92505b5080611633816134b9565b9150506115b7565b611643612467565b60008061164e6114c0565b6000858152600d820160205260409020600a0154909150600160a01b900460ff1660031461168e5760405162461bcd60e51b81526004016102ff90612fc4565b6000848152600d8201602052604090206116a785611f81565b93506000805b60108110156117fc5760008382601081106116d857634e487b7160e01b600052603260045260246000fd5b601081049190910154600f9091166002026101000a900461ffff1690508061170057506117ea565b600085600601828154811061172557634e487b7160e01b600052603260045260246000fd5b90600052602060002090600a0201905060005b60068110156117ca5781600301816006811061176457634e487b7160e01b600052603260045260246000fd5b602091828204019190069054906101000a900460000b60000b89826006811061179d57634e487b7160e01b600052603260045260246000fd5b602002018181516117ae919061318c565b600190810b900b905250806117c2816134b9565b915050611738565b5060098101546117e590640100000000900460ff1685613211565b935050505b806117f4816134b9565b9150506116ad565b506000611808866115b3565b90506118148282613211565b945050505050915091565b6060600061182b6114c0565b6001600160a01b038516600090815260048201602090815260408083208784529091529020549091508067ffffffffffffffff81111561187b57634e487b7160e01b600052604160045260246000fd5b6040519080825280602002602001820160405280156118b457816020015b6118a1612485565b8152602001906001900390816118995790505b50925060005b81811015611e0b576001600160a01b03861660009081526004840160209081526040808320888452909152812080548390811061190757634e487b7160e01b600052603260045260246000fd5b60009182526020808320909101546001600160a01b038a16835260038701825260408084208a85528352808420828552909252912054865191925090829087908590811061196557634e487b7160e01b600052603260045260246000fd5b602002602001015160200181815250508086848151811061199657634e487b7160e01b600052603260045260246000fd5b602090810291909101015152600685018054839081106119c657634e487b7160e01b600052603260045260246000fd5b90600052602060002090600a0201604051806102400160405290816000820180546119f090613484565b80601f0160208091040260200160405190810160405280929190818152602001828054611a1c90613484565b8015611a695780601f10611a3e57610100808354040283529160200191611a69565b820191906000526020600020905b815481529060010190602001808311611a4c57829003601f168201915b50505050508152602001600182018054611a8290613484565b80601f0160208091040260200160405190810160405280929190818152602001828054611aae90613484565b8015611afb5780601f10611ad057610100808354040283529160200191611afb565b820191906000526020600020905b815481529060010190602001808311611ade57829003601f168201915b50505050508152602001600282018054611b1490613484565b80601f0160208091040260200160405190810160405280929190818152602001828054611b4090613484565b8015611b8d5780601f10611b6257610100808354040283529160200191611b8d565b820191906000526020600020905b815481529060010190602001808311611b7057829003601f168201915b50505091835250506040805160c0810191829052602090920191906003840190600690826000855b82829054906101000a900460000b60000b81526020019060010190602082600001049283019260010382029150808411611bb55750505092845250506040805161020081019182905260209093019291506004840190601090826000855b825461010083900a900460ff161515815260206001928301818104948501949093039092029101808411611c135790505050505050815260200160058201805480602002602001604051908101604052809291908181526020018280548015611cb957602002820191906000526020600020906000905b825461010083900a900460ff16815260206001928301818104948501949093039092029101808411611c8a5790505b50505091835250506040805160808082018352600685015460ff80821684526101008083048216602086810191909152620100008404831686880152630100000090930482166060808701919091529287019490945260078701549486019490945260088601549085015260099094015463ffffffff808216958501959095526401000000008104831660a08501526501000000000081048316151560c085015266010000000000008104851660e085015261ffff600160501b82041691840191909152600160601b810482161515610120840152600160681b8104909116610140830152600160701b8104600090810b810b900b610160830152600160781b9004909116610180909101528651879085908110611de757634e487b7160e01b600052603260045260246000fd5b60200260200101516040018190525050508080611e03906134b9565b9150506118ba565b50505092915050565b6000611e1e6114c0565b60008481526032820160205260409020600181015491925090611e42575050611f2a565b60008481526031830160205260409020600881015460ff16151560011480611e6d5750600781015415155b15611e7a57505050611f2a565b60018101546001600160a01b03858116911614611ea95760405162461bcd60e51b81526004016102ff90612f8d565b60088101805460ff1916600117905560038101546000908152600d8401602052604090819020600a01805460ff60d01b191690556004820154905186917f10e53bca620314e794d61e37932062e81c48e88233765d09da42aeb00ae4dba091611f149190439061317e565b60405180910390a2611f26858561212c565b5050505b5050565b6000806002611f3e846001613211565b611f489190613229565b90508291505b81811015610e8657905080600281611f668186613229565b611f709190613211565b611f7a9190613229565b9050611f4e565b611f89612467565b6000611f936114c0565b6000848152600d82016020526040812060090154919250906201518090611fc890600160c81b900464ffffffffff1642613441565b611fd29190613229565b905060005b6006811015612124576000858152600d840160205260408120600201826006811061201257634e487b7160e01b600052603260045260246000fd5b601091828204019190066002029054906101000a900460010b60010b9050600084600d016000888152602001908152602001600020600101836006811061206957634e487b7160e01b600052603260045260246000fd5b602091828204019190069054906101000a900460000b60000b905060008113801561209357508381135b156120b3576120a28482613402565b6120ac90836131d0565b91506120dd565b836120c082600019613360565b13156120dd576120d084826131d0565b6120da90836131d0565b91505b818684600681106120fe57634e487b7160e01b600052603260045260246000fd5b602002019060010b908160010b815250505050808061211c906134b9565b915050611fd7565b505050919050565b60006121366114c0565b6000848152603282016020526040902060018101549192509061215a575050611f2a565b8054801561217c57600081815260328401602052604090206002808401549101555b6002820154801561219c5760008181526032850160205260409020835490555b600086815260318501602090815260408083206004810154845260338801909252918290209151909188916121d090612ca8565b908152602001604051809103902054141561221d5760028401546004820154600090815260338701602052604090819020905161220c90612ca8565b908152604051908190036020019020555b600060018501819055808555600290940184905586845260348501602052604090932080549093909250821561226757600083815260348601602052604090206002808601549101555b6002840154915081156122895760008281526034860160205260409020845490555b50600086815260318501602090815260408083206001600160a01b038916845260358801835281842060048201548552909252918290209151909188916122cf90612ca8565b90815260200160405180910390205414156123305760028401546001600160a01b038716600090815260358701602090815260408083206004860154845290915290819020905161231f90612ca8565b908152604051908190036020019020555b6000600185018190558085556002850155600481015460405188917fd309bba073dd463d9d78e92766d06da7cde7d0e6e83149168a7bc913c9ecc442916123799190429061317e565b60405180910390a250505050505050565b604051806102e00160405280600081526020016060815260200160006001600160a01b0316815260200160008152602001600081526020016123ca612467565b81526020016123d7612467565b81526020016123e46124ab565b815260200160006001600160a01b0316815260200160006001600160a01b031681526020016000815260200160008152602001600081526020016000815260200160008152602001600081526020016000815260200160008152602001600081526020016000815260200160008152602001600015158152602001606081525090565b6040518060c001604052806006906020820280368337509192915050565b604051806060016040528060008152602001600081526020016124a66124ca565b905290565b6040518061020001604052806010906020820280368337509192915050565b6040518061024001604052806060815260200160608152602001606081526020016124f3612467565b81526020016125006124ab565b81526020016060815260200161251461256b565b815260006020820181905260408201819052606082018190526080820181905260a0820181905260c0820181905260e082018190526101008201819052610120820181905261014082018190526101609091015290565b60408051608081018252600080825260208201819052918101829052606081019190915290565b6000602082840312156125a3578081fd5b813561156b816134ea565b6000602082840312156125bf578081fd5b815161156b816134ea565b600080604083850312156125dc578081fd5b82356125e7816134ea565b915060208301356125f7816134ea565b809150509250929050565b600080600060608486031215612616578081fd5b8335612621816134ea565b92506020840135612631816134ea565b929592945050506040919091013590565b600080600080600060808688031215612659578081fd5b8535612664816134ea565b94506020860135612674816134ea565b935060408601359250606086013567ffffffffffffffff80821115612697578283fd5b818801915088601f8301126126aa578283fd5b8135818111156126b8578384fd5b8960208285010111156126c9578384fd5b9699959850939650602001949392505050565b600080604083850312156126ee578182fd5b82356126f9816134ea565b9150602083013580151581146125f7578182fd5b6000806040838503121561271f578182fd5b823561272a816134ea565b946020939093013593505050565b600060208284031215612749578081fd5b81516001600160e01b03198116811461156b578182fd5b600060208284031215612771578081fd5b5035919050565b600060208284031215612789578081fd5b5051919050565b6001600160a01b03169052565b8060005b601081101561065057815115158452602093840193909101906001016127a1565b8060005b6006811015610650578151600190810b855260209485019490920191016127c6565b806000805b6006811015611f26578251820b8552602094850194909201916001016127ed565b6000815180845260208085018081965082840281019150828601855b858110156129f55782840389528151606081518652868201518787015260408083015192508181880152825161052080848a015261286c6105808a0183612a6c565b915089850151605f196080818c860301818d015261288a8584612a6c565b945085880151955060a09250818c860301838d01526128a98587612a6c565b9688015196955060c094506128c08c8601886127e8565b87015195506101806128d48c82018861279d565b828801519650818c8703016103808d01526128ef8688612a29565b96508488015195506129056103a08d0187612c09565b60e08801516104208d01526101008801516104408d015261012088015195506129326104608d0187612c43565b61014088015195506129486104808d0187612c4d565b610160880151955061295e6104a08d0187612a66565b87015194506129749150506104c08a0184612c43565b6101a0850151925061298a6104e08a0184612c3b565b6101c085015192506129a06105008a0184612a66565b6101e085015192506129b4818a0184612c4d565b5050506102008201516129cb610540880182612a98565b5061022082015191506129e2610560870183612c43565b998601999450509084019060010161282a565b5091979650505050505050565b8060005b601081101561065057815161ffff16845260209384019390910190600101612a06565b6000815180845260208085019450808401835b83811015612a5b57815160ff1687529582019590820190600101612a3c565b509495945050505050565b15159052565b60008151808452612a84816020860160208601613458565b601f01601f19169290920160200192915050565b60000b9052565b6000610600825184526020830151816020860152612abf82860182612a6c565b9150506040830151612ad46040860182612790565b50606083015160608501526080830151608085015260a0830151612afb60a08601826127c2565b5060c0830151610160612b10818701836127c2565b60e08501519150610220612b2681880184612a02565b6101008601519250612b3c610420880184612790565b6101208601519250612b52610440880184612790565b610140860151610460880152908501516104808701526101808501516104a08701526101a08501516104c08701526101c08501516104e08701526101e0850151610500870152610200850151610520870152840151610540860152506102408301516105608501526102608301516105808501526102808301516105a08501526102a0830151612be66105c0860182612a66565b506102c08301518482036105e0860152612c00828261280e565b95945050505050565b60ff815116825260ff602082015116602083015260ff604082015116604083015260ff60608201511660608301525050565b61ffff169052565b63ffffffff169052565b60ff169052565b60008351612c66818460208801613458565b835190830190612c7a818360208801613458565b01949350505050565b60008251612c95818460208701613458565b600360fc1b920191825250600101919050565b651b1a5cdd195960d21b815260060190565b6001600160a01b0391909116815260200190565b6001600160a01b0385811682528416602082015260408101839052608060608201819052600090612d0190830184612a6c565b9695505050505050565b6000602080830181845280855180835260408601915060408482028701019250838701855b82811015612d5e57603f19888603018452612d4c858351612a9f565b94509285019290850190600101612d30565b5092979650505050505050565b6020808252825182820181905260009190848201906040850190845b81811015612da957835163ffffffff1683529284019291840191600101612d87565b50909695505050505050565b901515815260200190565b60006020825261156b6020830184612a6c565b60208082526021908201527f41617665676f7463686946616365743a20696e76616c6964205f746f6b656e496040820152601960fa1b606082015260800190565b60208082526032908201527f41617665676f7463686946616365743a204e6f74206f776e6572206f72206170604082015271383937bb32b2103a37903a3930b739b332b960711b606082015260800190565b60208082526030908201527f41617665676f7463686946616365743a205472616e736665722072656a65637460408201526f65642f6661696c6564206279205f746f60801b606082015260800190565b6020808252601a908201527f4552433732313a20746f6b656e496420697320696e76616c6964000000000000604082015260600190565b60208082526034908201527f41617665676f7463686946616365743a205f66726f6d206973206e6f74206f776040820152731b995c8b081d1c985b9cd9995c8819985a5b195960621b606082015260800190565b6020808252602c908201527f41617665676f7463686946616365743a2043616e2774207472616e736665722060408201526b746f2030206164647265737360a01b606082015260800190565b6020808252601d908201527f4d61726b6574706c6163653a206f776e6572206e6f742073656c6c6572000000604082015260600190565b6020808252818101527f41617665676f7463686946616365743a204d75737420626520636c61696d6564604082015260600190565b60208082526027908201527f4552433732313a204e6f74206f776e6572206f72206f70657261746f72206f66604082015266103a37b5b2b71760c91b606082015260800190565b60208082526024908201527f41617665676f7463686946616365743a20696e646578206265796f6e6420737560408201526370706c7960e01b606082015260800190565b6020808252602a908201527f41617665676f7463686946616365743a205f6f776e65722063616e27742062656040820152690206164647265737328360b41b606082015260800190565b6020808252602b908201527f41617665676f7463686946616365743a20696e646578206265796f6e64206f7760408201526a6e65722062616c616e636560a81b606082015260800190565b60208082526029908201527f41617665676f7463686946616365743a205f66726f6d2063616e27742062652060408201526830206164647265737360b81b606082015260800190565b60006020825261156b6020830184612a9f565b90815260200190565b918252602082015260400190565b60008160010b8360010b82821282617fff038213811516156131b0576131b06134d4565b82617fff190382128116156131c7576131c76134d4565b50019392505050565b600080821280156001600160ff1b03849003851316156131f2576131f26134d4565b600160ff1b839003841281161561320b5761320b6134d4565b50500190565b60008219821115613224576132246134d4565b500190565b60008261324457634e487b7160e01b81526012600452602481fd5b500490565b80825b600180861161325b5750613286565b81870482111561326d5761326d6134d4565b8086161561327a57918102915b9490941c93800261324c565b94509492505050565b600061156b60001960ff8516846000826132ab5750600161156b565b816132b85750600061156b565b81600181146132ce57600281146132d857613305565b600191505061156b565b60ff8411156132e9576132e96134d4565b6001841b9150848211156132ff576132ff6134d4565b5061156b565b5060208310610133831016604e8410600b8410161715613338575081810a83811115613333576133336134d4565b61156b565b6133458484846001613249565b808604821115613357576133576134d4565b02949350505050565b60006001600160ff1b0381841382841380821686840486111615613386576133866134d4565b600160ff1b848712828116878305891216156133a4576133a46134d4565b8587129250878205871284841616156133bf576133bf6134d4565b878505871281841616156133d5576133d56134d4565b505050929093029392505050565b60008160001904831182151516156133fd576133fd6134d4565b500290565b60008083128015600160ff1b850184121615613420576134206134d4565b6001600160ff1b038401831381161561343b5761343b6134d4565b50500390565b600082821015613453576134536134d4565b500390565b60005b8381101561347357818101518382015260200161345b565b838111156106505750506000910152565b60028104600182168061349857607f821691505b60208210811415610e8657634e487b7160e01b600052602260045260246000fd5b60006000198214156134cd576134cd6134d4565b5060010190565b634e487b7160e01b600052601160045260246000fd5b6001600160a01b03811681146134ff57600080fd5b5056fe68747470733a2f2f61617665676f746368692e636f6d2f6d657461646174612f61617665676f74636869732fa2646970667358221220794972edd50b5f69b7c29b30640cbe0438f991ed0cee464bd9bbf8e6582ad26f64736f6c63430008010033",
  "linkReferences": {},
  "deployedLinkReferences": {}
}