{
    "_format": "hh-sol-artifact-1",
    "contractName": "BridgeFacet",
    "sourceName": "contracts/Aavegotchi/facets/BridgeFacet.sol",
    "abi": [
        {
            "anonymous": false,
            "inputs": [
                {
                    "indexed": true,
                    "internalType": "address",
                    "name": "owner",
                    "type": "address"
                },
                {
                    "indexed": false,
                    "internalType": "uint256[]",
                    "name": "tokenIds",
                    "type": "uint256[]"
                }
            ],
            "name": "AddedAavegotchiBatch",
            "type": "event"
        },
        {
            "anonymous": false,
            "inputs": [
                {
                    "indexed": true,
                    "internalType": "address",
                    "name": "owner",
                    "type": "address"
                },
                {
                    "indexed": false,
                    "internalType": "uint256[]",
                    "name": "ids",
                    "type": "uint256[]"
                },
                {
                    "indexed": false,
                    "internalType": "uint256[]",
                    "name": "values",
                    "type": "uint256[]"
                }
            ],
            "name": "AddedItemsBatch",
            "type": "event"
        },
        {
            "anonymous": false,
            "inputs": [
                {
                    "indexed": true,
                    "internalType": "address",
                    "name": "_owner",
                    "type": "address"
                },
                {
                    "indexed": true,
                    "internalType": "address",
                    "name": "_approved",
                    "type": "address"
                },
                {
                    "indexed": true,
                    "internalType": "uint256",
                    "name": "_tokenId",
                    "type": "uint256"
                }
            ],
            "name": "Approval",
            "type": "event"
        },
        {
            "anonymous": false,
            "inputs": [
                {
                    "indexed": true,
                    "internalType": "address",
                    "name": "_from",
                    "type": "address"
                },
                {
                    "indexed": true,
                    "internalType": "address",
                    "name": "_to",
                    "type": "address"
                },
                {
                    "indexed": true,
                    "internalType": "uint256",
                    "name": "_tokenId",
                    "type": "uint256"
                }
            ],
            "name": "Transfer",
            "type": "event"
        },
        {
            "anonymous": false,
            "inputs": [
                {
                    "indexed": true,
                    "internalType": "address",
                    "name": "_operator",
                    "type": "address"
                },
                {
                    "indexed": true,
                    "internalType": "address",
                    "name": "_from",
                    "type": "address"
                },
                {
                    "indexed": true,
                    "internalType": "address",
                    "name": "_to",
                    "type": "address"
                },
                {
                    "indexed": false,
                    "internalType": "uint256[]",
                    "name": "_ids",
                    "type": "uint256[]"
                },
                {
                    "indexed": false,
                    "internalType": "uint256[]",
                    "name": "_values",
                    "type": "uint256[]"
                }
            ],
            "name": "TransferBatch",
            "type": "event"
        },
        {
            "anonymous": false,
            "inputs": [
                {
                    "indexed": true,
                    "internalType": "address",
                    "name": "owner",
                    "type": "address"
                },
                {
                    "indexed": false,
                    "internalType": "uint256[]",
                    "name": "tokenIds",
                    "type": "uint256[]"
                }
            ],
            "name": "WithdrawnBatch",
            "type": "event"
        },
        {
            "anonymous": false,
            "inputs": [
                {
                    "indexed": true,
                    "internalType": "address",
                    "name": "owner",
                    "type": "address"
                },
                {
                    "indexed": false,
                    "internalType": "uint256[]",
                    "name": "ids",
                    "type": "uint256[]"
                },
                {
                    "indexed": false,
                    "internalType": "uint256[]",
                    "name": "values",
                    "type": "uint256[]"
                }
            ],
            "name": "WithdrawnItems",
            "type": "event"
        },
        {
            "inputs": [],
            "name": "childChainManager",
            "outputs": [
                {
                    "internalType": "address",
                    "name": "",
                    "type": "address"
                }
            ],
            "stateMutability": "view",
            "type": "function"
        },
        {
            "inputs": [
                {
                    "internalType": "address",
                    "name": "user",
                    "type": "address"
                },
                {
                    "internalType": "bytes",
                    "name": "depositData",
                    "type": "bytes"
                }
            ],
            "name": "deposit",
            "outputs": [],
            "stateMutability": "nonpayable",
            "type": "function"
        },
        {
            "inputs": [
                {
                    "internalType": "address",
                    "name": "_newChildChainManager",
                    "type": "address"
                }
            ],
            "name": "setChildChainManager",
            "outputs": [],
            "stateMutability": "nonpayable",
            "type": "function"
        },
        {
            "inputs": [
                {
                    "internalType": "uint256[]",
                    "name": "_tokenIds",
                    "type": "uint256[]"
                }
            ],
            "name": "withdrawAavegotchiBatch",
            "outputs": [],
            "stateMutability": "nonpayable",
            "type": "function"
        },
        {
            "inputs": [
                {
                    "internalType": "uint256[]",
                    "name": "_ids",
                    "type": "uint256[]"
                },
                {
                    "internalType": "uint256[]",
                    "name": "_values",
                    "type": "uint256[]"
                }
            ],
            "name": "withdrawItemsBatch",
            "outputs": [],
            "stateMutability": "nonpayable",
            "type": "function"
        }
    ],
    "bytecode": "0x608060405234801561001057600080fd5b5061181e806100206000396000f3fe608060405234801561001057600080fd5b50600436106100575760003560e01c80633ca65d311461005c5780636c80c16c14610071578063764a81bb14610084578063c8291d8414610097578063cf2c52cb146100b5575b600080fd5b61006f61006a36600461113c565b6100c8565b005b61006f61007f36600461117c565b6102e1565b61006f61009236600461109d565b6104cd565b61009f61056d565b6040516100ac91906113b2565b60405180910390f35b61006f6100c33660046110be565b61057d565b60006100d26108fa565b905060148211156100fe5760405162461bcd60e51b81526004016100f590611466565b60405180910390fd5b60005b8281101561029857600084848381811061012b57634e487b7160e01b600052603260045260246000fd5b602090810292909201356000818152600a909352604090922060060154919250506001600160a01b038481169116146101765760405162461bcd60e51b81526004016100f5906115dc565b6000818152600a6020908152604080832060060180546001600160a01b031916301790556001600160a01b0386168352600490915281208054916101b98361178a565b90915550503060009081526004602052604081208054916101d9836117a1565b90915550506000818152600c60205260409020546001600160a01b03161561024d576000818152600c602052604080822080546001600160a01b0319169055518291906001600160a01b038616907f8c5be1e5ebec7d5bd14f71427d1e84f3dd0314c0f7b2291e5b200ac8c7c3b925908390a45b604051819030906001600160a01b038616907fddf252ad1be2c89b69c2b068fc378daa952ba7f163c4a11628f55a4df523b3ef90600090a45080610290816117a1565b915050610101565b50806001600160a01b03167ff871896b17e9cb7a64941c62c188a4f5c621b86800e3d15452ece01ce56073df84846040516102d49291906113df565b60405180910390a2505050565b8281146103005760405162461bcd60e51b81526004016100f590611598565b60148311156103215760405162461bcd60e51b81526004016100f590611660565b600061032b6108fa565b905060005b8481101561042257600086868381811061035a57634e487b7160e01b600052603260045260246000fd5b905060200201359050600085858481811061038557634e487b7160e01b600052603260045260246000fd5b6001600160a01b038716600090815260086020908152604080832088845282529091205491029290920135925050808211156103d35760405162461bcd60e51b81526004016100f5906116bd565b6103dd8282611773565b6001600160a01b038616600090815260086020908152604080832087845290915290205561040c308487610956565b505050808061041a906117a1565b915050610330565b5060006001600160a01b0316816001600160a01b0316826001600160a01b03167f4a39dc06d4c0dbc64b70af90fd698a233a518aa5d07e595d983b8c0526c8f7fb8888888860405161047794939291906113f3565b60405180910390a4806001600160a01b03167f5e9327766a4ba5751ce7b12a3b9bb503da13d20e7c5ad6eed0228e87b38bd6f0868686866040516104be94939291906113f3565b60405180910390a25050505050565b6014546001600160a01b03166104e16108fa565b6001600160a01b0316148061051557506104f9610b03565b6001600160a01b031661050a6108fa565b6001600160a01b0316145b8061052f5750306105246108fa565b6001600160a01b0316145b61054b5760405162461bcd60e51b81526004016100f5906114c3565b601280546001600160a01b0319166001600160a01b0392909216919091179055565b6012546001600160a01b03165b90565b6012546001600160a01b031633146105a75760405162461bcd60e51b81526004016100f59061153b565b6000806105b683850185611299565b9150915061048382141561075a57600080828060200190518101906105db9190611220565b9150915080518251146106005760405162461bcd60e51b81526004016100f590611613565b60005b82518110156106b757600083828151811061062e57634e487b7160e01b600052603260045260246000fd5b60200260200101519050600083838151811061065a57634e487b7160e01b600052603260045260246000fd5b6020908102919091018101516001600160a01b038c16600090815260088352604080822086835290935291822080549193508392909161069b90849061175b565b92505081905550505080806106af906117a1565b915050610603565b50866001600160a01b031660006001600160a01b0316336001600160a01b03167f4a39dc06d4c0dbc64b70af90fd698a233a518aa5d07e595d983b8c0526c8f7fb8585604051610708929190611438565b60405180910390a4866001600160a01b03167f1f8f7e06c46965f34545e8fe6b5116f98558ddf6c119e4cb12135666444f6701838360405161074b929190611438565b60405180910390a250506108f3565b6102d18214156108f35760008180602001905181019061077a91906111e5565b905060005b81518110156108af5760008282815181106107aa57634e487b7160e01b600052603260045260246000fd5b6020908102919091018101516000818152600a9092526040909120600601549091506001600160a01b031630146107f35760405162461bcd60e51b81526004016100f5906115dc565b6000818152600a6020908152604080832060060180546001600160a01b0319166001600160a01b038d16179055308352600490915281208054916108368361178a565b90915550506001600160a01b038816600090815260046020526040812080549161085f836117a1565b909155505060405181906001600160a01b038a169030907fddf252ad1be2c89b69c2b068fc378daa952ba7f163c4a11628f55a4df523b3ef90600090a450806108a7816117a1565b91505061077f565b50856001600160a01b03167f2be1d5905fdd327f39acf22a61508eaff689730a11be0822474721edd76ccbd5826040516108e99190611425565b60405180910390a2505b5050505050565b60003330141561095157600080368080601f0160208091040260200160405190810160405280939291908181526020018383808284376000920191909152505050503601516001600160a01b0316915061057a9050565b503390565b6000610960610b1f565b6001600160a01b0380861660009081526020808401815260408083208884528252808320938716835292905220549091508061099d575050610afe565b6000818152601b830160205260409020600781015415806109cd5750600a81015460ff6101009091041615156001145b806109e15750600a81015460ff1615156001145b156109ee57505050610afe565b60058101548015610ae057600282015460018301546003840154604051627eeac760e11b81526001600160a01b039384169362fdd58e93610a34939116916004016113c6565b60206040518083038186803b158015610a4c57600080fd5b505afa158015610a60573d6000803e3d6000fd5b505050506040513d601f19601f82011682018060405250810190610a849190611281565b90508160050154811015610adb5760058201819055600682015460405184917f9a1e053d28c2efc6add1e4a5d1647a99e883b256a54f9ef4a0abf8fcba643a5591610ad29185914290611714565b60405180910390a25b610af9565b6001820154610af99084906001600160a01b0316610b24565b505050505b505050565b6000610b0d610c49565b600401546001600160a01b0316919050565b600090565b6000610b2e610b1f565b9050600081601d01604051610b42906113a0565b908152602001604051809103902060008581526020019081526020016000209050806001015460001415610b77575050610c45565b6000848152601b830160205260409020600a81015460ff61010090910416151560011480610bae5750600a81015460ff1615156001145b15610bbb57505050610c45565b60018101546001600160a01b03858116911614610bea5760405162461bcd60e51b81526004016100f590611504565b600a8101805461ff001916610100179055600481015460405186917fc1ee70d4dadc0ea8041f31f81b07d0ac9374b6bf41956d9cae562e672f3f8a9191610c3391904390611706565b60405180910390a26108f38585610c6d565b5050565b7fc8fcad8db84d3cc18b4c41d551ea0ee66dd599cde068d998e57d5e09332c131c90565b6000610c77610b1f565b9050600081601d01604051610c8b906113a0565b908152602001604051809103902060008581526020019081526020016000209050806001015460001415610cc0575050610c45565b80548015610cff57600083601d01604051610cda906113a0565b9081526040805160209281900383019020600085815292529020600284810154910155505b60028201548015610d3c57600084601d01604051610d1c906113a0565b908152604080516020928190038301902060008581529252902084549055505b6000868152601b85016020908152604080832060048101548452601c880190925291829020915190918891610d70906113a0565b9081526020016040518091039020541415610dbd57600284015460048201546000908152601c87016020526040908190209051610dac906113a0565b908152604051908190036020019020555b6000600185018190558085556002850155604051601f860190610ddf906113a0565b908152604080516020928190038301902060008a815292529020805490945092508215610e3d57600085601f01604051610e18906113a0565b9081526040805160209281900383019020600087815292529020600286810154910155505b600284015491508115610e7c57600085601f01604051610e5c906113a0565b908152604080516020928190038301902060008681529252902085549055505b506000868152601b8501602090815260408083206001600160a01b0389168452601e880183528184206004820154855290925291829020915190918891610ec2906113a0565b9081526020016040518091039020541415610f235760028401546001600160a01b0387166000908152601e87016020908152604080832060048601548452909152908190209051610f12906113a0565b908152604051908190036020019020555b60006001850181905580855560028086018290558201546001600160a01b039081168252602080880181526040808420600386015485528252808420928a168452919052808220919091556004820154905188917f276ac39b0f98215592b4487434c1618e3e527c57ca2f471ac93eb4eab169409191610fa591904290611706565b60405180910390a250505050505050565b80356001600160a01b0381168114610fcd57600080fd5b919050565b60008083601f840112610fe3578182fd5b50813567ffffffffffffffff811115610ffa578182fd5b602083019150836020808302850101111561101457600080fd5b9250929050565b600082601f83011261102b578081fd5b8151602067ffffffffffffffff821115611047576110476117d2565b80820261105582820161172a565b83815282810190868401838801850189101561106f578687fd5b8693505b85841015611091578051835260019390930192918401918401611073565b50979650505050505050565b6000602082840312156110ae578081fd5b6110b782610fb6565b9392505050565b6000806000604084860312156110d2578182fd5b6110db84610fb6565b9250602084013567ffffffffffffffff808211156110f7578384fd5b818601915086601f83011261110a578384fd5b813581811115611118578485fd5b876020828501011115611129578485fd5b6020830194508093505050509250925092565b6000806020838503121561114e578182fd5b823567ffffffffffffffff811115611164578283fd5b61117085828601610fd2565b90969095509350505050565b60008060008060408587031215611191578081fd5b843567ffffffffffffffff808211156111a8578283fd5b6111b488838901610fd2565b909650945060208701359150808211156111cc578283fd5b506111d987828801610fd2565b95989497509550505050565b6000602082840312156111f6578081fd5b815167ffffffffffffffff81111561120c578182fd5b6112188482850161101b565b949350505050565b60008060408385031215611232578182fd5b825167ffffffffffffffff80821115611249578384fd5b6112558683870161101b565b9350602085015191508082111561126a578283fd5b506112778582860161101b565b9150509250929050565b600060208284031215611292578081fd5b5051919050565b600080604083850312156112ab578182fd5b8235915060208084013567ffffffffffffffff808211156112ca578384fd5b818601915086601f8301126112dd578384fd5b8135818111156112ef576112ef6117d2565b611301601f8201601f1916850161172a565b91508082528784828501011115611316578485fd5b8084840185840137810190920192909252919491935090915050565b81835260006001600160fb1b0383111561134a578081fd5b6020830280836020870137939093016020019283525090919050565b6000815180845260208085019450808401835b8381101561139557815187529582019590820190600101611379565b509495945050505050565b651b1a5cdd195960d21b815260060190565b6001600160a01b0391909116815260200190565b6001600160a01b03929092168252602082015260400190565b600060208252611218602083018486611332565b600060408252611407604083018688611332565b828103602084015261141a818587611332565b979650505050505050565b6000602082526110b76020830184611366565b60006040825261144b6040830185611366565b828103602084015261145d8185611366565b95945050505050565b6020808252603e908201527f41617665676f7463686946616365743a2065786365656473207769746864726160408201527f77206c696d697420666f722073696e676c65207472616e73616374696f6e0000606082015260800190565b60208082526021908201527f4c696241707053746f726167653a20446f206e6f7420686176652061636365736040820152607360f81b606082015260800190565b6020808252601d908201527f4d61726b6574706c6163653a206f776e6572206e6f742073656c6c6572000000604082015260600190565b6020808252603a908201527f42726964676546616365743a206f6e6c79206368696c64436861696e4d616e6160408201527f6765722063616e2063616c6c20746869732066756e6374696f6e000000000000606082015260800190565b60208082526024908201527f4974656d733a20696473206e6f742073616d65206c656e6774682061732076616040820152636c75657360e01b606082015260800190565b6020808252601f908201527f42726964676546616365743a204e6f74206f776e6572206f6620746f6b656e00604082015260600190565b6020808252602d908201527f4272696467653a20696473206c656e677468206e6f7420657175616c20746f2060408201526c0ecc2d8eacae640d8cadccee8d609b1b606082015260800190565b60208082526038908201527f4974656d733a206578636565646564206d6178206e756d626572206f6620696460408201527f7320666f722073696e676c65207472616e73616374696f6e0000000000000000606082015260800190565b60208082526029908201527f4974656d733a20446f65736e277420686176652074686174206d616e7920746f604082015268103a3930b739b332b960b91b606082015260800190565b918252602082015260400190565b9283526020830191909152604082015260600190565b604051601f8201601f1916810167ffffffffffffffff81118282101715611753576117536117d2565b604052919050565b6000821982111561176e5761176e6117bc565b500190565b600082821015611785576117856117bc565b500390565b600081611799576117996117bc565b506000190190565b60006000198214156117b5576117b56117bc565b5060010190565b634e487b7160e01b600052601160045260246000fd5b634e487b7160e01b600052604160045260246000fdfea2646970667358221220fe538e675a5a19beb9338e9552cb3ef890b6c43cabc6abd7f447535e56f536a864736f6c63430008010033",
    "linkReferences": {},
    "deployedLinkReferences": {}
}