{
    "_format": "hh-sol-artifact-1",
    "contractName": "CollateralFacet",
    "sourceName": "contracts/Aavegotchi/facets/CollateralFacet.sol",
    "abi": [
        {
            "anonymous": false,
            "inputs": [
                {
                    "indexed": true,
                    "internalType": "uint256",
                    "name": "_tokenId",
                    "type": "uint256"
                },
                {
                    "indexed": false,
                    "internalType": "uint256",
                    "name": "_reduceAmount",
                    "type": "uint256"
                }
            ],
            "name": "DecreaseStake",
            "type": "event"
        },
        {
            "anonymous": false,
            "inputs": [
                {
                    "indexed": true,
                    "internalType": "uint256",
                    "name": "_fromTokenId",
                    "type": "uint256"
                },
                {
                    "indexed": true,
                    "internalType": "uint256",
                    "name": "_toTokenId",
                    "type": "uint256"
                },
                {
                    "indexed": false,
                    "internalType": "uint256",
                    "name": "experience",
                    "type": "uint256"
                }
            ],
            "name": "ExperienceTransfer",
            "type": "event"
        },
        {
            "anonymous": false,
            "inputs": [
                {
                    "indexed": true,
                    "internalType": "uint256",
                    "name": "_tokenId",
                    "type": "uint256"
                },
                {
                    "indexed": false,
                    "internalType": "uint256",
                    "name": "_stakeAmount",
                    "type": "uint256"
                }
            ],
            "name": "IncreaseStake",
            "type": "event"
        },
        {
            "inputs": [
                {
                    "internalType": "uint256",
                    "name": "_tokenId",
                    "type": "uint256"
                }
            ],
            "name": "collateralBalance",
            "outputs": [
                {
                    "internalType": "address",
                    "name": "collateralType_",
                    "type": "address"
                },
                {
                    "internalType": "address",
                    "name": "escrow_",
                    "type": "address"
                },
                {
                    "internalType": "uint256",
                    "name": "balance_",
                    "type": "uint256"
                }
            ],
            "stateMutability": "view",
            "type": "function"
        },
        {
            "inputs": [
                {
                    "internalType": "uint256",
                    "name": "_collateralId",
                    "type": "uint256"
                }
            ],
            "name": "collateralInfo",
            "outputs": [
                {
                    "components": [
                        {
                            "internalType": "address",
                            "name": "collateralType",
                            "type": "address"
                        },
                        {
                            "components": [
                                {
                                    "internalType": "int16[6]",
                                    "name": "modifiers",
                                    "type": "int16[6]"
                                },
                                {
                                    "internalType": "bytes3",
                                    "name": "primaryColor",
                                    "type": "bytes3"
                                },
                                {
                                    "internalType": "bytes3",
                                    "name": "secondaryColor",
                                    "type": "bytes3"
                                },
                                {
                                    "internalType": "bytes3",
                                    "name": "cheekColor",
                                    "type": "bytes3"
                                },
                                {
                                    "internalType": "uint8",
                                    "name": "svgId",
                                    "type": "uint8"
                                },
                                {
                                    "internalType": "uint8",
                                    "name": "eyeShapeSvgId",
                                    "type": "uint8"
                                },
                                {
                                    "internalType": "uint16",
                                    "name": "conversionRate",
                                    "type": "uint16"
                                },
                                {
                                    "internalType": "bool",
                                    "name": "delisted",
                                    "type": "bool"
                                }
                            ],
                            "internalType": "struct AavegotchiCollateralTypeInfo",
                            "name": "collateralTypeInfo",
                            "type": "tuple"
                        }
                    ],
                    "internalType": "struct AavegotchiCollateralTypeIO",
                    "name": "collateralInfo_",
                    "type": "tuple"
                }
            ],
            "stateMutability": "view",
            "type": "function"
        },
        {
            "inputs": [],
            "name": "collaterals",
            "outputs": [
                {
                    "internalType": "address[]",
                    "name": "collateralTypes_",
                    "type": "address[]"
                }
            ],
            "stateMutability": "view",
            "type": "function"
        },
        {
            "inputs": [
                {
                    "internalType": "uint256",
                    "name": "_tokenId",
                    "type": "uint256"
                },
                {
                    "internalType": "uint256",
                    "name": "_toId",
                    "type": "uint256"
                }
            ],
            "name": "decreaseAndDestroy",
            "outputs": [],
            "stateMutability": "nonpayable",
            "type": "function"
        },
        {
            "inputs": [
                {
                    "internalType": "uint256",
                    "name": "_tokenId",
                    "type": "uint256"
                },
                {
                    "internalType": "uint256",
                    "name": "_reduceAmount",
                    "type": "uint256"
                }
            ],
            "name": "decreaseStake",
            "outputs": [],
            "stateMutability": "nonpayable",
            "type": "function"
        },
        {
            "inputs": [],
            "name": "getCollateralInfo",
            "outputs": [
                {
                    "components": [
                        {
                            "internalType": "address",
                            "name": "collateralType",
                            "type": "address"
                        },
                        {
                            "components": [
                                {
                                    "internalType": "int16[6]",
                                    "name": "modifiers",
                                    "type": "int16[6]"
                                },
                                {
                                    "internalType": "bytes3",
                                    "name": "primaryColor",
                                    "type": "bytes3"
                                },
                                {
                                    "internalType": "bytes3",
                                    "name": "secondaryColor",
                                    "type": "bytes3"
                                },
                                {
                                    "internalType": "bytes3",
                                    "name": "cheekColor",
                                    "type": "bytes3"
                                },
                                {
                                    "internalType": "uint8",
                                    "name": "svgId",
                                    "type": "uint8"
                                },
                                {
                                    "internalType": "uint8",
                                    "name": "eyeShapeSvgId",
                                    "type": "uint8"
                                },
                                {
                                    "internalType": "uint16",
                                    "name": "conversionRate",
                                    "type": "uint16"
                                },
                                {
                                    "internalType": "bool",
                                    "name": "delisted",
                                    "type": "bool"
                                }
                            ],
                            "internalType": "struct AavegotchiCollateralTypeInfo",
                            "name": "collateralTypeInfo",
                            "type": "tuple"
                        }
                    ],
                    "internalType": "struct AavegotchiCollateralTypeIO[]",
                    "name": "collateralInfo_",
                    "type": "tuple[]"
                }
            ],
            "stateMutability": "view",
            "type": "function"
        },
        {
            "inputs": [
                {
                    "internalType": "uint256",
                    "name": "_tokenId",
                    "type": "uint256"
                },
                {
                    "internalType": "uint256",
                    "name": "_stakeAmount",
                    "type": "uint256"
                }
            ],
            "name": "increaseStake",
            "outputs": [],
            "stateMutability": "nonpayable",
            "type": "function"
        }
    ],
    "bytecode": "0x608060405234801561001057600080fd5b5061193c806100206000396000f3fe608060405234801561001057600080fd5b506004361061007d5760003560e01c80634113e5ca1161005b5780634113e5ca146100d557806349aa1f27146100ea5780634cd5d1f7146100fd578063bec10cde1461011f5761007d565b806324a6665e1461008257806324d86f00146100ab5780632e0bcb43146100c0575b600080fd5b610095610090366004611271565b610132565b6040516100a291906117f0565b60405180910390f35b6100be6100b93660046112a1565b61027c565b005b6100c861047e565b6040516100a291906114f5565b6100dd6106ee565b6040516100a291906114a8565b6100be6100f83660046112a1565b610753565b61011061010b366004611271565b610dd2565b6040516100a293929190611484565b6100be61012d3660046112a1565b610ea6565b61013a61115a565b600080601301838154811061015f57634e487b7160e01b600052603260045260246000fd5b60009182526020808320909101546040805180820182526001600160a01b039092168083528085528484529381902081516101c081019092529394509092918301918161010081018260068282826020028201916000905b82829054906101000a900460010b60010b815260200190600201906020826001010492830192600103820291508084116101b75790505050509183525050600191909101546001600160e81b031960e882811b8216602085015263010000008304811b8216604085015266010000000000008304901b16606083015260ff600160481b820481166080840152600160501b8204811660a084015261ffff600160581b83041660c0840152600160681b90910416151560e0909101529052915050919050565b600082815260096020819052604090912001548290600160a01b900460ff16156102c15760405162461bcd60e51b81526004016102b8906116ea565b60405180910390fd5b60008381526009602052604090206006015483906001600160a01b03166102e6610f9d565b6001600160a01b03161461030c5760405162461bcd60e51b81526004016102b89061173e565b600084815260096020819052604090912001546001600160a01b0316806103455760405162461bcd60e51b81526004016102b890611650565b6000858152600960205260408082206007015490516370a0823160e01b81526001600160a01b03909116919082906370a0823190610387908690600401611470565b60206040518083038186803b15801561039f57600080fd5b505afa1580156103b3573d6000803e3d6000fd5b505050506040513d601f19601f820116820180604052508101906103d79190611289565b600088815260096020526040902060070154909150600160a01b90046affffffffffffffffffffff168061040b8884611853565b10156104295760405162461bcd60e51b81526004016102b890611698565b877f43c2f51b091d7988a9b26b7a0f304df6ca31ce05c86ac8ff6cb581529598b636886040516104599190611805565b60405180910390a2610474838561046e610f9d565b8a610ffa565b5050505050505050565b60606000806013018054806020026020016040519081016040528092919081815260200182805480156104da57602002820191906000526020600020905b81546001600160a01b031681526001909101906020018083116104bc575b50505050509050805167ffffffffffffffff81111561050957634e487b7160e01b600052604160045260246000fd5b60405190808252806020026020018201604052801561054257816020015b61052f61115a565b8152602001906001900390816105275790505b50915060005b81518110156106e957600082828151811061057357634e487b7160e01b600052603260045260246000fd5b602002602001015190508084838151811061059e57634e487b7160e01b600052603260045260246000fd5b6020908102919091018101516001600160a01b03928316905290821660009081529081905260409081902081516101c081019092528161010081018260068282826020028201916000905b82829054906101000a900460010b60010b815260200190600201906020826001010492830192600103820291508084116105e95790505050509183525050600191909101546001600160e81b031960e882811b8216602085015263010000008304811b8216604085015266010000000000008304901b16606083015260ff600160481b820481166080840152600160501b8204811660a084015261ffff600160581b83041660c0840152600160681b90910416151560e09091015284518590849081106106c657634e487b7160e01b600052603260045260246000fd5b6020026020010151602001819052505080806106e1906118d5565b915050610548565b505090565b6060600060130180548060200260200160405190810160405280929190818152602001828054801561074957602002820191906000526020600020905b81546001600160a01b0316815260019091019060200180831161072b575b5050505050905090565b600082815260096020819052604090912001548290600160a01b900460ff161561078f5760405162461bcd60e51b81526004016102b8906116ea565b60008381526009602052604090206006015483906001600160a01b03166107b4610f9d565b6001600160a01b0316146107da5760405162461bcd60e51b81526004016102b89061173e565b600084815260096020819052604090912001546001600160a01b0316806108135760405162461bcd60e51b81526004016102b890611650565b60045460005b818110156108c057600080600401828154811061084657634e487b7160e01b600052603260045260246000fd5b6000918252602090912060099091020160070154670100000000000000900460ff1614156108ae573060009081526003602090815260408083208a84528252808320848452909152902054156108ae5760405162461bcd60e51b81526004016102b89061179b565b806108b8816118d5565b915050610819565b508486146109775760008681526009602052604090819020600601549051600160b81b90910463ffffffff1690869088907fdf6a3b0443afce6d49c4e3983c00bd5f97d9dbce878fe8794403702665f7b4c29061091e90859061180e565b60405180910390a360008681526009602052604090206006018054829190601790610957908490600160b81b900463ffffffff1661182b565b92506101000a81548163ffffffff021916908363ffffffff160217905550505b600086815260096020526040812060060180546001600160a01b031916905561099e610f9d565b6001600160a01b0381166000818152600b602090815260408083208c8452825280832054938352600a90915281205492935090916109de90600190611853565b9050808214610ae7576001600160a01b0383166000908152600a60205260408120805483908110610a1f57634e487b7160e01b600052603260045260246000fd5b90600052602060002090600891828204019190066004029054906101000a900463ffffffff169050806000600a016000866001600160a01b03166001600160a01b031681526020019081526020016000208481548110610a8f57634e487b7160e01b600052603260045260246000fd5b600091825260208083206008830401805460079093166004026101000a63ffffffff8181021990941695841602949094179093556001600160a01b0387168252600b8352604080832094909116825292909152208290555b6001600160a01b0383166000908152600a60205260409020805480610b1c57634e487b7160e01b600052603160045260246000fd5b60008281526020808220600860001990940193840401805463ffffffff600460078716026101000a0219169055919092556001600160a01b038086168352600b825260408084208d85528352808420849055600f9092529120541615610bce576000898152600f602052604080822080546001600160a01b0319169055518a91906001600160a01b038616907f8c5be1e5ebec7d5bd14f71427d1e84f3dd0314c0f7b2291e5b200ac8c7c3b925908390a45b60405189906000906001600160a01b038616907fddf252ad1be2c89b69c2b068fc378daa952ba7f163c4a11628f55a4df523b3ef908390a46000898152600960205260408082206007015490516370a0823160e01b81526001600160a01b03909116919082906370a0823190610c48908a90600401611470565b60206040518083038186803b158015610c6057600080fd5b505afa158015610c74573d6000803e3d6000fd5b505050506040513d601f19601f82011682018060405250810190610c989190611289565b90508a7f43c2f51b091d7988a9b26b7a0f304df6ca31ce05c86ac8ff6cb581529598b63682604051610cca9190611805565b60405180910390a2610cde82888784610ffa565b60008b815260096020526040908190209051601091610d02916001909101906113d5565b9081526040805160209281900383019020805460ff1916905560008d81526009909252812090610d328282611182565b610d40600183016000611189565b6002820160009055600382016000610d589190611182565b60048201805464ffffffffff19169055610d76600583016000611182565b506006810180546001600160d81b03191690556007810180546001600160f81b03191690556008810180546dffffffffffffffffffffffffffff1916905560090180546001600160a81b03191690555050505050505050505050565b6000818152600960208190526040822001546001600160a01b03168181610e0b5760405162461bcd60e51b81526004016102b890611650565b600084815260096020526040908190206007015490516370a0823160e01b81526001600160a01b03909116935083906370a0823190610e4e908590600401611470565b60206040518083038186803b158015610e6657600080fd5b505afa158015610e7a573d6000803e3d6000fd5b505050506040513d601f19601f82011682018060405250810190610e9e9190611289565b929491935050565b60008281526009602052604090206006015482906001600160a01b0316610ecb610f9d565b6001600160a01b031614610ef15760405162461bcd60e51b81526004016102b89061173e565b600083815260096020819052604090912001546001600160a01b031680610f2a5760405162461bcd60e51b81526004016102b890611650565b600084815260096020526040908190206007015490516001600160a01b039091169085907fc83f4a4f2f86ecba3c60063e8d252c488091c40d8b484a301223e0fd1c9f6af390610f7b908790611805565b60405180910390a2610f9681610f8f610f9d565b8487610ffa565b5050505050565b600033301415610ff457600080368080601f0160208091040260200160405190810160405280939291908181526020018383808284376000920191909152505050503601516001600160a01b03169150610ff79050565b50335b90565b833b806110195760405162461bcd60e51b81526004016102b89061156b565b600080866001600160a01b03166323b872dd60e01b87878760405160240161104393929190611484565b60408051601f198184030181529181526020820180516001600160e01b03166001600160e01b031990941693909317909252905161108191906113b9565b6000604051808303816000865af19150503d80600081146110be576040519150601f19603f3d011682016040523d82523d6000602084013e6110c3565b606091505b50915091506110d282826110db565b50505050505050565b811561111d5780511561111857808060200190518101906110fc919061124a565b6111185760405162461bcd60e51b81526004016102b8906115b4565b611156565b80511561113e578060405162461bcd60e51b81526004016102b89190611538565b60405162461bcd60e51b81526004016102b890611605565b5050565b604051806040016040528060006001600160a01b0316815260200161117d6111c8565b905290565b5060009055565b5080546111959061189a565b6000825580601f106111a757506111c5565b601f0160209004906000526020600020908101906111c59190611213565b50565b6040518061010001604052806111dc61122c565b815260006020820181905260408201819052606082018190526080820181905260a0820181905260c0820181905260e09091015290565b5b808211156112285760008155600101611214565b5090565b6040518060c001604052806006906020820280368337509192915050565b60006020828403121561125b578081fd5b8151801515811461126a578182fd5b9392505050565b600060208284031215611282578081fd5b5035919050565b60006020828403121561129a578081fd5b5051919050565b600080604083850312156112b3578081fd5b50508035926020909101359150565b15159052565b6001600160e81b0319169052565b80516001600160a01b03168252602080820151805160008386015b6006821015611313578251600190810b825292850192919091019084016112f1565b505050908101519061132860e08501836112c8565b6040810151915061133d6101008501836112c8565b606081015191506113526101208501836112c8565b608081015191506113676101408501836113b2565b60a0810151915061137c6101608501836113b2565b60c081015191506113916101808501836113aa565b60e0015190506113a56101a08401826112c2565b505050565b61ffff169052565b60ff169052565b600082516113cb81846020870161186a565b9190910192915050565b81546000908190600281046001808316806113f157607f831692505b602080841082141561141157634e487b7160e01b87526022600452602487fd5b818015611425576001811461143657611462565b60ff19861689528489019650611462565b61143f8a61181f565b885b8681101561145a5781548b820152908501908301611441565b505084890196505b509498975050505050505050565b6001600160a01b0391909116815260200190565b6001600160a01b039384168152919092166020820152604081019190915260600190565b6020808252825182820181905260009190848201906040850190845b818110156114e95783516001600160a01b0316835292840192918401916001016114c4565b50909695505050505050565b6020808252825182820181905260009190848201906040850190845b818110156114e9576115248385516112d6565b928401926101c09290920191600101611511565b600060208252825180602084015261155781604085016020870161186a565b601f01601f19169190910160400192915050565b60208082526029908201527f4c696245524332303a20455243323020746f6b656e206164647265737320686160408201526873206e6f20636f646560b81b606082015260800190565b60208082526031908201527f4c696245524332303a207472616e73666572206f72207472616e7366657246726040820152706f6d2072657475726e65642066616c736560781b606082015260800190565b6020808252602b908201527f4c696245524332303a207472616e73666572206f72207472616e73666572467260408201526a1bdb481c995d995c9d195960aa1b606082015260800190565b60208082526028908201527f436f6c6c61746572616c46616365743a20446f6573206e6f74206861766520616040820152676e20657363726f7760c01b606082015260800190565b60208082526032908201527f436f6c6c61746572616c46616365743a2043616e6e6f74207265647563652062604082015271656c6f77206d696e696d756d207374616b6560701b606082015260800190565b60208082526034908201527f4c696241707053746f726167653a204f6e6c792063616c6c61626c65206f6e20604082015273756e6c6f636b65642041617665676f746368697360601b606082015260800190565b6020808252603b908201527f4c696241707053746f726167653a204f6e6c792061617665676f74636869206f60408201527f776e65722063616e2063616c6c20746869732066756e6374696f6e0000000000606082015260800190565b60208082526035908201527f436f6c6c61746572616c46616365743a2043616e2774206275726e2061617665604082015274676f746368692077697468207765617261626c657360581b606082015260800190565b6101c081016117ff82846112d6565b92915050565b90815260200190565b63ffffffff91909116815260200190565b60009081526020902090565b600063ffffffff80831681851680830382111561184a5761184a6118f0565b01949350505050565b600082821015611865576118656118f0565b500390565b60005b8381101561188557818101518382015260200161186d565b83811115611894576000848401525b50505050565b6002810460018216806118ae57607f821691505b602082108114156118cf57634e487b7160e01b600052602260045260246000fd5b50919050565b60006000198214156118e9576118e96118f0565b5060010190565b634e487b7160e01b600052601160045260246000fdfea264697066735822122081080367da5143175e8786787e0aa0c279775fda6f8ed5b12c6d5e53a04b331564736f6c63430008010033",
    "linkReferences": {},
    "deployedLinkReferences": {}
}