{
  "_format": "hh-sol-artifact-1",
  "contractName": "ERC1155MarketplaceFacet",
  "sourceName": "contracts/Aavegotchi/facets/ERC1155MarketplaceFacet.sol",
  "abi": [
    {
      "anonymous": false,
      "inputs": [
        {
          "indexed": false,
          "internalType": "uint256",
          "name": "listingFeeInWei",
          "type": "uint256"
        }
      ],
      "name": "ChangedListingFee",
      "type": "event"
    },
    {
      "anonymous": false,
      "inputs": [
        {
          "indexed": true,
          "internalType": "uint256",
          "name": "listingId",
          "type": "uint256"
        },
        {
          "indexed": true,
          "internalType": "address",
          "name": "seller",
          "type": "address"
        },
        {
          "indexed": false,
          "internalType": "address",
          "name": "buyer",
          "type": "address"
        },
        {
          "indexed": false,
          "internalType": "address",
          "name": "erc1155TokenAddress",
          "type": "address"
        },
        {
          "indexed": false,
          "internalType": "uint256",
          "name": "erc1155TypeId",
          "type": "uint256"
        },
        {
          "indexed": true,
          "internalType": "uint256",
          "name": "category",
          "type": "uint256"
        },
        {
          "indexed": false,
          "internalType": "uint256",
          "name": "_quantity",
          "type": "uint256"
        },
        {
          "indexed": false,
          "internalType": "uint256",
          "name": "priceInWei",
          "type": "uint256"
        },
        {
          "indexed": false,
          "internalType": "uint256",
          "name": "time",
          "type": "uint256"
        }
      ],
      "name": "ERC1155ExecutedListing",
      "type": "event"
    },
    {
      "anonymous": false,
      "inputs": [
        {
          "indexed": true,
          "internalType": "uint256",
          "name": "listingId",
          "type": "uint256"
        },
        {
          "indexed": true,
          "internalType": "address",
          "name": "seller",
          "type": "address"
        },
        {
          "indexed": false,
          "internalType": "address",
          "name": "erc1155TokenAddress",
          "type": "address"
        },
        {
          "indexed": false,
          "internalType": "uint256",
          "name": "erc1155TypeId",
          "type": "uint256"
        },
        {
          "indexed": true,
          "internalType": "uint256",
          "name": "category",
          "type": "uint256"
        },
        {
          "indexed": false,
          "internalType": "uint256",
          "name": "quantity",
          "type": "uint256"
        },
        {
          "indexed": false,
          "internalType": "uint256",
          "name": "priceInWei",
          "type": "uint256"
        },
        {
          "indexed": false,
          "internalType": "uint256",
          "name": "time",
          "type": "uint256"
        }
      ],
      "name": "ERC1155ListingAdd",
      "type": "event"
    },
    {
      "anonymous": false,
      "inputs": [
        {
          "indexed": true,
          "internalType": "uint256",
          "name": "listingId",
          "type": "uint256"
        }
      ],
      "name": "ERC1155ListingCancelled",
      "type": "event"
    },
    {
      "inputs": [
        {
          "internalType": "uint256",
          "name": "_listingId",
          "type": "uint256"
        }
      ],
      "name": "cancelERC1155Listing",
      "outputs": [],
      "stateMutability": "nonpayable",
      "type": "function"
    },
    {
      "inputs": [
        {
          "internalType": "uint256",
          "name": "_listingId",
          "type": "uint256"
        },
        {
          "internalType": "uint256",
          "name": "_quantity",
          "type": "uint256"
        },
        {
          "internalType": "uint256",
          "name": "_priceInWei",
          "type": "uint256"
        }
      ],
      "name": "executeERC1155Listing",
      "outputs": [],
      "stateMutability": "nonpayable",
      "type": "function"
    },
    {
      "inputs": [
        {
          "internalType": "address",
          "name": "_erc1155TokenAddress",
          "type": "address"
        },
        {
          "internalType": "uint256",
          "name": "_erc1155TypeId",
          "type": "uint256"
        }
      ],
      "name": "getERC1155Category",
      "outputs": [
        {
          "internalType": "uint256",
          "name": "category_",
          "type": "uint256"
        }
      ],
      "stateMutability": "view",
      "type": "function"
    },
    {
      "inputs": [
        {
          "internalType": "uint256",
          "name": "_listingId",
          "type": "uint256"
        }
      ],
      "name": "getERC1155Listing",
      "outputs": [
        {
          "components": [
            {
              "internalType": "uint256",
              "name": "listingId",
              "type": "uint256"
            },
            {
              "internalType": "address",
              "name": "seller",
              "type": "address"
            },
            {
              "internalType": "address",
              "name": "erc1155TokenAddress",
              "type": "address"
            },
            {
              "internalType": "uint256",
              "name": "erc1155TypeId",
              "type": "uint256"
            },
            {
              "internalType": "uint256",
              "name": "category",
              "type": "uint256"
            },
            {
              "internalType": "uint256",
              "name": "quantity",
              "type": "uint256"
            },
            {
              "internalType": "uint256",
              "name": "priceInWei",
              "type": "uint256"
            },
            {
              "internalType": "uint256",
              "name": "timeCreated",
              "type": "uint256"
            },
            {
              "internalType": "uint256",
              "name": "timeLastPurchased",
              "type": "uint256"
            },
            {
              "internalType": "uint256",
              "name": "sourceListingId",
              "type": "uint256"
            },
            {
              "internalType": "bool",
              "name": "sold",
              "type": "bool"
            },
            {
              "internalType": "bool",
              "name": "cancelled",
              "type": "bool"
            }
          ],
          "internalType": "struct ERC1155Listing",
          "name": "listing_",
          "type": "tuple"
        }
      ],
      "stateMutability": "view",
      "type": "function"
    },
    {
      "inputs": [
        {
          "internalType": "address",
          "name": "_erc1155TokenAddress",
          "type": "address"
        },
        {
          "internalType": "uint256",
          "name": "_erc1155TypeId",
          "type": "uint256"
        },
        {
          "internalType": "address",
          "name": "_owner",
          "type": "address"
        }
      ],
      "name": "getERC1155ListingFromToken",
      "outputs": [
        {
          "components": [
            {
              "internalType": "uint256",
              "name": "listingId",
              "type": "uint256"
            },
            {
              "internalType": "address",
              "name": "seller",
              "type": "address"
            },
            {
              "internalType": "address",
              "name": "erc1155TokenAddress",
              "type": "address"
            },
            {
              "internalType": "uint256",
              "name": "erc1155TypeId",
              "type": "uint256"
            },
            {
              "internalType": "uint256",
              "name": "category",
              "type": "uint256"
            },
            {
              "internalType": "uint256",
              "name": "quantity",
              "type": "uint256"
            },
            {
              "internalType": "uint256",
              "name": "priceInWei",
              "type": "uint256"
            },
            {
              "internalType": "uint256",
              "name": "timeCreated",
              "type": "uint256"
            },
            {
              "internalType": "uint256",
              "name": "timeLastPurchased",
              "type": "uint256"
            },
            {
              "internalType": "uint256",
              "name": "sourceListingId",
              "type": "uint256"
            },
            {
              "internalType": "bool",
              "name": "sold",
              "type": "bool"
            },
            {
              "internalType": "bool",
              "name": "cancelled",
              "type": "bool"
            }
          ],
          "internalType": "struct ERC1155Listing",
          "name": "listing_",
          "type": "tuple"
        }
      ],
      "stateMutability": "view",
      "type": "function"
    },
    {
      "inputs": [
        {
          "internalType": "uint256",
          "name": "_category",
          "type": "uint256"
        },
        {
          "internalType": "string",
          "name": "_sort",
          "type": "string"
        },
        {
          "internalType": "uint256",
          "name": "_length",
          "type": "uint256"
        }
      ],
      "name": "getERC1155Listings",
      "outputs": [
        {
          "components": [
            {
              "internalType": "uint256",
              "name": "listingId",
              "type": "uint256"
            },
            {
              "internalType": "address",
              "name": "seller",
              "type": "address"
            },
            {
              "internalType": "address",
              "name": "erc1155TokenAddress",
              "type": "address"
            },
            {
              "internalType": "uint256",
              "name": "erc1155TypeId",
              "type": "uint256"
            },
            {
              "internalType": "uint256",
              "name": "category",
              "type": "uint256"
            },
            {
              "internalType": "uint256",
              "name": "quantity",
              "type": "uint256"
            },
            {
              "internalType": "uint256",
              "name": "priceInWei",
              "type": "uint256"
            },
            {
              "internalType": "uint256",
              "name": "timeCreated",
              "type": "uint256"
            },
            {
              "internalType": "uint256",
              "name": "timeLastPurchased",
              "type": "uint256"
            },
            {
              "internalType": "uint256",
              "name": "sourceListingId",
              "type": "uint256"
            },
            {
              "internalType": "bool",
              "name": "sold",
              "type": "bool"
            },
            {
              "internalType": "bool",
              "name": "cancelled",
              "type": "bool"
            }
          ],
          "internalType": "struct ERC1155Listing[]",
          "name": "listings_",
          "type": "tuple[]"
        }
      ],
      "stateMutability": "view",
      "type": "function"
    },
    {
      "inputs": [],
      "name": "getListingFeeInWei",
      "outputs": [
        {
          "internalType": "uint256",
          "name": "",
          "type": "uint256"
        }
      ],
      "stateMutability": "view",
      "type": "function"
    },
    {
      "inputs": [
        {
          "internalType": "address",
          "name": "_owner",
          "type": "address"
        },
        {
          "internalType": "uint256",
          "name": "_category",
          "type": "uint256"
        },
        {
          "internalType": "string",
          "name": "_sort",
          "type": "string"
        },
        {
          "internalType": "uint256",
          "name": "_length",
          "type": "uint256"
        }
      ],
      "name": "getOwnerERC1155Listings",
      "outputs": [
        {
          "components": [
            {
              "internalType": "uint256",
              "name": "listingId",
              "type": "uint256"
            },
            {
              "internalType": "address",
              "name": "seller",
              "type": "address"
            },
            {
              "internalType": "address",
              "name": "erc1155TokenAddress",
              "type": "address"
            },
            {
              "internalType": "uint256",
              "name": "erc1155TypeId",
              "type": "uint256"
            },
            {
              "internalType": "uint256",
              "name": "category",
              "type": "uint256"
            },
            {
              "internalType": "uint256",
              "name": "quantity",
              "type": "uint256"
            },
            {
              "internalType": "uint256",
              "name": "priceInWei",
              "type": "uint256"
            },
            {
              "internalType": "uint256",
              "name": "timeCreated",
              "type": "uint256"
            },
            {
              "internalType": "uint256",
              "name": "timeLastPurchased",
              "type": "uint256"
            },
            {
              "internalType": "uint256",
              "name": "sourceListingId",
              "type": "uint256"
            },
            {
              "internalType": "bool",
              "name": "sold",
              "type": "bool"
            },
            {
              "internalType": "bool",
              "name": "cancelled",
              "type": "bool"
            }
          ],
          "internalType": "struct ERC1155Listing[]",
          "name": "listings_",
          "type": "tuple[]"
        }
      ],
      "stateMutability": "view",
      "type": "function"
    },
    {
      "inputs": [
        {
          "internalType": "address",
          "name": "_erc1155TokenAddress",
          "type": "address"
        },
        {
          "internalType": "uint256",
          "name": "_erc1155TypeId",
          "type": "uint256"
        },
        {
          "internalType": "uint256",
          "name": "_quantity",
          "type": "uint256"
        },
        {
          "internalType": "uint256",
          "name": "_priceInWei",
          "type": "uint256"
        }
      ],
      "name": "setERC1155Listing",
      "outputs": [],
      "stateMutability": "nonpayable",
      "type": "function"
    },
    {
      "inputs": [
        {
          "internalType": "uint256",
          "name": "_listingFeeInWei",
          "type": "uint256"
        }
      ],
      "name": "setListingFee",
      "outputs": [],
      "stateMutability": "nonpayable",
      "type": "function"
    },
    {
      "inputs": [
        {
          "internalType": "address",
          "name": "_erc1155TokenAddress",
          "type": "address"
        },
        {
          "internalType": "uint256[]",
          "name": "_erc1155TypeIds",
          "type": "uint256[]"
        },
        {
          "internalType": "address",
          "name": "_owner",
          "type": "address"
        }
      ],
      "name": "updateBatchERC1155Listing",
      "outputs": [],
      "stateMutability": "nonpayable",
      "type": "function"
    },
    {
      "inputs": [
        {
          "internalType": "address",
          "name": "_erc1155TokenAddress",
          "type": "address"
        },
        {
          "internalType": "uint256",
          "name": "_erc1155TypeId",
          "type": "uint256"
        },
        {
          "internalType": "address",
          "name": "_owner",
          "type": "address"
        }
      ],
      "name": "updateERC1155Listing",
      "outputs": [],
      "stateMutability": "nonpayable",
      "type": "function"
    }
  ],
  "bytecode": "0x608060405234801561001057600080fd5b50612dba806100206000396000f3fe608060405234801561001057600080fd5b50600436106100b45760003560e01c8063575ae87611610071578063575ae8761461015d578063781f11d414610170578063962095a114610183578063e8da2bfa1461018b578063e9a8887f1461019e578063fac43c85146101b1576100b4565b806308642e24146100b957806309c415af146100ce57806312542188146100f7578063131dbd0914610117578063446978f01461012a578063519f62ed1461014a575b600080fd5b6100cc6100c7366004612452565b6101c4565b005b6100e16100dc366004612452565b6101d8565b6040516100ee9190612c67565b60405180910390f35b61010a610105366004612482565b610296565b6040516100ee9190612718565b6100cc610125366004612452565b610475565b61013d61013836600461230a565b61051c565b6040516100ee9190612c76565b6100e1610158366004612333565b6105b3565b6100cc61016b3660046124d0565b610690565b61010a61017e36600461236e565b610c70565b61013d610e65565b6100cc6101993660046123cb565b610e6c565b6100cc6101ac366004612333565b61133e565b6100cc6101bf366004612279565b61134e565b6101d5816101d06113a3565b6113ff565b50565b6101e061215f565b506000908152602a60209081526040918290208251610180810184528154815260018201546001600160a01b03908116938201939093526002820154909216928201929092526003820154606082015260048201546080820152600582015460a0820152600682015460c0820152600782015460e08201526008820154610100808301919091526009830154610120830152600a9092015460ff8082161515610140840152929004909116151561016082015290565b6000838152602b6020526040808220905160609291906102b79086906125d6565b90815260200160405180910390205490508267ffffffffffffffff8111156102ef57634e487b7160e01b600052604160045260246000fd5b60405190808252806020026020018201604052801561032857816020015b61031561215f565b81526020019060019003908161030d5790505b50915060005b811580159061033c57508381105b1561046b576000828152602a60209081526040918290208251610180810184528154815260018201546001600160a01b03908116938201939093526002820154909216928201929092526003820154606082015260048201546080820152600582015460a0820152600682015460c0820152600782015460e08201526008820154610100808301919091526009830154610120830152600a9092015460ff80821615156101408401529290049091161515610160820152835184908390811061041557634e487b7160e01b600052603260045260246000fd5b60200260200101819052506000602c018560405161043391906125d6565b90815260200160405180910390206000838152602001908152602001600020600201549150808061046390612d3d565b91505061032e565b8252509392505050565b600061047f6113a3565b601d549091506001600160a01b03808316911614806104b657506104a1611524565b6001600160a01b0316816001600160a01b0316145b6104db5760405162461bcd60e51b81526004016104d29061277a565b60405180910390fd5b60308290556040517f47110aa6379903a1c93053b7d8b6e8bdbbadd893e457a1e10588c4e2a9575dc790610510908490612c76565b60405180910390a15050565b6001600160a01b0382166000908152603160209081526040808320848452909152902054806105ad576001600160a01b038316301480156105915750600080600601838154811061057d57634e487b7160e01b600052603260045260246000fd5b90600052602060002090600b020160080154115b6105ad5760405162461bcd60e51b81526004016104d290612bd4565b92915050565b6105bb61215f565b506001600160a01b039283166000908152602f602090815260408083209483529381528382209285168252918252828120548152602a82528290208251610180810184528154815260018201548516928101929092526002810154909316918101919091526003820154606082015260048201546080820152600582015460a0820152600682015460c0820152600782015460e08201526008820154610100808301919091526009830154610120830152600a9092015460ff8082161515610140840152929004909116151561016082015290565b6000838152602a60205260409020600681015482146106c15760405162461bcd60e51b81526004016104d290612aa5565b60078101546106e25760405162461bcd60e51b81526004016104d290612c22565b60006106ec6113a3565b60018301549091506001600160a01b039081169082168114156107215760405162461bcd60e51b81526004016104d290612af5565b600085116107415760405162461bcd60e51b81526004016104d2906129ba565b82600501548511156107655760405162461bcd60e51b81526004016104d2906127bb565b848360050160008282546107799190612cfa565b909155506000905061078b8587612cdb565b601a546040516370a0823160e01b815291925082916001600160a01b03909116906370a08231906107c0908790600401612604565b60206040518083038186803b1580156107d857600080fd5b505afa1580156107ec573d6000803e3d6000fd5b505050506040513d601f19601f82011682018060405250810190610810919061246a565b101561082e5760405162461bcd60e51b81526004016104d2906128e0565b600061083b606483612cbb565b90506000606461084c846002612cdb565b6108569190612cbb565b905060006108648284612ca3565b61086e9085612cfa565b601a54601f54919250610890916001600160a01b039182169189911685611540565b601a54601e546108af916001600160a01b039081169189911686611540565b601a546108c7906001600160a01b0316878784611540565b426008880155602980549060006108dd83612d3d565b9190505550600080602901549050604051806101800160405280828152602001876001600160a01b031681526020018960020160009054906101000a90046001600160a01b03166001600160a01b0316815260200189600301548152602001896004015481526020018b81526020018a81526020014281526020014281526020018c8152602001600115158152602001600015158152506000602a0160008381526020019081526020016000206000820151816000015560208201518160010160006101000a8154816001600160a01b0302191690836001600160a01b0316021790555060408201518160020160006101000a8154816001600160a01b0302191690836001600160a01b03160217905550606082015181600301556080820151816004015560a0820151816005015560c0820151816006015560e082015181600701556101008201518160080155610120820151816009015561014082015181600a0160006101000a81548160ff02191690831515021790555061016082015181600a0160016101000a81548160ff021916908315150217905550905050610aac868960040154604051806040016040528060098152602001681c1d5c98da185cd95960ba1b81525084611621565b6005880154610ace57600a8801805460ff19166001179055610ace8b8761180a565b50505060028501546001600160a01b03163014159050610b8757610af782856003015488611b55565b610b0683856003015488611d94565b826001600160a01b0316826001600160a01b0316306001600160a01b03167fc3d58168c5ae7397731d063d5bbf3d657854427343f4c083240f7aacaa2d0f6287600301548a604051610b59929190612c7f565b60405180910390a4610b8230838587600301548a60405180602001604052806000815250611e59565b610c04565b6002840154600385015460408051600081526020810191829052637921219560e11b9091526001600160a01b039092169163f242432a91610bd191869188918c9060248101612656565b600060405180830381600087803b158015610beb57600080fd5b505af1158015610bff573d6000803e3d6000fd5b505050505b60048401546002850154600386015460068701546040516001600160a01b03878116948d947f4004185f45cf5f331fe63afc9aa5aa0a0d8cfa1d6bc5d8c6cb0304136c49515c94610c5f948c94909316928f9190429061269b565b60405180910390a450505050505050565b6001600160a01b0384166000908152602d6020908152604080832086845290915280822090516060929190610ca69086906125d6565b90815260200160405180910390205490508267ffffffffffffffff811115610cde57634e487b7160e01b600052604160045260246000fd5b604051908082528060200260200182016040528015610d1757816020015b610d0461215f565b815260200190600190039081610cfc5790505b50915060005b8115801590610d2b57508381105b15610e5a576000828152602a60209081526040918290208251610180810184528154815260018201546001600160a01b03908116938201939093526002820154909216928201929092526003820154606082015260048201546080820152600582015460a0820152600682015460c0820152600782015460e08201526008820154610100808301919091526009830154610120830152600a9092015460ff808216151561014084015292900490911615156101608201528351849083908110610e0457634e487b7160e01b600052603260045260246000fd5b60200260200101819052506000602e0185604051610e2291906125d6565b908152602001604051809103902060008381526020019081526020016000206002015491508080610e5290612d3d565b915050610d1d565b825250949350505050565b6030545b90565b6000610e766113a3565b90506000610e84868661051c565b604051627eeac760e11b8152909150869085906001600160a01b0383169062fdd58e90610eb79087908b906004016126d1565b60206040518083038186803b158015610ecf57600080fd5b505afa158015610ee3573d6000803e3d6000fd5b505050506040513d601f19601f82011682018060405250810190610f07919061246a565b1015610f255760405162461bcd60e51b81526004016104d290612923565b6001600160a01b038716301480610fb5575060405163e985e9c560e01b81526001600160a01b0382169063e985e9c590610f659086903090600401612618565b60206040518083038186803b158015610f7d57600080fd5b505afa158015610f91573d6000803e3d6000fd5b505050506040513d601f19601f82011682018060405250810190610fb59190612403565b610fd15760405162461bcd60e51b81526004016104d290612a58565b6000610fdd8587612cdb565b9050670de0b6b3a76400008110156110075760405162461bcd60e51b81526004016104d290612a05565b6001600160a01b038089166000908152602f602090815260408083208b8452825280832093881683529290522054806112a5576029805490600061104a83612d3d565b91905055506000602901549050806000602f0160008b6001600160a01b03166001600160a01b0316815260200190815260200160002060008a81526020019081526020016000206000876001600160a01b03166001600160a01b0316815260200190815260200160002081905550604051806101800160405280828152602001866001600160a01b031681526020018a6001600160a01b031681526020018981526020018581526020018881526020018781526020014281526020016000815260200160008152602001600015158152602001600015158152506000602a0160008381526020019081526020016000206000820151816000015560208201518160010160006101000a8154816001600160a01b0302191690836001600160a01b0316021790555060408201518160020160006101000a8154816001600160a01b0302191690836001600160a01b03160217905550606082015181600301556080820151816004015560a0820151816005015560c0820151816006015560e082015181600701556101008201518160080155610120820151816009015561014082015181600a0160006101000a81548160ff02191690831515021790555061016082015181600a0160016101000a81548160ff0219169083151502179055509050506112558585604051806040016040528060068152602001651b1a5cdd195960d21b81525084611621565b83856001600160a01b0316827ff99a07edc22c88f73b19df09fffa9b11c9ab5c5dd6dfc2f6e103a95f5b40e2fc8c8c8c8c426040516112989594939291906126ea565b60405180910390a4611302565b6000818152602a6020526040908190206005810189905560068101889055905182907f9a1e053d28c2efc6add1e4a5d1647a99e883b256a54f9ef4a0abf8fcba643a55906112f8908b908b904290612c8d565b60405180910390a2505b6030541561133357601a54611333906001600160a01b03166113226113a3565b6030546001600160a01b0390611540565b505050505050505050565b611349838383611f16565b505050565b60005b8281101561139c5761138a8585858481811061137d57634e487b7160e01b600052603260045260246000fd5b9050602002013584611f16565b8061139481612d3d565b915050611351565b5050505050565b6000333014156113fa57600080368080601f0160208091040260200160405190810160405280939291908181526020018383808284376000920191909152505050503601516001600160a01b03169150610e699050565b503390565b60006114096120bb565b9050600081602c0160405161141d906125f2565b908152602001604051809103902060008581526020019081526020016000209050806001015460001415611452575050611520565b6000848152602a830160205260409020600a81015460ff610100909104161515600114806114895750600a81015460ff1615156001145b1561149657505050611520565b60018101546001600160a01b038581169116146114c55760405162461bcd60e51b81526004016104d2906128a9565b600a8101805461ff001916610100179055600481015460405186917fc1ee70d4dadc0ea8041f31f81b07d0ac9374b6bf41956d9cae562e672f3f8a919161150e91904390612c7f565b60405180910390a261139c858561180a565b5050565b600061152e6120c0565b600401546001600160a01b0316919050565b833b8061155f5760405162461bcd60e51b81526004016104d29061280f565b600080866001600160a01b03166323b872dd60e01b87878760405160240161158993929190612632565b60408051601f198184030181529181526020820180516001600160e01b03166001600160e01b03199094169390931790925290516115c791906125d6565b6000604051808303816000865af19150503d8060008114611604576040519150601f19603f3d011682016040523d82523d6000602084013e611609565b606091505b509150915061161882826120e4565b50505050505050565b600061162b6120bb565b6001600160a01b0386166000908152602d820160209081526040808320888452909152808220905192935090916116639086906125d6565b9081526020016040518091039020549050806000146116af57600082602e018560405161169091906125d6565b9081526040805160209281900383019020600085815292529020849055505b600082602e01856040516116c391906125d6565b9081526040805191829003602090810183206000888152908252828120600281018790556001600160a01b038c168252602d880183528382208b83529092529190912090925085916117169088906125d6565b908152604080516020928190038301812093909355600184018790556000898152602b870190925290209061174c9087906125d6565b90815260200160405180910390205491508160001461179857600083602c018660405161177991906125d6565b9081526040805160209281900383019020600086815292529020859055505b82602c01856040516117aa91906125d6565b9081526040805191829003602090810183206000888152908252828120600281018790558a8252602b88019092529190912090925085916117ec9088906125d6565b90815260405190819003602001902055600101929092555050505050565b60006118146120bb565b9050600081602c01604051611828906125f2565b90815260200160405180910390206000858152602001908152602001600020905080600101546000141561185d575050611520565b8054801561189c57600083602c01604051611877906125f2565b9081526040805160209281900383019020600085815292529020600284810154910155505b600282015480156118d957600084602c016040516118b9906125f2565b908152604080516020928190038301902060008581529252902084549055505b6000868152602a85016020908152604080832060048101548452602b88019092529182902091519091889161190d906125f2565b908152602001604051809103902054141561195a57600284015460048201546000908152602b87016020526040908190209051611949906125f2565b908152604051908190036020019020555b6000600185018190558085556002850155604051602e86019061197c906125f2565b908152604080516020928190038301902060008a8152925290208054909450925082156119da57600085602e016040516119b5906125f2565b9081526040805160209281900383019020600087815292529020600286810154910155505b600284015491508115611a1957600085602e016040516119f9906125f2565b908152604080516020928190038301902060008681529252902085549055505b506000868152602a8501602090815260408083206001600160a01b0389168452602d880183528184206004820154855290925291829020915190918891611a5f906125f2565b9081526020016040518091039020541415611ac05760028401546001600160a01b0387166000908152602d87016020908152604080832060048601548452909152908190209051611aaf906125f2565b908152604051908190036020019020555b60006001850181905580855560028086018290558201546001600160a01b039081168252602f870160209081526040808420600386015485528252808420928a168452919052808220919091556004820154905188917f276ac39b0f98215592b4487434c1618e3e527c57ca2f471ac93eb4eab169409191611b4491904290612c7f565b60405180910390a250505050505050565b6000611b5f6120bb565b6001600160a01b0385166000908152600982016020908152604080832087845290915290205490915080831115611ba85760405162461bcd60e51b81526004016104d290612b3e565b611bb28382612cfa565b6001600160a01b03861660009081526009840160209081526040808320888452909152902081905590508061139c576001600160a01b0385166000908152600b830160209081526040808320878452909152812054611c1390600190612cfa565b6001600160a01b0387166000908152600a8501602052604081205491925090611c3e90600190612cfa565b9050808214611d19576001600160a01b0387166000908152600a850160205260408120805483908110611c8157634e487b7160e01b600052603260045260246000fd5b906000526020600020015490508061ffff1685600a0160008a6001600160a01b03166001600160a01b031681526020019081526020016000208481548110611cd957634e487b7160e01b600052603260045260246000fd5b600091825260209091200155611cf0836001612ca3565b6001600160a01b0389166000908152600b87016020908152604080832094835293905291909120555b6001600160a01b0387166000908152600a850160205260409020805480611d5057634e487b7160e01b600052603160045260246000fd5b6000828152602080822083016000199081018390559092019092556001600160a01b0389168252600b86018152604080832089845290915281205550505050505050565b6000611d9e6120bb565b6001600160a01b03851660009081526009820160209081526040808320878452909152812080549293508492909190611dd8908490612ca3565b90915550506001600160a01b0384166000908152600b820160209081526040808320868452909152902054611e53576001600160a01b0384166000818152600a830160209081526040808320805460018101825581855283852061ffff8a169101559383529254600b85018252838320878452909152919020555b50505050565b833b80156116185760405163f23a6e6160e01b81526001600160a01b0386169063f23a6e6190611e95908a908a90899089908990600401612656565b602060405180830381600087803b158015611eaf57600080fd5b505af1158015611ec3573d6000803e3d6000fd5b505050506040513d601f19601f82011682018060405250810190611ee7919061242a565b6001600160e01b03191663f23a6e6160e01b146116185760405162461bcd60e51b81526004016104d290612b8a565b6000611f206120bb565b6001600160a01b038086166000908152602f83016020908152604080832088845282528083209387168352929052205490915080611f5f575050611349565b6000818152602a83016020526040902060078101541580611f8f5750600a81015460ff6101009091041615156001145b80611fa35750600a81015460ff1615156001145b15611fb057505050611349565b6005810154801561209d57600282015460018301546003840154604051627eeac760e11b81526001600160a01b039384169362fdd58e93611ff6939116916004016126d1565b60206040518083038186803b15801561200e57600080fd5b505afa158015612022573d6000803e3d6000fd5b505050506040513d601f19601f82011682018060405250810190612046919061246a565b9050816005015481101561209d5760058201819055600682015460405184917f9a1e053d28c2efc6add1e4a5d1647a99e883b256a54f9ef4a0abf8fcba643a55916120949185914290612c8d565b60405180910390a25b806116185760018201546116189084906001600160a01b03166113ff565b600090565b7fc8fcad8db84d3cc18b4c41d551ea0ee66dd599cde068d998e57d5e09332c131c90565b81156121265780511561212157808060200190518101906121059190612403565b6121215760405162461bcd60e51b81526004016104d290612858565b611520565b805115612147578060405162461bcd60e51b81526004016104d29190612767565b60405162461bcd60e51b81526004016104d29061296f565b6040518061018001604052806000815260200160006001600160a01b0316815260200160006001600160a01b03168152602001600081526020016000815260200160008152602001600081526020016000815260200160008152602001600081526020016000151581526020016000151581525090565b80356001600160a01b03811681146121ed57600080fd5b919050565b600082601f830112612202578081fd5b813567ffffffffffffffff8082111561221d5761221d612d6e565b604051601f8301601f19908116603f0116810190828211818310171561224557612245612d6e565b8160405283815286602085880101111561225d578485fd5b8360208701602083013792830160200193909352509392505050565b6000806000806060858703121561228e578384fd5b612297856121d6565b9350602085013567ffffffffffffffff808211156122b3578485fd5b818701915087601f8301126122c6578485fd5b8135818111156122d4578586fd5b88602080830285010111156122e7578586fd5b6020830195508094505050506122ff604086016121d6565b905092959194509250565b6000806040838503121561231c578182fd5b612325836121d6565b946020939093013593505050565b600080600060608486031215612347578283fd5b612350846121d6565b925060208401359150612365604085016121d6565b90509250925092565b60008060008060808587031215612383578384fd5b61238c856121d6565b935060208501359250604085013567ffffffffffffffff8111156123ae578283fd5b6123ba878288016121f2565b949793965093946060013593505050565b600080600080608085870312156123e0578384fd5b6123e9856121d6565b966020860135965060408601359560600135945092505050565b600060208284031215612414578081fd5b81518015158114612423578182fd5b9392505050565b60006020828403121561243b578081fd5b81516001600160e01b031981168114612423578182fd5b600060208284031215612463578081fd5b5035919050565b60006020828403121561247b578081fd5b5051919050565b600080600060608486031215612496578283fd5b83359250602084013567ffffffffffffffff8111156124b3578283fd5b6124bf868287016121f2565b925050604084013590509250925092565b6000806000606084860312156124e4578283fd5b505081359360208301359350604090920135919050565b6001600160a01b03169052565b15159052565b60008151808452612526816020860160208601612d11565b601f01601f19169290920160200192915050565b80518252602081015161255060208401826124fb565b50604081015161256360408401826124fb565b50606081015160608301526080810151608083015260a081015160a083015260c081015160c083015260e081015160e0830152610100808201518184015250610120808201518184015250610140808201516125c182850182612508565b505061016080820151611e5382850182612508565b600082516125e8818460208701612d11565b9190910192915050565b651b1a5cdd195960d21b815260060190565b6001600160a01b0391909116815260200190565b6001600160a01b0392831681529116602082015260400190565b6001600160a01b039384168152919092166020820152604081019190915260600190565b6001600160a01b03868116825285166020820152604081018490526060810183905260a0608082018190526000906126909083018461250e565b979650505050505050565b6001600160a01b03968716815294909516602085015260408401929092526060830152608082015260a081019190915260c00190565b6001600160a01b03929092168252602082015260400190565b6001600160a01b03959095168552602085019390935260408401919091526060830152608082015260a00190565b6020808252825182820181905260009190848201906040850190845b8181101561275b5761274783855161253a565b928401926101809290920191600101612734565b50909695505050505050565b600060208252612423602083018461250e565b60208082526021908201527f4c696241707053746f726167653a20446f206e6f7420686176652061636365736040820152607360f81b606082015260800190565b60208082526034908201527f455243313135354d61726b6574706c6163653a207175616e746974792069732060408201527367726561746572207468616e206c697374696e6760601b606082015260800190565b60208082526029908201527f4c696245524332303a20455243323020746f6b656e206164647265737320686160408201526873206e6f20636f646560b81b606082015260800190565b60208082526031908201527f4c696245524332303a207472616e73666572206f72207472616e7366657246726040820152706f6d2072657475726e65642066616c736560781b606082015260800190565b6020808252601d908201527f4d61726b6574706c6163653a206f776e6572206e6f742073656c6c6572000000604082015260600190565b60208082526023908201527f455243313135354d61726b6574706c6163653a206e6f7420656e6f75676820476040820152621214d560ea1b606082015260800190565b6020808252602c908201527f455243313135354d61726b6574706c6163653a204e6f7420656e6f756768204560408201526b292198989a9a903a37b5b2b760a11b606082015260800190565b6020808252602b908201527f4c696245524332303a207472616e73666572206f72207472616e73666572467260408201526a1bdb481c995d995c9d195960aa1b606082015260800190565b6020808252602b908201527f455243313135354d61726b6574706c6163653a205f7175616e7469747920636160408201526a6e2774206265207a65726f60a81b606082015260800190565b60208082526033908201527f455243313135354d61726b6574706c6163653a20636f73742073686f756c6420604082015272313290189023a429aa1037b9103630b933b2b960691b606082015260800190565b6020808252602d908201527f455243313135354d61726b6574706c6163653a204e6f7420617070726f76656460408201526c103337b9103a3930b739b332b960991b606082015260800190565b60208082526030908201527f455243313135354d61726b6574706c6163653a2077726f6e672070726963652060408201526f1bdc881c1c9a58d94818da185b99d95960821b606082015260800190565b60208082526029908201527f455243313135354d61726b6574706c6163653a2062757965722063616e27742060408201526831329039b2b63632b960b91b606082015260800190565b6020808252602c908201527f4c69624974656d733a20446f65736e277420686176652074686174206d616e7960408201526b103a37903a3930b739b332b960a11b606082015260800190565b6020808252602a908201527f5765617261626c65733a205472616e736665722072656a65637465642f6661696040820152696c6564206279205f746f60b01b606082015260800190565b6020808252602e908201527f455243313135354d61726b6574706c6163653a2065726331313535206974656d60408201526d081b9bdd081cdd5c1c1bdc9d195960921b606082015260800190565b60208082526025908201527f455243313135354d61726b6574706c6163653a206c697374696e67206e6f7420604082015264199bdd5b9960da1b606082015260800190565b61018081016105ad828461253a565b90815260200190565b918252602082015260400190565b9283526020830191909152604082015260600190565b60008219821115612cb657612cb6612d58565b500190565b600082612cd657634e487b7160e01b81526012600452602481fd5b500490565b6000816000190483118215151615612cf557612cf5612d58565b500290565b600082821015612d0c57612d0c612d58565b500390565b60005b83811015612d2c578181015183820152602001612d14565b83811115611e535750506000910152565b6000600019821415612d5157612d51612d58565b5060010190565b634e487b7160e01b600052601160045260246000fd5b634e487b7160e01b600052604160045260246000fdfea264697066735822122053b7dc138702347629c76c21c01c12090476deae7b7b62b04e18ef9a2e829e5864736f6c63430008010033",
  "linkReferences": {},
  "deployedLinkReferences": {}
}