{
  "_format": "hh-sol-artifact-1",
  "contractName": "ERC721MarketplaceFacet",
  "sourceName": "contracts/Aavegotchi/facets/ERC721MarketplaceFacet.sol",
  "abi": [
    {
      "anonymous": false,
      "inputs": [
        {
          "indexed": true,
          "internalType": "uint256",
          "name": "listingId",
          "type": "uint256"
        },
        {
          "indexed": true,
          "internalType": "address",
          "name": "seller",
          "type": "address"
        },
        {
          "indexed": false,
          "internalType": "address",
          "name": "buyer",
          "type": "address"
        },
        {
          "indexed": false,
          "internalType": "address",
          "name": "erc721TokenAddress",
          "type": "address"
        },
        {
          "indexed": false,
          "internalType": "uint256",
          "name": "erc721TokenId",
          "type": "uint256"
        },
        {
          "indexed": true,
          "internalType": "uint256",
          "name": "category",
          "type": "uint256"
        },
        {
          "indexed": false,
          "internalType": "uint256",
          "name": "priceInWei",
          "type": "uint256"
        },
        {
          "indexed": false,
          "internalType": "uint256",
          "name": "time",
          "type": "uint256"
        }
      ],
      "name": "ERC721ExecutedListing",
      "type": "event"
    },
    {
      "anonymous": false,
      "inputs": [
        {
          "indexed": true,
          "internalType": "uint256",
          "name": "listingId",
          "type": "uint256"
        },
        {
          "indexed": true,
          "internalType": "address",
          "name": "seller",
          "type": "address"
        },
        {
          "indexed": false,
          "internalType": "address",
          "name": "erc721TokenAddress",
          "type": "address"
        },
        {
          "indexed": false,
          "internalType": "uint256",
          "name": "erc721TokenId",
          "type": "uint256"
        },
        {
          "indexed": true,
          "internalType": "uint256",
          "name": "category",
          "type": "uint256"
        },
        {
          "indexed": false,
          "internalType": "uint256",
          "name": "time",
          "type": "uint256"
        }
      ],
      "name": "ERC721ListingAdd",
      "type": "event"
    },
    {
      "inputs": [
        {
          "internalType": "address",
          "name": "_erc721TokenAddress",
          "type": "address"
        },
        {
          "internalType": "uint256",
          "name": "_erc721TokenId",
          "type": "uint256"
        },
        {
          "internalType": "uint256",
          "name": "_priceInWei",
          "type": "uint256"
        }
      ],
      "name": "addERC721Listing",
      "outputs": [],
      "stateMutability": "nonpayable",
      "type": "function"
    },
    {
      "inputs": [
        {
          "internalType": "uint256",
          "name": "_listingId",
          "type": "uint256"
        }
      ],
      "name": "cancelERC721Listing",
      "outputs": [],
      "stateMutability": "nonpayable",
      "type": "function"
    },
    {
      "inputs": [
        {
          "internalType": "address",
          "name": "_erc721TokenAddress",
          "type": "address"
        },
        {
          "internalType": "uint256",
          "name": "_erc721TokenId",
          "type": "uint256"
        }
      ],
      "name": "cancelERC721ListingByToken",
      "outputs": [],
      "stateMutability": "nonpayable",
      "type": "function"
    },
    {
      "inputs": [
        {
          "internalType": "uint256",
          "name": "_listingId",
          "type": "uint256"
        }
      ],
      "name": "executeERC721Listing",
      "outputs": [],
      "stateMutability": "nonpayable",
      "type": "function"
    },
    {
      "inputs": [
        {
          "internalType": "uint256",
          "name": "_listingId",
          "type": "uint256"
        }
      ],
      "name": "getAavegotchiListing",
      "outputs": [
        {
          "components": [
            {
              "internalType": "uint256",
              "name": "listingId",
              "type": "uint256"
            },
            {
              "internalType": "address",
              "name": "seller",
              "type": "address"
            },
            {
              "internalType": "address",
              "name": "erc721TokenAddress",
              "type": "address"
            },
            {
              "internalType": "uint256",
              "name": "erc721TokenId",
              "type": "uint256"
            },
            {
              "internalType": "uint256",
              "name": "category",
              "type": "uint256"
            },
            {
              "internalType": "uint256",
              "name": "priceInWei",
              "type": "uint256"
            },
            {
              "internalType": "uint256",
              "name": "timeCreated",
              "type": "uint256"
            },
            {
              "internalType": "uint256",
              "name": "timePurchased",
              "type": "uint256"
            },
            {
              "internalType": "bool",
              "name": "cancelled",
              "type": "bool"
            }
          ],
          "internalType": "struct ERC721Listing",
          "name": "listing_",
          "type": "tuple"
        },
        {
          "components": [
            {
              "internalType": "uint256",
              "name": "tokenId",
              "type": "uint256"
            },
            {
              "internalType": "string",
              "name": "name",
              "type": "string"
            },
            {
              "internalType": "address",
              "name": "owner",
              "type": "address"
            },
            {
              "internalType": "uint256",
              "name": "randomNumber",
              "type": "uint256"
            },
            {
              "internalType": "uint256",
              "name": "status",
              "type": "uint256"
            },
            {
              "internalType": "int16[6]",
              "name": "numericTraits",
              "type": "int16[6]"
            },
            {
              "internalType": "int16[6]",
              "name": "modifiedNumericTraits",
              "type": "int16[6]"
            },
            {
              "internalType": "uint16[16]",
              "name": "equippedWearables",
              "type": "uint16[16]"
            },
            {
              "internalType": "address",
              "name": "collateral",
              "type": "address"
            },
            {
              "internalType": "address",
              "name": "escrow",
              "type": "address"
            },
            {
              "internalType": "uint256",
              "name": "stakedAmount",
              "type": "uint256"
            },
            {
              "internalType": "uint256",
              "name": "minimumStake",
              "type": "uint256"
            },
            {
              "internalType": "uint256",
              "name": "kinship",
              "type": "uint256"
            },
            {
              "internalType": "uint256",
              "name": "lastInteracted",
              "type": "uint256"
            },
            {
              "internalType": "uint256",
              "name": "experience",
              "type": "uint256"
            },
            {
              "internalType": "uint256",
              "name": "toNextLevel",
              "type": "uint256"
            },
            {
              "internalType": "uint256",
              "name": "usedSkillPoints",
              "type": "uint256"
            },
            {
              "internalType": "uint256",
              "name": "level",
              "type": "uint256"
            },
            {
              "internalType": "uint256",
              "name": "hauntId",
              "type": "uint256"
            },
            {
              "internalType": "uint256",
              "name": "baseRarityScore",
              "type": "uint256"
            },
            {
              "internalType": "uint256",
              "name": "modifiedRarityScore",
              "type": "uint256"
            },
            {
              "internalType": "bool",
              "name": "locked",
              "type": "bool"
            },
            {
              "components": [
                {
                  "internalType": "uint256",
                  "name": "balance",
                  "type": "uint256"
                },
                {
                  "internalType": "uint256",
                  "name": "itemId",
                  "type": "uint256"
                },
                {
                  "components": [
                    {
                      "internalType": "string",
                      "name": "name",
                      "type": "string"
                    },
                    {
                      "internalType": "string",
                      "name": "description",
                      "type": "string"
                    },
                    {
                      "internalType": "string",
                      "name": "author",
                      "type": "string"
                    },
                    {
                      "internalType": "int8[6]",
                      "name": "traitModifiers",
                      "type": "int8[6]"
                    },
                    {
                      "internalType": "bool[16]",
                      "name": "slotPositions",
                      "type": "bool[16]"
                    },
                    {
                      "internalType": "uint8[]",
                      "name": "allowedCollaterals",
                      "type": "uint8[]"
                    },
                    {
                      "components": [
                        {
                          "internalType": "uint8",
                          "name": "x",
                          "type": "uint8"
                        },
                        {
                          "internalType": "uint8",
                          "name": "y",
                          "type": "uint8"
                        },
                        {
                          "internalType": "uint8",
                          "name": "width",
                          "type": "uint8"
                        },
                        {
                          "internalType": "uint8",
                          "name": "height",
                          "type": "uint8"
                        }
                      ],
                      "internalType": "struct Dimensions",
                      "name": "dimensions",
                      "type": "tuple"
                    },
                    {
                      "internalType": "uint256",
                      "name": "ghstPrice",
                      "type": "uint256"
                    },
                    {
                      "internalType": "uint256",
                      "name": "maxQuantity",
                      "type": "uint256"
                    },
                    {
                      "internalType": "uint32",
                      "name": "svgId",
                      "type": "uint32"
                    },
                    {
                      "internalType": "uint8",
                      "name": "rarityScoreModifier",
                      "type": "uint8"
                    },
                    {
                      "internalType": "bool",
                      "name": "canPurchaseWithGhst",
                      "type": "bool"
                    },
                    {
                      "internalType": "uint32",
                      "name": "totalQuantity",
                      "type": "uint32"
                    },
                    {
                      "internalType": "uint16",
                      "name": "minLevel",
                      "type": "uint16"
                    },
                    {
                      "internalType": "bool",
                      "name": "canBeTransferred",
                      "type": "bool"
                    },
                    {
                      "internalType": "uint8",
                      "name": "category",
                      "type": "uint8"
                    },
                    {
                      "internalType": "int8",
                      "name": "kinshipBonus",
                      "type": "int8"
                    },
                    {
                      "internalType": "uint32",
                      "name": "experienceBonus",
                      "type": "uint32"
                    }
                  ],
                  "internalType": "struct ItemType",
                  "name": "itemType",
                  "type": "tuple"
                }
              ],
              "internalType": "struct ItemTypeIO[]",
              "name": "items",
              "type": "tuple[]"
            }
          ],
          "internalType": "struct AavegotchiInfo",
          "name": "aavegotchiInfo_",
          "type": "tuple"
        }
      ],
      "stateMutability": "view",
      "type": "function"
    },
    {
      "inputs": [
        {
          "internalType": "uint256",
          "name": "_category",
          "type": "uint256"
        },
        {
          "internalType": "string",
          "name": "_sort",
          "type": "string"
        },
        {
          "internalType": "uint256",
          "name": "_length",
          "type": "uint256"
        }
      ],
      "name": "getAavegotchiListings",
      "outputs": [
        {
          "components": [
            {
              "components": [
                {
                  "internalType": "uint256",
                  "name": "listingId",
                  "type": "uint256"
                },
                {
                  "internalType": "address",
                  "name": "seller",
                  "type": "address"
                },
                {
                  "internalType": "address",
                  "name": "erc721TokenAddress",
                  "type": "address"
                },
                {
                  "internalType": "uint256",
                  "name": "erc721TokenId",
                  "type": "uint256"
                },
                {
                  "internalType": "uint256",
                  "name": "category",
                  "type": "uint256"
                },
                {
                  "internalType": "uint256",
                  "name": "priceInWei",
                  "type": "uint256"
                },
                {
                  "internalType": "uint256",
                  "name": "timeCreated",
                  "type": "uint256"
                },
                {
                  "internalType": "uint256",
                  "name": "timePurchased",
                  "type": "uint256"
                },
                {
                  "internalType": "bool",
                  "name": "cancelled",
                  "type": "bool"
                }
              ],
              "internalType": "struct ERC721Listing",
              "name": "listing_",
              "type": "tuple"
            },
            {
              "components": [
                {
                  "internalType": "uint256",
                  "name": "tokenId",
                  "type": "uint256"
                },
                {
                  "internalType": "string",
                  "name": "name",
                  "type": "string"
                },
                {
                  "internalType": "address",
                  "name": "owner",
                  "type": "address"
                },
                {
                  "internalType": "uint256",
                  "name": "randomNumber",
                  "type": "uint256"
                },
                {
                  "internalType": "uint256",
                  "name": "status",
                  "type": "uint256"
                },
                {
                  "internalType": "int16[6]",
                  "name": "numericTraits",
                  "type": "int16[6]"
                },
                {
                  "internalType": "int16[6]",
                  "name": "modifiedNumericTraits",
                  "type": "int16[6]"
                },
                {
                  "internalType": "uint16[16]",
                  "name": "equippedWearables",
                  "type": "uint16[16]"
                },
                {
                  "internalType": "address",
                  "name": "collateral",
                  "type": "address"
                },
                {
                  "internalType": "address",
                  "name": "escrow",
                  "type": "address"
                },
                {
                  "internalType": "uint256",
                  "name": "stakedAmount",
                  "type": "uint256"
                },
                {
                  "internalType": "uint256",
                  "name": "minimumStake",
                  "type": "uint256"
                },
                {
                  "internalType": "uint256",
                  "name": "kinship",
                  "type": "uint256"
                },
                {
                  "internalType": "uint256",
                  "name": "lastInteracted",
                  "type": "uint256"
                },
                {
                  "internalType": "uint256",
                  "name": "experience",
                  "type": "uint256"
                },
                {
                  "internalType": "uint256",
                  "name": "toNextLevel",
                  "type": "uint256"
                },
                {
                  "internalType": "uint256",
                  "name": "usedSkillPoints",
                  "type": "uint256"
                },
                {
                  "internalType": "uint256",
                  "name": "level",
                  "type": "uint256"
                },
                {
                  "internalType": "uint256",
                  "name": "hauntId",
                  "type": "uint256"
                },
                {
                  "internalType": "uint256",
                  "name": "baseRarityScore",
                  "type": "uint256"
                },
                {
                  "internalType": "uint256",
                  "name": "modifiedRarityScore",
                  "type": "uint256"
                },
                {
                  "internalType": "bool",
                  "name": "locked",
                  "type": "bool"
                },
                {
                  "components": [
                    {
                      "internalType": "uint256",
                      "name": "balance",
                      "type": "uint256"
                    },
                    {
                      "internalType": "uint256",
                      "name": "itemId",
                      "type": "uint256"
                    },
                    {
                      "components": [
                        {
                          "internalType": "string",
                          "name": "name",
                          "type": "string"
                        },
                        {
                          "internalType": "string",
                          "name": "description",
                          "type": "string"
                        },
                        {
                          "internalType": "string",
                          "name": "author",
                          "type": "string"
                        },
                        {
                          "internalType": "int8[6]",
                          "name": "traitModifiers",
                          "type": "int8[6]"
                        },
                        {
                          "internalType": "bool[16]",
                          "name": "slotPositions",
                          "type": "bool[16]"
                        },
                        {
                          "internalType": "uint8[]",
                          "name": "allowedCollaterals",
                          "type": "uint8[]"
                        },
                        {
                          "components": [
                            {
                              "internalType": "uint8",
                              "name": "x",
                              "type": "uint8"
                            },
                            {
                              "internalType": "uint8",
                              "name": "y",
                              "type": "uint8"
                            },
                            {
                              "internalType": "uint8",
                              "name": "width",
                              "type": "uint8"
                            },
                            {
                              "internalType": "uint8",
                              "name": "height",
                              "type": "uint8"
                            }
                          ],
                          "internalType": "struct Dimensions",
                          "name": "dimensions",
                          "type": "tuple"
                        },
                        {
                          "internalType": "uint256",
                          "name": "ghstPrice",
                          "type": "uint256"
                        },
                        {
                          "internalType": "uint256",
                          "name": "maxQuantity",
                          "type": "uint256"
                        },
                        {
                          "internalType": "uint32",
                          "name": "svgId",
                          "type": "uint32"
                        },
                        {
                          "internalType": "uint8",
                          "name": "rarityScoreModifier",
                          "type": "uint8"
                        },
                        {
                          "internalType": "bool",
                          "name": "canPurchaseWithGhst",
                          "type": "bool"
                        },
                        {
                          "internalType": "uint32",
                          "name": "totalQuantity",
                          "type": "uint32"
                        },
                        {
                          "internalType": "uint16",
                          "name": "minLevel",
                          "type": "uint16"
                        },
                        {
                          "internalType": "bool",
                          "name": "canBeTransferred",
                          "type": "bool"
                        },
                        {
                          "internalType": "uint8",
                          "name": "category",
                          "type": "uint8"
                        },
                        {
                          "internalType": "int8",
                          "name": "kinshipBonus",
                          "type": "int8"
                        },
                        {
                          "internalType": "uint32",
                          "name": "experienceBonus",
                          "type": "uint32"
                        }
                      ],
                      "internalType": "struct ItemType",
                      "name": "itemType",
                      "type": "tuple"
                    }
                  ],
                  "internalType": "struct ItemTypeIO[]",
                  "name": "items",
                  "type": "tuple[]"
                }
              ],
              "internalType": "struct AavegotchiInfo",
              "name": "aavegotchiInfo_",
              "type": "tuple"
            }
          ],
          "internalType": "struct ERC721MarketplaceFacet.AavegotchiListing[]",
          "name": "listings_",
          "type": "tuple[]"
        }
      ],
      "stateMutability": "view",
      "type": "function"
    },
    {
      "inputs": [
        {
          "internalType": "address",
          "name": "_erc721TokenAddress",
          "type": "address"
        },
        {
          "internalType": "uint256",
          "name": "_erc721TokenId",
          "type": "uint256"
        }
      ],
      "name": "getERC721Category",
      "outputs": [
        {
          "internalType": "uint256",
          "name": "category_",
          "type": "uint256"
        }
      ],
      "stateMutability": "view",
      "type": "function"
    },
    {
      "inputs": [
        {
          "internalType": "uint256",
          "name": "_listingId",
          "type": "uint256"
        }
      ],
      "name": "getERC721Listing",
      "outputs": [
        {
          "components": [
            {
              "internalType": "uint256",
              "name": "listingId",
              "type": "uint256"
            },
            {
              "internalType": "address",
              "name": "seller",
              "type": "address"
            },
            {
              "internalType": "address",
              "name": "erc721TokenAddress",
              "type": "address"
            },
            {
              "internalType": "uint256",
              "name": "erc721TokenId",
              "type": "uint256"
            },
            {
              "internalType": "uint256",
              "name": "category",
              "type": "uint256"
            },
            {
              "internalType": "uint256",
              "name": "priceInWei",
              "type": "uint256"
            },
            {
              "internalType": "uint256",
              "name": "timeCreated",
              "type": "uint256"
            },
            {
              "internalType": "uint256",
              "name": "timePurchased",
              "type": "uint256"
            },
            {
              "internalType": "bool",
              "name": "cancelled",
              "type": "bool"
            }
          ],
          "internalType": "struct ERC721Listing",
          "name": "listing_",
          "type": "tuple"
        }
      ],
      "stateMutability": "view",
      "type": "function"
    },
    {
      "inputs": [
        {
          "internalType": "address",
          "name": "_erc721TokenAddress",
          "type": "address"
        },
        {
          "internalType": "uint256",
          "name": "_erc721TokenId",
          "type": "uint256"
        },
        {
          "internalType": "address",
          "name": "_owner",
          "type": "address"
        }
      ],
      "name": "getERC721ListingFromToken",
      "outputs": [
        {
          "components": [
            {
              "internalType": "uint256",
              "name": "listingId",
              "type": "uint256"
            },
            {
              "internalType": "address",
              "name": "seller",
              "type": "address"
            },
            {
              "internalType": "address",
              "name": "erc721TokenAddress",
              "type": "address"
            },
            {
              "internalType": "uint256",
              "name": "erc721TokenId",
              "type": "uint256"
            },
            {
              "internalType": "uint256",
              "name": "category",
              "type": "uint256"
            },
            {
              "internalType": "uint256",
              "name": "priceInWei",
              "type": "uint256"
            },
            {
              "internalType": "uint256",
              "name": "timeCreated",
              "type": "uint256"
            },
            {
              "internalType": "uint256",
              "name": "timePurchased",
              "type": "uint256"
            },
            {
              "internalType": "bool",
              "name": "cancelled",
              "type": "bool"
            }
          ],
          "internalType": "struct ERC721Listing",
          "name": "listing_",
          "type": "tuple"
        }
      ],
      "stateMutability": "view",
      "type": "function"
    },
    {
      "inputs": [
        {
          "internalType": "uint256",
          "name": "_category",
          "type": "uint256"
        },
        {
          "internalType": "string",
          "name": "_sort",
          "type": "string"
        },
        {
          "internalType": "uint256",
          "name": "_length",
          "type": "uint256"
        }
      ],
      "name": "getERC721Listings",
      "outputs": [
        {
          "components": [
            {
              "internalType": "uint256",
              "name": "listingId",
              "type": "uint256"
            },
            {
              "internalType": "address",
              "name": "seller",
              "type": "address"
            },
            {
              "internalType": "address",
              "name": "erc721TokenAddress",
              "type": "address"
            },
            {
              "internalType": "uint256",
              "name": "erc721TokenId",
              "type": "uint256"
            },
            {
              "internalType": "uint256",
              "name": "category",
              "type": "uint256"
            },
            {
              "internalType": "uint256",
              "name": "priceInWei",
              "type": "uint256"
            },
            {
              "internalType": "uint256",
              "name": "timeCreated",
              "type": "uint256"
            },
            {
              "internalType": "uint256",
              "name": "timePurchased",
              "type": "uint256"
            },
            {
              "internalType": "bool",
              "name": "cancelled",
              "type": "bool"
            }
          ],
          "internalType": "struct ERC721Listing[]",
          "name": "listings_",
          "type": "tuple[]"
        }
      ],
      "stateMutability": "view",
      "type": "function"
    },
    {
      "inputs": [
        {
          "internalType": "address",
          "name": "_owner",
          "type": "address"
        },
        {
          "internalType": "uint256",
          "name": "_category",
          "type": "uint256"
        },
        {
          "internalType": "string",
          "name": "_sort",
          "type": "string"
        },
        {
          "internalType": "uint256",
          "name": "_length",
          "type": "uint256"
        }
      ],
      "name": "getOwnerAavegotchiListings",
      "outputs": [
        {
          "components": [
            {
              "components": [
                {
                  "internalType": "uint256",
                  "name": "listingId",
                  "type": "uint256"
                },
                {
                  "internalType": "address",
                  "name": "seller",
                  "type": "address"
                },
                {
                  "internalType": "address",
                  "name": "erc721TokenAddress",
                  "type": "address"
                },
                {
                  "internalType": "uint256",
                  "name": "erc721TokenId",
                  "type": "uint256"
                },
                {
                  "internalType": "uint256",
                  "name": "category",
                  "type": "uint256"
                },
                {
                  "internalType": "uint256",
                  "name": "priceInWei",
                  "type": "uint256"
                },
                {
                  "internalType": "uint256",
                  "name": "timeCreated",
                  "type": "uint256"
                },
                {
                  "internalType": "uint256",
                  "name": "timePurchased",
                  "type": "uint256"
                },
                {
                  "internalType": "bool",
                  "name": "cancelled",
                  "type": "bool"
                }
              ],
              "internalType": "struct ERC721Listing",
              "name": "listing_",
              "type": "tuple"
            },
            {
              "components": [
                {
                  "internalType": "uint256",
                  "name": "tokenId",
                  "type": "uint256"
                },
                {
                  "internalType": "string",
                  "name": "name",
                  "type": "string"
                },
                {
                  "internalType": "address",
                  "name": "owner",
                  "type": "address"
                },
                {
                  "internalType": "uint256",
                  "name": "randomNumber",
                  "type": "uint256"
                },
                {
                  "internalType": "uint256",
                  "name": "status",
                  "type": "uint256"
                },
                {
                  "internalType": "int16[6]",
                  "name": "numericTraits",
                  "type": "int16[6]"
                },
                {
                  "internalType": "int16[6]",
                  "name": "modifiedNumericTraits",
                  "type": "int16[6]"
                },
                {
                  "internalType": "uint16[16]",
                  "name": "equippedWearables",
                  "type": "uint16[16]"
                },
                {
                  "internalType": "address",
                  "name": "collateral",
                  "type": "address"
                },
                {
                  "internalType": "address",
                  "name": "escrow",
                  "type": "address"
                },
                {
                  "internalType": "uint256",
                  "name": "stakedAmount",
                  "type": "uint256"
                },
                {
                  "internalType": "uint256",
                  "name": "minimumStake",
                  "type": "uint256"
                },
                {
                  "internalType": "uint256",
                  "name": "kinship",
                  "type": "uint256"
                },
                {
                  "internalType": "uint256",
                  "name": "lastInteracted",
                  "type": "uint256"
                },
                {
                  "internalType": "uint256",
                  "name": "experience",
                  "type": "uint256"
                },
                {
                  "internalType": "uint256",
                  "name": "toNextLevel",
                  "type": "uint256"
                },
                {
                  "internalType": "uint256",
                  "name": "usedSkillPoints",
                  "type": "uint256"
                },
                {
                  "internalType": "uint256",
                  "name": "level",
                  "type": "uint256"
                },
                {
                  "internalType": "uint256",
                  "name": "hauntId",
                  "type": "uint256"
                },
                {
                  "internalType": "uint256",
                  "name": "baseRarityScore",
                  "type": "uint256"
                },
                {
                  "internalType": "uint256",
                  "name": "modifiedRarityScore",
                  "type": "uint256"
                },
                {
                  "internalType": "bool",
                  "name": "locked",
                  "type": "bool"
                },
                {
                  "components": [
                    {
                      "internalType": "uint256",
                      "name": "balance",
                      "type": "uint256"
                    },
                    {
                      "internalType": "uint256",
                      "name": "itemId",
                      "type": "uint256"
                    },
                    {
                      "components": [
                        {
                          "internalType": "string",
                          "name": "name",
                          "type": "string"
                        },
                        {
                          "internalType": "string",
                          "name": "description",
                          "type": "string"
                        },
                        {
                          "internalType": "string",
                          "name": "author",
                          "type": "string"
                        },
                        {
                          "internalType": "int8[6]",
                          "name": "traitModifiers",
                          "type": "int8[6]"
                        },
                        {
                          "internalType": "bool[16]",
                          "name": "slotPositions",
                          "type": "bool[16]"
                        },
                        {
                          "internalType": "uint8[]",
                          "name": "allowedCollaterals",
                          "type": "uint8[]"
                        },
                        {
                          "components": [
                            {
                              "internalType": "uint8",
                              "name": "x",
                              "type": "uint8"
                            },
                            {
                              "internalType": "uint8",
                              "name": "y",
                              "type": "uint8"
                            },
                            {
                              "internalType": "uint8",
                              "name": "width",
                              "type": "uint8"
                            },
                            {
                              "internalType": "uint8",
                              "name": "height",
                              "type": "uint8"
                            }
                          ],
                          "internalType": "struct Dimensions",
                          "name": "dimensions",
                          "type": "tuple"
                        },
                        {
                          "internalType": "uint256",
                          "name": "ghstPrice",
                          "type": "uint256"
                        },
                        {
                          "internalType": "uint256",
                          "name": "maxQuantity",
                          "type": "uint256"
                        },
                        {
                          "internalType": "uint32",
                          "name": "svgId",
                          "type": "uint32"
                        },
                        {
                          "internalType": "uint8",
                          "name": "rarityScoreModifier",
                          "type": "uint8"
                        },
                        {
                          "internalType": "bool",
                          "name": "canPurchaseWithGhst",
                          "type": "bool"
                        },
                        {
                          "internalType": "uint32",
                          "name": "totalQuantity",
                          "type": "uint32"
                        },
                        {
                          "internalType": "uint16",
                          "name": "minLevel",
                          "type": "uint16"
                        },
                        {
                          "internalType": "bool",
                          "name": "canBeTransferred",
                          "type": "bool"
                        },
                        {
                          "internalType": "uint8",
                          "name": "category",
                          "type": "uint8"
                        },
                        {
                          "internalType": "int8",
                          "name": "kinshipBonus",
                          "type": "int8"
                        },
                        {
                          "internalType": "uint32",
                          "name": "experienceBonus",
                          "type": "uint32"
                        }
                      ],
                      "internalType": "struct ItemType",
                      "name": "itemType",
                      "type": "tuple"
                    }
                  ],
                  "internalType": "struct ItemTypeIO[]",
                  "name": "items",
                  "type": "tuple[]"
                }
              ],
              "internalType": "struct AavegotchiInfo",
              "name": "aavegotchiInfo_",
              "type": "tuple"
            }
          ],
          "internalType": "struct ERC721MarketplaceFacet.AavegotchiListing[]",
          "name": "listings_",
          "type": "tuple[]"
        }
      ],
      "stateMutability": "view",
      "type": "function"
    },
    {
      "inputs": [
        {
          "internalType": "address",
          "name": "_owner",
          "type": "address"
        },
        {
          "internalType": "uint256",
          "name": "_category",
          "type": "uint256"
        },
        {
          "internalType": "string",
          "name": "_sort",
          "type": "string"
        },
        {
          "internalType": "uint256",
          "name": "_length",
          "type": "uint256"
        }
      ],
      "name": "getOwnerERC721Listings",
      "outputs": [
        {
          "components": [
            {
              "internalType": "uint256",
              "name": "listingId",
              "type": "uint256"
            },
            {
              "internalType": "address",
              "name": "seller",
              "type": "address"
            },
            {
              "internalType": "address",
              "name": "erc721TokenAddress",
              "type": "address"
            },
            {
              "internalType": "uint256",
              "name": "erc721TokenId",
              "type": "uint256"
            },
            {
              "internalType": "uint256",
              "name": "category",
              "type": "uint256"
            },
            {
              "internalType": "uint256",
              "name": "priceInWei",
              "type": "uint256"
            },
            {
              "internalType": "uint256",
              "name": "timeCreated",
              "type": "uint256"
            },
            {
              "internalType": "uint256",
              "name": "timePurchased",
              "type": "uint256"
            },
            {
              "internalType": "bool",
              "name": "cancelled",
              "type": "bool"
            }
          ],
          "internalType": "struct ERC721Listing[]",
          "name": "listings_",
          "type": "tuple[]"
        }
      ],
      "stateMutability": "view",
      "type": "function"
    },
    {
      "inputs": [
        {
          "internalType": "address",
          "name": "_erc721TokenAddress",
          "type": "address"
        },
        {
          "internalType": "uint256",
          "name": "_erc721TokenId",
          "type": "uint256"
        },
        {
          "internalType": "address",
          "name": "_owner",
          "type": "address"
        }
      ],
      "name": "updateERC721Listing",
      "outputs": [],
      "stateMutability": "nonpayable",
      "type": "function"
    }
  ],
  "bytecode": "0x608060405234801561001057600080fd5b50614285806100206000396000f3fe608060405234801561001057600080fd5b50600436106100cf5760003560e01c8063a676bafb1161008c578063d90da10611610066578063d90da106146101be578063df3ad6d1146101d1578063f17a5c6c146101e4578063fb8b1c56146101f7576100cf565b8063a676bafb14610178578063ba726be414610198578063d33a32df146101ab576100cf565b8063107146a4146100d457806331b0b514146100fd5780633eed635a146101125780634eff5a3e146101255780636c20642f146101455780638835843114610165575b600080fd5b6100e76100e236600461326a565b610218565b6040516100f491906138c1565b60405180910390f35b61011061010b3660046131e6565b6103ed565b005b610110610120366004613146565b61084b565b61013861013336600461323a565b61085b565b6040516100f49190613e7e565b610158610153366004613187565b610910565b6040516100f49190613941565b6100e7610173366004613187565b610ab9565b61018b61018636600461311b565b610c99565b6040516100f49190613eaf565b6101106101a636600461311b565b610ce5565b6101386101b9366004613146565b610cfb565b6101586101cc36600461326a565b610dde565b6101106101df36600461323a565b610f67565b6101106101f236600461323a565b610f7b565b61020a61020536600461323a565b6112cd565b6040516100f4929190613e8d565b600083815260336020526040808220905160609291906102399086906137ef565b90815260200160405180910390205490508267ffffffffffffffff81111561027157634e487b7160e01b600052604160045260246000fd5b6040519080825280602002602001820160405280156102aa57816020015b610297612df0565b81526020019060019003908161028f5790505b50915060005b81158015906102be57508381105b156103e3576000828152603160209081526040918290208251610120810184528154815260018201546001600160a01b03908116938201939093526002820154909216928201929092526003820154606082015260048201546080820152600582015460a0820152600682015460c0820152600782015460e082015260089091015460ff1615156101008201528351819085908490811061036f57634e487b7160e01b600052603260045260246000fd5b60200260200101516000018190525061038b8160600151611399565b8483815181106103ab57634e487b7160e01b600052603260045260246000fd5b6020908102919091018101518101919091526000938452603290525060409091206002015490806103db816141f3565b9150506102b0565b8252509392505050565b8260006103f861175d565b9050806001600160a01b0316826001600160a01b0316636352211e866040518263ffffffff1660e01b81526004016104309190613eaf565b60206040518083038186803b15801561044857600080fd5b505afa15801561045c573d6000803e3d6000fd5b505050506040513d601f19601f8201168201806040525081019061048091906130ff565b6001600160a01b0316146104af5760405162461bcd60e51b81526004016104a690613b4a565b60405180910390fd5b6001600160a01b03851630148061053f575060405163e985e9c560e01b81526001600160a01b0383169063e985e9c5906104ef9084903090600401613831565b60206040518083038186803b15801561050757600080fd5b505afa15801561051b573d6000803e3d6000fd5b505050506040513d601f19601f8201168201806040525081019061053f919061321a565b806105ce575060405163020604bf60e21b815230906001600160a01b0384169063081812fc90610573908890600401613eaf565b60206040518083038186803b15801561058b57600080fd5b505afa15801561059f573d6000803e3d6000fd5b505050506040513d601f19601f820116820180604052508101906105c391906130ff565b6001600160a01b0316145b6105ea5760405162461bcd60e51b81526004016104a690613cf9565b670de0b6b3a76400008310156106125760405162461bcd60e51b81526004016104a690613c0d565b60308054906000610622836141f3565b909155505060305460006106368787610c99565b905080600114156106595760405162461bcd60e51b81526004016104a690613d8d565b6001600160a01b0380881660009081526037602090815260408083208a845282528083209387168352929052205480156106975761069781856117ba565b6001600160a01b0388811660008181526037602090815260408083208c84528252808320898616808552908352818420899055815161012081018352898152808401918252808301958652606081018e8152608082018a815260a083018f81524260c0850190815260e0850189815261010086018a81528f8b5260318a52998890209551865595516001860180546001600160a01b0319908116928e169290921790559951600286018054909b169b169a909a17909855905160038301555160048201559451600586015594516006808601919091559451600785015591516008909301805460ff1916931515939093179092558051808201909152918252651b1a5cdd195960d21b908201526107b29085908490866118d3565b81846001600160a01b0316847fd9b541cd1d9650dbbcb9b244efe4aa9455a9e7bb329f80cd30ab25275534c72d8b8b8b6040516107f1939291906138a0565b60405180910390a46000878152600d60205260409020600a01805460ff60d01b1916600160d01b179055602e541561084157601854602e54610841916001600160a01b0390811691879190611a47565b5050505050505050565b610856838383611b28565b505050565b610863612e15565b506000818152603160209081526040918290208251610120810184528154815260018201546001600160a01b03908116938201939093526002820154909216928201929092526003820154606082015260048201546080820152600582015460a0820152600682015460c08201819052600783015460e083015260089092015460ff1615156101008201529061090b5760405162461bcd60e51b81526004016104a690613e2e565b919050565b6001600160a01b0384166000908152603560209081526040808320868452909152808220905160609291906109469086906137ef565b90815260200160405180910390205490508267ffffffffffffffff81111561097e57634e487b7160e01b600052604160045260246000fd5b6040519080825280602002602001820160405280156109b757816020015b6109a4612e15565b81526020019060019003908161099c5790505b50915060005b81158015906109cb57508381105b15610aae576000828152603160209081526040918290208251610120810184528154815260018201546001600160a01b03908116938201939093526002820154909216928201929092526003820154606082015260048201546080820152600582015460a0820152600682015460c0820152600782015460e082015260089091015460ff1615156101008201528351849083908110610a7a57634e487b7160e01b600052603260045260246000fd5b6020908102919091018101919091526000928352603490526040909120600201549080610aa6816141f3565b9150506109bd565b825250949350505050565b6001600160a01b038416600090815260356020908152604080832086845290915280822090516060929190610aef9086906137ef565b90815260200160405180910390205490508267ffffffffffffffff811115610b2757634e487b7160e01b600052604160045260246000fd5b604051908082528060200260200182016040528015610b6057816020015b610b4d612df0565b815260200190600190039081610b455790505b50915060005b8115801590610b7457508381105b15610aae576000828152603160209081526040918290208251610120810184528154815260018201546001600160a01b03908116938201939093526002820154909216928201929092526003820154606082015260048201546080820152600582015460a0820152600682015460c0820152600782015460e082015260089091015460ff16151561010082015283518190859084908110610c2557634e487b7160e01b600052603260045260246000fd5b602002602001015160000181905250610c418160600151611399565b848381518110610c6157634e487b7160e01b600052603260045260246000fd5b602090810291909101810151810191909152600093845260349052506040909120600201549080610c91816141f3565b915050610b66565b60006001600160a01b0383163014610cc35760405162461bcd60e51b81526004016104a690613c60565b506000908152600d60205260409020600a0154600160a01b900460ff16919050565b610cf78282610cf261175d565b611c62565b5050565b610d03612e15565b6001600160a01b03808516600090815260376020908152604080832087845282528083209386168352929052205480610d4e5760405162461bcd60e51b81526004016104a690613cb1565b6000908152603160209081526040918290208251610120810184528154815260018201546001600160a01b03908116938201939093526002820154909216928201929092526003820154606082015260048201546080820152600582015460a0820152600682015460c0820152600782015460e082015260089091015460ff161515610100820152949350505050565b60008381526033602052604080822090516060929190610dff9086906137ef565b90815260200160405180910390205490508267ffffffffffffffff811115610e3757634e487b7160e01b600052604160045260246000fd5b604051908082528060200260200182016040528015610e7057816020015b610e5d612e15565b815260200190600190039081610e555790505b50915060005b8115801590610e8457508381105b156103e3576000828152603160209081526040918290208251610120810184528154815260018201546001600160a01b03908116938201939093526002820154909216928201929092526003820154606082015260048201546080820152600582015460a0820152600682015460c0820152600782015460e082015260089091015460ff1615156101008201528351849083908110610f3357634e487b7160e01b600052603260045260246000fd5b6020908102919091018101919091526000928352603290526040909120600201549080610f5f816141f3565b915050610e76565b610f7881610f7361175d565b6117ba565b50565b6000818152603160205260409020600781015415610fab5760405162461bcd60e51b81526004016104a690613b03565b600881015460ff1615610fd05760405162461bcd60e51b81526004016104a690613dea565b6006810154610ff15760405162461bcd60e51b81526004016104a6906139a3565b6005810154600061100061175d565b60018401549091506001600160a01b039081169082168114156110355760405162461bcd60e51b81526004016104a690613d45565b6018546040516370a0823160e01b815284916001600160a01b0316906370a082319061106590869060040161381d565b60206040518083038186803b15801561107d57600080fd5b505afa158015611091573d6000803e3d6000fd5b505050506040513d601f19601f820116820180604052508101906110b59190613252565b10156110d35760405162461bcd60e51b81526004016104a690613bcb565b4260078501556110e38582611cb5565b611114818560040154604051806040016040528060098152602001681c1d5c98da185cd95960ba1b815250886118d3565b6000611121606485613f63565b90506000606461113286600261411d565b61113c9190613f63565b9050600061114a8284613f4b565b611154908761417b565b601854601d54919250611176916001600160a01b039182169188911685611a47565b601854601c54611195916001600160a01b039081169188911686611a47565b6018546111ad906001600160a01b0316868684611a47565b60038701546000908152600d60205260409020600a01805460ff60d01b1916905560028701546001600160a01b03163014156111f7576111f284868960030154611f13565b611263565b60028701546003880154604051632142170760e11b81526001600160a01b03909216916342842e0e916112309188918a9160040161384b565b600060405180830381600087803b15801561124a57600080fd5b505af115801561125e573d6000803e3d6000fd5b505050505b60048701546002880154600389015460058a01546040516001600160a01b03898116948e947f8abb27e53fc4ab514e7e5521910bdf2d1e48a69f150dbb671efa7ccc8f44bb28946112bb948e9490931692429061386f565b60405180910390a45050505050505050565b6112d5612e15565b6112dd612e75565b6000838152603160209081526040918290208251610120810184528154815260018201546001600160a01b03908116938201939093526002820154909216928201929092526003820154606082015260048201546080820152600582015460a0820152600682015460c08201819052600783015460e083015260089092015460ff16151561010082015292506113855760405162461bcd60e51b81526004016104a690613e2e565b6113928260600151611399565b9050915091565b6113a1612e75565b60006113ab61221d565b8383526000848152600d820160208181526040808420600a8101546001600160a01b0381169289019290925260048101546060890152600160a01b90910460ff16608088019081529388905291905260090154600160f01b900461ffff166102408501525190915060031415611757576000838152600d8201602052604090206003018054611439906141be565b80601f0160208091040260200160405190810160405280929190818152602001828054611465906141be565b80156114b25780601f10611487576101008083540402835291602001916114b2565b820191906000526020600020905b81548152906001019060200180831161149557829003601f168201915b50505050506020838101919091526000848152600d8301909152604080822081516102008101928390529290916010918390855b82829054906101000a900461ffff1661ffff16815260200190600201906020826001010492830192600103820291508084116114e657505050505060e0840191909152506000838152600d82016020818152604080842060098101546001600160a01b0390811661010089019081529589905293909252600b9091015482166101208601819052925190516370a0823160e01b81529116916370a0823191611591919060040161381d565b60206040518083038186803b1580156115a957600080fd5b505afa1580156115bd573d6000803e3d6000fd5b505050506040513d601f19601f820116820180604052508101906115e19190613252565b6101408301526000838152600d8201602052604090206006015461016083015261160a83612222565b6101808301526000838152600d8201602081815260408320600a810154600160a81b900464ffffffffff166101a0870152600501546101c08601819052928690525261165590612299565b6101e08301526000838152600d82016020526040902060050154611678906122cf565b6102208301526000838152600d820160208181526040808420600781015461020088015287855292909152805160c081019182905292600290920191600691908390855b82829054906101000a900460010b60010b815260200190600201906020826001010492830192600103820291508084116116bc57505050505060a084018290525061170690612316565b6102608301526117158361239e565b61028084015260c08301526000838152600d820160205260409020600a0154600160d01b900460ff1615156102a08301526117503084612582565b6102c08301525b50919050565b6000333014156117b457600080368080601f0160208091040260200160405190810160405280939291908181526020018383808284376000920191909152505050503601516001600160a01b031691506117b79050565b50335b90565b60006117c461221d565b600084815260328201602052604090206001810154919250906117e8575050610cf7565b60008481526031830160205260409020600881015460ff161515600114806118135750600781015415155b1561182057505050610cf7565b60018101546001600160a01b0385811691161461184f5760405162461bcd60e51b81526004016104a690613a81565b60088101805460ff1916600117905560038101546000908152600d8401602052604090819020600a01805460ff60d01b191690556004820154905186917f10e53bca620314e794d61e37932062e81c48e88233765d09da42aeb00ae4dba0916118ba91904390613eb8565b60405180910390a26118cc8585611cb5565b5050505050565b60006118dd61221d565b6001600160a01b03861660009081526035820160209081526040808320888452909152808220905192935090916119159086906137ef565b90815260200160405180910390205490508060001461194257600081815260348301602052604090208390555b60008381526034830160209081526040808320600281018590556001600160a01b038a1684526035860183528184208985529092529182902091519091859161198c9088906137ef565b908152604080516020928190038301812093909355600184018790556000898152603387019092529020906119c29087906137ef565b9081526020016040518091039020549150816000146119ef57600082815260328401602052604090208490555b5060008381526032830160209081526040808320600281018590558884526033860190925291829020915190918591611a299088906137ef565b90815260405190819003602001902055600101929092555050505050565b833b80611a665760405162461bcd60e51b81526004016104a6906139e7565b600080866001600160a01b03166323b872dd60e01b878787604051602401611a909392919061384b565b60408051601f198184030181529181526020820180516001600160e01b03166001600160e01b0319909416939093179092529051611ace91906137ef565b6000604051808303816000865af19150503d8060008114611b0b576040519150601f19603f3d011682016040523d82523d6000602084013e611b10565b606091505b5091509150611b1f8282612b77565b50505050505050565b6000611b3261221d565b6001600160a01b038086166000908152603783016020908152604080832088845282528083209387168352929052205490915080611b71575050610856565b6000818152603183016020526040902060078101541580611b9b5750600881015460ff1615156001145b15611ba857505050610856565b600281015460038201546040516331a9108f60e11b81526000926001600160a01b031691636352211e91611bdf9190600401613eaf565b60206040518083038186803b158015611bf757600080fd5b505afa158015611c0b573d6000803e3d6000fd5b505050506040513d601f19601f82011682018060405250810190611c2f91906130ff565b60018301549091506001600160a01b03808316911614611b1f576001820154611b1f9084906001600160a01b03166117ba565b6000611c6c61221d565b6001600160a01b038086166000908152603783016020908152604080832088845282528083209387168352929052205490915080611cab575050610856565b6118cc81846117ba565b6000611cbf61221d565b60008481526032820160205260409020600181015491925090611ce3575050610cf7565b80548015611d0557600081815260328401602052604090206002808401549101555b60028201548015611d255760008181526032850160205260409020835490555b60008681526031850160209081526040808320600481015484526033880190925291829020915190918891611d599061380b565b9081526020016040518091039020541415611da657600284015460048201546000908152603387016020526040908190209051611d959061380b565b908152604051908190036020019020555b6000600185018190558085556002909401849055868452603485016020526040909320805490939092508215611df057600083815260348601602052604090206002808601549101555b600284015491508115611e125760008281526034860160205260409020845490555b50600086815260318501602090815260408083206001600160a01b03891684526035880183528184206004820154855290925291829020915190918891611e589061380b565b9081526020016040518091039020541415611eb95760028401546001600160a01b0387166000908152603587016020908152604080832060048601548452909152908190209051611ea89061380b565b908152604051908190036020019020555b6000600185018190558085556002850155600481015460405188917fd309bba073dd463d9d78e92766d06da7cde7d0e6e83149168a7bc913c9ecc44291611f0291904290613eb8565b60405180910390a250505050505050565b6000611f1d61221d565b6001600160a01b0385166000818152600f830160209081526040808320878452825280832054938352600e85019091528120549293509091611f619060019061417b565b905080821461206d576001600160a01b0386166000908152600e840160205260408120805483908110611fa457634e487b7160e01b600052603260045260246000fd5b90600052602060002090600891828204019190066004029054906101000a900463ffffffff1690508084600e016000896001600160a01b03166001600160a01b03168152602001908152602001600020848154811061201357634e487b7160e01b600052603260045260246000fd5b600091825260208083206008830401805460079093166004026101000a63ffffffff8181021990941695841602949094179093556001600160a01b038a168252600f87018352604080832094909116825292909152208290555b6001600160a01b0386166000908152600e8401602052604090208054806120a457634e487b7160e01b600052603160045260246000fd5b60008281526020808220600860001990940193840401805463ffffffff600460078716026101000a0219169055919092556001600160a01b038089168352600f860182526040808420888552835280842084905560138701909252912054161561215c57600084815260138401602052604080822080546001600160a01b0319169055518591906001600160a01b038916907f8c5be1e5ebec7d5bd14f71427d1e84f3dd0314c0f7b2291e5b200ac8c7c3b925908390a45b6000848152600d840160209081526040808320600a0180546001600160a01b0319166001600160a01b038a8116918217909255808552600e88018085528386208054600f8b0187528588208c8952875285882081905591865260018201815586529385206008850401805460079095166004026101000a63ffffffff81810219909616958b16029490941790935590518793918a16917fddf252ad1be2c89b69c2b068fc378daa952ba7f163c4a11628f55a4df523b3ef91a4505050505050565b600090565b60008061222d61221d565b6000848152600d820160205260408120600a81015460088201549394509092600160a81b90910464ffffffffff1691612266834261417b565b905060006122776201518083613f63565b90508083111561228e5761228b818461417b565b96505b505050505050919050565b6000806122a5836122cf565b9050826122b3600283613fc9565b6122be90603261411d565b6122c8919061417b565b9392505050565b600062077a428211156122e45750606361090b565b600a6122f96122f484600261411d565b612bf2565b6123039190613f63565b9050612310816001613f4b565b92915050565b6000805b600681101561175757600083826006811061234557634e487b7160e01b600052603260045260246000fd5b602002015160010b90506032811261237357612362816001613f4b565b61236c9084613f4b565b925061238b565b61237e81606461413c565b6123889084613f4b565b92505b5080612396816141f3565b91505061231a565b6123a6612f52565b6000806123b161221d565b6000858152600d820160205260409020600a0154909150600160a01b900460ff166003146123f15760405162461bcd60e51b81526004016104a690613b96565b6000848152600d82016020526040902061240a85612c45565b93506000805b601081101561255f57600083826010811061243b57634e487b7160e01b600052603260045260246000fd5b601081049190910154600f9091166002026101000a900461ffff16905080612463575061254d565b600085600601828154811061248857634e487b7160e01b600052603260045260246000fd5b90600052602060002090600a0201905060005b600681101561252d578160030181600681106124c757634e487b7160e01b600052603260045260246000fd5b602091828204019190069054906101000a900460000b60000b89826006811061250057634e487b7160e01b600052603260045260246000fd5b602002018181516125119190613ec6565b600190810b900b90525080612525816141f3565b91505061249b565b50600981015461254890640100000000900460ff1685613f4b565b935050505b80612557816141f3565b915050612410565b50600061256b86612316565b90506125778282613f4b565b945050505050915091565b6060600061258e61221d565b6001600160a01b038516600090815260048201602090815260408083208784529091529020549091508067ffffffffffffffff8111156125de57634e487b7160e01b600052604160045260246000fd5b60405190808252806020026020018201604052801561261757816020015b612604612f70565b8152602001906001900390816125fc5790505b50925060005b81811015612b6e576001600160a01b03861660009081526004840160209081526040808320888452909152812080548390811061266a57634e487b7160e01b600052603260045260246000fd5b60009182526020808320909101546001600160a01b038a16835260038701825260408084208a8552835280842082855290925291205486519192509082908790859081106126c857634e487b7160e01b600052603260045260246000fd5b60200260200101516020018181525050808684815181106126f957634e487b7160e01b600052603260045260246000fd5b6020908102919091010151526006850180548390811061272957634e487b7160e01b600052603260045260246000fd5b90600052602060002090600a020160405180610240016040529081600082018054612753906141be565b80601f016020809104026020016040519081016040528092919081815260200182805461277f906141be565b80156127cc5780601f106127a1576101008083540402835291602001916127cc565b820191906000526020600020905b8154815290600101906020018083116127af57829003601f168201915b505050505081526020016001820180546127e5906141be565b80601f0160208091040260200160405190810160405280929190818152602001828054612811906141be565b801561285e5780601f106128335761010080835404028352916020019161285e565b820191906000526020600020905b81548152906001019060200180831161284157829003601f168201915b50505050508152602001600282018054612877906141be565b80601f01602080910402602001604051908101604052809291908181526020018280546128a3906141be565b80156128f05780601f106128c5576101008083540402835291602001916128f0565b820191906000526020600020905b8154815290600101906020018083116128d357829003601f168201915b50505091835250506040805160c0810191829052602090920191906003840190600690826000855b82829054906101000a900460000b60000b815260200190600101906020826000010492830192600103820291508084116129185750505092845250506040805161020081019182905260209093019291506004840190601090826000855b825461010083900a900460ff1615158152602060019283018181049485019490930390920291018084116129765790505050505050815260200160058201805480602002602001604051908101604052809291908181526020018280548015612a1c57602002820191906000526020600020906000905b825461010083900a900460ff168152602060019283018181049485019490930390920291018084116129ed5790505b50505091835250506040805160808082018352600685015460ff80821684526101008083048216602086810191909152620100008404831686880152630100000090930482166060808701919091529287019490945260078701549486019490945260088601549085015260099094015463ffffffff808216958501959095526401000000008104831660a08501526501000000000081048316151560c085015266010000000000008104851660e085015261ffff600160501b82041691840191909152600160601b810482161515610120840152600160681b8104909116610140830152600160701b8104600090810b810b900b610160830152600160781b9004909116610180909101528651879085908110612b4a57634e487b7160e01b600052603260045260246000fd5b60200260200101516040018190525050508080612b66906141f3565b91505061261d565b50505092915050565b8115612bb957805115612bb45780806020019051810190612b98919061321a565b612bb45760405162461bcd60e51b81526004016104a690613a30565b610cf7565b805115612bda578060405162461bcd60e51b81526004016104a69190613990565b60405162461bcd60e51b81526004016104a690613ab8565b6000806002612c02846001613f4b565b612c0c9190613f63565b90508291505b8181101561175757905080600281612c2a8186613f63565b612c349190613f4b565b612c3e9190613f63565b9050612c12565b612c4d612f52565b6000612c5761221d565b6000848152600d82016020526040812060090154919250906201518090612c8c90600160c81b900464ffffffffff164261417b565b612c969190613f63565b905060005b6006811015612de8576000858152600d8401602052604081206002018260068110612cd657634e487b7160e01b600052603260045260246000fd5b601091828204019190066002029054906101000a900460010b60010b9050600084600d0160008881526020019081526020016000206001018360068110612d2d57634e487b7160e01b600052603260045260246000fd5b602091828204019190069054906101000a900460000b60000b9050600081138015612d5757508381135b15612d7757612d66848261413c565b612d709083613f0a565b9150612da1565b83612d848260001961409a565b1315612da157612d948482613f0a565b612d9e9083613f0a565b91505b81868460068110612dc257634e487b7160e01b600052603260045260246000fd5b602002019060010b908160010b8152505050508080612de0906141f3565b915050612c9b565b505050919050565b6040518060400160405280612e03612e15565b8152602001612e10612e75565b905290565b6040518061012001604052806000815260200160006001600160a01b0316815260200160006001600160a01b0316815260200160008152602001600081526020016000815260200160008152602001600081526020016000151581525090565b604051806102e00160405280600081526020016060815260200160006001600160a01b031681526020016000815260200160008152602001612eb5612f52565b8152602001612ec2612f52565b8152602001612ecf612f91565b815260200160006001600160a01b0316815260200160006001600160a01b031681526020016000815260200160008152602001600081526020016000815260200160008152602001600081526020016000815260200160008152602001600081526020016000815260200160008152602001600015158152602001606081525090565b6040518060c001604052806006906020820280368337509192915050565b60405180606001604052806000815260200160008152602001612e10612fb0565b6040518061020001604052806010906020820280368337509192915050565b604051806102400160405280606081526020016060815260200160608152602001612fd9612f52565b8152602001612fe6612f91565b815260200160608152602001612ffa613051565b815260006020820181905260408201819052606082018190526080820181905260a0820181905260c0820181905260e082018190526101008201819052610120820181905261014082018190526101609091015290565b60408051608081018252600080825260208201819052918101829052606081019190915290565b600082601f830112613088578081fd5b813567ffffffffffffffff808211156130a3576130a3614224565b604051601f8301601f19908116603f011681019082821181831017156130cb576130cb614224565b816040528381528660208588010111156130e3578485fd5b8360208701602083013792830160200193909352509392505050565b600060208284031215613110578081fd5b81516122c88161423a565b6000806040838503121561312d578081fd5b82356131388161423a565b946020939093013593505050565b60008060006060848603121561315a578081fd5b83356131658161423a565b925060208401359150604084013561317c8161423a565b809150509250925092565b6000806000806080858703121561319c578081fd5b84356131a78161423a565b935060208501359250604085013567ffffffffffffffff8111156131c9578182fd5b6131d587828801613078565b949793965093946060013593505050565b6000806000606084860312156131fa578283fd5b83356132058161423a565b95602085013595506040909401359392505050565b60006020828403121561322b578081fd5b815180151581146122c8578182fd5b60006020828403121561324b578081fd5b5035919050565b600060208284031215613263578081fd5b5051919050565b60008060006060848603121561327e578283fd5b83359250602084013567ffffffffffffffff81111561329b578283fd5b6132a786828701613078565b925050604084013590509250925092565b6001600160a01b03169052565b8060005b60108110156132ea57815115158452602093840193909101906001016132c9565b50505050565b8060005b60068110156132ea578151600190810b855260209485019490920191016132f4565b806000805b60068110156118cc578251820b85526020948501949092019160010161331b565b60008282518085526020808601955080818302840101818601855b8481101561352657601f1986840301895281516060815185528582015186860152604080830151925081818701528251610520808489015261339d6105808901836135a4565b915088850151605f196080818b860301818c01526133bb85846135a4565b945085880151955060a09250818b860301838c01526133da85876135a4565b9688015196955060c094506133f18b860188613316565b87015195506101806134058b8201886132c5565b828801519650818b8703016103808c0152613420868861355a565b96508488015195506134366103a08c018761373a565b60e08801516104208c01526101008801516104408c015261012088015195506134636104608c01876137de565b61014088015195506134796104808c01876137e8565b610160880151955061348f6104a08c0187613597565b87015194506134a59150506104c08901846137de565b6101a085015192506134bb6104e08901846137d6565b6101c085015192506134d1610500890184613597565b6101e085015192506134e5818901846137e8565b5050506102008201516134fc61054087018261359d565b5061022082015191506135136105608601836137de565b9985019993505090830190600101613357565b5090979650505050505050565b8060005b60108110156132ea57815161ffff16845260209384019390910190600101613537565b6000815180845260208085019450808401835b8381101561358c57815160ff168752958201959082019060010161356d565b509495945050505050565b15159052565b60000b9052565b600081518084526135bc816020860160208601614192565b601f01601f19169290920160200192915050565b60006106008251845260208301518160208601526135f0828601826135a4565b915050604083015161360560408601826132b8565b50606083015160608501526080830151608085015260a083015161362c60a08601826132f0565b5060c0830151610160613641818701836132f0565b60e0850151915061022061365781880184613533565b610100860151925061366d6104208801846132b8565b61012086015192506136836104408801846132b8565b610140860151610460880152908501516104808701526101808501516104a08701526101a08501516104c08701526101c08501516104e08701526101e0850151610500870152610200850151610520870152840151610540860152506102408301516105608501526102608301516105808501526102808301516105a08501526102a08301516137176105c0860182613597565b506102c08301518482036105e0860152613731828261333c565b95945050505050565b60ff815116825260ff602082015116602083015260ff604082015116604083015260ff60608201511660608301525050565b80518252602081015160018060a01b0380821660208501528060408401511660408501525050606081015160608301526080810151608083015260a081015160a083015260c081015160c083015260e081015160e083015261010080820151151581840152505050565b61ffff169052565b63ffffffff169052565b60ff169052565b60008251613801818460208701614192565b9190910192915050565b651b1a5cdd195960d21b815260060190565b6001600160a01b0391909116815260200190565b6001600160a01b0392831681529116602082015260400190565b6001600160a01b039384168152919092166020820152604081019190915260600190565b6001600160a01b03958616815293909416602084015260408301919091526060820152608081019190915260a00190565b6001600160a01b039390931683526020830191909152604082015260600190565b6000602080830181845280855180835260408601915060408482028701019250838701855b8281101561393457603f19888603018452815161014061390787835161376c565b87820151915080610120880152613920818801836135d0565b9650505092850192908501906001016138e6565b5092979650505050505050565b6020808252825182820181905260009190848201906040850190845b818110156139845761397083855161376c565b92840192610120929092019160010161395d565b50909695505050505050565b6000602082526122c860208301846135a4565b60208082526024908201527f4552433732314d61726b6574706c6163653a206c697374696e67206e6f7420666040820152631bdd5b9960e21b606082015260800190565b60208082526029908201527f4c696245524332303a20455243323020746f6b656e206164647265737320686160408201526873206e6f20636f646560b81b606082015260800190565b60208082526031908201527f4c696245524332303a207472616e73666572206f72207472616e7366657246726040820152706f6d2072657475726e65642066616c736560781b606082015260800190565b6020808252601d908201527f4d61726b6574706c6163653a206f776e6572206e6f742073656c6c6572000000604082015260600190565b6020808252602b908201527f4c696245524332303a207472616e73666572206f72207472616e73666572467260408201526a1bdb481c995d995c9d195960aa1b606082015260800190565b60208082526027908201527f4552433732314d61726b6574706c6163653a206c697374696e6720616c726561604082015266191e481cdbdb1960ca1b606082015260800190565b6020808252602c908201527f4552433732314d61726b6574706c6163653a204e6f74206f776e6572206f662060408201526b22a9219b9918903a37b5b2b760a11b606082015260800190565b6020808252818101527f41617665676f7463686946616365743a204d75737420626520636c61696d6564604082015260600190565b60208082526022908201527f4552433732314d61726b6574706c6163653a206e6f7420656e6f75676820474860408201526114d560f21b606082015260800190565b60208082526033908201527f4552433732314d61726b6574706c6163653a2070726963652073686f756c6420604082015272313290189023a429aa1037b9103630b933b2b960691b606082015260800190565b60208082526031908201527f4552433732314d61726b6574706c6163653a204552433732312063617465676f6040820152701c9e48191bd95cc81b9bdd08195e1a5cdd607a1b606082015260800190565b60208082526028908201527f4552433732314d61726b6574706c6163653a206c697374696e6720646f65736e60408201526709dd08195e1a5cdd60c21b606082015260800190565b6020808252602c908201527f4552433732314d61726b6574706c6163653a204e6f7420617070726f7665642060408201526b3337b9103a3930b739b332b960a11b606082015260800190565b60208082526028908201527f4552433732314d61726b6574706c6163653a2062757965722063616e27742062604082015267329039b2b63632b960c11b606082015260800190565b6020808252603b908201527f4552433732314d61726b6574706c6163653a2043616e6e6f74206c697374206160408201527f20706f7274616c20746861742069732070656e64696e67205652460000000000606082015260800190565b60208082526024908201527f4552433732314d61726b6574706c6163653a206c697374696e672063616e63656040820152631b1b195960e21b606082015260800190565b60208082526030908201527f4552433732314d61726b6574706c6163653a20455243373231206c697374696e60408201526f19c8191bd95cc81b9bdd08195e1a5cdd60821b606082015260800190565b6101208101612310828461376c565b6000610140613e9c838661376c565b80610120840152613731818401856135d0565b90815260200190565b918252602082015260400190565b60008160010b8360010b82821282617fff03821381151615613eea57613eea61420e565b82617fff19038212811615613f0157613f0161420e565b50019392505050565b600080821280156001600160ff1b0384900385131615613f2c57613f2c61420e565b600160ff1b8390038412811615613f4557613f4561420e565b50500190565b60008219821115613f5e57613f5e61420e565b500190565b600082613f7e57634e487b7160e01b81526012600452602481fd5b500490565b80825b6001808611613f955750613fc0565b818704821115613fa757613fa761420e565b80861615613fb457918102915b9490941c938002613f86565b94509492505050565b60006122c860001960ff851684600082613fe5575060016122c8565b81613ff2575060006122c8565b816001811461400857600281146140125761403f565b60019150506122c8565b60ff8411156140235761402361420e565b6001841b9150848211156140395761403961420e565b506122c8565b5060208310610133831016604e8410600b8410161715614072575081810a8381111561406d5761406d61420e565b6122c8565b61407f8484846001613f83565b8086048211156140915761409161420e565b02949350505050565b60006001600160ff1b03818413828413808216868404861116156140c0576140c061420e565b600160ff1b848712828116878305891216156140de576140de61420e565b8587129250878205871284841616156140f9576140f961420e565b8785058712818416161561410f5761410f61420e565b505050929093029392505050565b60008160001904831182151516156141375761413761420e565b500290565b60008083128015600160ff1b85018412161561415a5761415a61420e565b6001600160ff1b03840183138116156141755761417561420e565b50500390565b60008282101561418d5761418d61420e565b500390565b60005b838110156141ad578181015183820152602001614195565b838111156132ea5750506000910152565b6002810460018216806141d257607f821691505b6020821081141561175757634e487b7160e01b600052602260045260246000fd5b60006000198214156142075761420761420e565b5060010190565b634e487b7160e01b600052601160045260246000fd5b634e487b7160e01b600052604160045260246000fd5b6001600160a01b0381168114610f7857600080fdfea2646970667358221220b18e5c3f690b5dfd3769c5eb6d9fbf3d5a2ac7df68bc85b32d430252fe02a85b64736f6c63430008010033",
  "linkReferences": {},
  "deployedLinkReferences": {}
}