{
    "_format": "hh-sol-artifact-1",
    "contractName": "StakingFacet",
    "sourceName": "contracts/facets/StakingFacet.sol",
    "abi": [
        {
            "anonymous": false,
            "inputs": [
                {
                    "indexed": false,
                    "internalType": "uint256",
                    "name": "_newRate",
                    "type": "uint256"
                }
            ],
            "name": "GhstUsdcRate",
            "type": "event"
        },
        {
            "anonymous": false,
            "inputs": [
                {
                    "indexed": false,
                    "internalType": "uint256",
                    "name": "_newRate",
                    "type": "uint256"
                }
            ],
            "name": "PoolTokensRate",
            "type": "event"
        },
        {
            "anonymous": false,
            "inputs": [
                {
                    "indexed": true,
                    "internalType": "address",
                    "name": "_from",
                    "type": "address"
                },
                {
                    "indexed": true,
                    "internalType": "address",
                    "name": "_to",
                    "type": "address"
                },
                {
                    "indexed": false,
                    "internalType": "uint256",
                    "name": "_value",
                    "type": "uint256"
                }
            ],
            "name": "Transfer",
            "type": "event"
        },
        {
            "anonymous": false,
            "inputs": [
                {
                    "indexed": true,
                    "internalType": "address",
                    "name": "_operator",
                    "type": "address"
                },
                {
                    "indexed": true,
                    "internalType": "address",
                    "name": "_from",
                    "type": "address"
                },
                {
                    "indexed": true,
                    "internalType": "address",
                    "name": "_to",
                    "type": "address"
                },
                {
                    "indexed": false,
                    "internalType": "uint256[]",
                    "name": "_ids",
                    "type": "uint256[]"
                },
                {
                    "indexed": false,
                    "internalType": "uint256[]",
                    "name": "_values",
                    "type": "uint256[]"
                }
            ],
            "name": "TransferBatch",
            "type": "event"
        },
        {
            "inputs": [
                {
                    "internalType": "address[]",
                    "name": "_accounts",
                    "type": "address[]"
                }
            ],
            "name": "bulkFrens",
            "outputs": [
                {
                    "internalType": "uint256[]",
                    "name": "frens_",
                    "type": "uint256[]"
                }
            ],
            "stateMutability": "view",
            "type": "function"
        },
        {
            "inputs": [
                {
                    "internalType": "uint256[]",
                    "name": "_ids",
                    "type": "uint256[]"
                },
                {
                    "internalType": "uint256[]",
                    "name": "_values",
                    "type": "uint256[]"
                }
            ],
            "name": "claimTickets",
            "outputs": [],
            "stateMutability": "nonpayable",
            "type": "function"
        },
        {
            "inputs": [
                {
                    "internalType": "address",
                    "name": "_account",
                    "type": "address"
                }
            ],
            "name": "frens",
            "outputs": [
                {
                    "internalType": "uint256",
                    "name": "frens_",
                    "type": "uint256"
                }
            ],
            "stateMutability": "view",
            "type": "function"
        },
        {
            "inputs": [],
            "name": "getGhstUsdcPoolToken",
            "outputs": [
                {
                    "internalType": "address",
                    "name": "",
                    "type": "address"
                }
            ],
            "stateMutability": "view",
            "type": "function"
        },
        {
            "inputs": [],
            "name": "getStkGhstUsdcToken",
            "outputs": [
                {
                    "internalType": "address",
                    "name": "",
                    "type": "address"
                }
            ],
            "stateMutability": "view",
            "type": "function"
        },
        {
            "inputs": [],
            "name": "ghstUsdcRate",
            "outputs": [
                {
                    "internalType": "uint256",
                    "name": "",
                    "type": "uint256"
                }
            ],
            "stateMutability": "view",
            "type": "function"
        },
        {
            "inputs": [
                {
                    "internalType": "address[]",
                    "name": "_stakers",
                    "type": "address[]"
                },
                {
                    "internalType": "uint256[]",
                    "name": "_frens",
                    "type": "uint256[]"
                }
            ],
            "name": "migrateFrens",
            "outputs": [],
            "stateMutability": "nonpayable",
            "type": "function"
        },
        {
            "inputs": [],
            "name": "poolTokensRate",
            "outputs": [
                {
                    "internalType": "uint256",
                    "name": "",
                    "type": "uint256"
                }
            ],
            "stateMutability": "view",
            "type": "function"
        },
        {
            "inputs": [
                {
                    "internalType": "address",
                    "name": "_ghstUsdcPoolToken",
                    "type": "address"
                },
                {
                    "internalType": "address",
                    "name": "_stkGhstUsdcToken",
                    "type": "address"
                },
                {
                    "internalType": "uint256",
                    "name": "_ghstUsdcRate",
                    "type": "uint256"
                }
            ],
            "name": "setGhstUsdcToken",
            "outputs": [],
            "stateMutability": "nonpayable",
            "type": "function"
        },
        {
            "inputs": [
                {
                    "internalType": "uint256",
                    "name": "_ghstValue",
                    "type": "uint256"
                }
            ],
            "name": "stakeGhst",
            "outputs": [],
            "stateMutability": "nonpayable",
            "type": "function"
        },
        {
            "inputs": [
                {
                    "internalType": "uint256",
                    "name": "_poolTokens",
                    "type": "uint256"
                }
            ],
            "name": "stakeGhstUsdcPoolTokens",
            "outputs": [],
            "stateMutability": "nonpayable",
            "type": "function"
        },
        {
            "inputs": [
                {
                    "internalType": "uint256",
                    "name": "_poolTokens",
                    "type": "uint256"
                }
            ],
            "name": "stakePoolTokens",
            "outputs": [],
            "stateMutability": "nonpayable",
            "type": "function"
        },
        {
            "inputs": [
                {
                    "internalType": "address",
                    "name": "_account",
                    "type": "address"
                }
            ],
            "name": "staked",
            "outputs": [
                {
                    "internalType": "uint256",
                    "name": "ghst_",
                    "type": "uint256"
                },
                {
                    "internalType": "uint256",
                    "name": "poolTokens_",
                    "type": "uint256"
                },
                {
                    "internalType": "uint256",
                    "name": "ghstUsdcPoolToken_",
                    "type": "uint256"
                }
            ],
            "stateMutability": "view",
            "type": "function"
        },
        {
            "inputs": [
                {
                    "internalType": "address",
                    "name": "_old",
                    "type": "address"
                },
                {
                    "internalType": "address",
                    "name": "_new",
                    "type": "address"
                }
            ],
            "name": "switchFrens",
            "outputs": [],
            "stateMutability": "nonpayable",
            "type": "function"
        },
        {
            "inputs": [
                {
                    "internalType": "uint256",
                    "name": "_id",
                    "type": "uint256"
                }
            ],
            "name": "ticketCost",
            "outputs": [
                {
                    "internalType": "uint256",
                    "name": "_frensCost",
                    "type": "uint256"
                }
            ],
            "stateMutability": "pure",
            "type": "function"
        },
        {
            "inputs": [
                {
                    "internalType": "address[]",
                    "name": "_accounts",
                    "type": "address[]"
                }
            ],
            "name": "updateAccounts",
            "outputs": [],
            "stateMutability": "nonpayable",
            "type": "function"
        },
        {
            "inputs": [
                {
                    "internalType": "uint256",
                    "name": "_newRate",
                    "type": "uint256"
                }
            ],
            "name": "updateGhstUsdcRate",
            "outputs": [],
            "stateMutability": "nonpayable",
            "type": "function"
        },
        {
            "inputs": [
                {
                    "internalType": "uint256",
                    "name": "_newRate",
                    "type": "uint256"
                }
            ],
            "name": "updatePoolTokensRate",
            "outputs": [],
            "stateMutability": "nonpayable",
            "type": "function"
        },
        {
            "inputs": [
                {
                    "internalType": "uint256",
                    "name": "_ghstValue",
                    "type": "uint256"
                }
            ],
            "name": "withdrawGhstStake",
            "outputs": [],
            "stateMutability": "nonpayable",
            "type": "function"
        },
        {
            "inputs": [
                {
                    "internalType": "uint256",
                    "name": "_poolTokens",
                    "type": "uint256"
                }
            ],
            "name": "withdrawGhstUsdcPoolStake",
            "outputs": [],
            "stateMutability": "nonpayable",
            "type": "function"
        },
        {
            "inputs": [
                {
                    "internalType": "uint256",
                    "name": "_poolTokens",
                    "type": "uint256"
                }
            ],
            "name": "withdrawPoolStake",
            "outputs": [],
            "stateMutability": "nonpayable",
            "type": "function"
        }
    ],
    "bytecode": "0x608060405234801561001057600080fd5b506120bd806100206000396000f3fe608060405234801561001057600080fd5b50600436106101775760003560e01c806388fa5b04116100d8578063b8b86b581161008c578063df76df5a11610066578063df76df5a14610652578063f8a6103f1461065a578063fb9714231461067757610177565b8063b8b86b581461051a578063c175090b14610522578063d097298e1461059257610177565b80639c0dfa01116100bd5780639c0dfa0114610433578063a86a1f1f14610450578063aa061d091461045857610177565b806388fa5b04146103c557806398807d84146103e257610177565b80634b334ef61161012f5780637bdc6db8116101145780637bdc6db81461036e5780637cee37951461038b57806384e4f024146103a857610177565b80634b334ef61461030c578063564e3a531461035157610177565b80631934984c116101605780631934984c1461027b578063379483c1146102be5780633d55abf4146102db57610177565b80630a7c0cb51461017c5780630fe6ed26146101b9575b600080fd5b6101b76004803603604081101561019257600080fd5b5073ffffffffffffffffffffffffffffffffffffffff81358116916020013516610694565b005b6101b7600480360360408110156101cf57600080fd5b8101906020810181356401000000008111156101ea57600080fd5b8201836020820111156101fc57600080fd5b8035906020019184602083028401116401000000008311171561021e57600080fd5b91939092909160208101903564010000000081111561023c57600080fd5b82018360208201111561024e57600080fd5b8035906020019184602083028401116401000000008311171561027057600080fd5b509092509050610732565b6101b76004803603606081101561029157600080fd5b5073ffffffffffffffffffffffffffffffffffffffff81358116916020810135909116906040013561087f565b6101b7600480360360208110156102d457600080fd5b50356108e1565b6102e3610a49565b6040805173ffffffffffffffffffffffffffffffffffffffff9092168252519081900360200190f35b61033f6004803603602081101561032257600080fd5b503573ffffffffffffffffffffffffffffffffffffffff16610a65565b60408051918252519081900360200190f35b6101b76004803603602081101561036757600080fd5b5035610b0d565b6101b76004803603602081101561038457600080fd5b5035610be7565b6101b7600480360360208110156103a157600080fd5b5035610c2a565b6101b7600480360360208110156103be57600080fd5b5035610cb6565b6101b7600480360360208110156103db57600080fd5b5035610cf9565b610415600480360360208110156103f857600080fd5b503573ffffffffffffffffffffffffffffffffffffffff16610d7a565b60408051938452602084019290925282820152519081900360600190f35b6101b76004803603602081101561044957600080fd5b5035610dc1565b61033f610eb3565b6101b76004803603604081101561046e57600080fd5b81019060208101813564010000000081111561048957600080fd5b82018360208201111561049b57600080fd5b803590602001918460208302840111640100000000831117156104bd57600080fd5b9193909290916020810190356401000000008111156104db57600080fd5b8201836020820111156104ed57600080fd5b8035906020019184602083028401116401000000008311171561050f57600080fd5b509092509050610eb9565b61033f61142f565b6101b76004803603602081101561053857600080fd5b81019060208101813564010000000081111561055357600080fd5b82018360208201111561056557600080fd5b8035906020019184602083028401116401000000008311171561058757600080fd5b509092509050611435565b610602600480360360208110156105a857600080fd5b8101906020810181356401000000008111156105c357600080fd5b8201836020820111156105d557600080fd5b803590602001918460208302840111640100000000831117156105f757600080fd5b5090925090506114e1565b60408051602080825283518183015283519192839290830191858101910280838360005b8381101561063e578181015183820152602001610626565b505050509050019250505060405180910390f35b6102e3611589565b61033f6004803603602081101561067057600080fd5b50356115a5565b6101b76004803603602081101561068d57600080fd5b50356116a7565b61069c6118e3565b73ffffffffffffffffffffffffffffffffffffffff91821660009081526020819052604080822092909316815291909120600580820180549184018054909155556002918201805464ffffffffff42166c01000000000000000000000000027fffffffffffffffffffffffffffffff0000000000ffffffffffffffffffffffff9182168117909255929091018054909216179055565b61073a6118e3565b828114610792576040517f08c379a000000000000000000000000000000000000000000000000000000000815260040180806020018281038252602e815260200180611f38602e913960400191505060405180910390fd5b60005b8381101561087857600080808787858181106107ad57fe5b9050602002013573ffffffffffffffffffffffffffffffffffffffff1673ffffffffffffffffffffffffffffffffffffffff1673ffffffffffffffffffffffffffffffffffffffff168152602001908152602001600020905083838381811061081257fe5b60200291909101356cffffffffffffffffffffffffff1660058301555060020180547fffffffffffffffffffffffffffffff0000000000ffffffffffffffffffffffff166c010000000000000000000000004264ffffffffff1602179055600101610795565b5050505050565b6108876118e3565b6008805473ffffffffffffffffffffffffffffffffffffffff9485167fffffffffffffffffffffffff0000000000000000000000000000000000000000918216179091556009805493909416921691909117909155600755565b6108e9611948565b3360009081526020819052604090206003015481811015610955576040517f08c379a000000000000000000000000000000000000000000000000000000000815260040180806020018281038252603481526020018061200a6034913960400191505060405180910390fd5b336000908152602081905260409020828203600382015560058054849003905560040154828110156109d2576040517f08c379a000000000000000000000000000000000000000000000000000000000815260040180806020018281038252602e815260200180611fdc602e913960400191505060405180910390fd5b33600081815260208181526040808320878603600490910155805187815290519293927fddf252ad1be2c89b69c2b068fc378daa952ba7f163c4a11628f55a4df523b3ef929181900390910190a3600354610a449073ffffffffffffffffffffffffffffffffffffffff1633856119a9565b505050565b60095473ffffffffffffffffffffffffffffffffffffffff1690565b73ffffffffffffffffffffffffffffffffffffffff811660009081526020819052604090206002810154600582015460065460048401549193926c01000000000000000000000000900464ffffffffff164203916201518091028202048301925062015180816000600701548460060154020281610adf57fe5b6002840154919004939093019262015180906bffffffffffffffffffffffff16820204830192505050919050565b610b15611948565b336000818152602081905260408082206006810180548601905560095482517f40c10f190000000000000000000000000000000000000000000000000000000081526004810195909552602485018690529151909373ffffffffffffffffffffffffffffffffffffffff909216926340c10f19926044808201939182900301818387803b158015610ba557600080fd5b505af1158015610bb9573d6000803e3d6000fd5b5050600854610be3925073ffffffffffffffffffffffffffffffffffffffff169050333085611b6a565b5050565b610bef6118e3565b60068190556040805182815290517f94c8da75bb2326948672d6620d7453fbc802c3fb873f18033ba89949ff66cfc39181900360200190a150565b610c32611948565b336000818152602081815260408083206003810180548701905560048101805487019055600580548701905581518681529151909493927fddf252ad1be2c89b69c2b068fc378daa952ba7f163c4a11628f55a4df523b3ef928290030190a3600354610be39073ffffffffffffffffffffffffffffffffffffffff16333085611b6a565b610cbe6118e3565b60078190556040805182815290517fbe4c411893a6598fa255cbd600566d34debebc0436644ccbf9015933e81b349d9181900360200190a150565b610d01611948565b336000818152602081905260409020600290810180546bffffffffffffffffffffffff8082168601167fffffffffffffffffffffffffffffffffffffffff00000000000000000000000090911617905554610d779173ffffffffffffffffffffffffffffffffffffffff91909116903084611b6a565b50565b73ffffffffffffffffffffffffffffffffffffffff166000908152602081905260409020600281015460048201546006909201546bffffffffffffffffffffffff90911692565b610dc9611948565b336000908152602081905260409020600201546bffffffffffffffffffffffff1681811015610e43576040517f08c379a000000000000000000000000000000000000000000000000000000000815260040180806020018281038252602481526020018061203e6024913960400191505060405180910390fd5b336000818152602081905260409020600290810180547fffffffffffffffffffffffffffffffffffffffff000000000000000000000000168585036bffffffffffffffffffffffff1617905554610be39173ffffffffffffffffffffffffffffffffffffffff90911690846119a9565b60065490565b828114610f11576040517f08c379a000000000000000000000000000000000000000000000000000000000815260040180806020018281038252602c815260200180611fb0602c913960400191505060405180910390fd5b610f19611948565b33600090815260208190526040812060050154905b848110156110c6576000868683818110610f4457fe5b9050602002013590506000858584818110610f5b57fe5b90506020020135905060068210610fd357604080517f08c379a000000000000000000000000000000000000000000000000000000000815260206004820152601960248201527f5374616b696e673a205469636b6574206e6f7420666f756e6400000000000000604482015290519081900360640190fd5b600081610fdf846115a5565b0290508085101561105157604080517f08c379a000000000000000000000000000000000000000000000000000000000815260206004820181905260248201527f5374616b696e673a204e6f7420656e6f756768206672656e7320706f696e7473604482015290519081900360640190fd5b6000838152600160208181526040808420338552808352908420805487019055959092529081905292830180547fffffffffffffffffffffffffffffffffffffffff00000000000000000000000081166bffffffffffffffffffffffff91821690940116929092179091559092039101610f2e565b5033600081815260208181526040808320600501859055805181815290810188905283917f4a39dc06d4c0dbc64b70af90fd698a233a518aa5d07e595d983b8c0526c8f7fb918a918a918a918a919081908181019060608301908890880280828437600083820152601f017fffffffffffffffffffffffffffffffffffffffffffffffffffffffffffffffe0169091018481038352858152602090810191508690860280828437600083820152604051601f9091017fffffffffffffffffffffffffffffffffffffffffffffffffffffffffffffffe0169092018290039850909650505050505050a433803b908115611426573363bc197c818160008a8a8a8a846040519080825280601f01601f1916602001820160405280156111f1576020820181803683370190505b506040518863ffffffff1660e01b8152600401808873ffffffffffffffffffffffffffffffffffffffff1681526020018773ffffffffffffffffffffffffffffffffffffffff1681526020018060200180602001806020018481038452898982818152602001925060200280828437600083820152601f017fffffffffffffffffffffffffffffffffffffffffffffffffffffffffffffffe01690910185810384528781526020908101915088908802808284376000838201819052601f9091017fffffffffffffffffffffffffffffffffffffffffffffffffffffffffffffffe01690920186810384528751815287516020918201939189019250908190849084905b8381101561130d5781810151838201526020016112f5565b50505050905090810190601f16801561133a5780820380516001836020036101000a031916815260200191505b509a5050505050505050505050602060405180830381600087803b15801561136157600080fd5b505af1158015611375573d6000803e3d6000fd5b505050506040513d602081101561138b57600080fd5b50517fffffffff00000000000000000000000000000000000000000000000000000000167fbc197c810000000000000000000000000000000000000000000000000000000014611426576040517f08c379a0000000000000000000000000000000000000000000000000000000008152600401808060200182810382526028815260200180611f666028913960400191505060405180910390fd5b50505050505050565b60075490565b61143d6118e3565b60005b81811015610a4457600083838381811061145657fe5b6020908102929092013573ffffffffffffffffffffffffffffffffffffffff166000818152928390526040909220919250611492905082610a65565b600582015560020180547fffffffffffffffffffffffffffffff0000000000ffffffffffffffffffffffff166c010000000000000000000000004264ffffffffff160217905550600101611440565b60608167ffffffffffffffff811180156114fa57600080fd5b50604051908082528060200260200182016040528015611524578160200160208202803683370190505b50905060005b828110156115825761156384848381811061154157fe5b9050602002013573ffffffffffffffffffffffffffffffffffffffff16610a65565b82828151811061156f57fe5b602090810291909101015260010161152a565b5092915050565b60085473ffffffffffffffffffffffffffffffffffffffff1690565b6000816115bc57506802b5e3af16b18800006116a2565b81600114156115d55750680d8d726b7177a800006116a2565b81600214156115ee5750681b1ae4d6e2ef5000006116a2565b8160031415611607575068878678326eac9000006116a2565b8160041415611621575069021e19e0c9bab24000006116a2565b816005141561163b5750690a968163f0a57b4000006116a2565b604080517f08c379a000000000000000000000000000000000000000000000000000000000815260206004820152601b60248201527f5374616b696e673a205f696420646f6573206e6f742065786973740000000000604482015290519081900360640190fd5b919050565b6116af611948565b600954604080517f70a08231000000000000000000000000000000000000000000000000000000008152336004820152905160009273ffffffffffffffffffffffffffffffffffffffff16916370a08231916024808301926020929190829003018186803b15801561172057600080fd5b505afa158015611734573d6000803e3d6000fd5b505050506040513d602081101561174a57600080fd5b50519050818110156117a7576040517f08c379a0000000000000000000000000000000000000000000000000000000008152600401808060200182810382526022815260200180611f8e6022913960400191505060405180910390fd5b600954604080517f9dc29fac00000000000000000000000000000000000000000000000000000000815233600482015260248101859052905173ffffffffffffffffffffffffffffffffffffffff90921691639dc29fac9160448082019260009290919082900301818387803b15801561182057600080fd5b505af1158015611834573d6000803e3d6000fd5b505033600090815260208190526040902060060154915050828110156118a5576040517f08c379a000000000000000000000000000000000000000000000000000000000815260040180806020018281038252602e815260200180611fdc602e913960400191505060405180910390fd5b336000818152602081905260409020848303600690910155600854610a449173ffffffffffffffffffffffffffffffffffffffff90911690856119a9565b6118eb611d2b565b6004015473ffffffffffffffffffffffffffffffffffffffff163314611946576040517f08c379a000000000000000000000000000000000000000000000000000000000815260040161193d90611eda565b60405180910390fd5b565b3360008181526020819052604090209061196190610a65565b600582015560020180547fffffffffffffffffffffffffffffff0000000000ffffffffffffffffffffffff166c010000000000000000000000004264ffffffffff1602179055565b823b80611a1757604080517f08c379a000000000000000000000000000000000000000000000000000000000815260206004820152601d60248201527f4c696245524332303a204164647265737320686173206e6f20636f6465000000604482015290519081900360640190fd5b6040805173ffffffffffffffffffffffffffffffffffffffff8581166024830152604480830186905283518084039091018152606490920183526020820180517bffffffffffffffffffffffffffffffffffffffffffffffffffffffff167fa9059cbb00000000000000000000000000000000000000000000000000000000178152925182516000948594938a169392918291908083835b60208310611aec57805182527fffffffffffffffffffffffffffffffffffffffffffffffffffffffffffffffe09092019160209182019101611aaf565b6001836020036101000a0380198251168184511680821785525050505050509050019150506000604051808303816000865af19150503d8060008114611b4e576040519150601f19603f3d011682016040523d82523d6000602084013e611b53565b606091505b5091509150611b628282611d4f565b505050505050565b833b80611bd857604080517f08c379a000000000000000000000000000000000000000000000000000000000815260206004820152601d60248201527f4c696245524332303a204164647265737320686173206e6f20636f6465000000604482015290519081900360640190fd5b6040805173ffffffffffffffffffffffffffffffffffffffff86811660248301528581166044830152606480830186905283518084039091018152608490920183526020820180517bffffffffffffffffffffffffffffffffffffffffffffffffffffffff167f23b872dd00000000000000000000000000000000000000000000000000000000178152925182516000948594938b169392918291908083835b60208310611cb557805182527fffffffffffffffffffffffffffffffffffffffffffffffffffffffffffffffe09092019160209182019101611c78565b6001836020036101000a0380198251168184511680821785525050505050509050019150506000604051808303816000865af19150503d8060008114611d17576040519150601f19603f3d011682016040523d82523d6000602084013e611d1c565b606091505b50915091506114268282611d4f565b7fc8fcad8db84d3cc18b4c41d551ea0ee66dd599cde068d998e57d5e09332c131c90565b8115611dcd57805115611dc857808060200190516020811015611d7157600080fd5b5051611dc8576040517f08c379a00000000000000000000000000000000000000000000000000000000081526004018080602001828103825260268152602001806120626026913960400191505060405180910390fd5b610be3565b805115611e7357806040517f08c379a00000000000000000000000000000000000000000000000000000000081526004018080602001828103825283818151815260200191508051906020019080838360005b83811015611e38578181015183820152602001611e20565b50505050905090810190601f168015611e655780820380516001836020036101000a031916815260200191505b509250505060405180910390fd5b604080517f08c379a000000000000000000000000000000000000000000000000000000000815260206004820181905260248201527f4c696245524332303a20636f6e74726163742063616c6c207265766572746564604482015290519081900360640190fd5b60208082526022908201527f4c69624469616d6f6e643a204d75737420626520636f6e7472616374206f776e60408201527f657200000000000000000000000000000000000000000000000000000000000060608201526080019056fe5374616b696e6746616365743a207374616b657273206e6f742073616d65206c656e677468206173206672656e735374616b696e673a205469636b6574207472616e736665722072656a65637465642f6661696c65644d757374206861766520656e6f7567682073746b4768737455736463546f6b656e735374616b696e673a205f696473206e6f74207468652073616d65206c656e677468206173205f76616c75657343616e2774207769746864726177206d6f726520706f6f6c546f6b656e73207468616e20696e206163636f756e7443616e2774207769746864726177206d6f726520676873745374616b696e67546f6b656e207468616e20696e206163636f756e7443616e2774207769746864726177206d6f72652047485354207468616e207374616b65644c696245524332303a20636f6e74726163742063616c6c2072657475726e65642066616c7365a264697066735822122016a1b4c7a2ac2169983f62168e510a2f76ed0b8fb5df8b662bc7a5d0c89013e764736f6c63430007060033",
    "linkReferences": {},
    "deployedLinkReferences": {}
}