{
    "_format": "hh-sol-artifact-1",
    "contractName": "ItemsTransferFacet",
    "sourceName": "contracts/Aavegotchi/facets/ItemsTransferFacet.sol",
    "abi": [
        {
            "inputs": [
                {
                    "internalType": "address",
                    "name": "_fromContract",
                    "type": "address"
                },
                {
                    "internalType": "uint256",
                    "name": "_fromTokenId",
                    "type": "uint256"
                },
                {
                    "internalType": "address",
                    "name": "_to",
                    "type": "address"
                },
                {
                    "internalType": "uint256[]",
                    "name": "_ids",
                    "type": "uint256[]"
                },
                {
                    "internalType": "uint256[]",
                    "name": "_values",
                    "type": "uint256[]"
                }
            ],
            "name": "batchTransferFromParent",
            "outputs": [],
            "stateMutability": "nonpayable",
            "type": "function"
        },
        {
            "inputs": [
                {
                    "internalType": "address",
                    "name": "_from",
                    "type": "address"
                },
                {
                    "internalType": "address",
                    "name": "_to",
                    "type": "address"
                },
                {
                    "internalType": "uint256[]",
                    "name": "_ids",
                    "type": "uint256[]"
                },
                {
                    "internalType": "uint256[]",
                    "name": "_values",
                    "type": "uint256[]"
                },
                {
                    "internalType": "bytes",
                    "name": "_data",
                    "type": "bytes"
                }
            ],
            "name": "safeBatchTransferFrom",
            "outputs": [],
            "stateMutability": "nonpayable",
            "type": "function"
        },
        {
            "inputs": [
                {
                    "internalType": "address",
                    "name": "_from",
                    "type": "address"
                },
                {
                    "internalType": "address",
                    "name": "_to",
                    "type": "address"
                },
                {
                    "internalType": "uint256",
                    "name": "_id",
                    "type": "uint256"
                },
                {
                    "internalType": "uint256",
                    "name": "_value",
                    "type": "uint256"
                },
                {
                    "internalType": "bytes",
                    "name": "_data",
                    "type": "bytes"
                }
            ],
            "name": "safeTransferFrom",
            "outputs": [],
            "stateMutability": "nonpayable",
            "type": "function"
        },
        {
            "inputs": [
                {
                    "internalType": "address",
                    "name": "_fromContract",
                    "type": "address"
                },
                {
                    "internalType": "uint256",
                    "name": "_fromTokenId",
                    "type": "uint256"
                },
                {
                    "internalType": "address",
                    "name": "_toContract",
                    "type": "address"
                },
                {
                    "internalType": "uint256",
                    "name": "_toTokenId",
                    "type": "uint256"
                },
                {
                    "internalType": "uint256",
                    "name": "_id",
                    "type": "uint256"
                },
                {
                    "internalType": "uint256",
                    "name": "_value",
                    "type": "uint256"
                }
            ],
            "name": "transferAsChild",
            "outputs": [],
            "stateMutability": "nonpayable",
            "type": "function"
        },
        {
            "inputs": [
                {
                    "internalType": "address",
                    "name": "_fromContract",
                    "type": "address"
                },
                {
                    "internalType": "uint256",
                    "name": "_fromTokenId",
                    "type": "uint256"
                },
                {
                    "internalType": "address",
                    "name": "_to",
                    "type": "address"
                },
                {
                    "internalType": "uint256",
                    "name": "_id",
                    "type": "uint256"
                },
                {
                    "internalType": "uint256",
                    "name": "_value",
                    "type": "uint256"
                }
            ],
            "name": "transferFromParent",
            "outputs": [],
            "stateMutability": "nonpayable",
            "type": "function"
        },
        {
            "inputs": [
                {
                    "internalType": "address",
                    "name": "_from",
                    "type": "address"
                },
                {
                    "internalType": "address",
                    "name": "_toContract",
                    "type": "address"
                },
                {
                    "internalType": "uint256",
                    "name": "_toTokenId",
                    "type": "uint256"
                },
                {
                    "internalType": "uint256",
                    "name": "_id",
                    "type": "uint256"
                },
                {
                    "internalType": "uint256",
                    "name": "_value",
                    "type": "uint256"
                }
            ],
            "name": "transferToParent",
            "outputs": [],
            "stateMutability": "nonpayable",
            "type": "function"
        }
    ],
    "bytecode": "0x608060405234801561001057600080fd5b50612179806100206000396000f3fe608060405234801561001057600080fd5b50600436106100625760003560e01c8063271a6c59146100675780632eb2c2d61461007c5780633936b8d21461008f5780634d11f02e146100a25780636c71c40b146100b5578063f242432a146100c8575b600080fd5b61007a610075366004611b58565b6100db565b005b61007a61008a366004611937565b610275565b61007a61009d366004611a6c565b6104d5565b61007a6100b0366004611ba9565b6106ae565b61007a6100c3366004611abc565b61088f565b61007a6100d63660046119f2565b610acb565b6001600160a01b03831661010a5760405162461bcd60e51b815260040161010190611f5a565b60405180910390fd5b6101148585610c69565b6001600160a01b03851660009081526003602090815260408083208784528252808320858452909152902054808211156101605760405162461bcd60e51b815260040161010190612035565b61016a82826120c3565b90506001600160a01b03861630141561018c578061018c5761018c8584610f62565b6001600160a01b03808716600090815260036020908152604080832089845282528083208784528252808320859055928716825260078152828220868352905290812080548492906101df9084906120ab565b90915550506001600160a01b038085169087166101fa610feb565b6001600160a01b03166000805160206121248339815191528686604051610222929190612087565b60405180910390a48285876001600160a01b03167f4b287e36a0531da8ccee303de127c778302f48d8fc9569b1fe1dcb9d64465c6d85604051610265919061207e565b60405180910390a4505050505050565b6001600160a01b03871661029b5760405162461bcd60e51b815260040161010190611f5a565b8483146102ba5760405162461bcd60e51b815260040161010190611e7d565b60006102c4610feb565b9050886001600160a01b0316816001600160a01b0316148061030b57506001600160a01b03808a166000908152600e602090815260408083209385168352929052205460ff165b6103275760405162461bcd60e51b815260040161010190611ec1565b60005b8681101561048457600088888381811061035457634e487b7160e01b600052603260045260246000fd5b905060200201359050600087878481811061037f57634e487b7160e01b600052603260045260246000fd5b6001600160a01b038f16600090815260076020908152604080832088845282529091205491029290920135925050808211156103cd5760405162461bcd60e51b815260040161010190612035565b6103d782826120c3565b600060070160008f6001600160a01b03166001600160a01b0316815260200190815260200160002060008581526020019081526020016000208190555081600060070160008e6001600160a01b03166001600160a01b031681526020019081526020016000206000858152602001908152602001600020600082825461045d91906120ab565b9091555061046e905030848f611048565b505050808061047c906120da565b91505061032a565b506104ca89898989898989898080601f0160208091040260200160405190810160405280939291908181526020018383808284376000920191909152506111ed92505050565b505050505050505050565b6001600160a01b0384166104fb5760405162461bcd60e51b815260040161010190611f5a565b6000610505610feb565b9050856001600160a01b0316816001600160a01b0316148061054c57506001600160a01b038087166000908152600e602090815260408083209385168352929052205460ff165b6105685760405162461bcd60e51b815260040161010190611ec1565b6001600160a01b0386166000908152600760209081526040808320868452909152902054808311156105ac5760405162461bcd60e51b815260040161010190612035565b6105b683826120c3565b6001600160a01b0380891660009081526007602090815260408083208984528252808320949094559189168152600382528281208882528252828120878252909152908120805485929061060b9084906120ab565b92505081905550856001600160a01b0316876001600160a01b0316836001600160a01b0316600080516020612124833981519152878760405161064f929190612087565b60405180910390a48385876001600160a01b03167fe82810099d182b25e23e895715954d6e7b41867a02e2c693cce68a8f250e43d386604051610692919061207e565b60405180910390a46106a5308589611048565b50505050505050565b6001600160a01b0384166106d45760405162461bcd60e51b815260040161010190611f5a565b6106de8686610c69565b6001600160a01b038616600090815260036020908152604080832088845282528083208584529091529020548082111561072a5760405162461bcd60e51b815260040161010190612035565b61073482826120c3565b90508015801561074c57506001600160a01b03871630145b1561075b5761075b8684610f62565b6001600160a01b0380881660009081526003602081815260408084208b85528252808420888552825280842086905593891683529081528282208783528152828220868352905290812080548492906107b59084906120ab565b90915550506001600160a01b038086169088166107d0610feb565b6001600160a01b031660008051602061212483398151915286866040516107f8929190612087565b60405180910390a48286886001600160a01b03167f4b287e36a0531da8ccee303de127c778302f48d8fc9569b1fe1dcb9d64465c6d8560405161083b919061207e565b60405180910390a48284866001600160a01b03167fe82810099d182b25e23e895715954d6e7b41867a02e2c693cce68a8f250e43d38560405161087e919061207e565b60405180910390a450505050505050565b8281146108ae5760405162461bcd60e51b815260040161010190611f9c565b6001600160a01b0385166108d45760405162461bcd60e51b815260040161010190611f5a565b6108de8787610c69565b60005b83811015610a7057600085858381811061090b57634e487b7160e01b600052603260045260246000fd5b905060200201359050600084848481811061093657634e487b7160e01b600052603260045260246000fd5b6001600160a01b038d1660009081526003602090815260408083208f84528252808320888452825290912054910292909201359250508082111561098c5760405162461bcd60e51b815260040161010190612035565b61099682826120c3565b9050801580156109ae57506001600160a01b038b1630145b156109bd576109bd8a84610f62565b6001600160a01b03808c1660009081526003602090815260408083208e845282528083208784528252808320859055928c1682526007815282822086835290529081208054849290610a109084906120ab565b92505081905550828a8c6001600160a01b03167f4b287e36a0531da8ccee303de127c778302f48d8fc9569b1fe1dcb9d64465c6d85604051610a52919061207e565b60405180910390a45050508080610a68906120da565b9150506108e1565b50846001600160a01b0316876001600160a01b0316610a8d610feb565b6001600160a01b03167f4a39dc06d4c0dbc64b70af90fd698a233a518aa5d07e595d983b8c0526c8f7fb8787878760405161087e9493929190611dcf565b6001600160a01b038516610af15760405162461bcd60e51b815260040161010190611f5a565b6000610afb610feb565b9050866001600160a01b0316816001600160a01b03161480610b4257506001600160a01b038088166000908152600e602090815260408083209385168352929052205460ff165b80610b5557506001600160a01b03811630145b610b715760405162461bcd60e51b815260040161010190611ec1565b6001600160a01b038716600090815260076020908152604080832088845290915290205480851115610bb55760405162461bcd60e51b815260040161010190612035565b610bbf85826120c3565b6001600160a01b03808a1660009081526007602081815260408084208c8552825280842095909555928b16825282528281208982529091529081208054879290610c0a9084906120ab565b92505081905550610c548888888888888080601f01602080910402602001604051908101604052809392919081815260200183838082843760009201919091525061130992505050565b610c5f30878a611048565b5050505050505050565b6001600160a01b038216301415610d7a576000818152600960205260409020600601546001600160a01b031680610c9e610feb565b6001600160a01b03161480610ced57506001600160a01b0381166000908152600e6020526040812090610ccf610feb565b6001600160a01b0316815260208101919091526040016000205460ff165b80610d1e57506000828152600f60205260409020546001600160a01b0316610d13610feb565b6001600160a01b0316145b610d3a5760405162461bcd60e51b815260040161010190611ec1565b60008281526009602081905260409091200154600160a01b900460ff1615610d745760405162461bcd60e51b815260040161010190611f0e565b50610f5e565b6040516331a9108f60e11b81526000906001600160a01b03841690636352211e90610da990859060040161207e565b60206040518083038186803b158015610dc157600080fd5b505afa158015610dd5573d6000803e3d6000fd5b505050506040513d601f19601f82011682018060405250810190610df99190611914565b9050610e03610feb565b6001600160a01b0316816001600160a01b03161480610eb55750610e25610feb565b6001600160a01b0316836001600160a01b031663081812fc846040518263ffffffff1660e01b8152600401610e5a919061207e565b60206040518083038186803b158015610e7257600080fd5b505afa158015610e86573d6000803e3d6000fd5b505050506040513d601f19601f82011682018060405250810190610eaa9190611914565b6001600160a01b0316145b80610f405750826001600160a01b031663e985e9c582610ed3610feb565b6040518363ffffffff1660e01b8152600401610ef0929190611cf5565b60206040518083038186803b158015610f0857600080fd5b505afa158015610f1c573d6000803e3d6000fd5b505050506040513d601f19601f82011682018060405250810190610f409190611c04565b610f5c5760405162461bcd60e51b815260040161010190611ec1565b505b5050565b60005b6010811015610f5c57600083815260096020526040902082908260108110610f9d57634e487b7160e01b600052603260045260246000fd5b601091828204019190066002029054906101000a900461ffff1661ffff161415610fd95760405162461bcd60e51b815260040161010190611e2d565b80610fe3816120da565b915050610f65565b60003330141561104257600080368080601f0160208091040260200160405190810160405280939291908181526020018383808284376000920191909152505050503601516001600160a01b031691506110459050565b50335b90565b6000611052611413565b6001600160a01b038086166000908152602983016020908152604080832088845282528083209387168352929052205490915080611091575050610f5c565b60008181526024830160205260409020600781015415806110c15750600a81015460ff6101009091041615156001145b806110d55750600a81015460ff1615156001145b156110e257505050610f5c565b600581015480156111d457600282015460018301546003840154604051627eeac760e11b81526001600160a01b039384169362fdd58e9361112893911691600401611db6565b60206040518083038186803b15801561114057600080fd5b505afa158015611154573d6000803e3d6000fd5b505050506040513d601f19601f820116820180604052508101906111789190611c4c565b905081600501548110156111cf5760058201819055600682015460405184917f9a1e053d28c2efc6add1e4a5d1647a99e883b256a54f9ef4a0abf8fcba643a55916111c69185914290612095565b60405180910390a25b6106a5565b60018201546106a59084906001600160a01b0316611418565b856001600160a01b0316876001600160a01b0316336001600160a01b03167f4a39dc06d4c0dbc64b70af90fd698a233a518aa5d07e595d983b8c0526c8f7fb888888886040516112409493929190611dcf565b60405180910390a4853b8015610c5f5760405163bc197c8160e01b81526001600160a01b0388169063bc197c81906112889033908c908b908b908b908b908b90600401611d0f565b602060405180830381600087803b1580156112a257600080fd5b505af11580156112b6573d6000803e3d6000fd5b505050506040513d601f19601f820116820180604052508101906112da9190611c24565b6001600160e01b03191663bc197c8160e01b14610c5f5760405162461bcd60e51b815260040161010190611feb565b836001600160a01b0316856001600160a01b0316336001600160a01b03166000805160206121248339815191528686604051611346929190612087565b60405180910390a4833b801561140b5760405163f23a6e6160e01b81526001600160a01b0386169063f23a6e619061138a9033908a90899089908990600401611d71565b602060405180830381600087803b1580156113a457600080fd5b505af11580156113b8573d6000803e3d6000fd5b505050506040513d601f19601f820116820180604052508101906113dc9190611c24565b6001600160e01b03191663f23a6e6160e01b1461140b5760405162461bcd60e51b815260040161010190611feb565b505050505050565b600090565b6000611422611413565b905060008160260160405161143690611ce3565b90815260200160405180910390206000858152602001908152602001600020905080600101546000141561146b575050610f5e565b60008481526024830160205260409020600a81015460ff610100909104161515600114806114a25750600a81015460ff1615156001145b156114af57505050610f5e565b60018101546001600160a01b038581169116146114de5760405162461bcd60e51b815260040161010190611df6565b600a8101805461ff001916610100179055600481015460405186917fc1ee70d4dadc0ea8041f31f81b07d0ac9374b6bf41956d9cae562e672f3f8a919161152791904390612087565b60405180910390a26115398585611540565b5050505050565b600061154a611413565b905060008160260160405161155e90611ce3565b908152602001604051809103902060008581526020019081526020016000209050806001015460001415611593575050610f5e565b805480156115d2576000836026016040516115ad90611ce3565b9081526040805160209281900383019020600085815292529020600284810154910155505b6002820154801561160f576000846026016040516115ef90611ce3565b908152604080516020928190038301902060008581529252902084549055505b6000868152602485016020908152604080832060048101548452602588019092529182902091519091889161164390611ce3565b90815260200160405180910390205414156116905760028401546004820154600090815260258701602052604090819020905161167f90611ce3565b908152604051908190036020019020555b600060018501819055808555600285015560405160288601906116b290611ce3565b908152604080516020928190038301902060008a815292529020805490945092508215611710576000856028016040516116eb90611ce3565b9081526040805160209281900383019020600087815292529020600286810154910155505b60028401549150811561174f5760008560280160405161172f90611ce3565b908152604080516020928190038301902060008681529252902085549055505b50600086815260248501602090815260408083206001600160a01b0389168452602788018352818420600482015485529092529182902091519091889161179590611ce3565b90815260200160405180910390205414156117f65760028401546001600160a01b03871660009081526027870160209081526040808320600486015484529091529081902090516117e590611ce3565b908152604051908190036020019020555b60006001850181905580855560028086018290558201546001600160a01b0390811682526029870160209081526040808420600386015485528252808420928a168452919052808220919091556004820154905188917f276ac39b0f98215592b4487434c1618e3e527c57ca2f471ac93eb4eab16940919161187a91904290612087565b60405180910390a250505050505050565b60008083601f84011261189c578182fd5b50813567ffffffffffffffff8111156118b3578182fd5b60208301915083602080830285010111156118cd57600080fd5b9250929050565b60008083601f8401126118e5578182fd5b50813567ffffffffffffffff8111156118fc578182fd5b6020830191508360208285010111156118cd57600080fd5b600060208284031215611925578081fd5b81516119308161210b565b9392505050565b60008060008060008060008060a0898b031215611952578384fd5b883561195d8161210b565b9750602089013561196d8161210b565b9650604089013567ffffffffffffffff80821115611989578586fd5b6119958c838d0161188b565b909850965060608b01359150808211156119ad578586fd5b6119b98c838d0161188b565b909650945060808b01359150808211156119d1578384fd5b506119de8b828c016118d4565b999c989b5096995094979396929594505050565b60008060008060008060a08789031215611a0a578182fd5b8635611a158161210b565b95506020870135611a258161210b565b94506040870135935060608701359250608087013567ffffffffffffffff811115611a4e578283fd5b611a5a89828a016118d4565b979a9699509497509295939492505050565b600080600080600060a08688031215611a83578081fd5b8535611a8e8161210b565b94506020860135611a9e8161210b565b94979496505050506040830135926060810135926080909101359150565b600080600080600080600060a0888a031215611ad6578283fd5b8735611ae18161210b565b9650602088013595506040880135611af88161210b565b9450606088013567ffffffffffffffff80821115611b14578485fd5b611b208b838c0161188b565b909650945060808a0135915080821115611b38578384fd5b50611b458a828b0161188b565b989b979a50959850939692959293505050565b600080600080600060a08688031215611b6f578081fd5b8535611b7a8161210b565b9450602086013593506040860135611b918161210b565b94979396509394606081013594506080013592915050565b60008060008060008060c08789031215611bc1578182fd5b8635611bcc8161210b565b9550602087013594506040870135611be38161210b565b959894975094956060810135955060808101359460a0909101359350915050565b600060208284031215611c15578081fd5b81518015158114611930578182fd5b600060208284031215611c35578081fd5b81516001600160e01b031981168114611930578182fd5b600060208284031215611c5d578081fd5b5051919050565b81835260006001600160fb1b03831115611c7c578081fd5b6020830280836020870137939093016020019283525090919050565b60008151808452815b81811015611cbd57602081850181015186830182015201611ca1565b81811115611cce5782602083870101525b50601f01601f19169290920160200192915050565b651b1a5cdd195960d21b815260060190565b6001600160a01b0392831681529116602082015260400190565b6001600160a01b0388811682528716602082015260a060408201819052600090611d3c9083018789611c64565b8281036060840152611d4f818688611c64565b90508281036080840152611d638185611c98565b9a9950505050505050505050565b6001600160a01b03868116825285166020820152604081018490526060810183905260a060808201819052600090611dab90830184611c98565b979650505050505050565b6001600160a01b03929092168252602082015260400190565b600060408252611de3604083018688611c64565b8281036020840152611dab818587611c64565b6020808252601d908201527f4d61726b6574706c6163653a206f776e6572206e6f742073656c6c6572000000604082015260600190565b60208082526030908201527f4974656d733a2043616e6e6f74207472616e73666572207765617261626c652060408201526f1d1a185d081a5cc8195c5d5a5c1c195960821b606082015260800190565b60208082526024908201527f4974656d733a20696473206e6f742073616d65206c656e6774682061732076616040820152636c75657360e01b606082015260800190565b6020808252602d908201527f4974656d733a204e6f74206f776e657220616e64206e6f7420617070726f766560408201526c32103a37903a3930b739b332b960991b606082015260800190565b6020808252602c908201527f4974656d733a204f6e6c792063616c6c61626c65206f6e20756e6c6f636b656460408201526b2041617665676f746368697360a01b606082015260800190565b60208082526022908201527f4974656d733a2043616e2774207472616e7366657220746f2030206164647265604082015261737360f01b606082015260800190565b6020808252602f908201527f4974656d733a206964732e6c656e677468206e6f74207468652073616d65206160408201526e0e640ecc2d8eacae65cd8cadccee8d608b1b606082015260800190565b6020808252602a908201527f5765617261626c65733a205472616e736665722072656a65637465642f6661696040820152696c6564206279205f746f60b01b606082015260800190565b60208082526029908201527f4974656d733a20446f65736e277420686176652074686174206d616e7920746f604082015268103a3930b739b332b960b91b606082015260800190565b90815260200190565b918252602082015260400190565b9283526020830191909152604082015260600190565b600082198211156120be576120be6120f5565b500190565b6000828210156120d5576120d56120f5565b500390565b60006000198214156120ee576120ee6120f5565b5060010190565b634e487b7160e01b600052601160045260246000fd5b6001600160a01b038116811461212057600080fd5b5056fec3d58168c5ae7397731d063d5bbf3d657854427343f4c083240f7aacaa2d0f62a26469706673582212205aaa54beeaccdcac42579cb508dabc3ca4a6b3be8a907d8ed8792242d7e3f31f64736f6c63430008010033",
    "linkReferences": {},
    "deployedLinkReferences": {}
}