{
    "_format": "hh-sol-artifact-1",
    "contractName": "RafflesContract",
    "sourceName": "contracts/RafflesContract.sol",
    "abi": [
        {
            "inputs": [
                {
                    "internalType": "address",
                    "name": "_contractOwner",
                    "type": "address"
                },
                {
                    "internalType": "address",
                    "name": "_vrfCoordinator",
                    "type": "address"
                },
                {
                    "internalType": "address",
                    "name": "_link",
                    "type": "address"
                },
                {
                    "internalType": "bytes32",
                    "name": "_keyHash",
                    "type": "bytes32"
                }
            ],
            "stateMutability": "nonpayable",
            "type": "constructor"
        },
        {
            "anonymous": false,
            "inputs": [
                {
                    "indexed": true,
                    "internalType": "address",
                    "name": "previousOwner",
                    "type": "address"
                },
                {
                    "indexed": true,
                    "internalType": "address",
                    "name": "newOwner",
                    "type": "address"
                }
            ],
            "name": "OwnershipTransferred",
            "type": "event"
        },
        {
            "anonymous": false,
            "inputs": [
                {
                    "indexed": true,
                    "internalType": "uint256",
                    "name": "raffleId",
                    "type": "uint256"
                },
                {
                    "indexed": false,
                    "internalType": "address",
                    "name": "entrant",
                    "type": "address"
                },
                {
                    "indexed": false,
                    "internalType": "address",
                    "name": "prizeAddress",
                    "type": "address"
                },
                {
                    "indexed": false,
                    "internalType": "uint256",
                    "name": "prizeId",
                    "type": "uint256"
                },
                {
                    "indexed": false,
                    "internalType": "uint256",
                    "name": "prizeQuantity",
                    "type": "uint256"
                }
            ],
            "name": "RaffleClaimPrize",
            "type": "event"
        },
        {
            "anonymous": false,
            "inputs": [
                {
                    "indexed": true,
                    "internalType": "uint256",
                    "name": "raffleId",
                    "type": "uint256"
                },
                {
                    "indexed": false,
                    "internalType": "uint256",
                    "name": "randomNumber",
                    "type": "uint256"
                }
            ],
            "name": "RaffleRandomNumber",
            "type": "event"
        },
        {
            "anonymous": false,
            "inputs": [
                {
                    "indexed": true,
                    "internalType": "uint256",
                    "name": "raffleId",
                    "type": "uint256"
                },
                {
                    "indexed": false,
                    "internalType": "uint256",
                    "name": "raffleEnd",
                    "type": "uint256"
                },
                {
                    "components": [
                        {
                            "internalType": "address",
                            "name": "ticketAddress",
                            "type": "address"
                        },
                        {
                            "internalType": "uint256",
                            "name": "ticketId",
                            "type": "uint256"
                        },
                        {
                            "components": [
                                {
                                    "internalType": "address",
                                    "name": "prizeAddress",
                                    "type": "address"
                                },
                                {
                                    "internalType": "uint256",
                                    "name": "prizeId",
                                    "type": "uint256"
                                },
                                {
                                    "internalType": "uint256",
                                    "name": "prizeQuantity",
                                    "type": "uint256"
                                }
                            ],
                            "internalType": "struct RafflesContract.RaffleItemPrizeIO[]",
                            "name": "raffleItemPrizes",
                            "type": "tuple[]"
                        }
                    ],
                    "indexed": false,
                    "internalType": "struct RafflesContract.RaffleItemIO[]",
                    "name": "raffleItems",
                    "type": "tuple[]"
                }
            ],
            "name": "RaffleStarted",
            "type": "event"
        },
        {
            "anonymous": false,
            "inputs": [
                {
                    "indexed": true,
                    "internalType": "uint256",
                    "name": "raffleId",
                    "type": "uint256"
                },
                {
                    "indexed": false,
                    "internalType": "address",
                    "name": "entrant",
                    "type": "address"
                },
                {
                    "components": [
                        {
                            "internalType": "address",
                            "name": "ticketAddress",
                            "type": "address"
                        },
                        {
                            "internalType": "uint256",
                            "name": "ticketId",
                            "type": "uint256"
                        },
                        {
                            "internalType": "uint256",
                            "name": "ticketQuantity",
                            "type": "uint256"
                        }
                    ],
                    "indexed": false,
                    "internalType": "struct RafflesContract.TicketItemIO[]",
                    "name": "ticketItems",
                    "type": "tuple[]"
                }
            ],
            "name": "RaffleTicketsEntered",
            "type": "event"
        },
        {
            "inputs": [
                {
                    "internalType": "uint256",
                    "name": "_newFee",
                    "type": "uint256"
                }
            ],
            "name": "changeVRFFee",
            "outputs": [],
            "stateMutability": "nonpayable",
            "type": "function"
        },
        {
            "inputs": [
                {
                    "internalType": "uint256",
                    "name": "_raffleId",
                    "type": "uint256"
                },
                {
                    "internalType": "address",
                    "name": "_entrant",
                    "type": "address"
                },
                {
                    "components": [
                        {
                            "internalType": "uint256",
                            "name": "userEntryIndex",
                            "type": "uint256"
                        },
                        {
                            "components": [
                                {
                                    "internalType": "uint256",
                                    "name": "raffleItemPrizeIndex",
                                    "type": "uint256"
                                },
                                {
                                    "internalType": "uint256[]",
                                    "name": "winningPrizeNumbers",
                                    "type": "uint256[]"
                                }
                            ],
                            "internalType": "struct RafflesContract.PrizesWinIO[]",
                            "name": "prizes",
                            "type": "tuple[]"
                        }
                    ],
                    "internalType": "struct RafflesContract.ticketWinIO[]",
                    "name": "_wins",
                    "type": "tuple[]"
                }
            ],
            "name": "claimPrize",
            "outputs": [],
            "stateMutability": "nonpayable",
            "type": "function"
        },
        {
            "inputs": [
                {
                    "internalType": "uint256",
                    "name": "_raffleId",
                    "type": "uint256"
                }
            ],
            "name": "drawRandomNumber",
            "outputs": [],
            "stateMutability": "nonpayable",
            "type": "function"
        },
        {
            "inputs": [
                {
                    "internalType": "uint256",
                    "name": "_raffleId",
                    "type": "uint256"
                },
                {
                    "components": [
                        {
                            "internalType": "address",
                            "name": "ticketAddress",
                            "type": "address"
                        },
                        {
                            "internalType": "uint256",
                            "name": "ticketId",
                            "type": "uint256"
                        },
                        {
                            "internalType": "uint256",
                            "name": "ticketQuantity",
                            "type": "uint256"
                        }
                    ],
                    "internalType": "struct RafflesContract.TicketItemIO[]",
                    "name": "_ticketItems",
                    "type": "tuple[]"
                }
            ],
            "name": "enterTickets",
            "outputs": [],
            "stateMutability": "nonpayable",
            "type": "function"
        },
        {
            "inputs": [
                {
                    "internalType": "uint256",
                    "name": "_raffleId",
                    "type": "uint256"
                },
                {
                    "internalType": "address",
                    "name": "_entrant",
                    "type": "address"
                }
            ],
            "name": "entrantStats",
            "outputs": [
                {
                    "components": [
                        {
                            "internalType": "address",
                            "name": "ticketAddress",
                            "type": "address"
                        },
                        {
                            "internalType": "uint256",
                            "name": "ticketId",
                            "type": "uint256"
                        },
                        {
                            "internalType": "uint256",
                            "name": "ticketQuantity",
                            "type": "uint256"
                        }
                    ],
                    "internalType": "struct RafflesContract.entrantStatsIO[]",
                    "name": "entrantstats_",
                    "type": "tuple[]"
                }
            ],
            "stateMutability": "view",
            "type": "function"
        },
        {
            "inputs": [
                {
                    "internalType": "uint256",
                    "name": "_raffleId",
                    "type": "uint256"
                }
            ],
            "name": "getEntrants",
            "outputs": [
                {
                    "internalType": "address[]",
                    "name": "entrants_",
                    "type": "address[]"
                }
            ],
            "stateMutability": "view",
            "type": "function"
        },
        {
            "inputs": [],
            "name": "getRaffles",
            "outputs": [
                {
                    "components": [
                        {
                            "internalType": "uint256",
                            "name": "raffleId",
                            "type": "uint256"
                        },
                        {
                            "internalType": "uint256",
                            "name": "raffleEnd",
                            "type": "uint256"
                        },
                        {
                            "internalType": "bool",
                            "name": "isOpen",
                            "type": "bool"
                        }
                    ],
                    "internalType": "struct RafflesContract.RaffleIO[]",
                    "name": "raffles_",
                    "type": "tuple[]"
                }
            ],
            "stateMutability": "view",
            "type": "function"
        },
        {
            "inputs": [],
            "name": "linkBalance",
            "outputs": [
                {
                    "internalType": "uint256",
                    "name": "linkBalance_",
                    "type": "uint256"
                }
            ],
            "stateMutability": "view",
            "type": "function"
        },
        {
            "inputs": [
                {
                    "internalType": "bytes32",
                    "name": "_keyHash",
                    "type": "bytes32"
                }
            ],
            "name": "nonces",
            "outputs": [
                {
                    "internalType": "uint256",
                    "name": "nonce_",
                    "type": "uint256"
                }
            ],
            "stateMutability": "view",
            "type": "function"
        },
        {
            "inputs": [
                {
                    "internalType": "address",
                    "name": "_operator",
                    "type": "address"
                },
                {
                    "internalType": "address",
                    "name": "_from",
                    "type": "address"
                },
                {
                    "internalType": "uint256",
                    "name": "_id",
                    "type": "uint256"
                },
                {
                    "internalType": "uint256",
                    "name": "_value",
                    "type": "uint256"
                },
                {
                    "internalType": "bytes",
                    "name": "_data",
                    "type": "bytes"
                }
            ],
            "name": "onERC1155Received",
            "outputs": [
                {
                    "internalType": "bytes4",
                    "name": "",
                    "type": "bytes4"
                }
            ],
            "stateMutability": "view",
            "type": "function"
        },
        {
            "inputs": [],
            "name": "owner",
            "outputs": [
                {
                    "internalType": "address",
                    "name": "",
                    "type": "address"
                }
            ],
            "stateMutability": "view",
            "type": "function"
        },
        {
            "inputs": [
                {
                    "internalType": "uint256",
                    "name": "_raffleId",
                    "type": "uint256"
                }
            ],
            "name": "raffleInfo",
            "outputs": [
                {
                    "internalType": "uint256",
                    "name": "raffleEnd_",
                    "type": "uint256"
                },
                {
                    "components": [
                        {
                            "internalType": "address",
                            "name": "ticketAddress",
                            "type": "address"
                        },
                        {
                            "internalType": "uint256",
                            "name": "ticketId",
                            "type": "uint256"
                        },
                        {
                            "components": [
                                {
                                    "internalType": "address",
                                    "name": "prizeAddress",
                                    "type": "address"
                                },
                                {
                                    "internalType": "uint256",
                                    "name": "prizeId",
                                    "type": "uint256"
                                },
                                {
                                    "internalType": "uint256",
                                    "name": "prizeQuantity",
                                    "type": "uint256"
                                }
                            ],
                            "internalType": "struct RafflesContract.RaffleItemPrizeIO[]",
                            "name": "raffleItemPrizes",
                            "type": "tuple[]"
                        }
                    ],
                    "internalType": "struct RafflesContract.RaffleItemIO[]",
                    "name": "raffleItems_",
                    "type": "tuple[]"
                },
                {
                    "internalType": "uint256",
                    "name": "randomNumber_",
                    "type": "uint256"
                }
            ],
            "stateMutability": "view",
            "type": "function"
        },
        {
            "inputs": [],
            "name": "raffleSupply",
            "outputs": [
                {
                    "internalType": "uint256",
                    "name": "raffleSupply_",
                    "type": "uint256"
                }
            ],
            "stateMutability": "view",
            "type": "function"
        },
        {
            "inputs": [
                {
                    "internalType": "bytes32",
                    "name": "_requestId",
                    "type": "bytes32"
                },
                {
                    "internalType": "uint256",
                    "name": "_randomness",
                    "type": "uint256"
                }
            ],
            "name": "rawFulfillRandomness",
            "outputs": [],
            "stateMutability": "nonpayable",
            "type": "function"
        },
        {
            "inputs": [
                {
                    "internalType": "address",
                    "name": "_to",
                    "type": "address"
                },
                {
                    "internalType": "uint256",
                    "name": "_value",
                    "type": "uint256"
                }
            ],
            "name": "removeLinkTokens",
            "outputs": [],
            "stateMutability": "nonpayable",
            "type": "function"
        },
        {
            "inputs": [
                {
                    "internalType": "uint256",
                    "name": "_raffleEnd",
                    "type": "uint256"
                },
                {
                    "components": [
                        {
                            "internalType": "address",
                            "name": "ticketAddress",
                            "type": "address"
                        },
                        {
                            "internalType": "uint256",
                            "name": "ticketId",
                            "type": "uint256"
                        },
                        {
                            "components": [
                                {
                                    "internalType": "address",
                                    "name": "prizeAddress",
                                    "type": "address"
                                },
                                {
                                    "internalType": "uint256",
                                    "name": "prizeId",
                                    "type": "uint256"
                                },
                                {
                                    "internalType": "uint256",
                                    "name": "prizeQuantity",
                                    "type": "uint256"
                                }
                            ],
                            "internalType": "struct RafflesContract.RaffleItemPrizeIO[]",
                            "name": "raffleItemPrizes",
                            "type": "tuple[]"
                        }
                    ],
                    "internalType": "struct RafflesContract.RaffleItemIO[]",
                    "name": "_raffleItems",
                    "type": "tuple[]"
                }
            ],
            "name": "startRaffle",
            "outputs": [],
            "stateMutability": "nonpayable",
            "type": "function"
        },
        {
            "inputs": [
                {
                    "internalType": "bytes4",
                    "name": "_interfaceId",
                    "type": "bytes4"
                }
            ],
            "name": "supportsInterface",
            "outputs": [
                {
                    "internalType": "bool",
                    "name": "",
                    "type": "bool"
                }
            ],
            "stateMutability": "view",
            "type": "function"
        },
        {
            "inputs": [
                {
                    "internalType": "uint256",
                    "name": "_raffleId",
                    "type": "uint256"
                }
            ],
            "name": "ticketStats",
            "outputs": [
                {
                    "components": [
                        {
                            "internalType": "address",
                            "name": "ticketAddress",
                            "type": "address"
                        },
                        {
                            "internalType": "uint256",
                            "name": "ticketId",
                            "type": "uint256"
                        },
                        {
                            "internalType": "uint256",
                            "name": "numberOfEntrants",
                            "type": "uint256"
                        },
                        {
                            "internalType": "uint256",
                            "name": "totalEntered",
                            "type": "uint256"
                        }
                    ],
                    "internalType": "struct RafflesContract.TicketStatsIO[]",
                    "name": "ticketStats_",
                    "type": "tuple[]"
                }
            ],
            "stateMutability": "view",
            "type": "function"
        },
        {
            "inputs": [
                {
                    "internalType": "address",
                    "name": "_newContractOwner",
                    "type": "address"
                }
            ],
            "name": "transferOwnership",
            "outputs": [],
            "stateMutability": "nonpayable",
            "type": "function"
        },
        {
            "inputs": [
                {
                    "internalType": "uint256",
                    "name": "_raffleId",
                    "type": "uint256"
                }
            ],
            "name": "winners",
            "outputs": [
                {
                    "components": [
                        {
                            "internalType": "address",
                            "name": "entrant",
                            "type": "address"
                        },
                        {
                            "internalType": "bool",
                            "name": "claimed",
                            "type": "bool"
                        },
                        {
                            "internalType": "uint256",
                            "name": "userEntryIndex",
                            "type": "uint256"
                        },
                        {
                            "internalType": "uint256",
                            "name": "raffleItemIndex",
                            "type": "uint256"
                        },
                        {
                            "internalType": "uint256",
                            "name": "raffleItemPrizeIndex",
                            "type": "uint256"
                        },
                        {
                            "internalType": "uint256[]",
                            "name": "winningPrizeNumbers",
                            "type": "uint256[]"
                        },
                        {
                            "internalType": "uint256",
                            "name": "prizeId",
                            "type": "uint256"
                        }
                    ],
                    "internalType": "struct RafflesContract.PrizeWinnerIO[]",
                    "name": "winners_",
                    "type": "tuple[]"
                }
            ],
            "stateMutability": "view",
            "type": "function"
        },
        {
            "inputs": [
                {
                    "internalType": "uint256",
                    "name": "_raffleId",
                    "type": "uint256"
                },
                {
                    "internalType": "address[]",
                    "name": "_entrants",
                    "type": "address[]"
                }
            ],
            "name": "winners",
            "outputs": [
                {
                    "components": [
                        {
                            "internalType": "address",
                            "name": "entrant",
                            "type": "address"
                        },
                        {
                            "internalType": "bool",
                            "name": "claimed",
                            "type": "bool"
                        },
                        {
                            "internalType": "uint256",
                            "name": "userEntryIndex",
                            "type": "uint256"
                        },
                        {
                            "internalType": "uint256",
                            "name": "raffleItemIndex",
                            "type": "uint256"
                        },
                        {
                            "internalType": "uint256",
                            "name": "raffleItemPrizeIndex",
                            "type": "uint256"
                        },
                        {
                            "internalType": "uint256[]",
                            "name": "winningPrizeNumbers",
                            "type": "uint256[]"
                        },
                        {
                            "internalType": "uint256",
                            "name": "prizeId",
                            "type": "uint256"
                        }
                    ],
                    "internalType": "struct RafflesContract.PrizeWinnerIO[]",
                    "name": "winners_",
                    "type": "tuple[]"
                }
            ],
            "stateMutability": "view",
            "type": "function"
        }
    ],
    "bytecode": "0x60e06040523480156200001157600080fd5b50604051620042cc380380620042cc83398101604081905262000034916200010d565b600580546001600160a01b039095166001600160a01b0319909516949094179093556001600160601b0319606092831b811660a052911b1660805260c05267016345785d8a0000600455600060208190527f67be87c3ff9960ca1e9cfac5cab2ff4747269cf9ed20c9b7306235ac35a491c5805460ff1990811660019081179092556307f5828d60e41b9092527feddca8dd33b41bff4f2689af38c5006161c5d608c330f99c8fe70d8b11b59a4080549092161790556200015e565b80516001600160a01b03811681146200010857600080fd5b919050565b6000806000806080858703121562000123578384fd5b6200012e85620000f0565b93506200013e60208601620000f0565b92506200014e60408601620000f0565b6060959095015193969295505050565b60805160601c60a05160601c60c051614127620001a56000398061080252508061140152806128dc52508061075b528061133f5280611b8652806128a052506141276000f3fe608060405234801561001057600080fd5b50600436106101775760003560e01c8063a18723c5116100d8578063c26ecefa1161008c578063f23a6e6111610066578063f23a6e611461031b578063f2fde38b1461033b578063fbea56e01461034e57610177565b8063c26ecefa146102ed578063d1a4692a146102f5578063ec9fabb71461030857610177565b8063a4cc0608116100bd578063a4cc060814610298578063abc00bb4146102ab578063bf30d790146102cb57610177565b8063a18723c514610263578063a2fb11751461027857610177565b8063599d127a1161012f5780638da5cb5b116101145780638da5cb5b1461022857806394985ddd1461023d5780639e317f121461025057610177565b8063599d127a14610200578063761e99f01461021557610177565b8063339a640311610160578063339a6403146101c55780634e3347c7146101da57806357b0ef44146101ed57610177565b806301ffc9a71461017c578063049dce8f146101a5575b600080fd5b61018f61018a366004612d50565b61036e565b60405161019c919061353c565b60405180910390f35b6101b86101b3366004612da8565b6103a9565b60405161019c91906134fa565b6101d86101d3366004612d17565b61061d565b005b6101d86101e8366004612edf565b61086e565b6101d86101fb366004612dd3565b610cd1565b6102086112c5565b60405161019c9190613d51565b6101d8610223366004612cce565b6112cb565b6102306113cd565b60405161019c919061312f565b6101d861024b366004612d2f565b6113e9565b61020861025e366004612d17565b611563565b61026b611575565b60405161019c9190613432565b61028b610286366004612d17565b61166a565b60405161019c9190613330565b6101d86102a6366004612d17565b611729565b6102be6102b9366004612d17565b611765565b60405161019c91906132d6565b6102de6102d9366004612d17565b61181c565b60405161019c93929190613ea0565b610208611b46565b61028b610303366004612e2b565b611c10565b6101d8610316366004612f29565b6120f5565b61032e610329366004612c2d565b6124b7565b60405161019c9190613578565b6101d8610349366004612c13565b612583565b61036161035c366004612d17565b612631565b60405161019c919061348d565b7fffffffff00000000000000000000000000000000000000000000000000000000811660009081526020819052604090205460ff165b919050565b60015460609083106103d65760405162461bcd60e51b81526004016103cd90613639565b60405180910390fd5b60008060010184815481106103e757fe5b6000918252602080832073ffffffffffffffffffffffffffffffffffffffff871684526002600890930201918201905260409091205490915067ffffffffffffffff8111801561043657600080fd5b5060405190808252806020026020018201604052801561047057816020015b61045d612a62565b8152602001906001900390816104555790505b50915060005b73ffffffffffffffffffffffffffffffffffffffff84166000908152600283016020526040902054811015610615576104ad612a99565b73ffffffffffffffffffffffffffffffffffffffff8516600090815260028401602052604090208054839081106104e057fe5b6000918252602080832060408051606081018252939091015463ffffffff81168085526dffffffffffffffffffffffffffff640100000000830481169486019490945272010000000000000000000000000000000000009091049092169083015260018601805492945091811061055357fe5b600091825260209091206004909102018054865191925073ffffffffffffffffffffffffffffffffffffffff169086908590811061058d57fe5b602090810291909101015173ffffffffffffffffffffffffffffffffffffffff9091169052600181015485518690859081106105c557fe5b6020026020010151602001818152505081602001518260400151036dffffffffffffffffffffffffffff168584815181106105fc57fe5b6020908102919091010151604001525050600101610476565b505092915050565b600154811061063e5760405162461bcd60e51b81526004016103cd90613639565b600080600101828154811061064f57fe5b90600052602060002090600802019050428160070154106106825760405162461bcd60e51b81526004016103cd906138f5565b6005810154156106a45760405162461bcd60e51b81526004016103cd90613c3a565b600681015460ff1615806106cf575060055473ffffffffffffffffffffffffffffffffffffffff1633145b6106eb5760405162461bcd60e51b81526004016103cd906138c0565b6006810180547fffffffffffffffffffffffffffffffffffffffffffffffffffffffffffffff00166001179055600480546040517f70a08231000000000000000000000000000000000000000000000000000000008152909173ffffffffffffffffffffffffffffffffffffffff7f000000000000000000000000000000000000000000000000000000000000000016916370a082319161078e9130910161312f565b60206040518083038186803b1580156107a657600080fd5b505afa1580156107ba573d6000803e3d6000fd5b505050506040513d601f19601f820116820180604052508101906107de9190612d90565b116107fb5760405162461bcd60e51b81526004016103cd90613798565b60006108587f0000000000000000000000000000000000000000000000000000000000000000600060040154433360405160200161083a9291906130bc565b6040516020818303038152906040528051906020012060001c61289c565b6000908152600360205260409020929092555050565b60055473ffffffffffffffffffffffffffffffffffffffff1633146108a55760405162461bcd60e51b81526004016103cd90613c97565b42610e100183116108c85760405162461bcd60e51b81526004016103cd906136a7565b806108e55760405162461bcd60e51b81526004016103cd906135a5565b60015460405181907fb44ac0470da898b318be8ceeafb224dd8540bb2200607aa1b4def46f9dd9de889061091e90879087908790613d5a565b60405180910390a260018054808201825560009182526008027fb10e2d527612073b26eecdfd717e6a320cf44b4afac2b0732d9fcbe2b7fa0cfd81018690557fb10e2d527612073b26eecdfd717e6a320cf44b4afac2b0732d9fcbe2b7fa0cf601905b83811015610cc9573685858381811061099657fe5b90506020028101906109a8919061409a565b905060006109b96040830183613ff8565b9050116109d85760405162461bcd60e51b81526004016103cd90613889565b8260006109e86020840184612c13565b73ffffffffffffffffffffffffffffffffffffffff1681526020808201929092526040908101600090812084840135825290925290205415610a3c5760405162461bcd60e51b81526004016103cd906139e6565b600180840180549182018082556000918252602080832060049094029093019290918691610a6c90860186612c13565b73ffffffffffffffffffffffffffffffffffffffff168152602080820192909252604090810160009081208684018035835293522091909155610aaf9083612c13565b81547fffffffffffffffffffffffff00000000000000000000000000000000000000001673ffffffffffffffffffffffffffffffffffffffff919091161781556020820135600182015560005b610b096040840184613ff8565b9050811015610cbe5736610b206040850185613ff8565b83818110610b2a57fe5b9050606002019050826003016040518060600160405280836000016020810190610b549190612c13565b73ffffffffffffffffffffffffffffffffffffffff90811682526bffffffffffffffffffffffff6040808701358216602080860191909152878101803595830195909552865460018181018955600098895297829020875160029092020180549288015190941674010000000000000000000000000000000000000000029085167fffffffffffffffffffffffff0000000000000000000000000000000000000000909216919091179093169290921781559201519190920155610c189082612c13565b73ffffffffffffffffffffffffffffffffffffffff1663f242432a3330846020013585604001358c604051602001610c509190613d51565b6040516020818303038152906040526040518663ffffffff1660e01b8152600401610c7f959493929190613150565b600060405180830381600087803b158015610c9957600080fd5b505af1158015610cad573d6000803e3d6000fd5b505060019093019250610afc915050565b505050600101610981565b505050505050565b6001548410610cf25760405162461bcd60e51b81526004016103cd90613639565b6000806001018581548110610d0357fe5b9060005260206000209060080201905060008160050154905060008111610d3c5760405162461bcd60e51b81526004016103cd906137cf565b3373ffffffffffffffffffffffffffffffffffffffff86161480610d77575060055473ffffffffffffffffffffffffffffffffffffffff1633145b610d935760405162461bcd60e51b81526004016103cd90613a43565b73ffffffffffffffffffffffffffffffffffffffff8516600090815260038301602052604090205460ff161580610de1575060055473ffffffffffffffffffffffffffffffffffffffff1633145b610dfd5760405162461bcd60e51b81526004016103cd9061373b565b73ffffffffffffffffffffffffffffffffffffffff85166000908152600383016020908152604080832080547fffffffffffffffffffffffffffffffffffffffffffffffffffffffffffffff0016600117905560028501909152812054905b848110156112bb5736868683818110610e7157fe5b9050602002810190610e83919061405d565b905080358311610ea55760405162461bcd60e51b81526004016103cd90613cce565b610ead612a99565b73ffffffffffffffffffffffffffffffffffffffff89166000908152600287016020526040902080548335908110610ee157fe5b6000918252602080832060408051606081018252939091015463ffffffff81168085526dffffffffffffffffffffffffffff6401000000008304811694860194909452720100000000000000000000000000000000000090910490921690830152600189018054929450918110610f5457fe5b906000526020600020906004020160020154905086600101826000015163ffffffff1681548110610f8157fe5b6000918252602082206003600490920201015495505b610fa46020850185613f93565b90508110156112ac5736610fbb6020860186613f93565b83818110610fc557fe5b9050602002810190610fd7919061405d565b905080358711610ff95760405162461bcd60e51b81526004016103cd90613aa0565b611001612a99565b89600101856000015163ffffffff168154811061101a57fe5b906000526020600020906004020160030182600001358154811061103a57fe5b60009182526020808320604080516060810182526002909402909101805473ffffffffffffffffffffffffffffffffffffffff811685526bffffffffffffffffffffffff74010000000000000000000000000000000000000000909104169284018390526001015490830152995091505b6110b86020840184613f93565b90508110156111a05760006110d06020850185613f93565b838181106110da57fe5b9050602002013590508981106111025760405162461bcd60e51b81526004016103cd90613bb7565b8651604051600091889161111f918f9189359087906020016130ef565b6040516020818303038152906040528051906020012060001c8161113f57fe5b06905087602001516dffffffffffffffffffffffffffff168110158015611179575087604001516dffffffffffffffffffffffffffff1681105b6111955760405162461bcd60e51b81526004016103cd90613704565b5098506001016110ab565b508d7f61dd2cf3e9f248b4453e8abb61b6ad73c53cf482d1c506f868a3885f533233cf8e836000015184604001518680602001906111de9190613f93565b6040516111ee9594939250613200565b60405180910390a2806000015173ffffffffffffffffffffffffffffffffffffffff1663f242432a308f846040015186806020019061122d9190613f93565b6040517fffffffff0000000000000000000000000000000000000000000000000000000060e088901b1681526112699594939250600401613236565b600060405180830381600087803b15801561128357600080fd5b505af1158015611297573d6000803e3d6000fd5b5050923598505060019092019150610f979050565b50509035925050600101610e5c565b5050505050505050565b60015490565b60055473ffffffffffffffffffffffffffffffffffffffff1633146113025760405162461bcd60e51b81526004016103cd90613c97565b6040517fa9059cbb00000000000000000000000000000000000000000000000000000000815273ffffffffffffffffffffffffffffffffffffffff7f0000000000000000000000000000000000000000000000000000000000000000169063a9059cbb90611376908590859060040161327b565b602060405180830381600087803b15801561139057600080fd5b505af11580156113a4573d6000803e3d6000fd5b505050506040513d601f19601f820116820180604052508101906113c89190612cf7565b505050565b60055473ffffffffffffffffffffffffffffffffffffffff1690565b3373ffffffffffffffffffffffffffffffffffffffff7f0000000000000000000000000000000000000000000000000000000000000000161461143e5760405162461bcd60e51b81526004016103cd906139af565b600082815260036020526040902054600154811061146e5760405162461bcd60e51b81526004016103cd90613639565b600080600101828154811061147f57fe5b90600052602060002090600802019050428160070154106114b25760405162461bcd60e51b81526004016103cd906138f5565b6005810154156114d45760405162461bcd60e51b81526004016103cd90613c3a565b82600060010183815481106114e557fe5b60009182526020909120600560089092020101556006810180547fffffffffffffffffffffffffffffffffffffffffffffffffffffffffffffff0016905560405182907f37e68548bed90aa11745696116f838a60b0bba40fc3f77a139aee9e3b828a08e90611555908690613d51565b60405180910390a250505050565b60009081526002602052604090205490565b60015460609067ffffffffffffffff8111801561159157600080fd5b506040519080825280602002602001820160405280156115cb57816020015b6115b8612ab9565b8152602001906001900390816115b05790505b50905060005b6001548110156116665760008060010182815481106115ec57fe5b90600052602060002090600802016007015490508183838151811061160d57fe5b602002602001015160000181815250508083838151811061162a57fe5b6020026020010151602001818152505042811183838151811061164957fe5b6020908102919091010151901515604090910152506001016115d1565b5090565b600154606090821061168e5760405162461bcd60e51b81526004016103cd90613639565b600080600101838154811061169f57fe5b90600052602060002090600802019050611722838260040180548060200260200160405190810160405280929190818152602001828054801561171857602002820191906000526020600020905b815473ffffffffffffffffffffffffffffffffffffffff1681526001909101906020018083116116ed575b5050505050611c10565b9392505050565b60055473ffffffffffffffffffffffffffffffffffffffff1633146117605760405162461bcd60e51b81526004016103cd90613c97565b600455565b60015460609082106117895760405162461bcd60e51b81526004016103cd90613639565b600080600101838154811061179a57fe5b906000526020600020906008020190508060040180548060200260200160405190810160405280929190818152602001828054801561180f57602002820191906000526020600020905b815473ffffffffffffffffffffffffffffffffffffffff1681526001909101906020018083116117e4575b5050505050915050919050565b600154600090606090829084106118455760405162461bcd60e51b81526004016103cd90613639565b600080600101858154811061185657fe5b60009182526020909120600760089092020190810154600682015490955090915060ff1615156001141561188d5760019150611895565b806005015491505b600181015467ffffffffffffffff811180156118b057600080fd5b506040519080825280602002602001820160405280156118ea57816020015b6118d7612adc565b8152602001906001900390816118cf5790505b50925060005b6001820154811015611b3d57600082600101828154811061190d57fe5b600091825260209091206004909102018054865191925073ffffffffffffffffffffffffffffffffffffffff169086908490811061194757fe5b602090810291909101015173ffffffffffffffffffffffffffffffffffffffff90911690526001810154855186908490811061197f57fe5b6020908102919091018101510152600381015467ffffffffffffffff811180156119a857600080fd5b506040519080825280602002602001820160405280156119e257816020015b6119cf612a62565b8152602001906001900390816119c75790505b508583815181106119ef57fe5b60200260200101516040018190525060005b6003820154811015611b33576000826003018281548110611a1e57fe5b600091825260209091206002909102018054885191925073ffffffffffffffffffffffffffffffffffffffff1690889086908110611a5857fe5b6020026020010151604001518381518110611a6f57fe5b602090810291909101015173ffffffffffffffffffffffffffffffffffffffff909116905260018101548751889086908110611aa757fe5b6020026020010151604001518381518110611abe57fe5b602090810291909101810151015280548751740100000000000000000000000000000000000000009091046bffffffffffffffffffffffff1690889086908110611b0457fe5b6020026020010151604001518381518110611b1b57fe5b60209081029190910101516040015250600101611a01565b50506001016118f0565b50509193909250565b6040517f70a0823100000000000000000000000000000000000000000000000000000000815260009073ffffffffffffffffffffffffffffffffffffffff7f000000000000000000000000000000000000000000000000000000000000000016906370a0823190611bbb90309060040161312f565b60206040518083038186803b158015611bd357600080fd5b505afa158015611be7573d6000803e3d6000fd5b505050506040513d601f19601f82011682018060405250810190611c0b9190612d90565b905090565b6001546060908310611c345760405162461bcd60e51b81526004016103cd90613639565b6000806001018481548110611c4557fe5b9060005260206000209060080201905060008160050154905060008111611c7e5760405162461bcd60e51b81526004016103cd906137cf565b6000805b6001840154811015611d18576000846001018281548110611c9f57fe5b9060005260206000209060040201600301905060005b8154811015611d0e57818181548110611cca57fe5b60009182526020909120600290910201547401000000000000000000000000000000000000000090046bffffffffffffffffffffffff169390930192600101611cb5565b5050600101611c82565b508067ffffffffffffffff81118015611d3057600080fd5b50604051908082528060200260200182016040528015611d6a57816020015b611d57612b13565b815260200190600190039081611d4f5790505b509350506000805b85518110156120e9576000868281518110611d8957fe5b6020026020010151905060005b73ffffffffffffffffffffffffffffffffffffffff821660009081526002870160205260409020548110156120df5773ffffffffffffffffffffffffffffffffffffffff821660009081526002870160205260408120805483908110611df857fe5b60009182526020822001805460018a0180549294509163ffffffff909116908110611e1f57fe5b60009182526020822060026004909202010154835460018b0180549294509163ffffffff909116908110611e4f57fe5b9060005260206000209060040201600301905060005b81548110156120cf5760006060838381548110611e7e57fe5b60009182526020909120600290910201547401000000000000000000000000000000000000000090046bffffffffffffffffffffffff1667ffffffffffffffff81118015611ecb57600080fd5b50604051908082528060200260200182016040528015611ef5578160200160208202803683370190505b50905060005b848481548110611f0757fe5b60009182526020909120600290910201547401000000000000000000000000000000000000000090046bffffffffffffffffffffffff16811015612014576000868d8960000160009054906101000a900463ffffffff168785604051602001611f7394939291906130ef565b6040516020818303038152906040528051906020012060001c81611f9357fe5b8954919006915064010000000090046dffffffffffffffffffffffffffff168110801590611fe757508754720100000000000000000000000000000000000090046dffffffffffffffffffffffffffff1681105b1561200b5781838581518110611ff957fe5b60209081029190910101526001909301925b50600101611efb565b5081156120c5578181526040805160e08101825273ffffffffffffffffffffffffffffffffffffffff8a16815233600090815260038f016020908152908390205460ff16151590820152908101889052865463ffffffff1660608201526080810184905260a08101829052845460c082019086908690811061209257fe5b9060005260206000209060020201600101548152508d8b815181106120b357fe5b60209081029190910101526001909901985b5050600101611e65565b505060019092019150611d969050565b5050600101611d72565b50835250909392505050565b60015483106121165760405162461bcd60e51b81526004016103cd90613639565b806121335760405162461bcd60e51b81526004016103cd90613670565b600080600101848154811061214457fe5b90600052602060002090600802019050428160070154116121775760405162461bcd60e51b81526004016103cd90613b23565b837f11bafd320b20b453e37e76ddd7d80347a86411bafe26e90624da8a8dcdcdd4293385856040516121ab939291906131a0565b60405180910390a233600090815260028201602052604090205461220957600481018054600181018255600091825260209091200180547fffffffffffffffffffffffff000000000000000000000000000000000000000016331790555b60005b828110156124b0573684848381811061222157fe5b9050606002019050600081604001351161224d5760405162461bcd60e51b81526004016103cd90613952565b6000838161225e6020850185612c13565b73ffffffffffffffffffffffffffffffffffffffff1673ffffffffffffffffffffffffffffffffffffffff168152602001908152602001600020600083602001358152602001908152602001600020549050600081116122d05760405162461bcd60e51b81526004016103cd9061382c565b80806001900391505060008460010182815481106122ea57fe5b6000918252602080832060026004909302018281018054338652938a0183526040808620815160608101835263ffffffff808b1682526dffffffffffffffffffffffffffff8089168389019081528d8601358a018083169685019687528554600181018755958c529a899020935193909401805494519551821672010000000000000000000000000000000000000271ffffffffffffffffffffffffffffffffffff96909216640100000000027fffffffffffffffffffffffffffff0000000000000000000000000000ffffffff949093167fffffffffffffffffffffffffffffffffffffffffffffffffffffffff0000000090951694909417929092161792909216919091179055939093559192509061240790850185612c13565b73ffffffffffffffffffffffffffffffffffffffff1663f242432a3330876020013588604001358e60405160200161243f9190613d51565b6040516020818303038152906040526040518663ffffffff1660e01b815260040161246e959493929190613150565b600060405180830381600087803b15801561248857600080fd5b505af115801561249c573d6000803e3d6000fd5b50506001909601955061220c945050505050565b5050505050565b6000602082146124d95760405162461bcd60e51b81526004016103cd90613b5a565b60006124e783850185612d17565b600154909150811061250b5760405162461bcd60e51b81526004016103cd90613639565b600080600101828154811061251c57fe5b906000526020600020906008020190506000816007015490504281116125545760405162461bcd60e51b81526004016103cd906135dc565b507ff23a6e61000000000000000000000000000000000000000000000000000000009998505050505050505050565b60055473ffffffffffffffffffffffffffffffffffffffff163381146125bb5760405162461bcd60e51b81526004016103cd90613c97565b600580547fffffffffffffffffffffffff00000000000000000000000000000000000000001673ffffffffffffffffffffffffffffffffffffffff84811691821790925560405190918316907f8be0079c531659141344cd1fd0a4f28419497f9722a3daafe3b4186f6b6457e090600090a35050565b60015460609082106126555760405162461bcd60e51b81526004016103cd90613639565b600080600101838154811061266657fe5b90600052602060002090600802019050806001018054905067ffffffffffffffff8111801561269457600080fd5b506040519080825280602002602001820160405280156126ce57816020015b6126bb612b68565b8152602001906001900390816126b35790505b50915060005b60018201548110156128955760008260010182815481106126f157fe5b600091825260209091206004909102018054855191925073ffffffffffffffffffffffffffffffffffffffff169085908490811061272b57fe5b602090810291909101015173ffffffffffffffffffffffffffffffffffffffff90911690526001810154845185908490811061276357fe5b60200260200101516020018181525050806002015484838151811061278457fe5b6020026020010151606001818152505060005b600484015481101561288b5760008460040182815481106127b457fe5b600091825260208220015473ffffffffffffffffffffffffffffffffffffffff1691505b73ffffffffffffffffffffffffffffffffffffffff821660009081526002870160205260409020548110156128815773ffffffffffffffffffffffffffffffffffffffff82166000908152600287016020526040902080548290811061283a57fe5b60009182526020909120015463ffffffff168514156128795786858151811061285f57fe5b602090810291909101015160400180516001019052612881565b6001016127d8565b5050600101612797565b50506001016126d4565b5050919050565b60007f000000000000000000000000000000000000000000000000000000000000000073ffffffffffffffffffffffffffffffffffffffff16634000aea07f000000000000000000000000000000000000000000000000000000000000000085878660405160200161290f9291906130ae565b6040516020818303038152906040526040518463ffffffff1660e01b815260040161293c939291906132a1565b602060405180830381600087803b15801561295657600080fd5b505af115801561296a573d6000803e3d6000fd5b505050506040513d601f19601f8201168201806040525081019061298e9190612cf7565b506000848152600260205260408120546129ad908690859030906129d7565b60008681526002602052604090208054600101905590506129ce8582612a2f565b95945050505050565b6000848484846040516020016129f09493929190613547565b604080517fffffffffffffffffffffffffffffffffffffffffffffffffffffffffffffffe0818403018152919052805160209091012095945050505050565b60008282604051602001612a449291906130ae565b60405160208183030381529060405280519060200120905092915050565b6040518060600160405280600073ffffffffffffffffffffffffffffffffffffffff16815260200160008152602001600081525090565b604080516060810182526000808252602082018190529181019190915290565b604051806060016040528060008152602001600081526020016000151581525090565b6040518060600160405280600073ffffffffffffffffffffffffffffffffffffffff16815260200160008152602001606081525090565b6040518060e00160405280600073ffffffffffffffffffffffffffffffffffffffff16815260200160001515815260200160008152602001600081526020016000815260200160608152602001600081525090565b6040518060800160405280600073ffffffffffffffffffffffffffffffffffffffff1681526020016000815260200160008152602001600081525090565b803573ffffffffffffffffffffffffffffffffffffffff811681146103a457600080fd5b60008083601f840112612bdb578081fd5b50813567ffffffffffffffff811115612bf2578182fd5b6020830191508360208083028501011115612c0c57600080fd5b9250929050565b600060208284031215612c24578081fd5b61172282612ba6565b60008060008060008060a08789031215612c45578182fd5b612c4e87612ba6565b9550612c5c60208801612ba6565b94506040870135935060608701359250608087013567ffffffffffffffff80821115612c86578384fd5b818901915089601f830112612c99578384fd5b813581811115612ca7578485fd5b8a6020828501011115612cb8578485fd5b6020830194508093505050509295509295509295565b60008060408385031215612ce0578182fd5b612ce983612ba6565b946020939093013593505050565b600060208284031215612d08578081fd5b81518015158114611722578182fd5b600060208284031215612d28578081fd5b5035919050565b60008060408385031215612d41578182fd5b50508035926020909101359150565b600060208284031215612d61578081fd5b81357fffffffff0000000000000000000000000000000000000000000000000000000081168114611722578182fd5b600060208284031215612da1578081fd5b5051919050565b60008060408385031215612dba578182fd5b82359150612dca60208401612ba6565b90509250929050565b60008060008060608587031215612de8578384fd5b84359350612df860208601612ba6565b9250604085013567ffffffffffffffff811115612e13578283fd5b612e1f87828801612bca565b95989497509550505050565b60008060408385031215612e3d578182fd5b8235915060208084013567ffffffffffffffff80821115612e5c578384fd5b818601915086601f830112612e6f578384fd5b813581811115612e7b57fe5b8381029150612e8b8483016140cd565b8181528481019084860184860187018b1015612ea5578788fd5b8795505b83861015612ece57612eba81612ba6565b835260019590950194918601918601612ea9565b508096505050505050509250929050565b600080600060408486031215612ef3578283fd5b83359250602084013567ffffffffffffffff811115612f10578283fd5b612f1c86828701612bca565b9497909650939450505050565b600080600060408486031215612f3d578081fd5b83359250602084013567ffffffffffffffff80821115612f5b578283fd5b818601915086601f830112612f6e578283fd5b813581811115612f7c578384fd5b876020606083028501011115612f90578384fd5b6020830194508093505050509250925092565b600082845260208401935081815b84811015612fd657612fc38683613049565b6060958601959190910190600101612fb1565b5093949350505050565b60008151808452815b8181101561300557602081850181015186830182015201612fe9565b818111156130165782602083870101525b50601f017fffffffffffffffffffffffffffffffffffffffffffffffffffffffffffffffe0169290920160200192915050565b73ffffffffffffffffffffffffffffffffffffffff61306782612ba6565b16825260208181013590830152604090810135910152565b805173ffffffffffffffffffffffffffffffffffffffff16825260208082015190830152604090810151910152565b918252602082015260400190565b91825260601b7fffffffffffffffffffffffffffffffffffffffff00000000000000000000000016602082015260340190565b93845260e09290921b7fffffffff000000000000000000000000000000000000000000000000000000001660208401526024830152604482015260640190565b73ffffffffffffffffffffffffffffffffffffffff91909116815260200190565b600073ffffffffffffffffffffffffffffffffffffffff808816835280871660208401525084604083015283606083015260a0608083015261319560a0830184612fe0565b979650505050505050565b73ffffffffffffffffffffffffffffffffffffffff8416815260406020820181905281018290526000606080830185835b868110156131f3576131e38383613049565b91830191908301906001016131d1565b5090979650505050505050565b73ffffffffffffffffffffffffffffffffffffffff94851681529290931660208301526040820152606081019190915260800190565b73ffffffffffffffffffffffffffffffffffffffff94851681529290931660208301526040820152606081019190915260a06080820181905260009082015260c00190565b73ffffffffffffffffffffffffffffffffffffffff929092168252602082015260400190565b600073ffffffffffffffffffffffffffffffffffffffff85168252836020830152606060408301526129ce6060830184612fe0565b6020808252825182820181905260009190848201906040850190845b8181101561332457835173ffffffffffffffffffffffffffffffffffffffff16835292840192918401916001016132f2565b50909695505050505050565b60208082528251828201819052600091906040908185019080840286018301878501865b83811015613424578883037fffffffffffffffffffffffffffffffffffffffffffffffffffffffffffffffc00185528151805173ffffffffffffffffffffffffffffffffffffffff168452878101511515888501528681015187850152606080820151908501526080808201519085015260a08082015160e09186018290528051918601829052610100860191908a01908b5b818110156134035782518452928b0192918b01916001016133e7565b50505060c09182015194909101939093529386019390860190600101613354565b509098975050505050505050565b602080825282518282018190526000919060409081850190868401855b828110156134805781518051855286810151878601528501511515858501526060909301929085019060010161344f565b5091979650505050505050565b602080825282518282018190526000919060409081850190868401855b82811015613480578151805173ffffffffffffffffffffffffffffffffffffffff1685528681015187860152858101518686015260609081015190850152608090930192908501906001016134aa565b6020808252825182820181905260009190848201906040850190845b818110156133245761352983855161307f565b9284019260609290920191600101613516565b901515815260200190565b938452602084019290925273ffffffffffffffffffffffffffffffffffffffff166040830152606082015260800190565b7fffffffff0000000000000000000000000000000000000000000000000000000091909116815260200190565b60208082526017908201527f526166666c653a204e6f20726166666c65206974656d73000000000000000000604082015260600190565b60208082526030908201527f526166666c653a2043616e277420616363657074207472616e7366657220666f60408201527f72206578706972656420726166666c6500000000000000000000000000000000606082015260800190565b6020808252601d908201527f526166666c653a20526166666c6520646f6573206e6f74206578697374000000604082015260600190565b60208082526012908201527f526166666c653a204e6f207469636b6574730000000000000000000000000000604082015260600190565b6020808252602e908201527f526166666c653a205f726166666c65456e64206d75737420626520677265617460408201527f6572207468616e203120686f7572000000000000000000000000000000000000606082015260800190565b60208082526019908201527f526166666c653a20446964206e6f742077696e207072697a6500000000000000604082015260600190565b60208082526038908201527f526166666c653a20416e79207072697a657320666f72206163636f756e74206860408201527f61766520616c7265616479206265656e20636c61696d65640000000000000000606082015260800190565b6020808252600f908201527f4e6f7420656e6f756768204c494e4b0000000000000000000000000000000000604082015260600190565b60208082526027908201527f526166666c653a2052616e646f6d206e756d626572206e6f742067656e65726160408201527f7465642079657400000000000000000000000000000000000000000000000000606082015260800190565b60208082526031908201527f526166666c653a20526166666c65206974656d20646f65736e2774206578697360408201527f7420666f72207468697320726166666c65000000000000000000000000000000606082015260800190565b60208082526011908201527f526166666c653a204e6f207072697a6573000000000000000000000000000000604082015260600190565b6020808252818101527f526166666c653a2052616e646f6d206e756d6265722069732070656e64696e67604082015260600190565b60208082526023908201527f526166666c653a20526166666c652074696d6520686173206e6f74206578706960408201527f7265640000000000000000000000000000000000000000000000000000000000606082015260800190565b60208082526026908201527f526166666c653a205469636b6574207175616e746974792063616e6e6f74206260408201527f65207a65726f0000000000000000000000000000000000000000000000000000606082015260800190565b6020808252601f908201527f4f6e6c7920565246436f6f7264696e61746f722063616e2066756c66696c6c00604082015260600190565b6020808252603c908201527f526166666c653a20526166666c65206974656d20616c7265616479207573696e60408201527f67207469636b65744164647265737320616e64207469636b6574496400000000606082015260800190565b6020808252602d908201527f526166666c653a204e6f7420636c61696d6564206279206f776e6572206f722060408201527f636f6e74726163744f776e657200000000000000000000000000000000000000606082015260800190565b60208082526049908201527f526166666c653a20526166666c65207072697a65207479706520646f6573206e60408201527f6f74206578697374206f72206973206e6f74206c6573736572207468616e206c60608201527f6173742076616c75650000000000000000000000000000000000000000000000608082015260a00190565b6020808252601f908201527f526166666c653a20526166666c652074696d6520686173206578706972656400604082015260600190565b6020808252602f908201527f526166666c653a2044617461206f66207468652077726f6e672073697a65207360408201527f656e74206f6e207472616e736665720000000000000000000000000000000000606082015260800190565b60208082526043908201527f526166666c653a207072697a654e756d62657220646f6573206e6f742065786960408201527f7374206f72206973206e6f74206c6573736572207468616e206c61737420766160608201527f6c75650000000000000000000000000000000000000000000000000000000000608082015260a00190565b60208082526027908201527f526166666c653a2052616e646f6d206e756d62657220616c726561647920676560408201527f6e65726174656400000000000000000000000000000000000000000000000000606082015260800190565b6020808252601e908201527f526166666c653a204d75737420626520636f6e7472616374206f776e65720000604082015260600190565b60208082526042908201527f526166666c653a205573657220656e74727920646f6573206e6f74206578697360408201527f74206f72206973206e6f74206c6573736572207468616e206c6173742076616c60608201527f7565000000000000000000000000000000000000000000000000000000000000608082015260a00190565b90815260200190565b83815260406020808301829052828201849052600091906060908185018682028601830188865b89811015613e90577fffffffffffffffffffffffffffffffffffffffffffffffffffffffffffffffa089840301845281357fffffffffffffffffffffffffffffffffffffffffffffffffffffffffffffffa18c3603018112613de1578889fd5b8b0173ffffffffffffffffffffffffffffffffffffffff613e0182612ba6565b1684528581013586850152878101357fffffffffffffffffffffffffffffffffffffffffffffffffffffffffffffffe1823603018112613e3f57898afd5b8101803567ffffffffffffffff811115613e57578a8bfd5b8881023603831315613e67578a8bfd5b888a870152613e7b898701828a8501612fa3565b96880196955050509185019150600101613d81565b50909a9950505050505050505050565b600060608083018684526020828186015281875180845260809350838701915083838202880101838a01875b83811015613f7a578983037fffffffffffffffffffffffffffffffffffffffffffffffffffffffffffffff800185528151805173ffffffffffffffffffffffffffffffffffffffff16845286810151878501526040908101519084018990528051898501819052908701908a90898601905b80831015613f6557613f5182855161307f565b9289019260019290920191908b0190613f3e565b50968801969450505090850190600101613ecc565b5050809650505050505050826040830152949350505050565b60008083357fffffffffffffffffffffffffffffffffffffffffffffffffffffffffffffffe1843603018112613fc7578283fd5b83018035915067ffffffffffffffff821115613fe1578283fd5b6020908101925081023603821315612c0c57600080fd5b60008083357fffffffffffffffffffffffffffffffffffffffffffffffffffffffffffffffe184360301811261402c578283fd5b83018035915067ffffffffffffffff821115614046578283fd5b6020019150606081023603821315612c0c57600080fd5b600082357fffffffffffffffffffffffffffffffffffffffffffffffffffffffffffffffc1833603018112614090578182fd5b9190910192915050565b600082357fffffffffffffffffffffffffffffffffffffffffffffffffffffffffffffffa1833603018112614090578182fd5b60405181810167ffffffffffffffff811182821017156140e957fe5b60405291905056fea264697066735822122018233dc09579e9592efff9955d8d654077eb33b7f71e2444ebdbfd5d4174edd864736f6c63430007040033",
    "linkReferences": {},
    "deployedLinkReferences": {}
}