{
    "_format": "hh-sol-artifact-1",
    "contractName": "ShopFacet",
    "sourceName": "contracts/Aavegotchi/facets/ShopFacet.sol",
    "abi": [
        {
            "anonymous": false,
            "inputs": [
                {
                    "indexed": true,
                    "internalType": "address",
                    "name": "_from",
                    "type": "address"
                },
                {
                    "indexed": true,
                    "internalType": "address",
                    "name": "_to",
                    "type": "address"
                },
                {
                    "indexed": false,
                    "internalType": "uint256",
                    "name": "_tokenId",
                    "type": "uint256"
                },
                {
                    "indexed": false,
                    "internalType": "uint256",
                    "name": "_numAavegotchisToPurchase",
                    "type": "uint256"
                },
                {
                    "indexed": false,
                    "internalType": "uint256",
                    "name": "_totalPrice",
                    "type": "uint256"
                }
            ],
            "name": "BuyPortals",
            "type": "event"
        },
        {
            "anonymous": false,
            "inputs": [
                {
                    "indexed": true,
                    "internalType": "address",
                    "name": "_from",
                    "type": "address"
                },
                {
                    "indexed": true,
                    "internalType": "address",
                    "name": "_to",
                    "type": "address"
                },
                {
                    "indexed": false,
                    "internalType": "uint256[]",
                    "name": "_itemIds",
                    "type": "uint256[]"
                },
                {
                    "indexed": false,
                    "internalType": "uint256[]",
                    "name": "_quantities",
                    "type": "uint256[]"
                },
                {
                    "indexed": false,
                    "internalType": "uint256",
                    "name": "_totalPrice",
                    "type": "uint256"
                }
            ],
            "name": "PurchaseItemsWithGhst",
            "type": "event"
        },
        {
            "anonymous": false,
            "inputs": [
                {
                    "indexed": true,
                    "internalType": "address",
                    "name": "_from",
                    "type": "address"
                },
                {
                    "indexed": true,
                    "internalType": "address",
                    "name": "_to",
                    "type": "address"
                },
                {
                    "indexed": false,
                    "internalType": "uint256[]",
                    "name": "_itemIds",
                    "type": "uint256[]"
                },
                {
                    "indexed": false,
                    "internalType": "uint256[]",
                    "name": "_quantities",
                    "type": "uint256[]"
                }
            ],
            "name": "PurchaseItemsWithVouchers",
            "type": "event"
        },
        {
            "inputs": [
                {
                    "internalType": "address",
                    "name": "_to",
                    "type": "address"
                },
                {
                    "internalType": "uint256",
                    "name": "_ghst",
                    "type": "uint256"
                }
            ],
            "name": "buyPortals",
            "outputs": [],
            "stateMutability": "nonpayable",
            "type": "function"
        },
        {
            "inputs": [
                {
                    "internalType": "address",
                    "name": "_to",
                    "type": "address"
                },
                {
                    "internalType": "uint256[]",
                    "name": "_itemIds",
                    "type": "uint256[]"
                },
                {
                    "internalType": "uint256[]",
                    "name": "_quantities",
                    "type": "uint256[]"
                }
            ],
            "name": "purchaseItemsWithGhst",
            "outputs": [],
            "stateMutability": "nonpayable",
            "type": "function"
        }
    ],
    "bytecode": "0x608060405234801561001057600080fd5b50611390806100206000396000f3fe608060405234801561001057600080fd5b50600436106100365760003560e01c8063e0a769471461003b578063ebdc3b5814610050575b600080fd5b61004e610049366004610cfe565b610063565b005b61004e61005e366004610c80565b61053a565b601254640100000000900461ffff16600081815260066020526040902068056bc75e2d631000008310156100b25760405162461bcd60e51b81526004016100a990610f9c565b60405180910390fd5b69012a27d53bc0487000008311156100dc5760405162461bcd60e51b81526004016100a990610f23565b60006100e661083e565b9050600080681b1ae4d6e2ef500000861161012a5761010e68056bc75e2d631000008761127f565b91506101238268056bc75e2d6310000061129f565b90506101fc565b68878678326eac900000861161019d57680ad78ebc5ac6200000610157681b1ae4d6e2ef500000886112be565b610161919061127f565b915061017682680ad78ebc5ac620000061129f565b61018990681b1ae4d6e2ef500000611267565b9050610196600583611267565b91506101fc565b681043561a88293000006101ba68878678326eac900000886112be565b6101c4919061127f565b91506101d982681043561a882930000061129f565b6101ec9068878678326eac900000611267565b90506101f9600f83611267565b91505b8354600090610218908490600160901b900462ffffff16611267565b855490915062ffffff168111156102415760405162461bcd60e51b81526004016100a990611168565b60008681526006602052604090819020805462ffffff60901b1916600160901b62ffffff851602179055601254905163ffffffff909116906001600160a01b038a811691908716907fd1c6c1067263f101cf1803f27d562d5514dcbb921a118e1e4f74b73a87f26d23906102ba90859089908990611249565b60405180910390a360005b848110156105105789600060090160008463ffffffff16815260200190815260200160002060060160006101000a8154816001600160a01b0302191690836001600160a01b0316021790555087600060090160008463ffffffff16815260200190815260200160002060060160146101000a81548161ffff021916908361ffff1602179055506000600c01805490506000600d0160008463ffffffff168152602001908152602001600020819055506000600c018290806001815401808255809150506001900390600052602060002090600891828204019190066004029091909190916101000a81548163ffffffff021916908363ffffffff1602179055506000600a0160008b6001600160a01b03166001600160a01b03168152602001908152602001600020805490506000600b0160008c6001600160a01b03166001600160a01b0316815260200190815260200160002060008463ffffffff168152602001908152602001600020819055506000600a0160008b6001600160a01b03166001600160a01b031681526020019081526020016000208290806001815401808255809150506001900390600052602060002090600891828204019190066004029091909190916101000a81548163ffffffff021916908363ffffffff1602179055508163ffffffff168a6001600160a01b031660006001600160a01b03167fddf252ad1be2c89b69c2b068fc378daa952ba7f163c4a11628f55a4df523b3ef60405160405180910390a4816104fa81611320565b925050808061050890611305565b9150506102c5565b506012805463ffffffff191663ffffffff831617905561052f8361089b565b505050505050505050565b8281146105595760405162461bcd60e51b81526004016100a9906110cc565b6000805b8481101561070257600086868381811061058757634e487b7160e01b600052603260045260246000fd5b90506020020135905060008585848181106105b257634e487b7160e01b600052603260045260246000fd5b90506020020135905060008060040183815481106105e057634e487b7160e01b600052603260045260246000fd5b60009182526020909120600990910201600781015490915060ff166106175760405162461bcd60e51b81526004016100a9906111fc565b6007810154600090610635908490610100900463ffffffff16611267565b6005830154909150600160801b900463ffffffff168111156106695760405162461bcd60e51b81526004016100a99061106f565b60078201805464ffffffff00191661010063ffffffff84160217905560058201546106a2906bffffffffffffffffffffffff168461129f565b6106ac9087611267565b6001600160a01b038c1660009081526007602090815260408083208884529091528120805492985085929091906106e4908490611267565b925050819055505050505080806106fa90611305565b91505061055d565b50856001600160a01b031661071561083e565b6001600160a01b03167f7f1fb19599dd14c9ccda091f8e0e739f2d08c4663dde55de72fb22e6b261b9f18787878787604051610755959493929190610ed6565b60405180910390a361078261076861083e565b8787878787604051806020016040528060008152506109a8565b6014546000906001600160a01b03166370a0823161079e61083e565b6040518263ffffffff1660e01b81526004016107ba9190610e0a565b60206040518083038186803b1580156107d257600080fd5b505afa1580156107e6573d6000803e3d6000fd5b505050506040513d601f19601f8201168201806040525081019061080a9190610d76565b90508181101561082c5760405162461bcd60e51b81526004016100a9906111c5565b6108358261089b565b50505050505050565b60003330141561089557600080368080601f0160208091040260200160405190810160405280939291908181526020018383808284376000920191909152505050503601516001600160a01b031691506108989050565b50335b90565b60006108a5610ac4565b9050600060646108b684602161129f565b6108c0919061127f565b9050600060646108d185601161129f565b6108db919061127f565b9050600060056108ec86600261129f565b6108f6919061127f565b90506000818361090686896112be565b61091091906112be565b61091a91906112be565b60148601549091506001600160a01b0316600061093561083e565b905061094a82826001600160a01b0389610ac9565b601987015461096690839083906001600160a01b031688610ac9565b601a87015461098290839083906001600160a01b031687610ac9565b601787015461099e90839083906001600160a01b031686610ac9565b5050505050505050565b856001600160a01b0316876001600160a01b0316336001600160a01b03167f4a39dc06d4c0dbc64b70af90fd698a233a518aa5d07e595d983b8c0526c8f7fb888888886040516109fb9493929190610ea4565b60405180910390a4853b801561099e5760405163bc197c8160e01b81526001600160a01b0388169063bc197c8190610a439033908c908b908b908b908b908b90600401610e1e565b602060405180830381600087803b158015610a5d57600080fd5b505af1158015610a71573d6000803e3d6000fd5b505050506040513d601f19601f82011682018060405250810190610a959190610d4e565b6001600160e01b03191663bc197c8160e01b1461099e5760405162461bcd60e51b81526004016100a99061111e565b600090565b833b80610ae85760405162461bcd60e51b81526004016100a990610f53565b600080866001600160a01b03166323b872dd60e01b878787604051602401610b1293929190610e80565b60408051601f198184030181529181526020820180516001600160e01b03166001600160e01b0319909416939093179092529051610b509190610dee565b6000604051808303816000865af19150503d8060008114610b8d576040519150601f19603f3d011682016040523d82523d6000602084013e610b92565b606091505b509150915061083582828115610bde57805115610bd95780806020019051810190610bbd9190610d27565b610bd95760405162461bcd60e51b81526004016100a990610fd3565b610c17565b805115610bff578060405162461bcd60e51b81526004016100a99190610f10565b60405162461bcd60e51b81526004016100a990611024565b5050565b80356001600160a01b0381168114610c3257600080fd5b919050565b60008083601f840112610c48578182fd5b50813567ffffffffffffffff811115610c5f578182fd5b6020830191508360208083028501011115610c7957600080fd5b9250929050565b600080600080600060608688031215610c97578081fd5b610ca086610c1b565b9450602086013567ffffffffffffffff80821115610cbc578283fd5b610cc889838a01610c37565b90965094506040880135915080821115610ce0578283fd5b50610ced88828901610c37565b969995985093965092949392505050565b60008060408385031215610d10578182fd5b610d1983610c1b565b946020939093013593505050565b600060208284031215610d38578081fd5b81518015158114610d47578182fd5b9392505050565b600060208284031215610d5f578081fd5b81516001600160e01b031981168114610d47578182fd5b600060208284031215610d87578081fd5b5051919050565b81835260006001600160fb1b03831115610da6578081fd5b6020830280836020870137939093016020019283525090919050565b60008151808452610dda8160208601602086016112d5565b601f01601f19169290920160200192915050565b60008251610e008184602087016112d5565b9190910192915050565b6001600160a01b0391909116815260200190565b6001600160a01b0388811682528716602082015260a060408201819052600090610e4b9083018789610d8e565b8281036060840152610e5e818688610d8e565b90508281036080840152610e728185610dc2565b9a9950505050505050505050565b6001600160a01b039384168152919092166020820152604081019190915260600190565b600060408252610eb8604083018688610d8e565b8281036020840152610ecb818587610d8e565b979650505050505050565b600060608252610eea606083018789610d8e565b8281036020840152610efd818688610d8e565b9150508260408301529695505050505050565b600060208252610d476020830184610dc2565b60208082526016908201527543616e277420627579206d6f7265207468616e20323560501b604082015260600190565b60208082526029908201527f4c696245524332303a20455243323020746f6b656e206164647265737320686160408201526873206e6f20636f646560b81b606082015260800190565b6020808252601e908201527f4e6f7420656e6f756768204748535420746f2062757920706f7274616c730000604082015260600190565b60208082526031908201527f4c696245524332303a207472616e73666572206f72207472616e7366657246726040820152706f6d2072657475726e65642066616c736560781b606082015260800190565b6020808252602b908201527f4c696245524332303a207472616e73666572206f72207472616e73666572467260408201526a1bdb481c995d995c9d195960aa1b606082015260800190565b60208082526038908201527f53686f7046616365743a20546f74616c206974656d2074797065207175616e7460408201527f6974792065786365656473206d6178207175616e746974790000000000000000606082015260800190565b60208082526032908201527f53686f7046616365743a205f6974656d496473206e6f742073616d65206c656e604082015271677468206173205f7175616e74697469657360701b606082015260800190565b6020808252602a908201527f5765617261626c65733a205472616e736665722072656a65637465642f6661696040820152696c6564206279205f746f60b01b606082015260800190565b6020808252603c908201527f53686f7046616365743a204578636565646564206d6178206e756d626572206f60408201527f662061617665676f746368697320666f722074686973206861756e7400000000606082015260800190565b6020808252601b908201527f53686f7046616365743a204e6f7420656e6f7567682047485354210000000000604082015260600190565b6020808252602d908201527f53686f7046616365743a2043616e2774207075726368617365206974656d207460408201526c1e5c19481dda5d1a0811d214d5609a1b606082015260800190565b63ffffffff9390931683526020830191909152604082015260600190565b6000821982111561127a5761127a611344565b500190565b60008261129a57634e487b7160e01b81526012600452602481fd5b500490565b60008160001904831182151516156112b9576112b9611344565b500290565b6000828210156112d0576112d0611344565b500390565b60005b838110156112f05781810151838201526020016112d8565b838111156112ff576000848401525b50505050565b600060001982141561131957611319611344565b5060010190565b600063ffffffff8083168181141561133a5761133a611344565b6001019392505050565b634e487b7160e01b600052601160045260246000fdfea26469706673582212206c614209eed64d4b9339b4b821c97d444629a3e6069ef4f4c79959aa82917d5864736f6c63430008010033",
    "linkReferences": {},
    "deployedLinkReferences": {}
}