{
  "_format": "hh-sol-artifact-1",
  "contractName": "SvgFacet",
  "sourceName": "contracts/Aavegotchi/facets/SvgFacet.sol",
  "abi": [
    {
      "inputs": [
        {
          "internalType": "bytes32",
          "name": "_svgType",
          "type": "bytes32"
        },
        {
          "internalType": "uint256",
          "name": "_numLayers",
          "type": "uint256"
        }
      ],
      "name": "deleteLastSvgLayers",
      "outputs": [],
      "stateMutability": "nonpayable",
      "type": "function"
    },
    {
      "inputs": [
        {
          "internalType": "uint256",
          "name": "_tokenId",
          "type": "uint256"
        }
      ],
      "name": "getAavegotchiSvg",
      "outputs": [
        {
          "internalType": "string",
          "name": "ag_",
          "type": "string"
        }
      ],
      "stateMutability": "view",
      "type": "function"
    },
    {
      "inputs": [
        {
          "internalType": "uint256",
          "name": "_itemId",
          "type": "uint256"
        }
      ],
      "name": "getItemSvg",
      "outputs": [
        {
          "internalType": "string",
          "name": "ag_",
          "type": "string"
        }
      ],
      "stateMutability": "view",
      "type": "function"
    },
    {
      "inputs": [
        {
          "internalType": "bytes32",
          "name": "_svgType",
          "type": "bytes32"
        },
        {
          "internalType": "uint256",
          "name": "_itemId",
          "type": "uint256"
        }
      ],
      "name": "getSvg",
      "outputs": [
        {
          "internalType": "string",
          "name": "svg_",
          "type": "string"
        }
      ],
      "stateMutability": "view",
      "type": "function"
    },
    {
      "inputs": [
        {
          "internalType": "bytes32",
          "name": "_svgType",
          "type": "bytes32"
        },
        {
          "internalType": "uint256[]",
          "name": "_itemIds",
          "type": "uint256[]"
        }
      ],
      "name": "getSvgs",
      "outputs": [
        {
          "internalType": "string[]",
          "name": "svgs_",
          "type": "string[]"
        }
      ],
      "stateMutability": "view",
      "type": "function"
    },
    {
      "inputs": [
        {
          "internalType": "uint256",
          "name": "_tokenId",
          "type": "uint256"
        }
      ],
      "name": "portalAavegotchisSvg",
      "outputs": [
        {
          "internalType": "string[10]",
          "name": "svg_",
          "type": "string[10]"
        }
      ],
      "stateMutability": "view",
      "type": "function"
    },
    {
      "inputs": [
        {
          "internalType": "uint256[]",
          "name": "_itemIds",
          "type": "uint256[]"
        },
        {
          "components": [
            {
              "internalType": "uint8",
              "name": "x",
              "type": "uint8"
            },
            {
              "internalType": "uint8",
              "name": "y",
              "type": "uint8"
            },
            {
              "internalType": "uint8",
              "name": "width",
              "type": "uint8"
            },
            {
              "internalType": "uint8",
              "name": "height",
              "type": "uint8"
            }
          ],
          "internalType": "struct Dimensions[]",
          "name": "_dimensions",
          "type": "tuple[]"
        }
      ],
      "name": "setItemsDimensions",
      "outputs": [],
      "stateMutability": "nonpayable",
      "type": "function"
    },
    {
      "inputs": [
        {
          "components": [
            {
              "internalType": "uint256",
              "name": "sleeveId",
              "type": "uint256"
            },
            {
              "internalType": "uint256",
              "name": "wearableId",
              "type": "uint256"
            }
          ],
          "internalType": "struct SvgFacet.Sleeve[]",
          "name": "_sleeves",
          "type": "tuple[]"
        }
      ],
      "name": "setSleeves",
      "outputs": [],
      "stateMutability": "nonpayable",
      "type": "function"
    },
    {
      "inputs": [
        {
          "internalType": "string",
          "name": "_svg",
          "type": "string"
        },
        {
          "components": [
            {
              "internalType": "bytes32",
              "name": "svgType",
              "type": "bytes32"
            },
            {
              "internalType": "uint256[]",
              "name": "sizes",
              "type": "uint256[]"
            }
          ],
          "internalType": "struct LibSvg.SvgTypeAndSizes[]",
          "name": "_typesAndSizes",
          "type": "tuple[]"
        }
      ],
      "name": "storeSvg",
      "outputs": [],
      "stateMutability": "nonpayable",
      "type": "function"
    },
    {
      "inputs": [
        {
          "internalType": "string",
          "name": "_svg",
          "type": "string"
        },
        {
          "components": [
            {
              "internalType": "bytes32",
              "name": "svgType",
              "type": "bytes32"
            },
            {
              "internalType": "uint256[]",
              "name": "ids",
              "type": "uint256[]"
            },
            {
              "internalType": "uint256[]",
              "name": "sizes",
              "type": "uint256[]"
            }
          ],
          "internalType": "struct LibSvg.SvgTypeAndIdsAndSizes[]",
          "name": "_typesAndIdsAndSizes",
          "type": "tuple[]"
        }
      ],
      "name": "updateSvg",
      "outputs": [],
      "stateMutability": "nonpayable",
      "type": "function"
    }
  ],
  "bytecode": "0x608060405234801561001057600080fd5b50613d5d806100206000396000f3fe608060405234801561001057600080fd5b506004361061009e5760003560e01c806388254c7c1161006657806388254c7c14610127578063945f4e2414610147578063ea9fd8e81461015a578063f300633d1461016d578063fd91838f146101805761009e565b8063082b571a146100a357806317c50d2c146100b85780632f7f5bb1146100e157806336f21983146100f45780636a646f3414610107575b600080fd5b6100b66100b1366004612975565b610193565b005b6100cb6100c6366004612b4d565b610274565b6040516100d8919061366a565b60405180910390f35b6100b66100ef366004612ae4565b61036f565b6100b6610102366004612ae4565b6103cc565b61011a610115366004612b4d565b610422565b6040516100d89190613491565b61013a610135366004612a79565b610557565b6040516100d891906134df565b6100cb610155366004612b4d565b610639565b6100b66101683660046129e5565b610778565b6100cb61017b366004612ac3565b610896565b6100b661018e366004612ac3565b6108a9565b600061019d61095d565b6001600160a01b0381166000908152603b602052604090205490915060ff1615156001146101e65760405162461bcd60e51b81526004016101dd9061381e565b60405180910390fd5b60005b8281101561026e5783838281811061021157634e487b7160e01b600052603260045260246000fd5b60400291909101359050603a600086868581811061023f57634e487b7160e01b600052603260045260246000fd5b90506040020160200135815260200190815260200160002081905550808061026690613bb2565b9150506101e9565b50505050565b60065460609082106102985760405162461bcd60e51b81526004016101dd906136f3565b60606102b0687765617261626c657360b81b846109ba565b905060008060060184815481106102d757634e487b7160e01b600052603260045260246000fd5b90600052602060002090600b02016006019050610316604051806060016040528060358152602001613cac60359139825462010000900460ff166109ec565b6040805180820190915260018152600160fd1b6020820152825461034491906301000000900460ff166109ec565b8360405160200161035793929190612fce565b60405160208183030381529060405292505050919050565b600061037961095d565b6001600160a01b0381166000908152603b602052604090205490915060ff1615156001146103b95760405162461bcd60e51b81526004016101dd9061381e565b6103c585858585610b19565b5050505050565b60006103d661095d565b6001600160a01b0381166000908152603b602052604090205490915060ff1615156001146104165760405162461bcd60e51b81526004016101dd9061381e565b6103c585858585610d3c565b61042a61273b565b6000828152600d60205260409020600a0154600160a01b900460ff166002146104655760405162461bcd60e51b81526004016101dd906136be565b600061047083610ef0565b905060005b600a8110156105505760008282600a81106104a057634e487b7160e01b600052603260045260246000fd5b60200201516040015190506104e0818484600a81106104cf57634e487b7160e01b600052603260045260246000fd5b60200201516020015160001961104f565b6104f86961617665676f7463686960b01b60036109ba565b604051602001610509929190613407565b6040516020818303038152906040528483600a811061053857634e487b7160e01b600052603260045260246000fd5b6020020152508061054881613bb2565b915050610475565b5050919050565b6060818067ffffffffffffffff81111561058157634e487b7160e01b600052604160045260246000fd5b6040519080825280602002602001820160405280156105b457816020015b606081526020019060019003908161059f5790505b50915060005b81811015610630576105f2868686848181106105e657634e487b7160e01b600052603260045260246000fd5b905060200201356109ba565b83828151811061061257634e487b7160e01b600052603260045260246000fd5b6020026020010181905250808061062890613bb2565b9150506105ba565b50509392505050565b6000818152600d60205260409020600a01546060906001600160a01b03166106735760405162461bcd60e51b81526004016101dd9061367d565b6000828152600d60205260409020600a0154606090600160a01b900460ff16806106b6576106af6961617665676f7463686960b01b60006109ba565b9150610767565b60ff8116600214156106da576106af6961617665676f7463686960b01b60016109ba565b60ff811660031415610767576000848152600d60205260408082206009810154825160c08101938490526001600160a01b039091169361076393859360020191600691908390855b82829054906101000a900460010b60010b8152602001906002019060208260010104928301926001038202915080841161072257905050505050508761104f565b9250505b81604051602001610357919061344f565b600061078261095d565b6001600160a01b0381166000908152603b602052604090205490915060ff1615156001146107c25760405162461bcd60e51b81526004016101dd9061381e565b8382146107e15760405162461bcd60e51b81526004016101dd906137cd565b60005b8481101561088e5783838281811061080c57634e487b7160e01b600052603260045260246000fd5b905060800201600060060187878481811061083757634e487b7160e01b600052603260045260246000fd5b905060200201358154811061085c57634e487b7160e01b600052603260045260246000fd5b90600052602060002090600b020160060181816108799190613c0d565b5081905061088681613bb2565b9150506107e4565b505050505050565b60606108a283836109ba565b9392505050565b60006108b361095d565b6001600160a01b0381166000908152603b602052604090205490915060ff1615156001146108f35760405162461bcd60e51b81526004016101dd9061381e565b60005b8281101561026e57600084815260026020526040902080548061092957634e487b7160e01b600052603160045260246000fd5b600082815260209020810160001990810180546001600160c01b03191690550190558061095581613bb2565b9150506108f6565b6000333014156109b457600080368080601f0160208091040260200160405190810160405280939291908181526020018383808284376000920191909152505050503601516001600160a01b031691506109b79050565b50335b90565b606060006109c6611651565b600085815260028201602052604090209091506109e38185611656565b95945050505050565b60608082610a1c5783604051602001610a059190613032565b604051602081830303815290604052915050610b13565b8260005b8115610a3457600101600a82049150610a20565b8067ffffffffffffffff811115610a5b57634e487b7160e01b600052604160045260246000fd5b6040519080825280601f01601f191660200182016040528015610a85576020820181803683370190505b50925084915060001981015b8215610aea57600a830660300160f81b84828060019003935081518110610ac857634e487b7160e01b600052603260045260246000fd5b60200101906001600160f81b031916908160001a905350600a83049250610a91565b5050508381604051602001610b00929190612d9b565b6040516020818303038152906040529150505b92915050565b6000610b23611651565b90507f9b0014ffd423ce86cb8e4db5b723051b2c64b2f0f52f57854402be02ac8aaa0e8383604051610b5692919061353f565b60405180910390a16000610b6a8686611731565b90506000805b84811015610d325736868683818110610b9957634e487b7160e01b600052603260045260246000fd5b9050602002810190610bab91906138c2565b905060005b610bbd604083018361387b565b9050811015610d1d576000610bd5604084018461387b565b83818110610bf357634e487b7160e01b600052603260045260246000fd5b9050602002013590506000838060200190610c0e919061387b565b84818110610c2c57634e487b7160e01b600052603260045260246000fd5b9050602002013590506040518060600160405280886001600160a01b031681526020018761ffff1681526020018361ffff16815250886002016000866000013581526020019081526020016000208281548110610c9957634e487b7160e01b600052603260045260246000fd5b6000918252602091829020835191018054928401516040909401516001600160a01b03199093166001600160a01b039092169190911761ffff60a01b1916600160a01b61ffff948516021761ffff60b01b1916600160b01b9390921692909202179055610d068287613982565b955050508080610d1590613bb2565b915050610bb0565b50508080610d2a90613bb2565b915050610b70565b5050505050505050565b6000610d46611651565b90507f0f6d7f4707d30f76042fe2e9e5b3a798697eea80f3af64651e3760059051ee248383604051610d799291906135ee565b60405180910390a16000610d8d8686611731565b90506000805b84811015610d325736868683818110610dbc57634e487b7160e01b600052603260045260246000fd5b9050602002810190610dce91906138e1565b905060005b610de0602083018361387b565b9050811015610edb576000610df8602084018461387b565b83818110610e1657634e487b7160e01b600052603260045260246000fd5b8535600090815260028b016020908152604080832081516060810183526001600160a01b038e8116825261ffff8e81168387019081529786029990990135808a16948301948552835460018101855593875294909520905191018054955192516001600160a01b0319909616919094161761ffff60a01b1916600160a01b918716919091021761ffff60b01b1916600160b01b939095169290920293909317909255509050610ec58186613982565b9450508080610ed390613bb2565b915050610dd3565b50508080610ee890613bb2565b915050610d93565b610ef8612763565b6000610f02611651565b6000848152600d820160205260409020600a0154909150600160a01b900460ff16600214610f425760405162461bcd60e51b81526004016101dd906136be565b6000838152600c82016020526040812054905b600a811015611047576000610f6a8383611893565b80519091508583600a8110610f8f57634e487b7160e01b600052603260045260246000fd5b60200201515260408101518583600a8110610fba57634e487b7160e01b600052603260045260246000fd5b60200201516001600160a01b0390911660409091015260608101518583600a8110610ff557634e487b7160e01b600052603260045260246000fd5b6020020151606001818152505080602001518583600a811061102757634e487b7160e01b600052603260045260246000fd5b60200201516020018190525050808061103f90613bb2565b915050610f55565b505050919050565b6060611059612791565b6001600160a01b0385166000908152602081905260409020600101546110819060e81b611b5b565b81526001600160a01b0385166000908152602081905260409020600101546110b2906301000000900460e81b611b5b565b6020808301919091526001600160a01b03861660009081529081905260409020600101546110e990600160301b900460e81b611b5b565b60408201526111066961617665676f7463686960b01b60026109ba565b6001600160a01b038616600090815260208190526040902060010154909250611148906a636f6c6c61746572616c7360a81b90600160481b900460ff166109ba565b606082015260808085015160010b908201819052600013156111855761117b6865796553686170657360b81b60006109ba565b60c082015261131f565b6061816080015113156111cf576001600160a01b03851660009081526020819052604090206001015461117b906865796553686170657360b81b90600160501b900460ff166109ba565b6040518061024001604052806000815260200160018152602001600281526020016005815260200160078152602001600a8152602001600f81526020016014815260200160198152602001602a8152602001603a8152602001604b81526020016050815260200160558152602001605a8152602001605d8152602001605f815260200160628152508160a0018190525060005b61126e60016012613b4c565b81101561131d578160a00151816012811061129957634e487b7160e01b600052603260045260246000fd5b60200201518260800151121580156112e6575060a08201516112bc826001613982565b601281106112da57634e487b7160e01b600052603260045260246000fd5b60200201518260800151125b1561130b576113016865796553686170657360b81b826109ba565b60c083015261131d565b8061131581613bb2565b915050611262565b505b836005602002015160010b8160800181815250506040518061010001604052806000815260200160028152602001600a815260200160198152602001604b8152602001605a81526020016062815260200160648152508161010001819052506040518060e001604052806040518060400160405280600681526020016523231818232360d11b81525081526020016040518060400160405280600681526020016518181b1a232360d11b8152508152602001604051806040016040528060068152602001651aa2191a212360d11b8152508152602001826000015181526020016040518060400160405280600681526020016533363831384560d01b81525081526020016040518060400160405280600681526020016545413843323760d01b81525081526020016040518060400160405280600681526020016506a628c8c82760d31b8152508152508161012001819052506000816080015112156114a65760408051808201909152600681526523231818232360d11b602082015260e08201526115b0565b6063816080015113156114da5760408051808201909152600681526506a628c8c82760d31b602082015260e08201526115b0565b60005b6114e960016008613b4c565b8110156115ae57816101000151816008811061151557634e487b7160e01b600052603260045260246000fd5b60200201518260800151121580156115635750610100820151611539826001613982565b6008811061155757634e487b7160e01b600052603260045260246000fd5b60200201518260800151125b1561159c57816101200151816007811061158d57634e487b7160e01b600052603260045260246000fd5b602002015160e08301526115ae565b806115a681613bb2565b9150506114dd565b505b600019831415611611576115c48184611d0b565b6115dc6961617665676f7463686960b01b60046109ba565b8383606001518460c001516040516020016115fb959493929190612dca565b6040516020818303038152906040529150611649565b61161b8184611d0b565b611626838386611db3565b604051602001611637929190612d9b565b60405160208183030381529060405291505b509392505050565b600090565b815460609082106116795760405162461bcd60e51b81526004016101dd90613735565b600083838154811061169b57634e487b7160e01b600052603260045260246000fd5b600091825260209091200180549091506001600160a01b0381169061ffff600160b01b8204811691600160a01b9004168167ffffffffffffffff8111156116f257634e487b7160e01b600052604160045260246000fd5b6040519080825280601f01601f19166020018201604052801561171c576020820181803683370190505b509450818160208701853c5050505092915050565b600061600082106117545760405162461bcd60e51b81526004016101dd9061377a565b60408051808201909152600e81526d610000600e6000396100006000f360901b602082015260f883901b6001600160f81b031960f085901b8116908216600081901a60228501535080836001815181106117be57634e487b7160e01b600052603260045260246000fd5b60200101906001600160f81b031916908160001a9053508183600a815181106117f757634e487b7160e01b600052603260045260246000fd5b60200101906001600160f81b031916908160001a905350808360098151811061183057634e487b7160e01b600052603260045260246000fd5b60200101906001600160f81b031916908160001a905350600083878760405160200161185e93929190612f39565b60405160208183030381529060405290508051602082016000f0945084611889573d6000803e3d6000fd5b5050505092915050565b61189b6127f5565b60006118a5611651565b9050600084846040516020016118bc929190613483565b60408051601f1981840301815291905280516020909101208084526019830180549192506000916118ed9084613bcd565b8154811061190b57634e487b7160e01b600052603260045260246000fd5b6000918252602080832091909101546001600160a01b0316808352908590526040808320815160c081019283905292945061198a938693926006918390855b82829054906101000a900460010b60010b8152602001906002019060208260010104928301926001038202915080841161194a5790505050505050611fd9565b6020858101919091526001600160a01b038216604080870182905260009182529185905281812082516101c08101938490529192829061010082019083906006908288855b82829054906101000a900460010b60010b815260200190600201906020826001010492830192600103820291508084116119cf5790505050509183525050600191909101546001600160e81b031960e882811b821660208086019190915263010000008404821b83166040860152600160301b840490911b909116606084015260ff600160481b830481166080850152600160501b8304811660a085015261ffff600160581b8404811660c080870191909152600160681b909404909116151560e09094019390935290830151908801519293501690600090611ab1906120cd565b9050600082856001600160a01b031663313ce5676040518163ffffffff1660e01b815260040160206040518083038186803b158015611aef57600080fd5b505afa158015611b03573d6000803e3d6000fd5b505050506040513d601f19601f82011682018060405250810190611b279190612b65565b611b3290600a6139f4565b611b3c919061399a565b9050611b488282613ac5565b6060890152509598975050505050505050565b604080518082018252601081526f181899199a1a9b1b9c1ca0a121a222a360811b602082015281516006808252818401909352606092600091906020820181803683370190505090506000805b6003811015611cff57836004878360038110611bd457634e487b7160e01b600052603260045260246000fd5b1a60f81b6001600160f81b031916901c60f81c60ff1681518110611c0857634e487b7160e01b600052603260045260246000fd5b602001015160f81c60f81b838381518110611c3357634e487b7160e01b600052603260045260246000fd5b60200101906001600160f81b031916908160001a90535081611c5481613bb2565b92505083868260038110611c7857634e487b7160e01b600052603260045260246000fd5b825191901a600f16908110611c9d57634e487b7160e01b600052603260045260246000fd5b602001015160f81c60f81b838381518110611cc857634e487b7160e01b600052603260045260246000fd5b60200101906001600160f81b031916908160001a90535081611ce981613bb2565b9250508080611cf790613bb2565b915050611ba8565b5090925050505b919050565b6000818152600d602052604090206060906000198314801590611d5d5750805461ffff16151580611d4757508054600160401b900461ffff1615155b80611d5d57508054600160501b900461ffff1615155b15611d8757835160208086015160408088015160e08901519151610a059594919291859101613057565b835160208086015160408088015160e08901519151610a0595949192918591016131a9565b5092915050565b6000818152600d60205260409020606090611dcc612823565b8154600160701b900461ffff168015611df157611dea816007612171565b8252611e0c565b611e096961617665676f7463686960b01b60046109ba565b82525b50815461ffff168015611e2d57611e2281612362565b60c084015260208301525b83611e466961617665676f7463686960b01b60036109ba565b604051602001611e57929190612d9b565b60408051601f1981840301815291815283015250815462010000900461ffff168015611e8e57611e88816001612171565b60608301525b508154640100000000900461ffff168015611eb457611eae816002612171565b60808301525b508154600160301b900461ffff168015611ed957611ed3816003612171565b60a08301525b508154600160401b900461ffff168015611efe57611ef8816004612171565b60e08301525b508154600160501b900461ffff168015611f2457611f1d816005612171565b6101008301525b508154600160601b900461ffff168015611f4a57611f43816006612171565b6101208301525b8160000151878760c0015188606001518560200151604051602001611f73959493929190612dca565b60408051601f19818403018152828252908401516060850151608086015160a087015160c088015160e08901516101008a01516101208b0151979c50611fbe988d9890602001612e35565b60405160208183030381529060405293505050509392505050565b611fe1612876565b60005b6006811015611dac576000611ffa826008613ac5565b85901c60ff169050606381111561205c5761201660028261399a565b9050606381111561205c5760648583604051602001612036929190613483565b6040516020818303038152906040528051906020012060001c6120599190613bcd565b90505b83826006811061207c57634e487b7160e01b600052603260045260246000fd5b602002015161208b908261393e565b8383600681106120ab57634e487b7160e01b600052603260045260246000fd5b600192830b90920b6020909202015250806120c581613bb2565b915050611fe4565b6000806120d983612534565b905061012c8110156120ef57600a915050611d06565b61012c811015801561210257506101c281105b1561211157600a915050611d06565b6101c28110158015612125575061020d8111155b15612134576019915050611d06565b61020e811015801561214857506102448111155b15612157576064915050611d06565b610245811061216b576103e8915050611d06565b50919050565b6060600080600601848154811061219857634e487b7160e01b600052603260045260246000fd5b60009182526020808320604080516080810182526006600b9095029092019384015460ff80821684526101008204811694840194909452620100008104841691830191909152630100000090049091166060820152909250906121fa856125bc565b9050806122306040518060400160405280600a815260200169111f1e39bb33903c1e9160b11b815250846000015160ff166109ec565b61225e6040518060400160405280600581526020016411103c9e9160d91b815250856020015160ff166109ec565b604051602001612270939291906132e0565b60408051601f198184030181529190529350600585141561231257836122c8604051806060016040528060268152602001613d026026913984516122b5906002613ae4565b6122c0906040613b63565b60ff166109ec565b600a8501546122ea90687765617261626c657360b81b9063ffffffff166109ba565b6040516020016122fc93929190612f5e565b6040516020818303038152906040529350612359565b600a830154849061233690687765617261626c657360b81b9063ffffffff166109ba565b604051602001612347929190612ef5565b60405160208183030381529060405293505b50505092915050565b606080600080600601848154811061238a57634e487b7160e01b600052603260045260246000fd5b6000918252602091829020604080516080810182526006600b9094029092019283015460ff808216845261010082048116848701526201000082048116848401526301000000909104811660608401528151808301909252600a825269111f1e39bb33903c1e9160b11b948201949094528151929450909261240c92166109ec565b61243a6040518060400160405280600581526020016411103c9e9160d91b815250836020015160ff166109ec565b600a84015461245c90687765617261626c657360b81b9063ffffffff166109ba565b60405160200161246e93929190613361565b60408051601f198184030181529181526000878152603a6020522054909450801561252c576124c66040518060400160405280600a815260200169111f1e39bb33903c1e9160b11b815250836000015160ff166109ec565b6124f46040518060400160405280600581526020016411103c9e9160d91b815250846020015160ff166109ec565b61250866736c656576657360c81b846109ba565b60405160200161251a93929190612fce565b60405160208183030381529060405293505b505050915091565b6000805b600681101561216b57600083826006811061256357634e487b7160e01b600052603260045260246000fd5b602002015160010b90506032811261259157612580816001613982565b61258a9084613982565b92506125a9565b61259c816064613b0d565b6125a69084613982565b92505b50806125b481613bb2565b915050612538565b6060816125e9575060408051808201909152600d81526c7765617261626c652d626f647960981b60208201525b6001821415612618575060408051808201909152600d81526c7765617261626c652d6661636560981b60208201525b6002821415612647575060408051808201909152600d81526c7765617261626c652d6579657360981b60208201525b6003821415612676575060408051808201909152600d81526c1dd9585c98589b194b5a195859609a1b60208201525b60048214156126b8576040518060400160405280602081526020017f7765617261626c652d68616e64207765617261626c652d68616e642d6c65667481525090505b60058214156126dd57604051806060016040528060218152602001613ce16021913990505b600682141561270b575060408051808201909152600c81526b1dd9585c98589b194b5c195d60a21b60208201525b6007821415611d0657505060408051808201909152600b81526a7765617261626c652d626760a81b602082015290565b604051806101400160405280600a905b606081526020019060019003908161274b5790505090565b604051806101400160405280600a905b61277b6127f5565b8152602001906001900390816127735790505090565b60405180610140016040528060608152602001606081526020016060815260200160608152602001600081526020016127c8612894565b815260200160608152602001606081526020016127e36128b3565b81526020016127f06128d2565b905290565b60405180608001604052806000815260200161280f612876565b815260006020820181905260409091015290565b604051806101400160405280606081526020016060815260200160608152602001606081526020016060815260200160608152602001606081526020016060815260200160608152602001606081525090565b6040518060c001604052806006906020820280368337509192915050565b6040518061024001604052806012906020820280368337509192915050565b6040518061010001604052806008906020820280368337509192915050565b6040805160e081019091526060815260066020820161274b565b60008083601f8401126128fd578182fd5b50813567ffffffffffffffff811115612914578182fd5b602083019150836020808302850101111561292e57600080fd5b9250929050565b60008083601f840112612946578182fd5b50813567ffffffffffffffff81111561295d578182fd5b60208301915083602082850101111561292e57600080fd5b60008060208385031215612987578182fd5b823567ffffffffffffffff8082111561299e578384fd5b818501915085601f8301126129b1578384fd5b8135818111156129bf578485fd5b8660206040830285010111156129d3578485fd5b60209290920196919550909350505050565b600080600080604085870312156129fa578182fd5b843567ffffffffffffffff80821115612a11578384fd5b612a1d888389016128ec565b90965094506020870135915080821115612a35578384fd5b818701915087601f830112612a48578384fd5b813581811115612a56578485fd5b886020608083028501011115612a6a578485fd5b95989497505060200194505050565b600080600060408486031215612a8d578283fd5b83359250602084013567ffffffffffffffff811115612aaa578283fd5b612ab6868287016128ec565b9497909650939450505050565b60008060408385031215612ad5578182fd5b50508035926020909101359150565b60008060008060408587031215612af9578384fd5b843567ffffffffffffffff80821115612b10578586fd5b612b1c88838901612935565b90965094506020870135915080821115612b34578384fd5b50612b41878288016128ec565b95989497509550505050565b600060208284031215612b5e578081fd5b5035919050565b600060208284031215612b76578081fd5b81516108a281613c99565b81835260006001600160fb1b03831115612b99578081fd5b6020830280836020870137939093016020019283525090919050565b60008151612bc7818560208601613b86565b9290920192915050565b60008151808452612be9816020860160208601613b86565b601f01601f19169290920160200192915050565b7f2e676f746368692d68616e647355707b646973706c61793a6e6f6e653b7d00008152601e0190565b7f2e676f746368692d68616e6473446f776e436c6f7365647b646973706c61793a815265626c6f636b7d60d01b602082015260260190565b7f2e676f746368692d68616e6473446f776e4f70656e7b646973706c61793a626c8152646f636b3b7d60d81b602082015260250190565b7f3b7d2e676f746368692d736c65657665732d75707b646973706c61793a6e6f6e815262653b7d60e81b602082015260230190565b671e17b9ba3cb6329f60c11b815260080190565b7f2e676f746368692d68616e6473446f776e436c6f7365647b646973706c61793a8152656e6f6e653b7d60d01b602082015260260190565b7f2e676f746368692d68616e6473446f776e4f70656e7b646973706c61793a6e6f8152636e653b7d60e01b602082015260240190565b7f3c73766720786d6c6e733d22687474703a2f2f7777772e77332e6f72672f323081527f30302f737667222076696577426f783d22302030203634203634223e000000006020820152603c0190565b60008351612dad818460208801613b86565b835190830190612dc1818360208801613b86565b01949350505050565b60008651612ddc818460208b01613b86565b865190830190612df0818360208b01613b86565b8651910190612e03818360208a01613b86565b8551910190612e16818360208901613b86565b8451910190612e29818360208801613b86565b01979650505050505050565b60008a51612e47818460208f01613b86565b8a51612e598183860160208f01613b86565b8a519184010190612e6e818360208e01613b86565b8951612e808183850160208e01613b86565b8951929091010190612e96818360208c01613b86565b8751612ea88183850160208c01613b86565b8751929091010190612ebe818360208a01613b86565b8551910190612ed1818360208901613b86565b8451612ee38183850160208901613b86565b9101019b9a5050505050505050505050565b60008351612f07818460208801613b86565b835190830190612f1b818360208801613b86565b691e17b9bb339f1e17b39f60b11b9101908152600a01949350505050565b60008451612f4b818460208901613b86565b8201838582379092019182525092915050565b60008451612f70818460208901613b86565b845190830190612f84818360208901613b86565b6516101814911f60d11b91019081528351612fa6816006840160208801613b86565b6d1e17b39f1e17b9bb339f1e17b39f60911b6006929091019182015260140195945050505050565b60008451612fe0818460208901613b86565b845190830190612ff4818360208901613b86565b61111f60f11b91019081528351613012816002840160208801613b86565b651e17b9bb339f60d11b6002929091019182015260080195945050505050565b60008251613044818460208701613b86565b600360fc1b920191825250600101919050565b60007f3c7374796c653e2e676f746368692d7072696d6172797b66696c6c3a230000008252865161308f81601d850160208b01613b86565b7f3b7d2e676f746368692d7365636f6e646172797b66696c6c3a23000000000000601d9184019182015286516130cc816037840160208b01613b86565b753b7d2e676f746368692d636865656b7b66696c6c3a2360501b60379290910191820152855161310381604d840160208a01613b86565b783b7d2e676f746368692d657965436f6c6f727b66696c6c3a2360381b604d9290910191820152845161313d816066840160208901613b86565b7f3b7d2e676f746368692d7072696d6172792d6d6f7574687b66696c6c3a2300006066929091019182015261319d61319861319361318e613189613184608487018a612bb5565b612c95565b612bfd565b612c5e565b612cde565b612cca565b98975050505050505050565b60007f3c7374796c653e2e676f746368692d7072696d6172797b66696c6c3a23000000825286516131e181601d850160208b01613b86565b7f3b7d2e676f746368692d7365636f6e646172797b66696c6c3a23000000000000601d91840191820152865161321e816037840160208b01613b86565b753b7d2e676f746368692d636865656b7b66696c6c3a2360501b60379290910191820152855161325581604d840160208a01613b86565b783b7d2e676f746368692d657965436f6c6f727b66696c6c3a2360381b604d9290910191820152845161328f816066840160208901613b86565b7f3b7d2e676f746368692d7072696d6172792d6d6f7574687b66696c6c3a2300006066929091019182015261319d6131986132db6132d6613189613184608487018a612bb5565b612d16565b612c26565b60007f3c6720636c6173733d22676f746368692d7765617261626c65200000000000008252845161331881601a850160208901613b86565b84519083019061332f81601a840160208901613b86565b845191019061334581601a840160208801613b86565b61111f60f11b601a9290910191820152601c0195945050505050565b60007f3c6720636c6173733d22676f746368692d7765617261626c65207765617261628252666c652d626f647960c81b602083015284516133a9816027850160208901613b86565b8451908301906133c0816027840160208901613b86565b61111f60f11b6027929091019182015283516133e3816029840160208801613b86565b691e17b9bb339f1e17b39f60b11b6029929091019182015260330195945050505050565b600061341282612d4c565b8451613422818360208901613b86565b8451910190613435818360208801613b86565b651e17b9bb339f60d11b9101908152600601949350505050565b600061345a82612d4c565b835161346a818360208801613b86565b651e17b9bb339f60d11b91019081526006019392505050565b918252602082015260400190565b6020808252600090610160830183820185845b600a8110156134d357601f198785030183526134c1848351612bd1565b935091840191908401906001016134a4565b50919695505050505050565b6000602080830181845280855180835260408601915060408482028701019250838701855b8281101561353257603f19888603018452613520858351612bd1565b94509285019290850190600101613504565b5092979650505050505050565b602080825281810183905260009060408084018583028501820187855b888110156135e057878303603f190184528135368b9003605e19018112613581578788fd5b8a01803584526060613595888301836138f6565b828a8801526135a78388018284612b81565b925050506135b7878301836138f6565b9250858203888701526135cb828483612b81565b9689019695505050918601915060010161355c565b509098975050505050505050565b602080825281810183905260009060408084018583028501820187855b888110156135e057878303603f190184528135368b9003603e19018112613630578788fd5b8a0180358452613642878201826138f6565b915086888601526136568786018383612b81565b95880195945050509085019060010161360b565b6000602082526108a26020830184612bd1565b60208082526021908201527f53766746616365743a205f746f6b656e496420646f6573206e6f7420657869736040820152601d60fa1b606082015260800190565b6020808252818101527f41617665676f7463686946616365743a20506f7274616c206e6f74206f70656e604082015260600190565b60208082526022908201527f4974656d7346616365743a205f6964206e6f7420666f756e6420666f72206974604082015261656d60f01b606082015260800190565b60208082526025908201527f4c69625376673a205356472074797065206f7220696420646f6573206e6f7420604082015264195e1a5cdd60da1b606082015260800190565b60208082526033908201527f53766753746f726167653a2045786365656465642032342c353736206279746560408201527273206d617820636f6e74726163742073697a6560681b606082015260800190565b60208082526031908201527f53766746616365743a205f6974656d496473206e6f742073616d65206c656e676040820152707468206173205f64696d656e73696f6e7360781b606082015260800190565b60208082526039908201527f4c696241707053746f726167653a206f6e6c7920616e204974656d4d616e616760408201527f65722063616e2063616c6c20746869732066756e6374696f6e00000000000000606082015260800190565b6000808335601e19843603018112613891578283fd5b83018035915067ffffffffffffffff8211156138ab578283fd5b602090810192508102360382131561292e57600080fd5b60008235605e198336030181126138d7578182fd5b9190910192915050565b60008235603e198336030181126138d7578182fd5b6000808335601e1984360301811261390c578283fd5b830160208101925035905067ffffffffffffffff81111561392c57600080fd5b60208102360383131561292e57600080fd5b60008160010b8360010b82821282617fff0382138115161561396257613962613be1565b82617fff1903821281161561397957613979613be1565b50019392505050565b6000821982111561399557613995613be1565b500190565b6000826139a9576139a9613bf7565b500490565b80825b60018086116139c057506139eb565b8187048211156139d2576139d2613be1565b808616156139df57918102915b9490941c9380026139b1565b94509492505050565b60006108a260001960ff851684600082613a10575060016108a2565b81613a1d575060006108a2565b8160018114613a335760028114613a3d57613a6a565b60019150506108a2565b60ff841115613a4e57613a4e613be1565b6001841b915084821115613a6457613a64613be1565b506108a2565b5060208310610133831016604e8410600b8410161715613a9d575081810a83811115613a9857613a98613be1565b6108a2565b613aaa84848460016139ae565b808604821115613abc57613abc613be1565b02949350505050565b6000816000190483118215151615613adf57613adf613be1565b500290565b600060ff821660ff84168160ff0481118215151615613b0557613b05613be1565b029392505050565b60008083128015600160ff1b850184121615613b2b57613b2b613be1565b6001600160ff1b0384018313811615613b4657613b46613be1565b50500390565b600082821015613b5e57613b5e613be1565b500390565b600060ff821660ff841680821015613b7d57613b7d613be1565b90039392505050565b60005b83811015613ba1578181015183820152602001613b89565b8381111561026e5750506000910152565b6000600019821415613bc657613bc6613be1565b5060010190565b600082613bdc57613bdc613bf7565b500690565b634e487b7160e01b600052601160045260246000fd5b634e487b7160e01b600052601260045260246000fd5b8135613c1881613c99565b815460ff191660ff91909116178082556020830135613c3681613c99565b61ff008160081b1661ff00198316179150508082556040830135613c5981613c99565b62ff00008160101b1662ff0000198316179150508082556060830135613c7e81613c99565b63ff0000008160181b1663ff00000019831617835550505050565b60ff81168114613ca857600080fd5b5056fe3c73766720786d6c6e733d22687474703a2f2f7777772e77332e6f72672f323030302f737667222076696577426f783d22302030207765617261626c652d68616e64207765617261626c652d68616e642d72696768743c67207472616e73666f726d3d227363616c65282d312c203129207472616e736c617465282da2646970667358221220b786878810def172fa1a2ab1520855dab9048f5843ae76def2691e7c23b0539764736f6c63430008010033",
  "linkReferences": {},
  "deployedLinkReferences": {}
}