{
    "_format": "hh-sol-artifact-1",
    "contractName": "VrfFacet",
    "sourceName": "contracts/Aavegotchi/facets/VRFFacet.sol",
    "abi": [
        {
            "anonymous": false,
            "inputs": [
                {
                    "indexed": false,
                    "internalType": "uint256[]",
                    "name": "_tokenIds",
                    "type": "uint256[]"
                }
            ],
            "name": "OpenPortals",
            "type": "event"
        },
        {
            "anonymous": false,
            "inputs": [
                {
                    "indexed": true,
                    "internalType": "uint256",
                    "name": "tokenId",
                    "type": "uint256"
                }
            ],
            "name": "PortalOpened",
            "type": "event"
        },
        {
            "anonymous": false,
            "inputs": [
                {
                    "indexed": true,
                    "internalType": "uint256",
                    "name": "tokenId",
                    "type": "uint256"
                },
                {
                    "indexed": false,
                    "internalType": "uint256",
                    "name": "randomNumber",
                    "type": "uint256"
                },
                {
                    "indexed": false,
                    "internalType": "uint256",
                    "name": "_vrfTimeSet",
                    "type": "uint256"
                }
            ],
            "name": "VrfRandomNumber",
            "type": "event"
        },
        {
            "inputs": [
                {
                    "internalType": "uint256",
                    "name": "_newFee",
                    "type": "uint256"
                },
                {
                    "internalType": "bytes32",
                    "name": "_keyHash",
                    "type": "bytes32"
                }
            ],
            "name": "changeVRFFee",
            "outputs": [],
            "stateMutability": "nonpayable",
            "type": "function"
        },
        {
            "inputs": [
                {
                    "internalType": "uint256[]",
                    "name": "_tokenIds",
                    "type": "uint256[]"
                }
            ],
            "name": "drawRandomNumbers",
            "outputs": [],
            "stateMutability": "nonpayable",
            "type": "function"
        },
        {
            "inputs": [],
            "name": "linkBalance",
            "outputs": [
                {
                    "internalType": "uint256",
                    "name": "linkBalance_",
                    "type": "uint256"
                }
            ],
            "stateMutability": "view",
            "type": "function"
        },
        {
            "inputs": [
                {
                    "internalType": "uint256[]",
                    "name": "_tokenIds",
                    "type": "uint256[]"
                }
            ],
            "name": "openPortals",
            "outputs": [],
            "stateMutability": "nonpayable",
            "type": "function"
        },
        {
            "inputs": [
                {
                    "internalType": "bytes32",
                    "name": "_requestId",
                    "type": "bytes32"
                },
                {
                    "internalType": "uint256",
                    "name": "_randomNumber",
                    "type": "uint256"
                }
            ],
            "name": "rawFulfillRandomness",
            "outputs": [],
            "stateMutability": "nonpayable",
            "type": "function"
        },
        {
            "inputs": [
                {
                    "internalType": "address",
                    "name": "_to",
                    "type": "address"
                },
                {
                    "internalType": "uint256",
                    "name": "_value",
                    "type": "uint256"
                }
            ],
            "name": "removeLinkTokens",
            "outputs": [],
            "stateMutability": "nonpayable",
            "type": "function"
        }
    ],
    "bytecode": "0x608060405234801561001057600080fd5b50611200806100206000396000f3fe608060405234801561001057600080fd5b50600436106100625760003560e01c8063247b30fb1461006757806348d7453a1461007c578063761e99f01461008f578063781f653e146100a257806394985ddd146100b5578063c26ecefa146100c8575b600080fd5b61007a610075366004610d88565b6100e6565b005b61007a61008a366004610d88565b610234565b61007a61009d366004610d52565b610285565b61007a6100b0366004610e1e565b610324565b61007a6100c3366004610e1e565b610371565b6100d06104a1565b6040516100dd919061119a565b60405180910390f35b60006100f0610535565b905060005b828110156101f557600084848381811061011f57634e487b7160e01b600052603260045260246000fd5b602090810292909201356000818152600a90935260409092206006015491925050600160b01b900460ff16156101705760405162461bcd60e51b815260040161016790610fae565b60405180910390fd5b6000818152600a60205260409020600601546001600160a01b038481169116146101ac5760405162461bcd60e51b815260040161016790611106565b6000818152600a60205260409020600601805460ff60b01b1916600160b01b1790556101d781610592565b6101e2308285610704565b50806101ed816111a3565b9150506100f5565b507fae66efc8f8e0f090cda702f391cb78d98edbc93d662e2876a5c6d6f257d959b98383604051610227929190610f0e565b60405180910390a1505050565b60005b818110156102805761026e83838381811061026257634e487b7160e01b600052603260045260246000fd5b90506020020135610592565b80610278816111a3565b915050610237565b505050565b61028d61075e565b60006102976107a3565b600681015460405163a9059cbb60e01b81529192506001600160a01b03169063a9059cbb906102cc9086908690600401610e8b565b602060405180830381600087803b1580156102e657600080fd5b505af11580156102fa573d6000803e3d6000fd5b505050506040513d601f19601f8201168201806040525081019061031e9190610df7565b50505050565b61032c61075e565b60006103366107a3565b60048101805471ffffffffffffffffffffffffffffffffffff19166bffffffffffffffffffffffff9095169490941790935550600390910155565b600061037b6107a3565b6000848152602082905260409020546005820154919250906001600160a01b03166103a4610535565b6001600160a01b0316146103ca5760405162461bcd60e51b815260040161016790611163565b600081815260028301602052604090205460ff166103fa5760405162461bcd60e51b81526004016101679061102a565b60008181526002830160209081526040808320805460ff1916905560098252808320869055600a909152808220600601805460ff60b01b1916600160b11b1790555182917fb5824aff6dce0f8d1992635006fca09ed9009a7a4dd0aa2e8678594d87eade7e91a2807f902c3f482303571df54b548cf5ccfab6a428d11d87b142243af064b9fe64e2d48442604051610493929190610e57565b60405180910390a250505050565b6000806104ac6107a3565b60068101546040516370a0823160e01b81529192506001600160a01b0316906370a08231906104df903090600401610e77565b60206040518083038186803b1580156104f757600080fd5b505afa15801561050b573d6000803e3d6000fd5b505050506040513d601f19601f8201168201806040525081019061052f9190610e3f565b91505090565b60003330141561058c57600080368080601f0160208091040260200160405190810160405280939291908181526020018383808284376000920191909152505050503601516001600160a01b0316915061058f9050565b50335b90565b600061059c6107a3565b600083815260028201602052604090205490915060ff16156105d05760405162461bcd60e51b815260040161016790611098565b600082815260028201602052604090819020805460ff19166001179055600480830154600684015492516370a0823160e01b81526001600160901b03909116926001600160a01b0316916370a082319161062c91309101610e77565b60206040518083038186803b15801561064457600080fd5b505afa158015610658573d6000803e3d6000fd5b505050506040513d601f19601f8201168201806040525081019061067c9190610e3f565b101561069a5760405162461bcd60e51b815260040161016790610ff3565b600381015460048201546000916106ba916001600160901b0316836107c7565b6000818152602084815260409182902086905590519192506102809183916106e6914391889101610e57565b6040516020818303038152906040528051906020012060001c6108fd565b600061070e610948565b6001600160a01b038086166000908152602a8301602090815260408083208884528252808320938716835292905220549091508061074d575050610280565b610757818461094d565b5050505050565b610766610a63565b600401546001600160a01b031661077b610535565b6001600160a01b0316146107a15760405162461bcd60e51b815260040161016790610f6c565b565b7fc43fbe93e7d2fa4aaa084bea5009b9ebfe225aaa369cba17bf3f5347d5c7372490565b6000806107d26107a3565b600681015460058201546040519293506001600160a01b0391821692634000aea09290911690879061080a908a908990602001610e57565b6040516020818303038152906040526040518463ffffffff1660e01b815260040161083793929190610ea4565b602060405180830381600087803b15801561085157600080fd5b505af1158015610865573d6000803e3d6000fd5b505050506040513d601f19601f820116820180604052508101906108899190610df7565b6108a55760405162461bcd60e51b8152600401610167906110cf565b60008581526001820160205260408120546108c590879086903090610a87565b600087815260018401602052604081208054929350906108e4836111a3565b91905055506108f38682610ac1565b9695505050505050565b60006109076107a3565b6000848152602082815260408083205480845260028501909252909120549192509060ff166103fa5760405162461bcd60e51b81526004016101679061102a565b600090565b6000610957610948565b6000848152602582016020526040902060018101549192509061097b575050610a5f565b60008481526024830160205260409020600881015460ff161515600114806109a65750600781015415155b156109b357505050610a5f565b60018101546001600160a01b038581169116146109e25760405162461bcd60e51b815260040161016790611061565b60088101805460ff1916600117905560038101546000908152600a8401602052604090819020600901805460ff60a01b191690556004820154905186917f10e53bca620314e794d61e37932062e81c48e88233765d09da42aeb00ae4dba091610a4d91904390610e57565b60405180910390a26107578585610af4565b5050565b7fc8fcad8db84d3cc18b4c41d551ea0ee66dd599cde068d998e57d5e09332c131c90565b600084848484604051602001610aa09493929190610f48565b60408051601f19818403018152919052805160209091012095945050505050565b60008282604051602001610ad6929190610e57565b60405160208183030381529060405280519060200120905092915050565b6000610afe610948565b60008481526025820160205260409020600181015491925090610b22575050610a5f565b80548015610b4457600081815260258401602052604090206002808401549101555b60028201548015610b645760008181526025850160205260409020835490555b60008681526024850160209081526040808320600481015484526026880190925291829020915190918891610b9890610e65565b9081526020016040518091039020541415610be557600284015460048201546000908152602687016020526040908190209051610bd490610e65565b908152604051908190036020019020555b6000600185018190558085556002909401849055868452602785016020526040909320805490939092508215610c2f57600083815260278601602052604090206002808601549101555b600284015491508115610c515760008281526027860160205260409020845490555b50600086815260248501602090815260408083206001600160a01b03891684526028880183528184206004820154855290925291829020915190918891610c9790610e65565b9081526020016040518091039020541415610cf85760028401546001600160a01b0387166000908152602887016020908152604080832060048601548452909152908190209051610ce790610e65565b908152604051908190036020019020555b6000600185018190558085556002850155600481015460405188917fd309bba073dd463d9d78e92766d06da7cde7d0e6e83149168a7bc913c9ecc44291610d4191904290610e57565b60405180910390a250505050505050565b60008060408385031215610d64578182fd5b82356001600160a01b0381168114610d7a578283fd5b946020939093013593505050565b60008060208385031215610d9a578182fd5b823567ffffffffffffffff80821115610db1578384fd5b818501915085601f830112610dc4578384fd5b813581811115610dd2578485fd5b8660208083028501011115610de5578485fd5b60209290920196919550909350505050565b600060208284031215610e08578081fd5b81518015158114610e17578182fd5b9392505050565b60008060408385031215610e30578182fd5b50508035926020909101359150565b600060208284031215610e50578081fd5b5051919050565b918252602082015260400190565b651b1a5cdd195960d21b815260060190565b6001600160a01b0391909116815260200190565b6001600160a01b03929092168252602082015260400190565b600060018060a01b038516825260208481840152606060408401528351806060850152825b81811015610ee557858101830151858201608001528201610ec9565b81811115610ef65783608083870101525b50601f01601f19169290920160800195945050505050565b6020808252810182905260006001600160fb1b03831115610f2d578081fd5b60208302808560408501379190910160400190815292915050565b93845260208401929092526001600160a01b03166040830152606082015260800190565b60208082526022908201527f4c69624469616d6f6e643a204d75737420626520636f6e7472616374206f776e60408201526132b960f11b606082015260800190565b60208082526025908201527f41617665676f7463686946616365743a20506f7274616c206973206e6f7420636040820152641b1bdcd95960da1b606082015260800190565b60208082526019908201527f56726646616365743a204e6f7420656e6f756768204c494e4b00000000000000604082015260600190565b6020808252601c908201527f56726646616365743a20565246206973206e6f742070656e64696e6700000000604082015260600190565b6020808252601d908201527f4d61726b6574706c6163653a206f776e6572206e6f742073656c6c6572000000604082015260600190565b6020808252601d908201527f56726646616365743a205652462063616c6c2069732070656e64696e67000000604082015260600190565b6020808252601e908201527f56726646616365743a206c696e6b207472616e73666572206661696c65640000604082015260600190565b60208082526038908201527f41617665676f7463686946616365743a204f6e6c792061617665676f7463686960408201527f206f776e65722063616e206f70656e206120706f7274616c0000000000000000606082015260800190565b6020808252601f908201527f4f6e6c7920565246436f6f7264696e61746f722063616e2066756c66696c6c00604082015260600190565b90815260200190565b60006000198214156111c357634e487b7160e01b81526011600452602481fd5b506001019056fea26469706673582212209fbe185818bbe1210b2bcb9784b20b72eec1428713a3efec698bd63d6636618664736f6c63430008010033",
    "linkReferences": {},
    "deployedLinkReferences": {}
}